:020000040000FA
:100000000C945D000C94E0050C94B9050C948500EB
:100010000C9485000C9485000C9485000C9485004C
:100020000C9485000C9485000C9485000C9485003C
:100030000C9485000C9485000C9485000C9485002C
:100040000C946F050C9485000C9485000C9485002D
:100050000C9485000C9485000C9485000C9485000C
:100060000C9485000C9485000000000024002700FB
:100070002A0000000000250028002B0004040404CE
:100080000404040402020202020203030303030342
:10009000010204081020408001020408102001021F
:1000A00004081020000000080002010000030407FB
:1000B0000000000000000000770911241FBECFEFF0
:1000C000D8E0DEBFCDBF11E0A0E0B1E0EAEBF8E19F
:1000D00002C005900D92A837B107D9F721E0A8E733
:1000E000B1E001C01D92AD3CB207E1F710E0CDE5F3
:1000F000D0E004C02197FE010E94550CCC35D107F9
:10010000C9F70E9407060C945B0C0C940000AF9298
:10011000BF92CF92DF92EF92FF920F931F93CF93F4
:10012000DF936C017B018B01040F151FEB015E0156
:10013000AE18BF08C017D10759F06991D601ED91EB
:10014000FC910190F081E02DC6010995892B79F78A
:10015000C501DF91CF911F910F91FF90EF90DF903C
:10016000CF90BF90AF90089590E0FC01EC55FF4F09
:100170002491FC01E057FF4F3491FC01E458FF4FFC
:10018000E491EE23C9F0222339F0233001F1A8F4E1
:10019000213019F1223029F1F0E0EE0FFF1FEE5867
:1001A000FF4FA591B4918FB7F894EC91611126C0DF
:1001B00030953E233C938FBF08952730A9F0283017
:1001C000C9F0243049F7809180008F7D03C0809171
:1001D00080008F7780938000DFCF84B58F7784BDD8
:1001E000DBCF84B58F7DFBCF8091B0008F7780937C
:1001F000B000D2CF8091B0008F7DF9CF3E2BDACF07
:10020000CF93DF9390E0FC01E057FF4F2491845897
:100210009F4FFC0184918823D1F090E0880F991FB3
:10022000FC01E859FF4FA591B491FC01EE58FF4F36
:10023000C591D49161110EC09FB7F8948C91E22FB3
:10024000E0958E238C932881E223E8839FBFDF9182
:10025000CF9108958FB7F894EC91E22BEC938FBF78
:10026000F6CF3FB7F8948091890190918A01A091CF
:100270008B01B0918C0126B5A89B05C02F3F19F0CA
:100280000196A11DB11D3FBFBA2FA92F982F882716
:10029000BC01CD01620F711D811D911D42E0660FF1
:1002A000771F881F991F4A95D1F70895CF92DF9243
:1002B000EF92FF920F931F930E94310100917801FA
:1002C0001091790120917A0130917B01012B022B51
:1002D000032B29F1009178011091790120917A0185
:1002E00030917B016B017C01C01AD10AE20AF30A4A
:1002F0009701860149E5C41A4BE1D40AE108F108E7
:100300004FE6C41647E1D406E104F10440F400933B
:1003100008011093090120930A0130930B016093A7
:1003200078017093790180937A0190937B016093B7
:1003300084017093850180938601909387011F91BA
:100340000F91FF90EF90DF90CF900895CF92DF92C2
:10035000EF92FF920F931F930E94310100917C0155
:1003600010917D0120917E0130917F01012B022BA4
:10037000032B29F100917C0110917D0120917E01D8
:1003800030917F016B017C01C01AD10AE20AF30AA5
:100390009701860149E5C41A4BE1D40AE108F10846
:1003A0004FE6C41647E1D406E104F10440F400939B
:1003B0000401109305012093060130930701609317
:1003C0007C0170937D0180937E0190937F01609307
:1003D00080017093810180938201909383011F912A
:1003E0000F91FF90EF90DF90CF90089508950895BA
:1003F00090E080E008954F925F926F927F928F928B
:100400009F92AF92BF92CF92DF92EF92FF92F894B9
:10041000609184017091850180918601909187019E
:100420008090800190908101A0908201B090830122
:10043000C0900801D0900901E0900A01F0900B01F2
:1004400040900401509005016090060170900701F2
:100450007894681979098A099B090E94B10A4B01AD
:100460005C01C701B601640D751D861D971D0E94B4
:10047000AF0A20E030E040E05FE30E94660B9B01A2
:10048000AC010E9496099B01AC01C501B4010E9418
:10049000070A20E030E044EB53E40E94660B6B0156
:1004A0007C0120E030E044E353E40E94610B181625
:1004B0004CF420E030E044EB53E4C701B6010E9465
:1004C0009509EDCF20E030E044E353ECC701B601DD
:1004D0000E94020A87FF0BC020E030E044EB53E4A7
:1004E000C701B6010E9496096B017C01EBCFC701E1
:1004F000B601FF90EF90DF90CF90BF90AF909F90AC
:100500008F907F906F905F904F900895FC010190C5
:100510000020E9F73197AF01481B590BBC0185EB6F
:1005200091E00C9487008F929F92AF92BF920F93AD
:100530001F93CF93DF93CDB7DEB7A1970FB6F89493
:10054000DEBF0FBECDBF19A2423008F44AE08E01D3
:100550000F5D1F4F842E912CB12CA12CA50194016D
:100560000E94330CE62FB901CA01EA30F4F4E05DD1
:10057000D801EE938D01232B242B252B79F790E0C6
:1005800080E0109719F0CD010E948602A1960FB667
:10059000F894DEBF0FBECDBFDF91CF911F910F91B9
:1005A000BF90AF909F908F900895E95CE1CF0C943D
:1005B0008602CF93DF93EC0160E08E810E94B4004D
:1005C00061E08E810E94B40060E08E810E94B400E0
:1005D0008BE891E00197F1F7DF91CF910895CF92E9
:1005E000DF92EF92FF920F931F93CF93DF936C01F3
:1005F0007C0187E0E80EF11CD0E0C0E0062F10E09F
:10060000B8010C2E02C0759567950A94E2F76170E7
:10061000F70181917F010E94B4002196C430D10579
:1006200079F7C601DF91CF911F910F91FF90EF9065
:10063000DF90CF900C94D902CF92DF92EF92FF928D
:100640000F931F93CF93DF93EC01F62E642F8C81D1
:100650000E94B4008D818F3F19F060E00E94B400C9
:100660000F2D10E08F8584FF25C06E0187E0C80E36
:10067000D11CF12CE12CB8010E2C02C075956795A8
:100680000A94E2F76170F60181916F010E94B40053
:10069000FFEFEF1AFF0A88E0E816F10461F7CE01D8
:1006A000DF91CF911F910F91FF90EF90DF90CF904E
:1006B0000C94D902B80184E0759567958A95E1F7A5
:1006C000CE010E94EF026F2DCE01DF91CF911F91DD
:1006D0000F91FF90EF90DF90CF900C94EF0240E0ED
:1006E000682F85EB91E00C941C0381E00E946F035E
:1006F0008BE39FE10197F1F70895CF93DF9361308A
:1007000029F09091C40198609093C4016093C8014E
:100710001092C90190E49093CA018093CB01805C50
:100720008093CC0161E08091B9010E940001809129
:10073000BA018F3F19F061E00E94000161E08091F1
:10074000BB010E940001C5EBD1E09E01255B314059
:100750008091C40184FD0BC084E090E021962817AD
:10076000390744F461E08E810E940001EECF88E0F9
:1007700090E0F4CF8BE39DE00197F1F760E080918A
:10078000B9010E94B40060E08091BB010E94B400F6
:100790008091BA018F3F19F060E00E94B40080910F
:1007A000C40184FD34C063E085EB91E00E94EF0258
:1007B000CBE4D6E4CE010197F1F763E085EB91E05D
:1007C0000E94EF022197F1F763E085EB91E00E9430
:1007D000EF0283E592E00197F1F762E085EB91E0AB
:1007E0000E94EF028091C40180620E946F0384E046
:1007F0008093C5018CE00E946F030E94750382E024
:100800008093C60186E0DF91CF910C946F038062E4
:100810000E946F038BE496E40197F1F78091C40185
:1008200080620E946F0383E592E00197F1F7809167
:10083000C40180620E946F03D5CF9091C8018917CF
:1008400010F08FEF890FE82FF0E0EB54FE4F848912
:1008500080680C946F0341E00E941C0381E090E0EB
:1008600008954F925F926F927F928F929F92AF9274
:10087000BF92CF92DF92EF92FF920F931F93CF938D
:100880006B017C01742EAC019B010E94190C882322
:1008900099F080E291E0CF911F910F91FF90EF903E
:1008A000DF90CF90BF90AF909F908F907F906F9090
:1008B0005F904F900C94860246015701E894B7F878
:1008C0002FEF3FEF4FE75FE7C501B4010E94190C1E
:1008D00081110DC02FEF3FEF4FE75FE7C501B40176
:1008E0000E94020A18161CF484E291E0D4CF2FEF84
:1008F0003FEF4FE75FE4C701B6010E94610B181696
:100900001CF488E291E0C7CF2FEF3FEF4FE75FEC99
:10091000C701B6010E94020A87FDF3CF20E030E054
:10092000A901C701B6010E94020A10E000E087FF9A
:100930000CC041E06DE285EB91E00E941C03F7FAE8
:10094000F094F7F8F09401E010E0C0E060E070E0AF
:1009500080E09FE37C1641F020E030E040E251E48B
:100960000E94070ACF5FF6CFA70196010E94960961
:100970004B015C010E94800A2B013C014AE00E946D
:100980009302080F191FCC23C9F1C301B2010E94C1
:10099000AF0A9B01AC01C501B4010E9495094B014E
:1009A0005C0141E06EE285EB91E00E941C030F5F69
:1009B0001F4FC15018F120E030E040E251E4C50182
:1009C000B4010E94660B2B013C010E94800A4B017E
:1009D000B12CA12C4AE0C501B4010E949302080F7A
:1009E000191FC501B4010E94AF0A9B01AC01C301EC
:1009F000B2010E9495094B015C01DBCFC801CF9188
:100A00001F910F91FF90EF90DF90CF90BF90AF902C
:100A10009F908F907F906F905F904F900895CF92AE
:100A2000DF92EF92FF921F93CF93DF93CCE2D1E05E
:100A3000C12CD12C76018E50182F106410937C009D
:100A400080917A00806480937A0080917A0086FD9C
:100A5000FCCF6091780070917900072E000C880B14
:100A6000990B0E94B10A20E030E040EA50E40E9475
:100A7000660B20E030EC4FE754E40E94070A20E0C8
:100A800030E040E250E40E9495099B01AC010E94D5
:100A9000660B9B01AC01C701B6010E9496096B0170
:100AA0007C01219759F620E030E046E953E40E94AA
:100AB000070A0E94D90B2CE83EE24AEB5DE30E9454
:100AC000070A22E23FE648E851E40E94660BDF9104
:100AD000CF911F91FF90EF90DF90CF9008951F92DC
:100AE0000F920FB60F9211242F933F938F939F93E2
:100AF000AF93BF938091A4019091A501A091A6010D
:100B0000B091A7013091880123E0230F2D3758F5CC
:100B10000196A11DB11D209388018093A40190939B
:100B2000A501A093A601B093A7018091890190919E
:100B30008A01A0918B01B0918C010196A11DB11D7C
:100B40008093890190938A01A0938B01B0938C01CB
:100B5000BF91AF919F918F913F912F910F900FBEB9
:100B60000F901F90189526E8230F0296A11DB11D26
:100B7000D2CF1F920F920FB60F9211242F933F9353
:100B80004F935F936F937F938F939F93AF93BF9395
:100B9000EF93FF93E0910201F09103010995FF911A
:100BA000EF91BF91AF919F918F917F916F915F91E5
:100BB0004F913F912F910F900FBE0F901F9018955E
:100BC0001F920F920FB60F9211242F933F934F93C2
:100BD0005F936F937F938F939F93AF93BF93EF93A5
:100BE000FF93E0910001F09101010995FF91EF91D0
:100BF000BF91AF919F918F917F916F915F914F9135
:100C00003F912F910F900FBE0F901F901895CF938B
:100C1000DF93CDB7DEB728970FB6F894DEBF0FBECF
:100C2000CDBF789484B5826084BD84B5816084BD75
:100C300085B5826085BD85B5816085BD80916E007A
:100C4000816080936E0010928100809181008260AB
:100C500080938100809181008160809381008091E8
:100C600080008160809380008091B10084608093D7
:100C7000B1008091B00081608093B00080917A00D3
:100C8000846080937A0080917A00826080937A00F9
:100C900080917A00816080937A0080917A008068E8
:100CA00080937A001092C10060E082E00E9400010F
:100CB00060E083E00E94000161E088E00E940001A2
:100CC00060E088E00E94B40064E084E10E947D035B
:100CD0000E9475038CE291E00E94D70286E591E0C4
:100CE000909301018093000180916900836080935B
:100CF0006900E89A86EA91E09093030180930201EB
:100D0000809169008C6080936900E99A2FB7F8940C
:100D10008091A4019091A501A091A601B091A70195
:100D20002FBF8093930190939401A0939501B0936A
:100D300096010E9431014B015C0188EEC82E83E0D0
:100D4000D82EE12CF12C0E943101681979098A0909
:100D50009B09683E734081059105A8F321E0C21A02
:100D6000D108E108F10888EE880E83E0981EA11CE6
:100D7000B11CC114D104E104F10429F711E0609120
:100D800008017091090180910A0190910B01C090B6
:100D90000401D0900501E0900601F09007010E9447
:100DA000AF0A9B01AC010E9496099B01AC0160E077
:100DB00074E284E799E40E94070A2DEC3CEC4CECC9
:100DC0005DE30E94660B4B015C0126E636E646E6D3
:100DD0005FE3609110017091110180911201909177
:100DE00013010E94660B9B01AC01C501B4010E9476
:100DF00096096093100170931101809312019093F2
:100E00001301C701B6010E94AF0A9B01AC010E9409
:100E100096099B01AC0160E074E284E799E40E94CA
:100E2000070A2DEC3CEC4CEC5DE30E94660B6B0179
:100E30007C0126E636E646E65FE360910C017091A0
:100E40000D0180910E0190910F010E94660B9B0194
:100E5000AC01C701B6010E94960960930C01709322
:100E60000D0180930E0190930F0180E10E940F0508
:100E70004B015C0126E636E646E65FE36091B10190
:100E80007091B2018091B3019091B4010E94660B00
:100E90006B017C012DEC3CEC4CEC5DE3C501B40135
:100EA0000E94660B9B01AC01C701B6010E94960926
:100EB0006093B1017093B2018093B3019093B40138
:100EC00081E10E940F054B015C0126E636E646E60D
:100ED0005FE36091AD017091AE018091AF0190919F
:100EE000B0010E94660B6B017C012DEC3CEC4CECDC
:100EF0005DE3C501B4010E94660B9B01AC01C70113
:100F0000B6010E9496096093AD017093AE01809383
:100F1000AF019093B0018091AC01811142C02FB715
:100F2000F8948091A4019091A501A091A601B0919F
:100F3000A7012FBF409193015091940160919501B9
:100F400070919601841B950BA60BB70B88389341C3
:100F5000A105B10508F047C00E94FB016B017C01AF
:100F600060918D0170918E0180918F01909190011F
:100F70000E94B10AA70196010E9496090E94790A6F
:100F800060938D0170938E0180938F0190939001F7
:100F9000809191019091920101969093920180939A
:100FA00091018091AC01882309F4EBC00E94FB0100
:100FB00020919701309198014091990150919A01A7
:100FC0000E9495096B017C0120E030E044E353E48A
:100FD0000E94610B181694F520E030E044EB53E4D6
:100FE000C701B601EDCFE0909101F090920185E646
:100FF000E816F10404F160918D0170918E018091E9
:101000008F01909190010E94B10A4B015C01B701E0
:10101000FF0C880B990B0E94B10A9B01AC01C50122
:10102000B4010E94070A609397017093980180931E
:10103000990190939A011093AC01B3CF20E030E076
:1010400044E353ECC701B6010E94020A87FF0BC0BC
:1010500020E030E044EB53E4C701B6010E9496095A
:101060006B017C01EBCFC092A001D092A101E09274
:10107000A201F092A30120910C0130910D01409149
:101080000E0150910F01609110017091110180913A
:101090001201909113010E94950969837A838B83D1
:1010A0009C8360939C0170939D0180939E0190931B
:1010B0009F018090B1019090B201A090B301B090D7
:1010C000B4014090AD015090AE016090AF017090BE
:1010D000B001A3019201C501B4010E94960920E06C
:1010E00030E040E05FE30E94660B6D837E838F8378
:1010F000988720E030E040E85FE30E94610B18161B
:101100000CF0E7C0A3019201C501B4010E9495094A
:101110009F772D813E814F8158850E94070A20E0EC
:1011200030E048EC52E40E94660B4B015C01C701C1
:10113000B6019F7720E030E040EA50E40E94020AC6
:101140001816C4F069817A818B819C819F7720E099
:1011500030E040E05FE30E94020A18165CF001E014
:1011600020E030E040E251E4C501B4010E94020AEF
:1011700018160CF400E000939B01602F88E00E9499
:10118000B4002FB7F8948091A4019091A501A0918B
:10119000A601B091A7012FBF4091A8015091A901CC
:1011A0006091AA017091AB01841B950BA60BB70B44
:1011B000853F9140A105B10508F483C02FB7F8948D
:1011C0008091A4019091A501A091A601B091A701E1
:1011D0002FBF8093A8019093A901A093AA01B09377
:1011E000AB010E94750380E00E941D0488E491E039
:1011F0000E94D7026091100170911101809112013B
:101200009091130142E00E9431048BE391E00E942F
:10121000D70260910C0170910D0180910E019091A7
:101220000F0142E00E94310481E00E941D048FE31F
:1012300091E00E94D7026091A0017091A10180917C
:10124000A2019091A30141E00E94310483E491E066
:101250000E94D70260919C0170919D0180919E0136
:1012600090919F0142E00E94310482E00E941D049F
:1012700087E491E00E94D7026091B1017091B201C0
:101280008091B3019091B40140E00E9431048BE45D
:1012900091E00E94D7026091AD017091AE01809102
:1012A000AF019091B00140E00E94310483E00E94C0
:1012B0001D048091AC01811110C080E591E00E9475
:1012C000D70280E090E0892B09F459CD0E940000FC
:1012D00056CD812C912C54012ACF80919B018823DB
:1012E00019F08CE591E0EBCF88E691E0E8CFE5EBF3
:1012F000F1E01382128288E191E09183808314826D
:101300008FEF85838AE0868384E0878385E080870A
:1013100086E0818787E08287138614861586168685
:10132000178661E080E10C947D035058BB27AA2703
:101330000E94AD090C94270B0E94190B38F00E94F3
:10134000200B20F039F49F3F19F426F40C94160B6F
:101350000EF4E095E7FB0C94100BE92F0E94380B7C
:1013600058F3BA17620773078407950720F079F4DA
:10137000A6F50C945A0B0EF4E0950B2EBA2FA02D67
:101380000B01B90190010C01CA01A0011124FF2732
:10139000591B99F0593F50F4503E68F11A16F0402D
:1013A000A22F232F342F4427585FF3CF469537952C
:1013B0002795A795F0405395C9F77EF41F16BA0BF1
:1013C000620B730B840BBAF09150A1F0FF0FBB1F9F
:1013D000661F771F881FC2F70EC0BA0F621F731FE8
:1013E000841F48F4879577956795B795F7959E3F45
:1013F00008F0B0CF9395880F08F09927EE0F9795D6
:10140000879508950E94EC0A08F481E008950E94EF
:101410001B0A0C94270B0E94200B58F00E94190BFA
:1014200040F029F45F3F29F00C94100B51110C94FB
:101430005B0B0C94160B0E94380B68F39923B1F3E5
:10144000552391F3951B550BBB27AA2762177307EA
:10145000840738F09F5F5F4F220F331F441FAA1F7E
:10146000A9F335D00E2E3AF0E0E832D0915050403A
:10147000E695001CCAF72BD0FE2F29D0660F771FE8
:10148000881FBB1F261737074807AB07B0E809F0CE
:10149000BB0B802DBF01FF2793585F4F3AF09E3F53
:1014A000510578F00C94100B0C945B0B5F3FE4F348
:1014B000983ED4F3869577956795B795F7959F5F96
:1014C000C9F7880F911D9695879597F90895E1E0E2
:1014D000660F771F881FBB1F621773078407BA0741
:1014E00020F0621B730B840BBA0BEE1F88F7E0959C
:1014F00008950E94800A6894B1110C945B0B0895C2
:101500000E94400B88F09F5798F0B92F9927B75148
:10151000B0F0E1F0660F771F881F991F1AF0BA9597
:10152000C9F714C0B13091F00E945A0BB1E0089590
:101530000C945A0B672F782F8827B85F39F0B93F82
:10154000CCF3869577956795B395D9F73EF490954A
:101550008095709561957F4F8F4F9F4F0895E894C8
:1015600009C097FB3EF490958095709561957F4FEB
:101570008F4F9F4F9923A9F0F92F96E9BB27939599
:10158000F695879577956795B795F111F8CFFAF4A9
:10159000BB0F11F460FF1BC06F5F7F4F8F4F9F4FDA
:1015A00016C0882311F096E911C0772321F09EE838
:1015B000872F762F05C0662371F096E8862F70E09E
:1015C00060E02AF09A95660F771F881FDAF7880F78
:1015D0009695879597F90895990F0008550FAA0BCE
:1015E000E0E8FEEF16161706E807F907C0F0121636
:1015F0001306E407F50798F0621B730B840B950B39
:1016000039F40A2661F0232B242B252B21F408958D
:101610000A2609F4A140A6958FEF811D811D08952A
:1016200097F99F6780E870E060E008959FEF80EC95
:10163000089500240A941616170618060906089538
:1016400000240A9412161306140605060895092E9E
:101650000394000C11F4882352F0BB0F40F4BF2B0D
:1016600011F460FF04C06F5F7F4F8F4F9F4F08954D
:1016700057FD9058440F551F59F05F3F71F0479543
:10168000880F97FB991F61F09F3F79F08795089528
:10169000121613061406551FF2CF4695F1DF08C047
:1016A000161617061806991FF1CF86957105610564
:1016B00008940895E894BB2766277727CB0197F90C
:1016C00008950E94EC0A08F48FEF08950E94790BA8
:1016D0000C94270B0E94190B38F00E94200B20F06D
:1016E000952311F00C94100B0C94160B11240C94F0
:1016F0005B0B0E94380B70F3959FC1F3950F50E080
:10170000551F629FF001729FBB27F00DB11D639FB3
:10171000AA27F00DB11DAA1F649F6627B00DA11D59
:10172000661F829F2227B00DA11D621F739FB00DFF
:10173000A11D621F839FA00D611D221F749F33276F
:10174000A00D611D231F849F600D211D822F762F08
:101750006A2F11249F5750409AF0F1F088234AF0E5
:10176000EE0FFF1FBB1F661F771F881F9150504051
:10177000A9F79E3F510580F00C94100B0C945B0B65
:101780005F3FE4F3983ED4F3869577956795B795D8
:10179000F795E7959F5FC1F7FE2B880F911D9695F2
:1017A000879597F9089519F416F40C94160B0C9478
:1017B0001E0C0E94400BB8F39923C9F3B6F39F5750
:1017C000550B87FF0E942C0C0024A0E640EA9001F4
:1017D00080585695979528F4805C660F771F881F70
:1017E00020F026173707480730F4621B730B840B71
:1017F000202931294A2BA6951794079420253125B5
:101800004A2758F7660F771F881F20F026173707DB
:10181000480730F4620B730B840B200D311D411D02
:10182000A09581F7B901842F9158880F96958795D7
:1018300008950E94EC0A880B990B08959F3F31F0A0
:10184000915020F4879577956795B795880F911DEE
:101850009695879597F9089591505040660F771F98
:10186000881FD2F70895A1E21A2EAA1BBB1BFD0107
:101870000DC0AA1FBB1FEE1FFF1FA217B307E4076F
:10188000F50720F0A21BB30BE40BF50B661F771FC7
:10189000881F991F1A9469F76095709580959095A7
:1018A0009B01AC01BD01CF010895EE0FFF1F059014
:1018B000F491E02D0994F894FFCFF601F60110277A
:1018C00000001027000000004842000048420000CD
:1018D00000002B048700F801F7016E616E00696E4D
:1018E00066006F76660053545320436F6E74726FB8
:1018F0006C6C65720020423A0050483A0020533A1E
:101900000056413A002056423A0043414C49425267
:101910004154494E470053594E4320454E41424C95
:1019200045005452414E5346455220424C4F434B82
:021930000000B5
:107E0000112484B714BE81FFF0D085E080938100F7
:107E100082E08093C00088E18093C10086E0809377
:107E2000C20080E18093C4008EE0C9D0259A86E02C
:107E300020E33CEF91E0309385002093840096BBD3
:107E4000B09BFECF1D9AA8958150A9F7CC24DD24C4
:107E500088248394B5E0AB2EA1E19A2EF3E0BF2EE7
:107E6000A2D0813461F49FD0082FAFD0023811F036
:107E7000013811F484E001C083E08DD089C08234E0
:107E800011F484E103C0853419F485E0A6D080C0E4
:107E9000853579F488D0E82EFF2485D0082F10E0AE
:107EA000102F00270E291F29000F111F8ED06801E7
:107EB0006FC0863521F484E090D080E0DECF843638
:107EC00009F040C070D06FD0082F6DD080E0C81688
:107ED00080E7D80618F4F601B7BEE895C0E0D1E017
:107EE00062D089930C17E1F7F0E0CF16F0E7DF06D8
:107EF00018F0F601B7BEE89568D007B600FCFDCFD4
:107F0000A601A0E0B1E02C9130E011968C91119780
:107F100090E0982F8827822B932B1296FA010C0160
:107F200087BEE89511244E5F5F4FF1E0A038BF0790
:107F300051F7F601A7BEE89507B600FCFDCF97BE46
:107F4000E89526C08437B1F42ED02DD0F82E2BD052
:107F50003CD0F601EF2C8F010F5F1F4F84911BD097
:107F6000EA94F801C1F70894C11CD11CFA94CF0C13
:107F7000D11C0EC0853739F428D08EE10CD085E9AC
:107F80000AD08FE07ACF813511F488E018D01DD067
:107F900080E101D065CF982F8091C00085FFFCCF94
:107FA0009093C60008958091C00087FFFCCF809118
:107FB000C00084FD01C0A8958091C6000895E0E648
:107FC000F0E098E1908380830895EDDF803219F02E
:107FD00088E0F5DFFFCF84E1DECF1F93182FE3DFCA
:107FE0001150E9F7F2DF1F91089580E0E8DFEE27F6
:047FF000FF270994CA
:027FFE00040479
:00000001FF
