:020000040000FA
:100000000C9462000C948A000C948A000C948A0070
:100010000C948A000C948A000C948A000C948A0038
:100020000C948A000C948A000C948A000C948A0028
:100030000C948A000C948A000C948A000C948A0018
:100040000C94BB060C948A000C948A000C948A00D1
:100050000C948A000C948A000C948A000C948A00F8
:100060000C948A000C948A000000000024002700F1
:100070002A0000000000250028002B0000000000DE
:1000800023002600290004040404040404040202DA
:100090000202020203030303030301020408102007
:1000A0004080010204081020010204081020000012
:1000B0000008000201000003040700000000000027
:1000C0000000790B11241FBECFEFD8E0DEBFCDBFFB
:1000D00014E0A0E0B1E0ECE4FCE102C005900D9278
:1000E000A830B107D9F724E0A8E0B4E001C01D9220
:1000F000AB33B207E1F710E0C2E6D0E004C02197CD
:10010000FE010E941E0EC136D107C9F70E940507E5
:100110000C94240E0C940000AF92BF92CF92DF9209
:10012000EF92FF920F931F93CF93DF936C017B01AC
:100130008B01040F151FEB015E01AE18BF08C0173D
:10014000D10759F06991D601ED91FC910190F081B0
:10015000E02DC6010995892B79F7C501DF91CF9173
:100160001F910F91FF90EF90DF90CF90BF90AF90D5
:100170000895833081F028F4813099F08230A9F01D
:1001800008958730A9F08830C9F08430B1F48091A7
:1001900080008F7D03C0809180008F7780938000E6
:1001A000089584B58F7784BD089584B58F7DFBCF86
:1001B0008091B0008F778093B00008958091B00057
:1001C0008F7DF9CFCF93DF93282F30E0F901E255EF
:1001D000FF4F8491F901E656FF4FD491F901EA5798
:1001E000FF4FC491CC23A1F081110E94B900EC2FE4
:1001F000F0E0EE0FFF1FE458FF4FA591B491EC9192
:10020000ED2381E090E009F480E0DF91CF91089543
:1002100080E090E0FACF1F93CF93DF93282F30E058
:10022000F901E255FF4F8491F901E656FF4FD49151
:10023000F901EA57FF4FC491CC23A9F0162F811181
:100240000E94B900EC2FF0E0EE0FFF1FEE58FF4FB9
:10025000A591B4918FB7F894EC91111108C0D09585
:10026000DE23DC938FBFDF91CF911F910895DE2BAA
:10027000F8CFCF93DF9390E0FC01E656FF4F249137
:100280008A579F4FFC0184918823D1F090E0880F1A
:10029000991FFC01E859FF4FA591B491FC01EE585C
:1002A000FF4FC591D491623071F49FB7F8943C919F
:1002B000822F809583238C93E8812E2B28839FBFE8
:1002C000DF91CF9108958FB7F894EC912E2B2C935A
:1002D0008FBFF6CF3FB7F89480910D0490910E0434
:1002E000A0910F04B091100426B5A89B05C02F3F24
:1002F00019F00196A11DB11D3FBFBA2FA92F982F4C
:100300008827BC01CD01620F711D811D911D42E046
:10031000660F771F881F991F4A95D1F708958F920E
:100320009F92AF92BF92CF92DF92EF92FF924B01DA
:100330005C010E946A016B017C010E946A016C19D8
:100340007D098E099F09683E734081059105A8F3D8
:1003500021E0821A9108A108B10888EEC80E83E056
:10036000D81EE11CF11C81149104A104B10429F7E9
:10037000FF90EF90DF90CF90BF90AF909F908F90C5
:100380000895089590E080E00895FC010190002018
:10039000E9F73197AF01481B590BBC0183E294E0A8
:1003A0000C948C008F929F92AF92BF920F931F93E9
:1003B000CF93DF93CDB7DEB7A1970FB6F894DEBF2A
:1003C0000FBECDBF19A2423008F44AE08E010F5D86
:1003D0001F4F842E912CB12CA12CA50194010E94B9
:1003E000E80DE62FB901CA01EA30F4F4E05DD80166
:1003F000EE938D01232B242B252B79F790E080E0C1
:10040000109719F0CD010E94C501A1960FB6F8947E
:10041000DEBF0FBECDBFDF91CF911F910F91BF9077
:10042000AF909F908F900895E95CE1CF009711F015
:100430000C94C50190E080E00895CF93DF93EC0128
:1004400060E08E810E940B0161E08E810E940B01B1
:1004500060E08E810E940B018BE891E00197F1F73B
:10046000DF91CF910895CF92DF92EF92FF920F9399
:100470001F93CF93DF936C017C0187E0E80EF11CA2
:10048000D0E0C0E0062F10E0B8010C2E02C0759538
:1004900067950A94E2F76170F70181917F010E94EC
:1004A0000B012196C430D10579F7C601DF91CF91B8
:1004B0001F910F91FF90EF90DF90CF900C941D0251
:1004C000CF92DF92EF92FF920F931F93CF93DF9320
:1004D000EC01F62E642F8C810E940B018D818F3FE1
:1004E00019F060E00E940B010F2D10E08F8584FF52
:1004F00025C06E0187E0C80ED11CF12CE12CB8019B
:100500000E2C02C0759567950A94E2F76170F601AA
:1005100081916F010E940B01FFEFEF1AFF0A88E043
:10052000E816F10461F7CE01DF91CF911F910F9191
:10053000FF90EF90DF90CF900C941D02B80184E003
:10054000759567958A95E1F7CE010E9433026F2D6C
:10055000CE01DF91CF911F910F91FF90EF90DF902F
:10056000CF900C94330240E0682F83E294E00C9427
:10057000600281E00E94B3028BE39FE10197F1F7F3
:100580000895CF93DF93613029F090913204986001
:1005900090933204609336041092370490E4909361
:1005A000380480933904805C80933A0461E0809140
:1005B00027040E943901809128048F3F19F061E0DF
:1005C0000E94390161E0809129040E943901C3E24F
:1005D000D4E09E01235234408091320484FD0BC04C
:1005E00084E090E021962817390744F461E08E8179
:1005F0000E943901EECF88E090E0F4CF8BE39DE0DC
:100600000197F1F760E0809127040E940B0160E000
:10061000809129040E940B01809128048F3F19F0DA
:1006200060E00E940B018091320484FD34C063E0DD
:1006300083E294E00E943302CBE4D6E4CE0101973A
:10064000F1F763E083E294E00E9433022197F1F72F
:1006500063E083E294E00E94330283E592E0019735
:10066000F1F762E083E294E00E9433028091320469
:1006700080620E94B30284E0809333048CE00E9485
:10068000B3020E94B90282E08093340486E0DF91D5
:10069000CF910C94B30280620E94B3028BE496E483
:1006A0000197F1F78091320480620E94B30283E5E2
:1006B00092E00197F1F78091320480620E94B302C8
:1006C000D5CF90913604691710F06FEF690FE62FC0
:1006D000F0E0ED5DFB4F9489890F80680C94B302C4
:1006E0000E94B90260E080E00E9461038EEA91E01E
:1006F0000E94160261E080E00E94610380911B0469
:1007000090911C04892B41F183E691E00E9416022E
:1007100062E080E00E94610380911B0490911C04C0
:100720000197E9F084E891E00E94160263E080E01E
:100730000E94610380911B0490911C04029791F028
:1007400087E991E00E9416028091110481110DC089
:1007500085EA91E00C94160282E591E0D7CF84E718
:1007600091E0E2CF84E991E0EDCF8AE991E0F2CF28
:10077000CF93DF93C0911B04D0911C040E94B90257
:1007800060E080E00E9461038EE08C9FF0018D9F0D
:10079000F00D1124E050FF4F808191810E941602DC
:1007A00085E192E00E94160261E080E00E94610310
:1007B0008091190490911A04892B11F18AEC91E02F
:1007C0000E94160262E080E00E9461038091190499
:1007D00090911A040197B9F089EE91E00E941602F7
:1007E00063E080E00E9461038091190490911A04F3
:1007F000029761F087E092E0DF91CF910C941602AE
:100800008BEB91E0DDCF89ED91E0E8CF89EF91E0CE
:10081000F3CF0F931F93CF93DF930E94B90260E051
:1008200080E00E9461038FE192E00E94160200E0E6
:1008300011E0D0E0C0E06C2F6F5F80E00E946103A8
:1008400080911B0490911C048C179D07F9F087E997
:1008500091E00E941602F801808191810E941602A7
:1008600080911304909114048C179D0721F485EB5B
:1008700092E00E9416022196025F1F4FC330D105FD
:10088000D1F6DF91CF911F910F91089584E991E006
:10089000E0CF0F931F93CF93DF930E94B90260E0E4
:1008A00080E00E9461038CE292E00E94160210E058
:1008B00000E0C0911D04D0911E04C00FD11FC530AF
:1008C000D105ECF461E0600F80E00E94610380914B
:1008D0001F04909120048C179D07B1F087E991E0E7
:1008E0000E941602CC0FDD1FC45CDE4F8881998107
:1008F0000E9416020F5F1F4F03301105D1F6DF91E2
:10090000CF911F910F91089584E991E0E9CF41E0E3
:100910000E94600281E090E008954F925F926F9292
:100920007F928F929F92AF92BF92CF92DF92EF927F
:10093000FF920F931F93CF936B017C01742EAC0138
:100940009B010E94CF0D882399F086E392E0CF911E
:100950001F910F91FF90EF90DF90CF90BF90AF90DD
:100960009F908F907F906F905F904F900C94C501F7
:1009700046015701E894B7F82FEF3FEF4FE75FE7E5
:10098000C501B4010E94CF0D81110DC02FEF3FEFC3
:100990004FE75FE7C501B4010E94050C18161CF46F
:1009A0008AE392E0D4CF2FEF3FEF4FE75FE4C70138
:1009B000B6010E945D0D18161CF48EE392E0C7CFBD
:1009C0002FEF3FEF4FE75FECC701B6010E94050C28
:1009D00087FDF3CF20E030E0A901C701B6010E94F6
:1009E000050C10E000E087FF0CC041E06DE283E2FF
:1009F00094E00E946002F7FAF094F7F8F09401E0B6
:100A000010E0C0E060E070E080E09FE37C1641F021
:100A100020E030E040E251E40E940A0CCF5FF6CFC4
:100A2000A70196010E94990B4B015C010E947C0C6E
:100A30002B013C014AE00E94D201080F191FCC2370
:100A4000C9F1C301B2010E94AB0C9B01AC01C5010D
:100A5000B4010E94980B4B015C0141E06EE283E21D
:100A600094E00E9460020F5F1F4FC15018F120E018
:100A700030E040E251E4C501B4010E94620D2B0157
:100A80003C010E947C0C4B01B12CA12C4AE0C50119
:100A9000B4010E94D201080F191FC501B4010E94C0
:100AA000AB0C9B01AC01C301B2010E94980B4B013E
:100AB0005C01DBCFC801CF911F910F91FF90EF90A8
:100AC000DF90CF90BF90AF909F908F907F906F906E
:100AD0005F904F900895CF93C82F0E94B90260E0B5
:100AE00080E00E94610385E592E0CC2311F082E46E
:100AF00092E00E94160261E080E00E946103CC2334
:100B0000E1F060912E0170912F0180913001909160
:100B1000310141E00E948D048AE692E0CC2311F07D
:100B200087E692E00E94160263E080E00E94610383
:100B30008DE692E0CF910C94160260912A0170919B
:100B40002B0180912C0190912D01E3CF0E94B902DD
:100B500060E080E00E9461038BEA92E00E9416024E
:100B600061E080E00E94610380911B0490911C046D
:100B7000892BC1F187E892E00E94160260912E0154
:100B800070912F01809130019091310141E00E94DC
:100B90008D0488E692E00E94160262E080E00E94E6
:100BA000610380911B0490911C040197F1F08FE97F
:100BB00092E00E94160260912A0170912B018091AF
:100BC0002C0190912D0141E00E948D048BE692E072
:100BD0000E94160263E080E00E94610388EB92E0CD
:100BE0000C9416028BE792E0C7CF83E992E0E1CF45
:100BF000CF93DF9300D000D000D0CDB7DEB786E032
:100C0000E6E3F1E0DE01119601900D928A95E1F79D
:100C10000E94B90260E080E00E946103E091190443
:100C2000F0911A04EE0FFF1F81E090E08C0F9D1FE2
:100C3000E80FF91F808191810E94160261E080E037
:100C40000E9461036091150470911604809117044D
:100C50009091180441E00E948D04809119049091B4
:100C60001A040297A1F087E692E00E94160263E060
:100C700080E00E9461038DE692E026960FB6F8941C
:100C8000DEBF0FBECDBFDF91CF910C9416028AE676
:100C900092E0EBCF0E94B90260E080E00E94610325
:100CA00080911104811142C08DE093E00E941602F0
:100CB00061E080E00E9461038EE193E00E941602F1
:100CC00062E080E00E9461038CE293E00E941602E1
:100CD00080911104882369F160912E0170912F0198
:100CE000809130019091310141E00E948D0481E3B7
:100CF00093E00E94160280911104882359F16091BB
:100D00002A0170912B0180912C0190912D0140E0DE
:100D10000E948D048BE692E00E94160263E080E060
:100D20000E94610386E393E00C9416028EEF92E03A
:100D3000BDCF80911304909114042EE0289FF00100
:100D4000299FF00D1124E050FF4F6281738184814F
:100D50009581CACF80911304909114042EE0289FAE
:100D6000F001299FF00D1124E050FF4F628573853B
:100D700084859585CCCF1F920F920FB60F921124C8
:100D80002F933F938F939F93AF93BF9380910904C9
:100D900090910A04A0910B04B0910C0430910804C6
:100DA00023E0230F2D3758F50196A11DB11D209387
:100DB00008048093090490930A04A0930B04B09351
:100DC0000C0480910D0490910E04A0910F04B09139
:100DD00010040196A11DB11D80930D0490930E0483
:100DE000A0930F04B0931004BF91AF919F918F9186
:100DF0003F912F910F900FBE0F901F90189526E8EE
:100E0000230F0296A11DB11DD2CFCF93DF9300D047
:100E100000D0CDB7DEB7789484B5826084BD84B548
:100E2000816084BD85B5826085BD85B5816085BDE5
:100E300080916E00816080936E001092810080919D
:100E40008100826080938100809181008160809325
:100E50008100809180008160809380008091B1004A
:100E600084608093B1008091B00081608093B00075
:100E700080917A00846080937A0080917A00826009
:100E800080937A0080917A00816080937A008091CB
:100E90007A00806880937A001092C10064E084E157
:100EA0000E94C10262E089E00E94390162E088E0AC
:100EB0000E94390162E081E00E94390162E080E035
:100EC0000E9439010E94B90260E082E00E94610341
:100ED0008CE593E00E94160262E081E00E946103CB
:100EE0008EE693E00E9416026CED75E080E090E0E3
:100EF0000E948F010E944A0653E0E52EF12C63E028
:100F0000C62ED12C04E010E081E00E94E2004C01EA
:100F100021E02C83892B09F41C8280E00E94E200EE
:100F20005C0141E04983892B09F4198289E00E9420
:100F3000E2003C0181E08A836114710409F41A82A1
:100F400088E00E94E20055245394009709F4512C44
:100F500020913501222321F021E0892809F020E0A9
:100F600030913401332321F031E0AB2809F030E037
:100F700040903301442029F044244394672809F029
:100F8000412CE0913201EB83EE2329F0F1E0FB8369
:100F9000892B09F01B82211129C031112BC044205B
:100FA00079F08091210490912204009709F070C19A
:100FB00081E090E090932204809321040E944904F0
:100FC000FB81FF2309F445C3809121049091220401
:100FD000009709F43EC38130910509F031C31092A6
:100FE0002204109221040E944A0633C38FEF9FEF20
:100FF000332311F081E090E060912104709122048C
:101000006130710559F520911F0430912004820F41
:10101000931F059665E070E00E94D40D9093200424
:1010200080931F0420911D0430911E0482179307A2
:1010300024F490931E0480931D0420911D0430918C
:101040001E042E5F3F4F281739072CF40297909308
:101050001E0480931D040E944904A1CF63307105D2
:1010600081F420911B0430911C04820F931F03967E
:101070000E94D40D90931C0480931B040E940904C9
:101080008ECF6430710589F42091190430911A04CF
:10109000820F931F0396B7010E94D40D90931A04F8
:1010A000809319040E94B8037ACF6630710589F4E1
:1010B00020911B0430911C04820F931F0396B701EB
:1010C0000E94D40D90931C0480931B040E94700313
:1010D00066CF6930710591F420911B0430911C0496
:1010E000820F931F029662E070E00E94D40D9093ED
:1010F0001C0480931B040E94A60551CF6530710526
:1011000009F047C06DEC7CEC8CEC9DE3211104C030
:101110006DEC7CEC8CEC9DEB209115043091160469
:1011200040911704509118040E94990B1B013C0137
:1011300020E030E0A9010E94050C87FD25C08091C8
:10114000190490911A04812C912C48ECA42E02973A
:1011500011F030E7A32E22E4B22E9401A501B101D3
:10116000C3010E945D0D181614F041015301C40122
:10117000D5018093150490931604A0931704B0939F
:1011800018040E94F8050BCF812C912CA12CB12CB6
:10119000EECF67307105E9F56DEC7CEC8CEC9DE3EE
:1011A000211104C06DEC7CEC8CEC9DEB20912E01A8
:1011B00030912F0140913001509131010E94990BE3
:1011C0004B015C0120E030E0A9010E94050C87FD85
:1011D0001CC020E030E040E752E4C501B4010E94A9
:1011E0005D0D181634F4812C912C90E7A92E92E411
:1011F000B92E80922E0190922F01A0923001B092D0
:10120000310181E00E946B05CACE812C912C5401E2
:10121000F0CF6830710509F0C2CE6DEC7CEC8CEC3F
:101220009DE3211104C06DEC7CEC8CEC9DEB2091D6
:101230002A0130912B0140912C0150912D010E94E7
:10124000990B4B015C0120E030E0A9010E94050CE4
:1012500087FD1AC020E030E040EF51E4C501B40141
:101260000E945D0D181634F4812C912C80EFA82E6D
:1012700081E4B82E80922A0190922B01A0922C0139
:10128000B0922D0180E0BECF812C912C5401F2CF81
:101290008130910509F0D6C080911F0490912004FF
:1012A0008230910509F4B2C00CF05CC0009709F4DB
:1012B0007FC0019709F084CEE2E0F0E0F0932204D1
:1012C000E09321040E94B90260E080E00E94610383
:1012D00080911104882309F472C08EE393E00E9488
:1012E000160261E080E00E9461038EE793E00E94B5
:1012F000160280911104882309F464C060912E01C4
:1013000070912F01809130019091310141E00E9454
:101310008D0488E692E00E94160262E080E00E945E
:10132000610386E893E00E941602809111048823ED
:1013300009F45AC060912A0170912B0180912C010F
:1013400090912D0141E00E948D048BE692E00E9475
:10135000160263E080E00E9461038EE893E00E9441
:1013600016022ECE8330910509F45FC0049709F070
:1013700027CE8AE090E090932204809321040E947B
:10138000B90260E080E00E94610388E993E00E9476
:10139000160261E080E00E94610384EA93E00E940B
:1013A000160262E080E00E94610380EB93E0CFCF01
:1013B00010922204109221040E944A0601CE80E578
:1013C00093E08DCF20911304309114044EE0429F9E
:1013D000C001439F900D112480509F4FFC016281FA
:1013E00073818481958192CF2091130430911404EC
:1013F0004EE0429FC001439F900D112480509F4FAB
:10140000FC0162857385848595859CCFD0922204EA
:10141000C0922104809113049091140490931C04B1
:1014200080931B040E940904CBCD86E090E090934A
:1014300022048093210410921C0410921B040E9429
:101440007003BECD8330910599F480911B04909177
:101450001C04909314048093130410921A041092A5
:10146000190410932204009321040E94B803A8CD0C
:101470008430910509F044C020911B0430911C0474
:101480008091190490911A044EE00097E9F4429F6C
:10149000C001439F900D112480509F4FFC01828119
:1014A0009381A481B5818093150490931604A09331
:1014B0001704B093180485E090E090932204809381
:1014C00021040E94F8057CCD019769F4429FC00178
:1014D000439F900D112480509F4FFC01868197817E
:1014E000A085B185E0CF429FC001439F900D11249C
:1014F00080509F4FFC0182859385A485B585D3CF0D
:1015000085309105E1F520911B0430911C048091F8
:10151000190490911A044091150450911604609199
:10152000170470911804EEE0009769F4E29FC0017F
:10153000E39F900D112480509F4FFC014283538301
:10154000648375838ECF019769F4E29FC001E39FA6
:10155000900D112480509F4FFC0146835783608774
:1015600071877FCFE29FC001E39F900D11248050CF
:101570009F4FFC01428753876487758772CF8630FF
:10158000910571F580911B0490911C04009761F402
:101590001092120487E090E090932204809321043B
:1015A00081E00E946B050CCD019751F4109212045A
:1015B00088E090E0909322048093210480E0F1CFB2
:1015C00081E08093110410921C0410921B04E9E046
:1015D000F0E0F0932204E09321040E94A605F0CCF1
:1015E00089309105B1F481E08093120480911B044D
:1015F00090911C0427E030E0892B11F028E030E0C6
:10160000309322042093210481E027303105B1F684
:10161000C8CF9C01275031092230310508F04FC056
:101620002091120489E090E0211102C086E090E050
:101630009093220480932104222309F400CFCDCF7C
:1016400084309105F9F4D0922204C09221040E94C2
:1016500009049C8190933501E981E0933401FA817A
:10166000F09333015092320164E170E080E090E049
:101670000E948F0180E090E0892B09F445CC0E9404
:10168000000040CC85309105E9F4109322040093CA
:1016900021040E94B803DDCF0E947003DACF0997BE
:1016A00029F4109211041092120499CC81E090E078
:1016B00090932204809321040E944904CACF2B8175
:1016C000222339F29C01275031092230310538F7A5
:1016D0002091120489E090E0211102C086E090E0A0
:1016E00090932204809321042223B1F20E94A60544
:1016F000B0CFE3E2F4E0138212828AE491E09183B6
:10170000808383E084838FEF858382E0868384E017
:10171000878385E0808786E0818787E082871386DC
:10172000148615861686178661E080E10C94C10246
:101730005058BB27AA270E94B00B0C94230D0E947F
:10174000150D38F00E941C0D20F039F49F3F19F45C
:1017500026F40C94120D0EF4E095E7FB0C940C0D9E
:10176000E92F0E94340D58F3BA17620773078407F4
:10177000950720F079F4A6F50C94560D0EF4E0953B
:101780000B2EBA2FA02D0B01B90190010C01CA013B
:10179000A0011124FF27591B99F0593F50F4503EE6
:1017A00068F11A16F040A22F232F342F4427585FD8
:1017B000F3CF469537952795A795F0405395C9F7F0
:1017C0007EF41F16BA0B620B730B840BBAF09150A8
:1017D000A1F0FF0FBB1F661F771F881FC2F70EC047
:1017E000BA0F621F731F841F48F48795779567951A
:1017F000B795F7959E3F08F0B0CF9395880F08F006
:101800009927EE0F9795879508950E94E80C08F4A4
:1018100081E008950E941E0C0C94230D0E941C0D63
:1018200058F00E94150D40F029F45F3F29F00C9408
:101830000C0D51110C94570D0C94120D0E94340D87
:1018400068F39923B1F3552391F3951B550BBB27EF
:10185000AA2762177307840738F09F5F5F4F220F34
:10186000331F441FAA1FA9F335D00E2E3AF0E0E82B
:1018700032D091505040E695001CCAF72BD0FE2F75
:1018800029D0660F771F881FBB1F26173707480709
:10189000AB07B0E809F0BB0B802DBF01FF279358C1
:1018A0005F4F3AF09E3F510578F00C940C0D0C946C
:1018B000570D5F3FE4F3983ED4F38695779567958F
:1018C000B795F7959F5FC9F7880F911D96958795F6
:1018D00097F90895E1E0660F771F881FBB1F621715
:1018E00073078407BA0720F0621B730B840BBA0BD3
:1018F000EE1F88F7E09508950E943C0D88F09F57F1
:1019000098F0B92F9927B751B0F0E1F0660F771F23
:10191000881F991F1AF0BA95C9F714C0B13091F019
:101920000E94560DB1E008950C94560D672F782F44
:101930008827B85F39F0B93FCCF3869577956795DE
:10194000B395D9F73EF490958095709561957F4F4A
:101950008F4F9F4F0895E89409C097FB3EF49095F0
:101960008095709561957F4F8F4F9F4F9923A9F078
:10197000F92F96E9BB279395F69587957795679507
:10198000B795F111F8CFFAF4BB0F11F460FF1BC04B
:101990006F5F7F4F8F4F9F4F16C0882311F096E9DE
:1019A00011C0772321F09EE8872F762F05C066238C
:1019B00071F096E8862F70E060E02AF09A95660F45
:1019C000771F881FDAF7880F9695879597F90895FE
:1019D000990F0008550FAA0BE0E8FEEF1616170640
:1019E000E807F907C0F012161306E407F50798F0A8
:1019F000621B730B840B950B39F40A2661F0232BC1
:101A0000242B252B21F408950A2609F4A140A6953C
:101A10008FEF811D811D089597F99F6780E870E021
:101A200060E008959FEF80EC089500240A94161654
:101A3000170618060906089500240A9412161306BC
:101A4000140605060895092E0394000C11F488234A
:101A500052F0BB0F40F4BF2B11F460FF04C06F5F66
:101A60007F4F8F4F9F4F089557FD9058440F551F3C
:101A700059F05F3F71F04795880F97FB991F61F010
:101A80009F3F79F087950895121613061406551F87
:101A9000F2CF4695F1DF08C0161617061806991FF3
:101AA000F1CF86957105610508940895E894BB27E8
:101AB00066277727CB0197F908950E94E80C08F470
:101AC0008FEF08950E94750D0C94230D0E94150D43
:101AD00038F00E941C0D20F0952311F00C940C0D91
:101AE0000C94120D11240C94570D0E94340D70F3B8
:101AF000959FC1F3950F50E0551F629FF001729FB3
:101B0000BB27F00DB11D639FAA27F00DB11DAA1FC1
:101B1000649F6627B00DA11D661F829F2227B00D0E
:101B2000A11D621F739FB00DA11D621F839FA00D99
:101B3000611D221F749F3327A00D611D231F849FE9
:101B4000600D211D822F762F6A2F11249F57504040
:101B50009AF0F1F088234AF0EE0FFF1FBB1F661FBB
:101B6000771F881F91505040A9F79E3F510580F084
:101B70000C940C0D0C94570D5F3FE4F3983ED4F396
:101B8000869577956795B795F795E7959F5FC1F728
:101B9000FE2B880F911D9695879597F908950E94C1
:101BA000E80C880B990B089597FB072E16F4009408
:101BB00007D077FD09D00E940A0E07FC05D03EF43D
:101BC000909581959F4F0895709561957F4F0895E9
:101BD000A1E21A2EAA1BBB1BFD010DC0AA1FBB1F31
:101BE000EE1FFF1FA217B307E407F50720F0A21BA3
:101BF000B30BE40BF50B661F771F881F991F1A9410
:101C000069F760957095809590959B01AC01BD0139
:101C1000CF010895AA1BBB1B51E107C0AA1FBB1F20
:101C2000A617B70710F0A61BB70B881F991F5A9568
:101C3000A9F780959095BC01CD010895EE0FFF1F87
:101C40000590F491E02D0994F894FFCFF1036666B6
:101C500066419A9959410000A041F9039A9961415E
:101C6000CDCC5C4100007041FD0333336B4100007B
:101C700058410000C8410000A0400000404101015F
:101C80000101CB02DC02EE02BA03BF03CB03D8038F
:101C9000E5030000000087048C00C201C1013E2062
:101CA0004F757470757420566F6C74616765002091
:101CB000204F757470757420566F6C746167650081
:101CC0003E2043757272656E74204C696D697400B4
:101CD000202043757272656E74204C696D697400C2
:101CE0003E20002020004163746976617465202ADB
:101CF00000416374697661746500504F5745522006
:101D0000535550504C59003E2042756C6B20566F15
:101D10006C7461676500202042756C6B20566F6C97
:101D200074616765003E20466C6F617420566F6C6D
:101D300074616765002020466C6F617420566F6C7B
:101D400074616765003E204D61782043757272654D
:101D50006E740020204D61782043757272656E7438
:101D6000002053455454494E475300424154544572
:101D700052592054595045004D41494E204D454E31
:101D800055006E616E00696E66006F7666005345A1
:101D900054204F555450555420564F4C54414745AC
:101DA000005345542043555252454E54204C494D02
:101DB00049540020560020410055502F444E204FDA
:101DC0004B3D53415645003E20566F6C746167652C
:101DD0003A20002020566F6C746167653A20003EFF
:101DE0002043757272656E743A200020204375722C
:101DF00072656E743A200050535520414354495641
:101E000045202A004F4B3D45646974204241434BB5
:101E10003D4C65617665005345542042554C4B203E
:101E2000564F4C544147450053455420464C4F4172
:101E30005420564F4C5441474500534554204D4182
:101E4000582043555252454E5400484F4D453A2074
:101E5000505355204D4F444500484F4D452050416B
:101E60004745203A2042554C4B0050563A33382EC5
:101E7000355620493A3841004241543A00562049EB
:101E80003A004F4B3D4D656E75005053553A204317
:101E90004F4E5354414E5420562F49004D505054EC
:101EA0002053544154555300544956414E412053F8
:101EB0004F4C4152204D50505400496E6974696135
:101EC0006C697A696E672E2E2E0054617267657494
:101ED0003A004C696D6974203A004241434B3D4DD4
:101EE000656E750053595354454D20494E464F0079
:101EF000546976616E61204D50505400566572737E
:101F0000696F6E203100486F6D65004D5050542050
:101F100053746174757300426174746572792054EE
:101F200079706500506F77657220537570706C79A9
:101F30000053797374656D20496E666F004C697447
:101F40006869756D0047656C004C6561642041638C
:041F500069640000C0
:107E0000112484B714BE81FFF0D085E080938100F7
:107E100082E08093C00088E18093C10086E0809377
:107E2000C20080E18093C4008EE0C9D0259A86E02C
:107E300020E33CEF91E0309385002093840096BBD3
:107E4000B09BFECF1D9AA8958150A9F7CC24DD24C4
:107E500088248394B5E0AB2EA1E19A2EF3E0BF2EE7
:107E6000A2D0813461F49FD0082FAFD0023811F036
:107E7000013811F484E001C083E08DD089C08234E0
:107E800011F484E103C0853419F485E0A6D080C0E4
:107E9000853579F488D0E82EFF2485D0082F10E0AE
:107EA000102F00270E291F29000F111F8ED06801E7
:107EB0006FC0863521F484E090D080E0DECF843638
:107EC00009F040C070D06FD0082F6DD080E0C81688
:107ED00080E7D80618F4F601B7BEE895C0E0D1E017
:107EE00062D089930C17E1F7F0E0CF16F0E7DF06D8
:107EF00018F0F601B7BEE89568D007B600FCFDCFD4
:107F0000A601A0E0B1E02C9130E011968C91119780
:107F100090E0982F8827822B932B1296FA010C0160
:107F200087BEE89511244E5F5F4FF1E0A038BF0790
:107F300051F7F601A7BEE89507B600FCFDCF97BE46
:107F4000E89526C08437B1F42ED02DD0F82E2BD052
:107F50003CD0F601EF2C8F010F5F1F4F84911BD097
:107F6000EA94F801C1F70894C11CD11CFA94CF0C13
:107F7000D11C0EC0853739F428D08EE10CD085E9AC
:107F80000AD08FE07ACF813511F488E018D01DD067
:107F900080E101D065CF982F8091C00085FFFCCF94
:107FA0009093C60008958091C00087FFFCCF809118
:107FB000C00084FD01C0A8958091C6000895E0E648
:107FC000F0E098E1908380830895EDDF803219F02E
:107FD00088E0F5DFFFCF84E1DECF1F93182FE3DFCA
:107FE0001150E9F7F2DF1F91089580E0E8DFEE27F6
:047FF000FF270994CA
:027FFE00040479
:00000001FF
