:020000040000FA
:100000000C9462000C948A000C948A000C948A0070
:100010000C948A000C948A000C948A000C948A0038
:100020000C948A000C948A000C948A000C948A0028
:100030000C948A000C948A000C948A000C948A0018
:100040000C94FE040C948A000C948A000C948A0090
:100050000C948A000C948A000C948A000C948A00F8
:100060000C948A000C948A000000000024002700F1
:100070002A0000000000250028002B0000000000DE
:1000800023002600290004040404040404040202DA
:100090000202020203030303030301020408102007
:1000A0004080010204081020010204081020000012
:1000B0000008000201000003040700000000000027
:1000C00000006E0811241FBECFEFD8E0DEBFCDBF09
:1000D00012E0A0E0B1E0E6EEF5E102C005900D927D
:1000E000AC3AB107D9F722E0ACEAB2E001C01D9208
:1000F000A73DB207E1F710E0C2E6D0E004C02197C7
:10010000FE010E94EB0AC136D107C9F70E944805DB
:100110000C94F10A0C940000AF92BF92CF92DF9240
:10012000EF92FF920F931F93CF93DF936C017B01AC
:100130008B01040F151FEB015E01AE18BF08C0173D
:10014000D10759F06991D601ED91FC910190F081B0
:10015000E02DC6010995892B79F7C501DF91CF9173
:100160001F910F91FF90EF90DF90CF90BF90AF90D5
:100170000895833081F028F4813099F08230A9F01D
:1001800008958730A9F08830C9F08430B1F48091A7
:1001900080008F7D03C0809180008F7780938000E6
:1001A000089584B58F7784BD089584B58F7DFBCF86
:1001B0008091B0008F778093B00008958091B00057
:1001C0008F7DF9CFCF93DF93282F30E0F901E255EF
:1001D000FF4F8491F901E656FF4FD491F901EA5798
:1001E000FF4FC491CC23A1F081110E94B900EC2FE4
:1001F000F0E0EE0FFF1FE458FF4FA591B491EC9192
:10020000ED2381E090E009F480E0DF91CF91089543
:1002100080E090E0FACF1F93CF93DF93282F30E058
:10022000F901E255FF4F8491F901E656FF4FD49151
:10023000F901EA57FF4FC491CC23A9F0162F811181
:100240000E94B900EC2FF0E0EE0FFF1FEE58FF4FB9
:10025000A591B4918FB7F894EC91111108C0D09585
:10026000DE23DC938FBFDF91CF911F910895DE2BAA
:10027000F8CFCF93DF9390E0FC01E656FF4F249137
:100280008A579F4FFC0184918823D1F090E0880F1A
:10029000991FFC01E859FF4FA591B491FC01EE585C
:1002A000FF4FC591D491623071F49FB7F8943C919F
:1002B000822F809583238C93E8812E2B28839FBFE8
:1002C000DF91CF9108958FB7F894EC912E2B2C935A
:1002D0008FBFF6CF3FB7F8948091B1029091B202F0
:1002E000A091B302B091B40226B5A89B05C02F3FE0
:1002F00019F00196A11DB11D3FBFBA2FA92F982F4C
:100300008827BC01CD01620F711D811D911D42E046
:10031000660F771F881F991F4A95D1F708958F920E
:100320009F92AF92BF92CF92DF92EF92FF924B01DA
:100330005C010E946A016B017C010E946A016C19D8
:100340007D098E099F09683E734081059105A8F3D8
:1003500021E0821A9108A108B10888EEC80E83E056
:10036000D81EE11CF11C81149104A104B10429F7E9
:10037000FF90EF90DF90CF90BF90AF909F908F90C5
:100380000895089590E080E00895FC010190002018
:10039000E9F73197AF01481B590BBC018FEB92E095
:1003A0000C948C008F929F92AF92BF920F931F93E9
:1003B000CF93DF93CDB7DEB7A1970FB6F894DEBF2A
:1003C0000FBECDBF19A2423008F44AE08E010F5D86
:1003D0001F4F842E912CB12CA12CA50194010E94B9
:1003E000C90AE62FB901CA01EA30F4F4E05DD80188
:1003F000EE938D01232B242B252B79F790E080E0C1
:10040000109719F0CD010E94C501A1960FB6F8947E
:10041000DEBF0FBECDBFDF91CF911F910F91BF9077
:10042000AF909F908F900895E95CE1CF009711F015
:100430000C94C50190E080E00895CF93DF93EC0128
:1004400060E08E810E940B0161E08E810E940B01B1
:1004500060E08E810E940B018BE891E00197F1F73B
:10046000DF91CF910895CF92DF92EF92FF920F9399
:100470001F93CF93DF936C017C0187E0E80EF11CA2
:10048000D0E0C0E0062F10E0B8010C2E02C0759538
:1004900067950A94E2F76170F70181917F010E94EC
:1004A0000B012196C430D10579F7C601DF91CF91B8
:1004B0001F910F91FF90EF90DF90CF900C941D0251
:1004C000CF92DF92EF92FF920F931F93CF93DF9320
:1004D000EC01F62E642F8C810E940B018D818F3FE1
:1004E00019F060E00E940B010F2D10E08F8584FF52
:1004F00025C06E0187E0C80ED11CF12CE12CB8019B
:100500000E2C02C0759567950A94E2F76170F601AA
:1005100081916F010E940B01FFEFEF1AFF0A88E043
:10052000E816F10461F7CE01DF91CF911F910F9191
:10053000FF90EF90DF90CF900C941D02B80184E003
:10054000759567958A95E1F7CE010E9433026F2D6C
:10055000CE01DF91CF911F910F91FF90EF90DF902F
:10056000CF900C94330240E0682F8FEB92E00C9414
:10057000600281E00E94B3028BE39FE10197F1F7F3
:100580000895CF93DF93613029F09091CE02986067
:100590009093CE026093D2021092D30290E4909393
:1005A000D4028093D502805C8093D60261E0809172
:1005B000C3020E9439018091C4028F3F19F061E0AB
:1005C0000E94390161E08091C5020E943901CFEBA0
:1005D000D2E09E012F5B32408091CE0284FD0BC0A1
:1005E00084E090E021962817390744F461E08E8179
:1005F0000E943901EECF88E090E0F4CF8BE39DE0DC
:100600000197F1F760E08091C3020E940B0160E066
:100610008091C5020E940B018091C4028F3F19F0A6
:1006200060E00E940B018091CE0284FD34C063E043
:100630008FEB92E00E943302CBE4D6E4CE01019727
:10064000F1F763E08FEB92E00E9433022197F1F71C
:1006500063E08FEB92E00E94330283E592E0019722
:10066000F1F762E08FEB92E00E9433028091CE02BC
:1006700080620E94B30284E08093CF028CE00E94EB
:10068000B3020E94B90282E08093D00286E0DF913B
:10069000CF910C94B30280620E94B3028BE496E483
:1006A0000197F1F78091CE0280620E94B30283E548
:1006B00092E00197F1F78091CE0280620E94B3022E
:1006C000D5CF9091D202691710F06FEF690FE62F26
:1006D000F0E0E154FD4F9489890F80680C94B302D7
:1006E0000E94B90260E080E00E94610388E291E02C
:1006F0000E94160261E080E00E94610389E391E0BC
:100700000E94160262E080E00E9461038AE491E0A8
:100710000E94160263E080E00E9461038FE591E091
:100720000C9416020F931F93CF93DF930E94B9028C
:1007300060E080E00E94610387E691E00E9416027B
:1007400010E000E0C091B502D091B602C00FD11FF9
:10075000C830D105ECF461E0600F80E00E946103D5
:100760008091B8029091B9028C179D07B1F481E78E
:1007700091E00E941602CC0FDD1FC45FDE4F88811E
:1007800099810E9416020F5F1F4F03301105D1F6A9
:10079000DF91CF911F910F91089584E791E0E9CF08
:1007A00041E00E94600281E090E008954F925F92E4
:1007B0006F927F928F929F92AF92BF92CF92DF9271
:1007C000EF92FF920F931F93CF936B017C01742ED6
:1007D000AC019B010E94C40A882399F087E791E04D
:1007E000CF911F910F91FF90EF90DF90CF90BF902E
:1007F000AF909F908F907F906F905F904F900C94F0
:10080000C50146015701E894B7F82FEF3FEF4FE7D6
:100810005FE7C501B4010E94C40A81110DC02FEF2A
:100820003FEF4FE75FE7C501B4010E94FA081816D1
:100830001CF48BE791E0D4CF2FEF3FEF4FE75FE45D
:10084000C701B6010E94520A18161CF48FE791E006
:10085000C7CF2FEF3FEF4FE75FECC701B6010E9414
:10086000FA0887FDF3CF20E030E0A901C701B60107
:100870000E94FA0810E000E087FF0CC041E06DE242
:100880008FEB92E00E946002F7FAF094F7F8F09490
:1008900001E010E0C0E060E070E080E09FE37C16E3
:1008A00041F020E030E040E251E40E94FF08CF5FD9
:1008B000F6CFA70196010E948E084B015C010E94B1
:1008C00071092B013C014AE00E94D201080F191F57
:1008D000CC23C9F1C301B2010E94A0099B01AC0164
:1008E000C501B4010E948D084B015C0141E06EE23C
:1008F0008FEB92E00E9460020F5F1F4FC15018F112
:1009000020E030E040E251E4C501B4010E94570A02
:100910002B013C010E9471094B01B12CA12C4AE032
:10092000C501B4010E94D201080F191FC501B4010D
:100930000E94A0099B01AC01C301B2010E948D0875
:100940004B015C01DBCFC801CF911F910F91FF904C
:10095000EF90DF90CF90BF90AF909F908F907F905F
:100960006F905F904F9008950E94B90260E080E020
:100970000E94610383E891E00E94160261E080E03A
:100980000E9461036091BA027091BB028091BC0227
:100990009091BD0241E00E94D6038FE891E00E9451
:1009A000160263E080E00E94610382E991E00C940A
:1009B00016020E94B90260E080E00E94610382EAB0
:1009C00091E00E94160261E080E00E946103609164
:1009D000BA027091BB028091BC029091BD0241E0CD
:1009E0000E94D60383EB91E00E94160263E080E050
:1009F0000E94610382E991E00C9416021F920F920B
:100A00000FB60F9211242F933F938F939F93AF9321
:100A1000BF938091AD029091AE02A091AF02B091D0
:100A2000B0023091AC0223E0230F2D3758F5019628
:100A3000A11DB11D2093AC028093AD029093AE0234
:100A4000A093AF02B093B0028091B1029091B20234
:100A5000A091B302B091B4020196A11DB11D809383
:100A6000B1029093B202A093B302B093B402BF91CB
:100A7000AF919F918F913F912F910F900FBE0F904B
:100A80001F90189526E8230F0296A11DB11DD2CF05
:100A9000CF93DF9300D000D000D0CDB7DEB77894ED
:100AA00084B5826084BD84B5816084BD85B5826073
:100AB00085BD85B5816085BD80916E008160809324
:100AC0006E0010928100809181008260809381008D
:100AD000809181008160809381008091800081609D
:100AE000809380008091B10084608093B1008091F8
:100AF000B00081608093B00080917A008460809320
:100B00007A0080917A00826080937A0080917A00E6
:100B1000816080937A0080917A00806880937A0067
:100B20001092C10064E084E10E94C10262E089E0A9
:100B30000E94390162E088E00E94390162E081E0B0
:100B40000E94390162E080E00E9439010E94B902EE
:100B500060E083E00E94610386EB91E00E94160250
:100B600061E086E00E94610388EC91E00E94160239
:100B700062E081E00E94610382ED91E00E94160232
:100B800083E090E09E838D838FED91E00E941602BA
:100B900064EF71E080E090E00E948F018D819E8182
:100BA00001979E838D83892B79F70E94700381E0E2
:100BB0008093B70280E0282E80E0382E97E0A92E9F
:100BC000B12C25E0822E912C81E00E94E2006C0184
:100BD00091E09983C114D10409F4198280E00E9444
:100BE000E2007C0181E08A83E114F10409F41A82B5
:100BF00089E00E94E2008C0191E09B8301151105C0
:100C000009F41B8288E00E94E2009E838D8381E0CC
:100C10008C838D819E81892B09F41C8280910B012C
:100C2000882309F464C0CD2809F061C08091BE0218
:100C3000882309F425C12DEC3CEC4CEC5DE360917C
:100C4000BA027091BB028091BC029091BD020E94D9
:100C50008E086093BA027093BB028093BC0290939B
:100C6000BD022091B8023091B90224303105B1F4AF
:100C700020E030E040E851E40E94520A181664F483
:100C800080E090E0A0E8B1E48093BA029093BB02C8
:100C9000A093BC02B093BD020E94D9048091B80217
:100CA0009091B902059719F526E636E646E65FE328
:100CB0006091BA027091BB028091BC029091BD021A
:100CC0000E948E082B013C0120E030E048EC52E409
:100CD0000E94520A18160CF4C6C04092BA025092F2
:100CE000BB026092BC027092BD020E94B40480916B
:100CF0000A01882309F462C0EF2809F05FC08091DF
:100D0000BE02882309F4F0C02DEC3CEC4CEC5DE312
:100D10006091BA027091BB028091BC029091BD02B9
:100D20000E948D086093BA027093BB028093BC024C
:100D30009093BD022091B8023091B9022430310560
:100D4000B1F420E030E040E451E40E94FA0887FF6B
:100D50000CC080E090E0A0E4B1E48093BA029093EC
:100D6000BB02A093BC02B093BD020E94D904809143
:100D7000B8029091B902059709F526E636E646E6EF
:100D80005FE36091BA027091BB028091BC029091C6
:100D9000BD020E948D086B017C0120E030E0A901BA
:100DA0000E94FA0887FD97C0C092BA02D092BB0297
:100DB000E092BC02F092BD020E94B404809109014D
:100DC000882329F1012B19F58091BE02882309F4AB
:100DD000D0C08091B8029091B9028430910509F099
:100DE000B4C08091BA029091BB02A091BC02B091B4
:100DF000BD028093050190930601A0930701B09373
:100E000008011092BE021092B7020E9492038091D4
:100E10000001882379F08D819E81892B59F480917E
:100E2000BE02882309F450C11092BE021092B7028C
:100E30000E949203998190930B018A8180930A0109
:100E40009B81909309018C818093000164E170E0A3
:100E500080E090E00E948F012114310409F4B4CEA7
:100E60000E940000B1CE80E090E0A8ECB2E4809354
:100E7000BA029093BB02A093BC02B093BD0235CFDF
:100E80008091B702811133CF8091B8029091B9025D
:100E9000019797FD17C09093B9028093B802809193
:100EA000B5029091B6022091B8023091B90228178C
:100EB00039072CF401979093B6028093B5020E94F3
:100EC000920315CFB092B902A092B8029092B602E6
:100ED0008092B502E4CF1092BA021092BB02109237
:100EE000BC021092BD0268CF8091B702811166CF1B
:100EF0008091B8029091B90201968830910504F56D
:100F00009093B9028093B8028091B5029091B60295
:100F10002091B8023091B902AC014E5F5F4F421789
:100F200053072CF401969093B6028093B502232BBD
:100F300021F41092B6021092B5020E9492033ECFA5
:100F40001092B9021092B802DFCF059709F059CF7D
:100F50008091BA029091BB02A091BC02B091BD02F7
:100F60008093010190930201A0930301B0930401C7
:100F700048CF8091B702811146CF8091B8029091FD
:100F8000B90284309105B1F4809105019091060178
:100F9000A0910701B09108018093BA029093BB021F
:100FA000A093BC02B093BD0281E08093BE020E9478
:100FB000D9042DCF85309105B1F480910101909134
:100FC0000201A0910301B09104018093BA029093B1
:100FD000BB02A093BC02B093BD0281E08093BE022D
:100FE0000E94B40414CF21E02093B7028130910510
:100FF00079F134F4892B09F00ACF0E94700307CFEE
:101000008230910509F447C0039709F000CF0E9490
:10101000B90260E080E00E9461038DE292E00E94EC
:10102000160261E080E00E9461038AE392E00E9480
:10103000160262E080E00E94610385E492E00E9473
:10104000160263E080E00E9461038CE492E020C01D
:101050000E94B90260E080E00E94610381EE91E0AD
:101060000E94160261E080E00E9461038AEE91E036
:101070000E94160262E080E00E94610388EF91E026
:101080000E94160263E080E00E94610382E092E029
:101090000E941602BCCE0E94B90260E080E00E946D
:1010A00061038CE092E00E94160261E080E00E9401
:1010B000610385E192E00E94160262E080E00E94F6
:1010C000610382E292E0DCCF8091B7028111AECE63
:1010D00081E08093B7020E947003ACCEEFEBF2E0A8
:1010E0001382128280E291E09183808383E0848383
:1010F0008FEF858382E0868384E0878385E0808725
:1011000086E0818787E08287138614861586168697
:10111000178661E080E10C94C1025058BB27AA27D2
:101120000E94A5080C94180A0E940A0A38F00E942E
:10113000110A20F039F49F3F19F426F40C94070AA1
:101140000EF4E095E7FB0C94010AE92F0E94290AAE
:1011500058F3BA17620773078407950720F079F4EC
:10116000A6F50C944B0A0EF4E0950B2EBA2FA02D89
:101170000B01B90190010C01CA01A0011124FF2744
:10118000591B99F0593F50F4503E68F11A16F0403F
:10119000A22F232F342F4427585FF3CF469537953E
:1011A0002795A795F0405395C9F77EF41F16BA0B03
:1011B000620B730B840BBAF09150A1F0FF0FBB1FB1
:1011C000661F771F881FC2F70EC0BA0F621F731FFA
:1011D000841F48F4879577956795B795F7959E3F57
:1011E00008F0B0CF9395880F08F09927EE0F9795E8
:1011F000879508950E94DD0908F481E008950E9412
:1012000013090C94180A0E94110A58F00E940A0A45
:1012100040F029F45F3F29F00C94010A51110C941D
:101220004C0A0C94070A0E94290A68F39923B1F327
:10123000552391F3951B550BBB27AA2762177307FC
:10124000840738F09F5F5F4F220F331F441FAA1F90
:10125000A9F335D00E2E3AF0E0E832D0915050404C
:10126000E695001CCAF72BD0FE2F29D0660F771FFA
:10127000881FBB1F261737074807AB07B0E809F0E0
:10128000BB0B802DBF01FF2793585F4F3AF09E3F65
:10129000510578F00C94010A0C944C0A5F3FE4F37A
:1012A000983ED4F3869577956795B795F7959F5FA8
:1012B000C9F7880F911D9695879597F90895E1E0F4
:1012C000660F771F881FBB1F621773078407BA0753
:1012D00020F0621B730B840BBA0BEE1F88F7E095AE
:1012E00008950E94310A88F09F5798F0B92F9927E6
:1012F000B751B0F0E1F0660F771F881F991F1AF001
:10130000BA95C9F714C0B13091F00E944B0AB1E010
:1013100008950C944B0A672F782F8827B85F39F00F
:10132000B93FCCF3869577956795B395D9F73EF499
:1013300090958095709561957F4F8F4F9F4F089541
:10134000E89409C097FB3EF490958095709561955F
:101350007F4F8F4F9F4F9923A9F0F92F96E9BB2715
:101360009395F695879577956795B795F111F8CF91
:10137000FAF4BB0F11F460FF1BC06F5F7F4F8F4FFC
:101380009F4F16C0882311F096E911C0772321F0F2
:101390009EE8872F762F05C0662371F096E8862F8A
:1013A00070E060E02AF09A95660F771F881FDAF7E1
:1013B000880F9695879597F90895990F0008550F0E
:1013C000AA0BE0E8FEEF16161706E807F907C0F0CB
:1013D00012161306E407F50798F0621B730B840BD3
:1013E000950B39F40A2661F0232B242B252B21F4AD
:1013F00008950A2609F4A140A6958FEF811D811D4D
:10140000089597F99F6780E870E060E008959FEF86
:1014100080EC089500240A9416161706180609068B
:10142000089500240A94121613061406050608955A
:10143000092E0394000C11F4882352F0BB0F40F4E2
:10144000BF2B11F460FF04C06F5F7F4F8F4F9F4F22
:10145000089557FD9058440F551F59F05F3F71F0A4
:101460004795880F97FB991F61F09F3F79F087950B
:101470000895121613061406551FF2CF4695F1DF94
:1014800008C0161617061806991FF1CF8695710524
:10149000610508940895E894BB2766277727CB0158
:1014A00097F908950E94DD0908F48FEF08950E94CE
:1014B0006A0A0C94180A0E940A0A38F00E94110A5B
:1014C00020F0952311F00C94010A0C94070A1124C2
:1014D0000C944C0A0E94290A70F3959FC1F3950F52
:1014E00050E0551F629FF001729FBB27F00DB11DA8
:1014F000639FAA27F00DB11DAA1F649F6627B00D38
:10150000A11D661F829F2227B00DA11D621F739F20
:10151000B00DA11D621F839FA00D611D221F749F2E
:101520003327A00D611D231F849F600D211D822F75
:10153000762F6A2F11249F5750409AF0F1F088239C
:101540004AF0EE0FFF1FBB1F661F771F881F9150C9
:101550005040A9F79E3F510580F00C94010A0C946D
:101560004C0A5F3FE4F3983ED4F3869577956795F0
:10157000B795F795E7959F5FC1F7FE2B880F911DF3
:101580009695879597F908950E94DD09880B990B28
:101590000895A1E21A2EAA1BBB1BFD010DC0AA1FB4
:1015A000BB1FEE1FFF1FA217B307E407F50720F0CC
:1015B000A21BB30BE40BF50B661F771F881F991F47
:1015C0001A9469F760957095809590959B01AC0190
:1015D000BD01CF010895EE0FFF1F0590F491E02D9E
:1015E0000994F894FFCF010000A0416666664101AE
:1015F000010159025E0267022D0273028302910209
:101600009D0200000000D0038C00C201C101484FC0
:101610004D452050414745203A2042554C4B005003
:10162000563A2033382E35562020493A203841008A
:101630004241543A2031342E342E35562020493A36
:1016400020323041004F4B3D4D656E75004D414994
:101650004E204D454E55003E20002020006E616E0C
:1016600000696E66006F76660053455420435552FC
:1016700052454E540020410055502F444F574E20A4
:101680004F4B3D53415645005345542042554C4B1A
:1016900020564F4C5441474500205600544956416E
:1016A0004E4120534F4C4152204D505054005665EE
:1016B0007273696F6E203100496E697469616C697B
:1016C0007A696E67002E0052454144494E475300E7
:1016D00050563A33382E355620352E32410042418D
:1016E000543A31332E3856004241434B3D4D656EDE
:1016F000750053455454494E475300426174746514
:1017000072793A4C6974680042756C6B3A31342EC8
:1017100034560042617474657279205479706500A2
:10172000312E204C69746869756D00322E20476532
:101730006C00332E204C656164204163696400486D
:101740006F6D650052656164696E6773004D50503E
:101750005420537461747573004368617267652027
:10176000566F6C74616765730043757272656E7451
:10177000204C696D69740053797374656D20496EEE
:10178000666F00466163746F727920526573657489
:02179000000057
:107E0000112484B714BE81FFF0D085E080938100F7
:107E100082E08093C00088E18093C10086E0809377
:107E2000C20080E18093C4008EE0C9D0259A86E02C
:107E300020E33CEF91E0309385002093840096BBD3
:107E4000B09BFECF1D9AA8958150A9F7CC24DD24C4
:107E500088248394B5E0AB2EA1E19A2EF3E0BF2EE7
:107E6000A2D0813461F49FD0082FAFD0023811F036
:107E7000013811F484E001C083E08DD089C08234E0
:107E800011F484E103C0853419F485E0A6D080C0E4
:107E9000853579F488D0E82EFF2485D0082F10E0AE
:107EA000102F00270E291F29000F111F8ED06801E7
:107EB0006FC0863521F484E090D080E0DECF843638
:107EC00009F040C070D06FD0082F6DD080E0C81688
:107ED00080E7D80618F4F601B7BEE895C0E0D1E017
:107EE00062D089930C17E1F7F0E0CF16F0E7DF06D8
:107EF00018F0F601B7BEE89568D007B600FCFDCFD4
:107F0000A601A0E0B1E02C9130E011968C91119780
:107F100090E0982F8827822B932B1296FA010C0160
:107F200087BEE89511244E5F5F4FF1E0A038BF0790
:107F300051F7F601A7BEE89507B600FCFDCF97BE46
:107F4000E89526C08437B1F42ED02DD0F82E2BD052
:107F50003CD0F601EF2C8F010F5F1F4F84911BD097
:107F6000EA94F801C1F70894C11CD11CFA94CF0C13
:107F7000D11C0EC0853739F428D08EE10CD085E9AC
:107F80000AD08FE07ACF813511F488E018D01DD067
:107F900080E101D065CF982F8091C00085FFFCCF94
:107FA0009093C60008958091C00087FFFCCF809118
:107FB000C00084FD01C0A8958091C6000895E0E648
:107FC000F0E098E1908380830895EDDF803219F02E
:107FD00088E0F5DFFFCF84E1DECF1F93182FE3DFCA
:107FE0001150E9F7F2DF1F91089580E0E8DFEE27F6
:047FF000FF270994CA
:027FFE00040479
:00000001FF
