:100000000C9462000C948A000C948A000C948A0070
:100010000C948A000C948A000C948A000C948A0038
:100020000C948A000C948A000C948A000C948A0028
:100030000C948A000C948A000C948A000C948A0018
:100040000C94050A0C948A000C948A000C948A0083
:100050000C948A000C948A000C948A000C948A00F8
:100060000C948A000C948A000000000024002700F1
:100070002A0000000000250028002B0000000000DE
:1000800023002600290004040404040404040202DA
:100090000202020203030303030301020408102007
:1000A0004080010204081020010204081020000012
:1000B0000008000201000003040700000000000027
:1000C0000000991311241FBECFEFD8E0DEBFCDBFD3
:1000D00015E0A0E0B1E0ECE8FCE202C005900D9272
:1000E000A034B107D9F725E0A0E4B5E001C01D9226
:1000F000A73BB207E1F710E0C2E6D0E004C02197C9
:10010000FE010E943E16C136D107C9F70E944F0A70
:100110000C9444160C940000AF92BF92CF92DF92E1
:10012000EF92FF920F931F93CF93DF936C017B01AC
:100130008B01040F151FEB015E01AE18BF08C0173D
:10014000D10759F06991D601ED91FC910190F081B0
:10015000E02DC6010995892B79F7C501DF91CF9173
:100160001F910F91FF90EF90DF90CF90BF90AF90D5
:100170000895833081F028F4813099F08230A9F01D
:1001800008958730A9F08830C9F08430B1F48091A7
:1001900080008F7D03C0809180008F7780938000E6
:1001A000089584B58F7784BD089584B58F7DFBCF86
:1001B0008091B0008F778093B00008958091B00057
:1001C0008F7DF9CFCF93DF93282F30E0F901E255EF
:1001D000FF4F8491F901E656FF4FD491F901EA5798
:1001E000FF4FC491CC23A1F081110E94B900EC2FE4
:1001F000F0E0EE0FFF1FE458FF4FA591B491EC9192
:10020000ED2381E090E009F480E0DF91CF91089543
:1002100080E090E0FACF1F93CF93DF93282F30E058
:10022000F901E255FF4F8491F901E656FF4FD49151
:10023000F901EA57FF4FC491CC23A9F0162F811181
:100240000E94B900EC2FF0E0EE0FFF1FEE58FF4FB9
:10025000A591B4918FB7F894EC91111108C0D09585
:10026000DE23DC938FBFDF91CF911F910895DE2BAA
:10027000F8CFCF93DF9390E0FC01E656FF4F249137
:100280008A579F4FFC0184918823D1F090E0880F1A
:10029000991FFC01E859FF4FA591B491FC01EE585C
:1002A000FF4FC591D491623071F49FB7F8943C919F
:1002B000822F809583238C93E8812E2B28839FBFE8
:1002C000DF91CF9108958FB7F894EC912E2B2C935A
:1002D0008FBFF6CFCF93DF93EC0161E08AE00E94FD
:1002E0003901209731F460E08AE0DF91CF910C94DE
:1002F0000B01CF3FD10511F461E0F6CFE8EBF0E060
:10030000E491E33029F140F4E130B1F0E230D9F08A
:10031000C038D1058CF7E7CFE73021F1E83051F153
:10032000E430B1F780918000806280938000D093A8
:100330008B00C0938A0004C084B5806884BDC7BDAB
:10034000DF91CF91089584B5806284BDC8BDF8CF98
:1003500080918000806880938000D0938900C09352
:100360008800EECF8091B00080688093B000C09389
:10037000B300E6CF8091B00080628093B000C0935C
:10038000B400DECF3FB7F8948091450590914605C3
:10039000A0914705B091480526B5A89B05C02F3F01
:1003A00019F00196A11DB11D3FBFBA2FA92F982F9B
:1003B0008827BC01CD01620F711D811D911D42E096
:1003C000660F771F881F991F4A95D1F708958F925E
:1003D0009F92AF92BF92CF92DF92EF92FF924B012A
:1003E0005C010E94C2016B017C010E94C2016C1978
:1003F0007D098E099F09683E734081059105A8F328
:1004000021E0821A9108A108B10888EEC80E83E0A5
:10041000D81EE11CF11C81149104A104B10429F738
:10042000FF90EF90DF90CF90BF90AF909F908F9014
:1004300008952FB7F894609141057091420580911D
:100440004305909144052FBF0895089590E080E002
:1004500008958130910519F15CF4892BB9F0609110
:10046000120170911301809114019091150108956A
:1004700082309105E9F0039791F760910E01709138
:100480000F01809110019091110108956091020176
:10049000709103018091040190910501089560918C
:1004A000060170910701809108019091090108955A
:1004B00060910A0170910B0180910C0190910D01E6
:1004C00008954F925F926F927F928F929F92AF9218
:1004D000BF92CF92DF92EF92FF920F931F93CF9331
:1004E000DF93CDB7DEB728970FB6F894DEBF0FBE07
:1004F000CDBF2B013C012D833E834F83588767017D
:1005000078018091690590916A05A0916B05B09181
:100510006C0589839A83AB83BC83BC01CD010E94A7
:100520007D152FE832EC45E75CE31816A4F08090C7
:10053000650590906605A0906705B0906805A301D9
:100540009201C501B4010E947D1518162CF52AE010
:1005500037ED43E25CE3C701B6010E94B8136B01BB
:100560007C0120E030E0A901C701B6010E942514FA
:1005700087FD3FC023E333E343E75FE3C701B601F1
:100580000E947D151816C4F583E3C82EDC2C83E782
:10059000E82E8FE3F82E30C02DEC3CEC4CE45DE30C
:1005A000C301B2010E94B8139B01AC01C501B401A3
:1005B0000E94251487FFD5CF2DEC3CEC4CEC5DE37D
:1005C0006D817E818F8198850E94B8139B01AC015B
:1005D00069817A818B819C810E94251487FFC1CF1C
:1005E0002AE037ED43EA5BE3C801B6010E94B91384
:1005F000B6CFC12CD12C7601C0927905D0927A0564
:10060000E0927B05F0927C0520E030E04FE753E478
:10061000C701B6010E9482150E949C14862F90E0AB
:1006200028960FB6F894DEBF0FBECDBFDF91CF91F5
:100630001F910F91FF90EF90DF90CF90BF90AF9000
:100640009F908F907F906F905F904F900C946A0175
:100650001092790510927A0510927B0510927C0514
:1006600090E080E00C946A01CF92DF92EF92FF92CB
:1006700020E130E040E050E0BA018E508064809389
:100680007C0090917A00906490937A0090917A0027
:1006900096FDFCCFC0907800D09079000D2C000C16
:1006A000EE08FF084C0D5D1D6E1D7F1D21503109A8
:1006B00031F7CB01BA010E94CB1420E030E040E8D2
:1006C0005DE30E9482152DE038E643E55BE30E947E
:1006D0008215FF90EF90DF90CF900895CF93DF9336
:1006E0000E943403C2E0D1E028A539A54AA55BA544
:1006F0000E9482152CA13DA14EA15FA10E94B813BA
:1007000028A139A14AA15BA10E942A14DF91CF91AF
:100710000895FC0101900020E9F73197AF01481BD3
:10072000590BBC018FE995E00C948C008F929F923D
:10073000AF92BF920F931F93CF93DF93CDB7DEB7E6
:10074000A1970FB6F894DEBF0FBECDBF19A24230FD
:1007500008F44AE08E010F5D1F4F842E912CB12CBE
:10076000A12CA50194010E940816E62FB901CA0127
:10077000EA30F4F4E05DD801EE938D01232B242BB5
:10078000252B79F790E080E0109719F0CD010E94B9
:100790008903A1960FB6F894DEBF0FBECDBFDF91DF
:1007A000CF911F910F91BF90AF909F908F90089520
:1007B000E95CE1CF009711F00C94890390E080E0B0
:1007C0000895CF93DF93EC0160E08E810E940B01CE
:1007D00061E08E810E940B0160E08E810E940B011E
:1007E0008BE891E00197F1F7DF91CF910895CF92D7
:1007F000DF92EF92FF920F931F93CF93DF936C01E1
:100800007C0187E0E80EF11CD0E0C0E0062F10E08C
:10081000B8010C2E02C0759567950A94E2F76170D5
:10082000F70181917F010E940B012196C430D1050F
:1008300079F7C601DF91CF911F910F91FF90EF9053
:10084000DF90CF900C94E103CF92DF92EF92FF9272
:100850000F931F93CF93DF93EC01F62E642F8C81BF
:100860000E940B018D818F3F19F060E00E940B0107
:100870000F2D10E08F8584FF25C06E0187E0C80E24
:10088000D11CF12CE12CB8010E2C02C07595679596
:100890000A94E2F76170F60181916F010E940B01E9
:1008A000FFEFEF1AFF0A88E0E816F10461F7CE01C6
:1008B000DF91CF911F910F91FF90EF90DF90CF903C
:1008C0000C94E103B80184E0759567958A95E1F78A
:1008D000CE010E94F7036F2DCE01DF91CF911F91C2
:1008E0000F91FF90EF90DF90CF900C94F70340E0D2
:1008F000682F8FE995E00C94240481E00E9477042E
:100900008BE39FE10197F1F70895CF93DF93613077
:1009100029F09091AE0598609093AE056093B20572
:100920001092B30590E49093B4058093B505805C74
:100930008093B60561E08091A3050E943901809102
:10094000A4058F3F19F061E00E94390161E08091B8
:10095000A5050E943901CFE9D5E09E012F59354008
:100960008091AE0584FD0BC084E090E021962817AD
:10097000390744F461E08E810E943901EECF88E0AE
:1009800090E0F4CF8BE39DE00197F1F760E0809178
:10099000A3050E940B0160E08091A5050E940B0158
:1009A0008091A4058F3F19F060E00E940B018091B7
:1009B000AE0584FD34C063E08FE995E00E94F70343
:1009C000CBE4D6E4CE010197F1F763E08FE995E03F
:1009D0000E94F7032197F1F763E08FE995E00E9409
:1009E000F70383E592E00197F1F762E08FE995E084
:1009F0000E94F7038091AE0580620E94770484E034
:100A00008093AF058CE00E9477040E947D0482E011
:100A10008093B00586E0DF91CF910C9477048062DB
:100A20000E9477048BE496E40197F1F78091AE057C
:100A300080620E94770483E592E00197F1F780914C
:100A4000AE0580620E947704D5CF9091B2056917F8
:100A500010F06FEF690FE62FF0E0E156FA4F94893E
:100A6000890F80680C9477040E947D0460E080E028
:100A70000E94250580E092E00E94DA0361E080E0B8
:100A80000E9425058091970590919805892B41F149
:100A900085EB91E00E94DA0362E080E00E94250588
:100AA00080919705909198050197E9F086ED91E086
:100AB0000E94DA0363E080E00E942505809197059B
:100AC00090919805029791F089EE91E00E94DA03E7
:100AD0008091870581110DC087EF91E00C94DA03B6
:100AE00084EA91E0D7CF86EC91E0E2CF86EE91E008
:100AF000EDCF8CEE91E0F2CFCF93DF93C0919705CD
:100B0000D09198050E947D0460E080E00E94250558
:100B10008EE08C9FF0018D9FF00D1124EE5CFE4F56
:100B2000808191810E94DA0387E692E00E94DA03D5
:100B300061E080E00E9425058091950590919605E1
:100B4000892B11F18CE192E00E94DA0362E080E0EF
:100B50000E94250580919505909196050197B9F021
:100B60008BE392E00E94DA0363E080E00E942505B7
:100B70008091950590919605029761F089E592E044
:100B8000DF91CF910C94DA038DE092E0DDCF8BE220
:100B900092E0E8CF8BE492E0F3CF0F931F93CF93D3
:100BA000DF930E947D0460E080E00E94250581E7DC
:100BB00092E00E94DA0302E311E0D0E0C0E06C2F83
:100BC0006F5F80E00E9425058091970590919805C0
:100BD0008C179D07F9F089EE91E00E94DA03F80185
:100BE000808191810E94DA0380918D0590918E051C
:100BF0008C179D0721F48DE793E00E94DA0321967C
:100C0000025F1F4FC330D105D1F6DF91CF911F9105
:100C10000F91089586EE91E0E0CF0F931F93CF934D
:100C2000DF930E947D0460E080E00E9425058EE74E
:100C300092E00E94DA0310E000E0C0919905D091A3
:100C40009A05C00FD11FC630D105ECF461E0600FEA
:100C500080E00E94250580919B0590919C058C1752
:100C60009D07B1F089EE91E00E94DA03CC0FDD1F01
:100C7000C457DE4F888199810E94DA030F5F1F4FAE
:100C800003301105D1F6DF91CF911F910F91089597
:100C900086EE91E0E9CF41E00E94240481E090E0FB
:100CA00008954F925F926F927F928F929F92AF9230
:100CB000BF92CF92DF92EF92FF921F93CF93DF9379
:100CC0006B017C01142FAC019B010E94EF1588235E
:100CD00099F088E892E0DF91CF911F91FF90EF901B
:100CE000DF90CF90BF90AF909F908F907F906F904C
:100CF0005F904F900C94890346015701E894B7F830
:100D00002FEF3FEF4FE75FE7C501B4010E94EF15FA
:100D100081110DC02FEF3FEF4FE75FE7C501B40131
:100D20000E94251418161CF48CE892E0D4CF2FEF03
:100D30003FEF4FE75FE4C701B6010E947D1518162B
:100D40001CF480E992E0C7CF2FEF3FEF4FE75FEC55
:100D5000C701B6010E94251487FDF3CF20E030E0E3
:100D6000A901C701B6010E942514D0E0C0E087FFA9
:100D70000CC041E06DE28FE995E00E942404F7FA8F
:100D8000F094F7F8F094C1E0D0E020E060E070E08B
:100D900080E09FE3211740F420E030E040E251E49E
:100DA0000E942A1421E0F6CFA70196010E94B913F0
:100DB0002B013C010E949C144B015C014AE00E9403
:100DC00096037C01EC0EFD1E112311F141E06EE251
:100DD0008FE995E00E9424048FEFE81AF80AC50114
:100DE000B4010E94CB149B01AC01C301B2010E946B
:100DF000B81320E030E040E251E40E9482150E94E6
:100E00009C1490E080E04AE00E949603E80EF91EF0
:100E1000C701DF91CF911F91FF90EF90DF90CF90AE
:100E2000BF90AF909F908F907F906F905F904F900A
:100E30000895CF93DF93CDB7DEB72A970FB6F89416
:100E4000DEBF0FBECDBF0E947D0460E080E00E9447
:100E500025058DE992E00E94DA0380919305909137
:100E600094052AE0E8E6F1E0DE01119601900D928A
:100E70002A95E1F7FC01EE0FFF1F81E090E08C0F57
:100E80009D1FE80FF91F808191810E94DA0361E0C4
:100E900080E00E94250560918F05709190058091FA
:100EA00091059091920541E050E00E945106809199
:100EB00093059091940583309105B1F00497B9F0B2
:100EC0008AE992E00E94DA0363E080E00E9425054F
:100ED00082EA92E02A960FB6F894DEBF0FBECDBF2D
:100EE000DF91CF910C94DA0384E992E0EBCF87E9AC
:100EF00092E0E8CFCF93DF93CDB7DEB72A970FB656
:100F0000F894DEBF0FBECDBF0E947D0460E080E09C
:100F10000E94250582E093E00E94DA0361E080E010
:100F20000E94250586EE91E00E94DA0380919305E8
:100F3000909194052AE0E8E6F1E0DE011196019037
:100F40000D922A95E1F7FC01EE0FFF1F81E090E082
:100F50008C0F9D1FE80FF91F808191810E94DA0399
:100F600062E080E00E9425058091930590919405B0
:100F70000E94290241E050E00E94510680919305B1
:100F80009091940583309105B1F00497B9F08AE906
:100F900092E00E94DA0363E080E00E94250580E190
:100FA00093E02A960FB6F894DEBF0FBECDBFDF9157
:100FB000CF910C94DA0384E992E0EBCF87E992E0D9
:100FC000E8CFCF93C82F0E947D0460E080E00E94AC
:100FD000250581E393E0CC2311F08EE193E00E949C
:100FE000DA0361E080E00E942505CC23E9F06091FE
:100FF000600170916101809162019091630141E013
:1010000050E00E94510684E992E0CC2311F08AE975
:1010100092E00E94DA0363E080E00E94250582EA04
:1010200092E0CF910C94DA0360915C0170915D01C4
:1010300080915E0190915F01E2CF0E947D0460E0AB
:1010400080E00E94250583E793E00E94DA0361E0D7
:1010500080E00E9425058091970590919805892B45
:10106000D1F18FE493E00E94DA0360916001709106
:101070006101809162019091630141E050E00E9422
:1010800051068BE992E00E94DA0362E080E00E9460
:10109000250580919705909198050197F9F087E6CD
:1010A00093E00E94DA0360915C0170915D01809190
:1010B0005E0190915F0141E050E00E94510685E998
:1010C00092E00E94DA0363E080E00E94250580E858
:1010D00093E00C94DA0383E493E0C5CF8BE593E0CF
:1010E000E0CFCF93DF9300D000D000D0CDB7DEB7F4
:1010F00086E0E2E7F1E0DE01119601900D928A951B
:10110000E1F70E947D0460E080E00E942505E09107
:101110009505F0919605EE0FFF1F81E090E08C0F92
:101120009D1FE80FF91F808191810E94DA0361E021
:1011300080E00E94250560918F0570919005809157
:1011400091059091920541E050E00E9451068091F6
:101150009505909196050297A1F08AE992E00E9488
:10116000DA0363E080E00E94250582EA92E0269699
:101170000FB6F894DEBF0FBECDBFDF91CF910C94B8
:10118000DA0384E992E0EBCF0E947D0460E080E026
:101190000E9425058091870581117BC088ED93E031
:1011A0000E94DA0361E080E00E94250584EE93E06E
:1011B0000E94DA036091750570917605809177053C
:1011C0009091780550E040E00E9451068AEE93E04D
:1011D0000E94DA0320E030E048EC52E460917905A7
:1011E00070917A0580917B0590917C050E94821513
:1011F00050E040E00E9451068FEE93E00E94DA0337
:1012000062E080E00E94250581EF93E00E94DA030E
:1012100080918705882309F43FC060916001709137
:101220006101809162019091630141E050E00E9470
:10123000510689EF93E00E94DA03809187058823A5
:10124000E1F160915C0170915D0180915E0190918E
:101250005F0141E050E00E94510685E992E00E9462
:10126000DA0363E080E00E94250589E394E00E94B0
:10127000DA03609171057091720580917305909108
:10128000740550E040E00E9451068CEF93E00C940E
:10129000DA0386EC93E084CF80918D0590918E05E2
:1012A0002EE0289FF001299FF00D1124EE5CFE4FE7
:1012B0006281738184819581B8CF80918D059091F1
:1012C0008E052EE0289FF001299FF00D1124EE5C81
:1012D000FE4F6285738584859585BBCF0E947D0412
:1012E00060E080E00E94250580918505909186054B
:1012F000892B09F476C08BE294E00E94DA03809196
:1013000085059091860501978530910540F4880FF9
:10131000991FFC01E858FE4F8081918102C088E04E
:1013200094E00E94DA0361E080E00E94250583E3F7
:1013300094E00E94DA0360915D0570915E058091F2
:101340005F059091600541E050E00E94510689EFF1
:1013500093E00E94DA0360916105709162058091CB
:1013600063059091640541E050E00E94510685E9D3
:1013700092E00E94DA0362E080E00E94250587E3A4
:1013800094E00E94DA036091650570916605809192
:1013900067059091680541E050E00E94510689EF91
:1013A00093E00E94DA036091690570916A0580916B
:1013B0006B0590916C0541E050E00E94510685E973
:1013C00092E00E94DA0363E080E00E9425058091AC
:1013D000850590918605892BA9F08AE194E00C940B
:1013E000DA0380918A0590918B05019785309105EC
:1013F00030F4880F991FFC01EE57FE4F8DCF8DE022
:1014000094E08FCF82E194E0EACF1F920F920FB663
:101410000F9211242F933F938F939F93AF93BF937A
:101420008091410590914205A0914305B0914405FA
:101430003091400523E0230F2D3758F50196A11D6B
:10144000B11D209340058093410590934205A093E0
:101450004305B09344058091450590914605A091C0
:101460004705B09148050196A11DB11D8093450522
:1014700090934605A0934705B0934805BF91AF915F
:101480009F918F913F912F910F900FBE0F901F90C2
:10149000189526E8230F0296A11DB11DD2CFCF9338
:1014A000DF9300D000D000D0CDB7DEB7789484B5FC
:1014B000826084BD84B5816084BD85B5826085BD50
:1014C00085B5816085BD80916E00816080936E00DE
:1014D00010928100809181008260809381008091D0
:1014E0008100816080938100809180008160809381
:1014F00080008091B10084608093B1008091B00041
:1015000081608093B00080917A00846080937A003B
:1015100080917A00826080937A0080917A00816065
:1015200080937A0080917A00806880937A0010928C
:10153000C10064E084E10E94850462E089E00E94C9
:10154000390162E088E00E94390162E08BE00E948C
:10155000390162E08CE00E94390161E08AE00E947A
:10156000390160E08AE00E940B010E9428030E947A
:101570007D0460E082E00E9425058CE394E00E94F7
:10158000DA0362E081E00E9425058EE494E00E9487
:10159000DA036CED75E080E090E00E94E7010E94C4
:1015A0006E090E9419020091490510914A05209187
:1015B0004B0530914C05601B710B820B930B64360D
:1015C00071058105910508F4A1C00E94190260937C
:1015D000490570934A0580934B0590934C058EE026
:1015E0000E94340320911601309117014091180197
:1015F000509119010E9482154B015C0180925D059A
:1016000090925E05A0925F05B09260058FE00E9407
:101610006E0320E030E0A9010E942514C12CD12CDA
:10162000760187FD05C08FE00E946E036B017C018F
:10163000C0926105D0926205E0926305F092640564
:1016400080E10E9434039B01AC0160911A0170910A
:101650001B0180911C0190911D010E9482156093D5
:10166000650570936605809367059093680581E131
:101670000E946E0320E030E0A9010E94251487FD3E
:101680005BC181E10E946E036093690570936A05F6
:1016900080936B0590936C0582E10E9434039B015B
:1016A000AC0160911E0170911F0180912001909109
:1016B00021010E94821560936D0570936E058093E1
:1016C0006F059093700583E10E94340320912E01F1
:1016D00030912F0140913001509131010E942A1424
:1016E00060937105709372058093730590937405F0
:1016F000A5019401C701B6010E948215609375058A
:10170000709376058093770590937805C0905D057A
:10171000D0905E05E0905F05F09060052091020199
:10172000309103014091040150910501C701B601B8
:101730000E947D1518160CF003C141E050E0509353
:1017400086054093850540918505509186055A830D
:101750004983452B41F085E090E090938B05809381
:101760008A050E9428030E94190200917D051091AC
:101770007E0520917F0530918005601B710B820BE7
:10178000930B623371058105910598F1A981BA81A6
:10179000AB2B79F50E94190260937D0570937E054D
:1017A00080937F059093800580918705882309F4B5
:1017B00034C1E4E0F0E0F0938B05E0938A05E0901B
:1017C0007905F0907A0500917B0510917C052091B8
:1017D0005C0130915D0140915E0150915F0160912B
:1017E00060017091610180916201909163010E949A
:1017F00061020E94190200918105109182052091D9
:10180000830530918405601B710B820B930B643F41
:1018100071408105910598F00E941902609381053D
:1018200070938205809383059093840580919D0534
:1018300090919E05009709F030C30E946E098BE0DD
:101840000E94E2008C01FF24F394892B09F4F12C0F
:101850008CE00E94E2009A838983EE24E394892B32
:1018600009F4E12C89E00E94E2006C01BB24B394EE
:10187000892B09F4B12C88E00E94E200AA24A394E9
:10188000009709F4A12C20916701222321F021E087
:10189000012B09F020E030916601332331F031E073
:1018A000A981BA81AB2B09F030E0909065019920B5
:1018B00029F099249394CD2809F0912CB0916401DA
:1018C000B983BB2329F0E1E0E983892B09F0198270
:1018D0002111E9C23111EBC2992079F080919D0567
:1018E00090919E05009709F0A3C481E090E0909349
:1018F0009E0580939D050E940D06B981BB2309F4C6
:10190000A5C680919D0590919E05009709F08BC614
:101910008091850590918605892B09F497C61092D0
:1019200086051092850510928B0510928A050E94FB
:1019300028030E946E098AC660E070E0CB01A4CE45
:101940008090650590906605A0906705B090680549
:1019500020910A0130910B0140910C0150910D0131
:10196000C501B4010E947D1518163CF482E090E098
:101970009093860580938505E6CE20910E013091E7
:101980000F01409110015091110160916905709112
:101990006A0580916B0590916C050E947D15181663
:1019A0003CF4A3E0B0E0B0938605A0938505CBCED0
:1019B00020911201309113014091140150911501B1
:1019C0006091710570917205809173059091740515
:1019D0000E947D1518163CF4E4E0F0E0F0938605D3
:1019E000E0938505B0CE20E030E040E85FE3C5013C
:1019F000B4010E94251487FFA6CE20E030E040EA23
:101A000050E4C701B6010E947D1518160CF09BCE5C
:101A1000109286051092850596CE8090650590906F
:101A20006605A0906705B090680520E030E040E8CA
:101A30005FE3C501B4010E94B9139B01AC01C7016A
:101A4000B6010E94251487FF07C010928B051092E3
:101A50008A050E942803CDCE60908D0570908E057A
:101A600080918A0590918B05892B09F043C041E054
:101A700050E050938B0540938A052DEC3CEC4CECE8
:101A80005DE3C701B6010E94251418160CF024C1AD
:101A90008EE0869DF001879DF00D1124EE5CFE4FD7
:101AA000A701960162817381848195810E942A1425
:101AB0006B017C0120E030E0A9010E94251487FD24
:101AC0000BC123E333E343E75FE3C701B6010E94A1
:101AD0007D1518163CF443E3C42EDC2C43E7E42EBA
:101AE0004FE3F42EC0925905D0925A05E0925B055F
:101AF000F0925C0580918A0590918B05813091056B
:101B000009F0F7C00E941902009151051091520589
:101B10002091530530915405601B710B820B930B80
:101B20006A3F71058105910508F46FC00E94190292
:101B3000609351057093520580935305909354051B
:101B40002090750530907605409077055090780587
:101B500020914D0530914E0540914F055091500513
:101B6000C201B1010E94251487FF0BC080910001C2
:101B70009091010191958195910990930101809334
:101B800000016091000170910101072E000C880B8B
:101B9000990B0E94CD142AE037ED43EA5BE30E94E3
:101BA00082152091590530915A0540915B0550915D
:101BB0005C050E94B9136B017C012AE037ED43EA12
:101BC0005CE30E94251487FD8BC026E636E646E6D8
:101BD0005FE3C701B6010E947D15181634F436E69E
:101BE000C32EDC2CEC2C3FE3F32EC0925905D0928F
:101BF0005A05E0925B05F0925C0520924D0530920B
:101C00004E0540924F055092500580915905909194
:101C10005A05A0915B05B0915C0589839A83AB83DB
:101C2000BC838EE0869DF001879DF00D1124EE5C53
:101C3000FE4F4284538404851585C0900E01D090D8
:101C40000F01909110019E83A0911101AD83960127
:101C5000492F5A2FB201C8010E94251487FF03C0E3
:101C600062010E831D832EE0269DC001279D900DED
:101C700011248E5C9E4FFC014280538064807580ED
:101C8000E980FA800B811C8196014E815D81C30140
:101C9000B2010E9461022DEC3CEC4CE45DE3C30117
:101CA000B2010E94B8139B01AC01C501B4010E94AE
:101CB0007D1587FD9ECD42E050E050938B0540930B
:101CC0008A050E941902609355057093560580930A
:101CD0005705909358058DCDC12CD12C760102CF9C
:101CE0002AE0C22E27EDD22E23EAE22E2CE3F22E9A
:101CF0007CCF8230910509F070C02090790530903A
:101D00007A0540907B0550907C058EE0869DF00121
:101D1000879DF00D1124EE5CFE4FC284D384548560
:101D20005D838585898380900E0190900F01A0903E
:101D30001001B09011019401A501B6018D81998126
:101D40000E94251487FF03C04601AD80B9802EE0B4
:101D5000269DC001279D900D11248E5C9E4FDC01B5
:101D600012966D917D918D919C91159782017101D3
:101D70009401A5010E9461020E941902009155057B
:101D8000109156052091570530915805601B710B35
:101D9000820B930B603477478B419105B8F42DEC9F
:101DA0003CEC4CEC5DE3B6018D8199810E9482157B
:101DB0009B01AC016091690570916A0580916B058A
:101DC00090916C050E94251487FF13CDE3E0F0E0AD
:101DD000F0938B05E0938A050CCD039709F009CDAC
:101DE0008091790590917A05A0917B05B0917C0551
:101DF00089839A83AB83BC838EE0869DF001879DA7
:101E0000F00D1124EE5CFE4F028513854484558449
:101E1000C0900E01D0900F01909110019E83A0916F
:101E20001101AD839601492F5A2FB801C2010E94BA
:101E3000251487FF03C068014E825D822EE0269D37
:101E4000C001279D900D11248E5C9E4FFC014680A1
:101E5000578060847184E980FA800B811C8196012F
:101E60004E815D81C301B2010E9461022DEC3CEC08
:101E70004CEC5EE3C301B2010E94B8139B01AC01BC
:101E8000C501B4010E94251487FFB3CC41E050E0A6
:101E900050938B0540938A05ACCC029709F0CFCCC8
:101EA0000E94C408CCCC8FEF9FEF332311F081E068
:101EB00090E060919D0570919E056130710559F526
:101EC00020919B0530919C05820F931F069666E03A
:101ED00070E00E94F41590939C0580939B052091DF
:101EE000990530919A058217930724F490939A05E7
:101EF000809399052091990530919A052E5F3F4F67
:101F0000281739072CF4029790939A058093990526
:101F10000E940D06E1CC6330710581F42091970594
:101F200030919805820F931F03960E94F4159093A9
:101F30009805809397050E94CD05CECC643071053D
:101F400091F42091950530919605820F931F039689
:101F500063E070E00E94F4159093960580939505D8
:101F60000E947C05B9CC6630710591F420919705EB
:101F700030919805820F931F039663E070E00E94F2
:101F8000F41590939805809397050E943405A4CC8E
:101F90006A30710591F42091930530919405820F78
:101FA000931F059665E070E00E94F41590939405E8
:101FB000809393050E947A078FCC6930710591F464
:101FC0002091970530919805820F931F029662E049
:101FD00070E00E94F41590939805809397050E94F5
:101FE0001D087ACC6530710509F050C06DEC7CECB1
:101FF0008CEC9DE3211104C06DEC7CEC8CEC9DEB32
:1020000020918F0530919005409191055091920556
:102010000E94B9133B01882EC92E20E030E0A901AF
:102020000E94251487FD2DC08091950590919605FD
:10203000D12C00E0029709F518ECF2E4FD832D2D78
:10204000302F412F5D81B301882D9C2D0E947D157D
:10205000181624F0D62C072D182DCD828D2D902FFB
:10206000A12FBD8180938F0590939005A09391053A
:10207000B09392050E9471082FCC10E722E42D83C3
:10208000DECFD12C00E010E01D82E8CF6730710573
:10209000E9F56DEC7CEC8CEC9DE3211104C06DEC5A
:1020A0007CEC8CEC9DEB20916001309161014091C2
:1020B0006201509163010E94B9132B013C0120E0A1
:1020C00030E0A9010E94251487FD1CC020E030E00B
:1020D00040E752E4C301B2010E947D15181634F4A2
:1020E000412C512C90E7692E92E4792E40926001A8
:1020F00050926101609262017092630181E00E94DE
:10210000E107EACB412C512C3201F0CF6830710548
:10211000D9F56DEC7CEC8CEC9DE3211104C06DECE9
:102120007CEC8CEC9DEB20915C0130915D01409149
:102130005E0150915F010E94B9132B013C0120E028
:1021400030E0A9010E94251487FD1AC020E030E08C
:1021500040EF51E4C301B2010E947D15181634F41A
:10216000412C512C80EF682E81E4782E40925C0146
:1021700050925D0160925E0170925F0180E0BFCF7E
:10218000412C512C3201F2CF6B30710509F0A4CBF8
:102190006DEC7CEC8CEC9DE3211104C06DEC7CECCF
:1021A0008CEC9DEB20918F0530919005409191052D
:1021B000509192050E94B9133B01882EC92E20E050
:1021C00030E0A9010E94251487FD2DC08091930560
:1021D00090919405D12C00E0049709F516E143E4B1
:1021E0004D832D2D302F412F5D81B301882D9C2DE6
:1021F0000E947D15181624F0D62C072D182DCD829F
:102200008D2D902FA12FBD8180938F0590939005E8
:10221000A0939105B09392050E9419075DCB18E435
:1022200053E45D83DECFD12C00E010E01D82E8CFC7
:102230008130910509F07BC080919B0590919C05B0
:102240008230910509F448C074F40097F1F10197C8
:1022500009F053CBA2E0B0E0B0939E05A0939D059A
:102260000E94C4084ACB8430910509F453C00CF491
:1022700044C0059709F041CB8CE090E090939E0517
:1022800080939D050E947D0460E080E00E9425050A
:102290008EE594E00E94DA0361E080E00E9425056B
:1022A0008AE694E00E94DA0362E080E00E9425055D
:1022B00086E794E00E94DA0363E080E00E9425054F
:1022C0008EEF93E00E94DA0318CB10929E051092D5
:1022D0009D050E946E0911CBE3E0F0E0F0939E05AE
:1022E000E0939D0580918D0590918E0590939805C2
:1022F000809397050E94CD0500CB46E050E05093B7
:102300009E0540939D0510929805109297050E9496
:102310003405F3CA8AE090E090939E0580939D0572
:1023200010929405109293050E947A07E6CA8330B2
:102330009105A9F4809197059091980590938E0549
:1023400080938D051092960510929505A4E0B0E05B
:10235000B0939E05A0939D050E947C05CECA843053
:10236000910509F044C0209197053091980580911E
:102370009505909196054EE00097E9F4429FC001C3
:10238000439F900D11248E5C9E4FFC0182819381AE
:10239000A481B58180938F0590939005A0939105BA
:1023A000B093920545E050E050939E0540939D0503
:1023B0000E947108A2CA019769F4429FC001439F1D
:1023C000900D11248E5C9E4FFC0186819781A08523
:1023D000B185E0CF429FC001439F900D11248E5CD8
:1023E0009E4FFC0182859385A485B585D3CF85302A
:1023F000910509F047C0809197059091980520912B
:1024000095053091960540918F055091900560910A
:1024100091057091920521153105B1F4EEE0E89F28
:102420009001E99F300D11242E5C3E4FD901129688
:102430004D935D936D937C93159744E050E05093DA
:102440009E0540939D0588CF2130310571F4EEE063
:10245000E89F9001E99F300D11242E5C3E4FF90159
:102460004683578360877187E8CF2EE0289FF0016D
:10247000299FF00D1124EE5CFE4F4287538764873D
:102480007587DBCF86309105B1F5809197059091E6
:102490009805009761F410928C0587E090E0909386
:1024A0009E0580939D0581E00E94E10726CA019761
:1024B00051F410928C0588E090E090939E058093F3
:1024C0009D0580E0F1CF80918A0590918B059093D6
:1024D00089058093880551E05093870510929805EF
:1024E0001092970589E090E090939E0580939D055A
:1024F0000E941D0802CA89309105B1F481E08093E1
:102500008C05809197059091980527E030E0892B04
:1025100011F028E030E030939E0520939D0581E086
:102520002730310571F6C0CF8A309105B9F480911A
:102530009305909194050E94290260938F057093F2
:10254000900580939105909392058BE090E0909395
:102550009E0580939D050E941907CFC98B30910578
:1025600009F04AC040918F05509190056091910506
:102570007091920580919305909194058130910519
:1025800049F15CF4892BB9F0409312015093130187
:10259000609314017093150116C08230910519F1F2
:1025A000039791F740930E0150930F016093100130
:1025B0007093110108C0409302015093030160938E
:1025C000040170930501AAE0B0E0B0939E05A093CA
:1025D0009D05AACE40930601509307016093080120
:1025E00070930901F0CF40930A0150930B0160935F
:1025F0000C0170930D01E7CF9C0127503109223067
:10260000310508F07AC020918C0589E090E0211115
:1026100002C086E090E090939E0580939D05222362
:1026200009F475CE65CF8130910529F410929E058D
:1026300010929D057EC98430910501F5E3E0F0E03C
:10264000F0939E05E0939D050E94CD05F0926701F1
:10265000E0926601B0926501A092640164E170E0CD
:1026600080E090E00E94E70180E090E0892B11F487
:102670000C94D10A0E9400000C94D10A8530910577
:1026800009F03FC044E050E050939E0540939D0503
:102690000E947C05DBCF0E943405D8CF8B3091059A
:1026A00049F48AE090E090939E0580939D050E94F6
:1026B0007A07CCCF0997C1F41092870580918805DD
:1026C000909189059C01215031092330310538F45E
:1026D00090938B0580938A0510928C05A7CF10925A
:1026E0008B0510928A05F8CFA1E0B0E0B0939E056B
:1026F000A0939D050E940D06A9CFB981BB2309F4C3
:10270000A5CF9C01275031092230310538F62091A0
:102710008C0589E090E0211102C086E090E0909362
:102720009E0580939D05222309F4B5CF0E941D08C4
:102730008DCFEFE9F5E0138212828CE991E091836D
:10274000808383E084838FEF858382E0868384E0C7
:10275000878385E0808786E0818787E0828713868C
:10276000148615861686178661E080E10C94850430
:102770005058BB27AA270E94D0130C9443150E94DF
:10278000351538F00E943C1520F039F49F3F19F4BC
:1027900026F40C9432150EF4E095E7FB0C942C15FE
:1027A000E92F0E94541558F3BA176207730784077C
:1027B000950720F079F4A6F50C9476150EF4E095C3
:1027C0000B2EBA2FA02D0B01B90190010C01CA01EB
:1027D000A0011124FF27591B99F0593F50F4503E96
:1027E00068F11A16F040A22F232F342F4427585F88
:1027F000F3CF469537952795A795F0405395C9F7A0
:102800007EF41F16BA0B620B730B840BBAF0915057
:10281000A1F0FF0FBB1F661F771F881FC2F70EC0F6
:10282000BA0F621F731F841F48F4879577956795C9
:10283000B795F7959E3F08F0B0CF9395880F08F0B5
:102840009927EE0F9795879508950E94081508F42B
:1028500081E008950E943E140C9443150E943C159B
:1028600058F00E94351540F029F45F3F29F00C9490
:102870002C1551110C9477150C9432150E94541597
:1028800068F39923B1F3552391F3951B550BBB279F
:10289000AA2762177307840738F09F5F5F4F220FE4
:1028A000331F441FAA1FA9F335D00E2E3AF0E0E8DB
:1028B00032D091505040E695001CCAF72BD0FE2F25
:1028C00029D0660F771F881FBB1F261737074807B9
:1028D000AB07B0E809F0BB0B802DBF01FF27935871
:1028E0005F4F3AF09E3F510578F00C942C150C94F4
:1028F00077155F3FE4F3983ED4F386957795679517
:10290000B795F7959F5FC9F7880F911D96958795A5
:1029100097F90895E1E0660F771F881FBB1F6217C4
:1029200073078407BA0720F0621B730B840BBA0B82
:10293000EE1F88F7E09508950E945C1588F09F5778
:1029400098F0B92F9927B751B0F0E1F0660F771FD3
:10295000881F991F1AF0BA95C9F714C0B13091F0C9
:102960000E947615B1E008950C947615672F782FA4
:102970008827B85F39F0B93FCCF38695779567958E
:10298000B395D9F73EF490958095709561957F4FFA
:102990008F4F9F4F0895E89409C097FB3EF49095A0
:1029A0008095709561957F4F8F4F9F4F9923A9F028
:1029B000F92F96E9BB279395F695879577956795B7
:1029C000B795F111F8CFFAF4BB0F11F460FF1BC0FB
:1029D0006F5F7F4F8F4F9F4F16C0882311F096E98E
:1029E00011C0772321F09EE8872F762F05C066233C
:1029F00071F096E8862F70E060E02AF09A95660FF5
:102A0000771F881FDAF7880F9695879597F90895AD
:102A1000990F0008550FAA0BE0E8FEEF16161706EF
:102A2000E807F907C0F012161306E407F50798F057
:102A3000621B730B840B950B39F40A2661F0232B70
:102A4000242B252B21F408950A2609F4A140A695EC
:102A50008FEF811D811D089597F99F6780E870E0D1
:102A600060E008959FEF80EC089500240A94161604
:102A7000170618060906089500240A94121613066C
:102A8000140605060895092E0394000C11F48823FA
:102A900052F0BB0F40F4BF2B11F460FF04C06F5F16
:102AA0007F4F8F4F9F4F089557FD9058440F551FEC
:102AB00059F05F3F71F04795880F97FB991F61F0C0
:102AC0009F3F79F087950895121613061406551F37
:102AD000F2CF4695F1DF08C0161617061806991FA3
:102AE000F1CF86957105610508940895E894BB2798
:102AF00066277727CB0197F908950E94081508F4F7
:102B00008FEF08950E9495150C9443150E9435157A
:102B100038F00E943C1520F0952311F00C942C15F0
:102B20000C94321511240C9477150E94541570F3EF
:102B3000959FC1F3950F50E0551F629FF001729F62
:102B4000BB27F00DB11D639FAA27F00DB11DAA1F71
:102B5000649F6627B00DA11D661F829F2227B00DBE
:102B6000A11D621F739FB00DA11D621F839FA00D49
:102B7000611D221F749F3327A00D611D231F849F99
:102B8000600D211D822F762F6A2F11249F575040F0
:102B90009AF0F1F088234AF0EE0FFF1FBB1F661F6B
:102BA000771F881F91505040A9F79E3F510580F034
:102BB0000C942C150C9477155F3FE4F3983ED4F3F6
:102BC000869577956795B795F795E7959F5FC1F7D8
:102BD000FE2B880F911D9695879597F908950E9471
:102BE0000815880B990B089597FB072E16F400948F
:102BF00007D077FD09D00E942A1607FC05D03EF4C5
:102C0000909581959F4F0895709561957F4F089598
:102C1000A1E21A2EAA1BBB1BFD010DC0AA1FBB1FE0
:102C2000EE1FFF1FA217B307E407F50720F0A21B52
:102C3000B30BE40BF50B661F771F881F991F1A94BF
:102C400069F760957095809590959B01AC01BD01E9
:102C5000CF010895AA1BBB1B51E107C0AA1FBB1FD0
:102C6000A617B70710F0A61BB70B881F991F5A9518
:102C7000A9F780959095BC01CD010895EE0FFF1F37
:0C2C80000590F491E02D0994F894FFCF2A
:102C8C000100000070420000A040000080410000E4
:102C9C00F041000096420000A8410000A84100004D
:102CAC00A8410AD7233D000020400000803F0AD7EE
:102CBC00233C2905666666419A9959410000A0415A
:102CCC0031059A996141CDCC5C41000070413505CC
:102CDC0033336B41000058410000C8410000A04054
:102CEC000000404101010101B002BB02CB02DB023A
:102CFC00EE029303A403B60380048C049904A50488
:102D0C00AE04B904C304CE04D404DE04E404E90420
:102D1C00F50402050F051D05000000004B068C0094
:102D2C00260225023E204F757470757420566F6C08
:102D3C00746167650020204F757470757420566F30
:102D4C006C74616765003E2043757272656E742009
:102D5C004C696D697400202043757272656E742025
:102D6C004C696D6974003E20002020004163746939
:102D7C0076617465202A004163746976617465001C
:102D8C00504F57455220535550504C59003E2042FD
:102D9C00756C6B20566F6C746167650020204275F2
:102DAC006C6B20566F6C74616765003E20466C6FCF
:102DBC00617420566F6C74616765002020466C6FDF
:102DCC00617420566F6C74616765003E204D6178AC
:102DDC002043757272656E740020204D617820431B
:102DEC00757272656E74002053455454494E4753A6
:102DFC0000424154544552592054595045004D41BC
:102E0C00494E204D454E55006E616E00696E660050
:102E1C006F76660020410020430020560053455435
:102E2C00200055502F444E204F4B3D5341564500EA
:102E3C005056204D6178696D756D004261747465F2
:102E4C007279204D696E696D756D0042617474659F
:102E5C007279204D6178696D756D00436861726798
:102E6C00652043757272656E74204D6178005465EF
:102E7C006D7065726174757265204D6178696D75E0
:102E8C006D0053595354454D204C494D49545300F2
:102E9C0055502F444E204F4B3D454449540053450B
:102EAC0054204F555450555420564F4C544147457F
:102EBC00005345542043555252454E54204C494DD5
:102ECC004954003E20566F6C746167653A200020AF
:102EDC0020566F6C746167653A20003E2043757212
:102EEC0072656E743A2000202043757272656E74A0
:102EFC003A200050535520414354495645202A004E
:102F0C004F4B3D45646974204241434B3D4C6561D8
:102F1C007665005345542042554C4B20564F4C542B
:102F2C004147450053455420464C4F415420564F81
:102F3C004C5441474500534554204D41582043556E
:102F4C005252454E54005053553A20434F4E535411
:102F5C00414E5420562F49004D505054205354414B
:102F6C0054555300505620503A005720443A0025EF
:102F7C00005461726765743A005620004320424148
:102F8C00434B3D4D656E75004E4F4E450049444CCC
:102F9C0045004F4B3D4D656E75004241434B3D52D4
:102FAC0065736574206661756C74004641554C54AC
:102FBC003A200050563A004241543A005449564186
:102FCC004E4120534F4C4152204D50505400496EAD
:102FDC00697469616C697A696E672E2E2E0053597B
:102FEC005354454D20494E464F00546976616E61ED
:102FFC00204D5050540056657273696F6E2031002D
:10300C005056204F564552564F4C54004241542076
:10301C004F564552564F4C54004F564552435552FD
:10302C0052454E54004F56455254454D50004E4F4C
:10303C0020424154544552590042554C4B204D505E
:10304C005054004142534F525054494F4E00464C3D
:10305C004F4154005053552043432F435600464193
:10306C00554C5400486F6D65004D505054205374AE
:10307C00617475730042617474657279205479704F
:10308C006500506F77657220537570706C790053C2
:10309C00797374656D204C696D6974730053797321
:1030AC0074656D20496E666F004C69746869756D46
:1030BC000047656C004C65616420416369640000E5
:00000001FF
