:100000000C9462000C948A000C948A000C948A0070
:100010000C948A000C948A000C948A000C948A0038
:100020000C948A000C948A000C948A000C948A0028
:100030000C948A000C948A000C948A000C948A0018
:100040000C945E090C948A000C948A000C948A002B
:100050000C948A000C948A000C948A000C948A00F8
:100060000C948A000C948A000000000024002700F1
:100070002A0000000000250028002B0000000000DE
:1000800023002600290004040404040404040202DA
:100090000202020203030303030301020408102007
:1000A0004080010204081020010204081020000012
:1000B0000008000201000003040700000000000027
:1000C0000000F71211241FBECFEFD8E0DEBFCDBF76
:1000D00015E0A0E0B1E0E8E4FBE202C005900D927B
:1000E000A034B107D9F725E0A0E4B5E001C01D9226
:1000F000A73BB207E1F710E0C2E6D0E004C02197C9
:10010000FE010E949C15C136D107C9F70E94A809BB
:100110000C94A2150C940000AF92BF92CF92DF9284
:10012000EF92FF920F931F93CF93DF936C017B01AC
:100130008B01040F151FEB015E01AE18BF08C0173D
:10014000D10759F06991D601ED91FC910190F081B0
:10015000E02DC6010995892B79F7C501DF91CF9173
:100160001F910F91FF90EF90DF90CF90BF90AF90D5
:100170000895833081F028F4813099F08230A9F01D
:1001800008958730A9F08830C9F08430B1F48091A7
:1001900080008F7D03C0809180008F7780938000E6
:1001A000089584B58F7784BD089584B58F7DFBCF86
:1001B0008091B0008F778093B00008958091B00057
:1001C0008F7DF9CFCF93DF93282F30E0F901E255EF
:1001D000FF4F8491F901E656FF4FD491F901EA5798
:1001E000FF4FC491CC23A1F081110E94B900EC2FE4
:1001F000F0E0EE0FFF1FE458FF4FA591B491EC9192
:10020000ED2381E090E009F480E0DF91CF91089543
:1002100080E090E0FACF1F93CF93DF93282F30E058
:10022000F901E255FF4F8491F901E656FF4FD49151
:10023000F901EA57FF4FC491CC23A9F0162F811181
:100240000E94B900EC2FF0E0EE0FFF1FEE58FF4FB9
:10025000A591B4918FB7F894EC91111108C0D09585
:10026000DE23DC938FBFDF91CF911F910895DE2BAA
:10027000F8CFCF93DF9390E0FC01E656FF4F249137
:100280008A579F4FFC0184918823D1F090E0880F1A
:10029000991FFC01E859FF4FA591B491FC01EE585C
:1002A000FF4FC591D491623071F49FB7F8943C919F
:1002B000822F809583238C93E8812E2B28839FBFE8
:1002C000DF91CF9108958FB7F894EC912E2B2C935A
:1002D0008FBFF6CF3FB7F8948091450590914605C2
:1002E000A0914705B091480526B5A89B05C02F3FB2
:1002F00019F00196A11DB11D3FBFBA2FA92F982F4C
:100300008827BC01CD01620F711D811D911D42E046
:10031000660F771F881F991F4A95D1F708958F920E
:100320009F92AF92BF92CF92DF92EF92FF924B01DA
:100330005C010E946A016B017C010E946A016C19D8
:100340007D098E099F09683E734081059105A8F3D8
:1003500021E0821A9108A108B10888EEC80E83E056
:10036000D81EE11CF11C81149104A104B10429F7E9
:10037000FF90EF90DF90CF90BF90AF909F908F90C5
:1003800008952FB7F89460914105709142058091CE
:100390004305909144052FBF0895089590E080E0B3
:1003A00008958130910519F15CF4892BB9F06091C1
:1003B000120170911301809114019091150108951B
:1003C00082309105E9F0039791F760910E017091E9
:1003D0000F01809110019091110108956091020127
:1003E000709103018091040190910501089560913D
:1003F000060170910701809108019091090108950B
:1004000060910A0170910B0180910C0190910D0196
:1004100008954F925F926F927F928F929F92AF92C8
:10042000BF92CF92DF92EF92FF920F931F93CF93E1
:10043000DF93CDB7DEB728970FB6F894DEBF0FBEB7
:10044000CDBF2B013C012D833E834F83588767012D
:1004500078018091690590916A05A0916B05B09132
:100460006C0589839A83AB83BC83BC01CD010E9458
:10047000DB142FE832EC45E75CE31816ACF0809013
:10048000650590906605A0906705B0906805A3018A
:100490009201C501B4010E94DB1418160CF04DC086
:1004A0002AE037ED43E25CE3C701B6010E94161370
:1004B0006B017C0120E030E0A901C701B6010E9478
:1004C000831387FD67C023E333E343E75FE3C7019B
:1004D000B6010E94DB1418160CF460C0C0927905B6
:1004E000D0927A05E0927B05F0927C0591E09983A9
:1004F0002FE632E143E85AE3C701B6010E94DB145C
:1005000018160CF01982698180E028960FB6F894CD
:10051000DEBF0FBECDBFDF91CF911F910F91FF9036
:10052000EF90DF90CF90BF90AF909F908F907F9093
:100530006F905F904F900C940B012DEC3CEC4CE4D1
:100540005DE3C301B2010E9416139B01AC01C5011A
:10055000B4010E94831387FFADCF2DEC3CEC4CEC33
:100560005DE36D817E818F8198850E9416139B01CA
:10057000AC0169817A818B819C810E94831387FF02
:1005800099CF2AE037ED43EA5BE3C801B6010E9448
:1005900017138ECFC12CD12C7601A0CF83E3C82EA8
:1005A000DC2C83E7E82E8FE3F82E98CF10927905A4
:1005B00010927A0510927B0510927C0560E080E035
:1005C0000C940B01FC0101900020E9F73197AF0179
:1005D000481B590BBC018FE995E00C948C008F925D
:1005E0009F92AF92BF920F931F93CF93DF93CDB79C
:1005F000DEB7A1970FB6F894DEBF0FBECDBF19A22C
:10060000423008F44AE08E010F5D1F4F842E912C7A
:10061000B12CA12CA50194010E946615E62FB90109
:10062000CA01EA30F4F4E05DD801EE938D01232B8A
:10063000242B252B79F790E080E0109719F0CD015D
:100640000E94E202A1960FB6F894DEBF0FBECDBFA6
:10065000DF91CF911F910F91BF90AF909F908F909E
:100660000895E95CE1CF009711F00C94E20290E06C
:1006700080E00895CF93DF93EC0160E08E810E94CB
:100680000B0161E08E810E940B0160E08E810E946F
:100690000B018BE891E00197F1F7DF91CF9108957D
:1006A000CF92DF92EF92FF920F931F93CF93DF933E
:1006B0006C017C0187E0E80EF11CD0E0C0E0062F61
:1006C00010E0B8010C2E02C0759567950A94E2F708
:1006D0006170F70181917F010E940B012196C43066
:1006E000D10579F7C601DF91CF911F910F91FF904E
:1006F000EF90DF90CF900C943A03CF92DF92EF927D
:10070000FF920F931F93CF93DF93EC01F62E642F8C
:100710008C810E940B018D818F3F19F060E00E9457
:100720000B010F2D10E08F8584FF25C06E0187E03F
:10073000C80ED11CF12CE12CB8010E2C02C075950D
:1007400067950A94E2F76170F60181916F010E944A
:100750000B01FFEFEF1AFF0A88E0E816F10461F7DA
:10076000CE01DF91CF911F910F91FF90EF90DF901D
:10077000CF900C943A03B80184E0759567958A95FB
:10078000E1F7CE010E9450036F2DCE01DF91CF9192
:100790001F910F91FF90EF90DF90CF900C9450033A
:1007A00040E0682F8FE995E00C947D0381E00E9482
:1007B000D0038BE39FE10197F1F70895CF93DF9387
:1007C000613029F09091AE0598609093AE056093EA
:1007D000B2051092B30590E49093B4058093B505EB
:1007E000805C8093B60561E08091A3050E94390189
:1007F0008091A4058F3F19F061E00E94390161E00A
:100800008091A5050E943901CFE9D5E09E012F59BD
:1008100035408091AE0584FD0BC084E090E02196C8
:100820002817390744F461E08E810E943901EECF28
:1008300088E090E0F4CF8BE39DE00197F1F760E072
:100840008091A3050E940B0160E08091A5050E94A4
:100850000B018091A4058F3F19F060E00E940B010D
:100860008091AE0584FD34C063E08FE995E00E947D
:100870005003CBE4D6E4CE010197F1F763E08FE9B2
:1008800095E00E9450032197F1F763E08FE995E02E
:100890000E94500383E592E00197F1F762E08FE94F
:1008A00095E00E9450038091AE0580620E94D003C3
:1008B00084E08093AF058CE00E94D0030E94D603B1
:1008C00082E08093B00586E0DF91CF910C94D00355
:1008D00080620E94D0038BE496E40197F1F7809147
:1008E000AE0580620E94D00383E592E00197F1F7A4
:1008F0008091AE0580620E94D003D5CF9091B20561
:10090000691710F06FEF690FE62FF0E0E156FA4F2C
:100910009489890F80680C94D0030E94D60360E00C
:1009200080E00E947E0480E092E00E94330361E058
:1009300080E00E947E048091970590919805892B14
:1009400041F185EB91E00E94330362E080E00E9478
:100950007E0480919705909198050197E9F086EDC6
:1009600091E00E94330363E080E00E947E04809166
:10097000970590919805029791F089EE91E00E9479
:1009800033038091870581110DC087EF91E00C94AE
:10099000330384EA91E0D7CF86EC91E0E2CF86EE94
:1009A00091E0EDCF8CEE91E0F2CFCF93DF93C09149
:1009B0009705D09198050E94D60360E080E00E94E0
:1009C0007E048EE08C9FF0018D9FF00D1124EE5C73
:1009D000FE4F808191810E94330387E692E00E945E
:1009E000330361E080E00E947E0480919505909140
:1009F0009605892B11F18CE192E00E94330362E0AD
:100A000080E00E947E048091950590919605019763
:100A1000B9F08BE392E00E94330363E080E00E9430
:100A20007E048091950590919605029761F089E585
:100A300092E0DF91CF910C9433038DE092E0DDCF13
:100A40008BE292E0E8CF8BE492E0F3CF0F931F9319
:100A5000CF93DF930E94D60360E080E00E947E0483
:100A600081E792E00E94330302E311E0D0E0C0E0AE
:100A70006C2F6F5F80E00E947E04809197059091BB
:100A800098058C179D07F9F089EE91E00E943303D9
:100A9000F801808191810E94330380918D059091AE
:100AA0008E058C179D0721F48DE793E00E94330398
:100AB0002196025F1F4FC330D105D1F6DF91CF9150
:100AC0001F910F91089586EE91E0E0CF0F931F9351
:100AD000CF93DF930E94D60360E080E00E947E0403
:100AE0008EE792E00E94330310E000E0C091990588
:100AF000D0919A05C00FD11FC630D105ECF461E04A
:100B0000600F80E00E947E0480919B0590919C057F
:100B10008C179D07B1F089EE91E00E943303CC0F52
:100B2000DD1FC457DE4F888199810E9433030F5F18
:100B30001F4F03301105D1F6DF91CF911F910F9117
:100B4000089586EE91E0E9CF41E00E947D0381E0C7
:100B500090E008954F925F926F927F928F929F9252
:100B6000AF92BF92CF92DF92EF92FF921F93CF93FB
:100B7000DF936B017C01142FAC019B010E944D158A
:100B8000882399F088E892E0DF91CF911F91FF9040
:100B9000EF90DF90CF90BF90AF909F908F907F901D
:100BA0006F905F904F900C94E20246015701E894D9
:100BB000B7F82FEF3FEF4FE75FE7C501B4010E94A1
:100BC0004D1581110DC02FEF3FEF4FE75FE7C501D6
:100BD000B4010E94831318161CF48CE892E0D4CF61
:100BE0002FEF3FEF4FE75FE4C701B6010E94DB1430
:100BF00018161CF480E992E0C7CF2FEF3FEF4FE7C4
:100C00005FECC701B6010E94831387FDF3CF20E09C
:100C100030E0A901C701B6010E948313D0E0C0E013
:100C200087FF0CC041E06DE28FE995E00E947D03F3
:100C3000F7FAF094F7F8F094C1E0D0E020E060E03B
:100C400070E080E09FE3211740F420E030E040E2D4
:100C500051E40E94881321E0F6CFA70196010E947B
:100C600017132B013C010E94FA134B015C014AE06F
:100C70000E94EF027C01EC0EFD1E112311F141E0F8
:100C80006EE28FE995E00E947D038FEFE81AF80A83
:100C9000C501B4010E9429149B01AC01C301B2013A
:100CA0000E94161320E030E040E251E40E94E0147C
:100CB0000E94FA1390E080E04AE00E94EF02E80E02
:100CC000F91EC701DF91CF911F91FF90EF90DF9048
:100CD000CF90BF90AF909F908F907F906F905F90DC
:100CE0004F900895CF93DF93CDB7DEB72A970FB615
:100CF000F894DEBF0FBECDBF0E94D60360E080E057
:100D00000E947E048DE992E00E9433038091930556
:100D1000909194052AE0E8E6F1E0DE011196019059
:100D20000D922A95E1F7FC01EE0FFF1F81E090E0A4
:100D30008C0F9D1FE80FF91F808191810E94330362
:100D400061E080E00E947E0460918F0570919005C3
:100D5000809191059091920541E050E00E94AA0592
:100D6000809193059091940583309105B1F004979B
:100D7000B9F08AE992E00E94330363E080E00E94C8
:100D80007E0482EA92E02A960FB6F894DEBF0FBE88
:100D9000CDBFDF91CF910C94330384E992E0EBCF88
:100DA00087E992E0E8CFCF93DF93CDB7DEB72A97FC
:100DB0000FB6F894DEBF0FBECDBF0E94D60360E031
:100DC00080E00E947E0482E093E00E94330361E0B1
:100DD00080E00E947E0486EE91E00E9433038091C1
:100DE0009305909194052AE0E8E6F1E0DE01119682
:100DF00001900D922A95E1F7FC01EE0FFF1F81E0B3
:100E000090E08C0F9D1FE80FF91F808191810E9457
:100E1000330362E080E00E947E048091930590910C
:100E200094050E94D10141E050E00E94AA05809102
:100E300093059091940583309105B1F00497B9F032
:100E40008AE992E00E94330363E080E00E947E041E
:100E500080E193E02A960FB6F894DEBF0FBECDBFB7
:100E6000DF91CF910C94330384E992E0EBCF87E9D3
:100E700092E0E8CFCF93C82F0E94D60360E080E0D5
:100E80000E947E0481E393E0CC2311F08EE193E095
:100E90000E94330361E080E00E947E04CC23E9F0ED
:100EA0006091600170916101809162019091630194
:100EB00041E050E00E94AA0584E992E0CC2311F0C1
:100EC0008AE992E00E94330363E080E00E947E049E
:100ED00082EA92E0CF910C94330360915C017091AF
:100EE0005D0180915E0190915F01E2CF0E94D60387
:100EF00060E080E00E947E0483E793E00E94330379
:100F000061E080E00E947E048091970590919805B1
:100F1000892BD1F18FE493E00E943303609160014B
:100F200070916101809162019091630141E050E014
:100F30000E94AA058BE992E00E94330362E080E000
:100F40000E947E0480919705909198050197F9F091
:100F500087E693E00E94330360915C0170915D012C
:100F600080915E0190915F0141E050E00E94AA05EE
:100F700085E992E00E94330363E080E00E947E04F2
:100F800080E893E00C94330383E493E0C5CF8BE5D2
:100F900093E0E0CFCF93DF9300D000D000D0CDB767
:100FA000DEB786E0E2E7F1E0DE01119601900D92F6
:100FB0008A95E1F70E94D60360E080E00E947E04FB
:100FC000E0919505F0919605EE0FFF1F81E090E00E
:100FD0008C0F9D1FE80FF91F808191810E943303C0
:100FE00061E080E00E947E0460918F057091900521
:100FF000809191059091920541E050E00E94AA05F0
:1010000080919505909196050297A1F08AE992E06A
:101010000E94330363E080E00E947E0482EA92E053
:1010200026960FB6F894DEBF0FBECDBFDF91CF91ED
:101030000C94330384E992E0EBCF0E94D60360E086
:1010400080E00E947E048091870581117BC088ED3D
:1010500093E00E94330361E080E00E947E0484EE0E
:1010600093E00E943303609175057091760580913D
:1010700077059091780550E040E00E94AA058AEE3D
:1010800093E00E94330320E030E048EC52E46091AA
:10109000790570917A0580917B0590917C050E947D
:1010A000E01450E040E00E94AA058FEE93E00E9419
:1010B000330362E080E00E947E0481EF93E00E94AF
:1010C000330380918705882309F43FC06091600154
:1010D00070916101809162019091630141E050E063
:1010E0000E94AA0589EF93E00E943303809187054F
:1010F0008823E1F160915C0170915D0180915E0156
:1011000090915F0141E050E00E94AA0585E992E0DC
:101110000E94330363E080E00E947E0489E394E050
:101120000E9433036091710570917205809173057F
:101130009091740550E040E00E94AA058CEF93E086
:101140000C94330386EC93E084CF80918D059091CD
:101150008E052EE0289FF001299FF00D1124EE5CF2
:10116000FE4F6281738184819581B8CF80918D0516
:1011700090918E052EE0289FF001299FF00D1124FB
:10118000EE5CFE4F6285738584859585BBCF0E949A
:10119000D60360E080E00E947E04809185059091F6
:1011A0008605892B09F476C08BE294E00E94330314
:1011B000809185059091860501978530910540F4D1
:1011C000880F991FFC01E858FE4F8081918102C071
:1011D00088E094E00E94330361E080E00E947E0496
:1011E00083E394E00E94330360915D0570915E0596
:1011F00080915F059091600541E050E00E94AA0552
:1012000089EF93E00E94330360916105709162055C
:10121000809163059091640541E050E00E94AA0529
:1012200085E992E00E94330362E080E00E947E0440
:1012300087E394E00E943303609165057091660531
:10124000809167059091680541E050E00E94AA05F1
:1012500089EF93E00E9433036091690570916A05FC
:1012600080916B0590916C0541E050E00E94AA05C9
:1012700085E992E00E94330363E080E00E947E04EF
:101280008091850590918605892BA9F08AE194E0EB
:101290000C94330380918A0590918B0501978530DA
:1012A000910530F4880F991FFC01EE57FE4F8DCF4A
:1012B0008DE094E08FCF82E194E0EACF1F920F920D
:1012C0000FB60F9211242F933F938F939F93AF9359
:1012D000BF938091410590914205A0914305B09143
:1012E00044053091400523E0230F2D3758F5019632
:1012F000A11DB11D209340058093410590934205A7
:10130000A0934305B093440580914505909146050F
:10131000A0914705B09148050196A11DB11D80938C
:10132000450590934605A0934705B0934805BF91A6
:10133000AF919F918F913F912F910F900FBE0F9082
:101340001F90189526E8230F0296A11DB11DD2CF3C
:10135000CF93DF9300D000D0CDB7DEB7789484B5BB
:10136000826084BD84B5816084BD85B5826085BDA1
:1013700085B5816085BD80916E00816080936E002F
:101380001092810080918100826080938100809121
:1013900081008160809381008091800081608093D2
:1013A00080008091B10084608093B1008091B00092
:1013B00081608093B00080917A00846080937A008D
:1013C00080917A00826080937A0080917A008160B7
:1013D00080937A0080917A00806880937A001092DE
:1013E000C10064E084E10E94DE0362E089E00E94C3
:1013F000390162E088E00E94390162E081E00E94E8
:10140000390162E08FE00E94390161E080E00E94D2
:10141000390160E080E00E940B010E94D6020E9428
:10142000D60360E082E00E947E048CE394E00E9498
:10143000330362E081E00E947E048EE494E00E9427
:1014400033036CED75E080E090E00E948F010E9414
:10145000C7080E94C1010091490510914A052091D9
:101460004B0530914C05601B710B820B930B64365E
:1014700071058105910508F4B3C00E94C101609314
:10148000490570934A0580934B0590934C050E9443
:10149000C10124E630E040E050E00E946615CA0138
:1014A000B9012AE030E040E050E00E9466150E9459
:1014B00029142AE037ED43EA5CE30E94E0146B0153
:1014C0007C0120E030E04AE152E40E9417132B0136
:1014D0003C0140925D0550925E0560925F057092FE
:1014E0006005A701960166E676E686EA90E40E942A
:1014F000161369837A838B839C8360936105709351
:1015000062058093630590936405309087053320CE
:1015100009F483C02DEC3CEC4CE45DE36091600188
:101520007091610180916201909163010E94161394
:101530004B015C018092650590926605A09267055B
:10154000B0926805332091F0C0905C01D0905D01AD
:10155000E0905E01F0905F0120E030E040EA50E46E
:10156000C701B6010E94831387FD06C0C12CD12C90
:10157000F0EAEF2EF0E4FF2EC0926905D0926A05E2
:10158000E0926B05F0926C052DEC3CEC4CE45EE3D4
:10159000C501B4010E94171360936D0570936E0529
:1015A00080936F059093700580E090E0A0EEB1E429
:1015B0008093710590937205A0937305B0937405A1
:1015C00029813A814B815C81C301B2010E94E01400
:1015D00060937505709376058093770590937805F1
:1015E000C0905D05D0905E05E0905F05F0906005CD
:1015F00020910201309103014091040150910501B5
:10160000C701B6010E94DB14181684F481E090E053
:1016100090938605809385053DC02DEC3CEC4CE510
:1016200051E4C701B6010E94171382CF809065056F
:1016300090906605A0906705B090680520910A011A
:1016400030910B0140910C0150910D01C501B40185
:101650000E94DB14A2E0B0E018160CF439C120910E
:101660000E0130910F0140911001509111016091D4
:10167000690570916A0580916B0590916C050E94D7
:10168000DB1418160CF0F6C0E3E0F0E0F0938605EA
:10169000E0938505009185051091860501151105DA
:1016A00041F0E5E0F0E0F0938B05E0938A050E94BD
:1016B000D6020E94C10180907D0590907E05A09089
:1016C0007F05B0908005681979098A099B09623302
:1016D00071058105910588F1012B79F50E94C10101
:1016E00060937D0570937E0580937F0590938005C0
:1016F00080918705882309F4F0C084E090E09093FE
:101700008B0580938A05E0907905F0907A05009129
:101710007B0510917C0520915C0130915D01409129
:101720005E0150915F016091600170916101809153
:101730006201909163010E9409020E94C10100911F
:101740008105109182052091830530918405601BED
:10175000710B820B930B643F71408105910598F0EA
:101760000E94C10160938105709382058093830577
:101770009093840580919D0590919E05009709F0B6
:10178000EFC20E94C70881E00E94E2007C01DD24D4
:10179000D394892B09F4D12C8FE00E94E2008C01B4
:1017A000CC24C394892B09F4C12C89E00E94E20067
:1017B0005C0199249394892B09F4912C88E00E9470
:1017C000E20088248394009709F4812C209167011A
:1017D000222321F021E0EF2809F020E0309166017A
:1017E000332321F031E0012B09F030E070906501E6
:1017F000772029F077247394AB2809F0712C10918D
:101800006401112321F011E0892B09F010E021116E
:10181000ADC23111AFC2772079F080919D059091D2
:101820009E05009709F064C481E090E090939E05C6
:1018300080939D050E946605112309F467C6809177
:101840009D0590919E05009709F04DC680918505F4
:1018500090918605892B09F459C61092860510923D
:10186000850510928B0510928A050E94D6020E946F
:10187000C7084CC620911201309113014091140108
:1018800050911501609171057091720580917305F9
:10189000909174050E94DB1418161CF484E090E00B
:1018A000B7CE20E030E040E85FE3C501B4010E941C
:1018B000831387FFEFCE20E030E040EA50E4C70119
:1018C000B6010E94DB1418160CF0E4CEA5E0B0E0DF
:1018D000B0938605A0938505DDCE80906505909038
:1018E0006605A0906705B090680520E030E040E80C
:1018F0005FE3C501B4010E9417139B01AC01C7014E
:10190000B6010E94831387FF07C010928B051092C7
:101910008A050E94D60211CF40908D0550908E0509
:1019200080918A0590918B05892B09F043C081E055
:1019300090E090938B0580938A052DEC3CEC4CEC69
:101940005DE3C701B6010E94831318160CF029C18C
:101950008EE0849DF001859DF00D1124EE5CFE4F1C
:10196000A701960162817381848195810E94881309
:101970006B017C0120E030E0A9010E94831387FD08
:1019800010C123E333E343E75FE3C701B6010E94DD
:10199000DB1418163CF4E3E3CE2EDC2CE3E7EE2E4A
:1019A000EFE3FE2EC0925905D0925A05E0925B05F6
:1019B000F0925C0580918A0590918B0581309105AC
:1019C00009F0FCC00E94C10100915105109152051F
:1019D0002091530530915405601B710B820B930BC2
:1019E0006A3F71058105910508F477C00E94C10125
:1019F000609351057093520580935305909354055D
:101A00008091750590917605A0917705B091780544
:101A100089839A83AB83BC8320914D0530914E0519
:101A200040914F0550915005BC01CD010E94831398
:101A300087FF0BC0809100019091010191958195E4
:101A400091099093010180930001609100017091D0
:101A50000101072E000C880B990B0E942B142AE021
:101A600037ED43EA5BE30E94E01420915905309181
:101A70005A0540915B0550915C050E9417136B015C
:101A80007C012AE037ED43EA5CE30E94831387FD83
:101A90008CC026E636E646E65FE3C701B6010E9443
:101AA000DB14181634F476E6C72EDC2CEC2C7FE31E
:101AB000F72EC0925905D0925A05E0925B05F0923C
:101AC0005C0589819A81AB81BC8180934D0590939F
:101AD0004E05A0934F05B093500580915905909104
:101AE0005A05A0915B05B0915C0589839A83AB830D
:101AF000BC838EE0849DF001859DF00D1124EE5C89
:101B0000FE4F22843384E484F58460900E0170904B
:101B10000F01C0901001D09011019301A601B101F5
:101B2000C7010E94831387FF02C0310167012EE0C5
:101B3000249DC001259D900D11248E5C9E4FDC01DB
:101B400012962D903D904D905C901597E980FA800B
:101B50000B811C819301A601C201B1010E940902FF
:101B60002DEC3CEC4CE45DE3C201B1010E94161384
:101B70009B01AC01C501B4010E94DB1487FDDDCDE2
:101B8000E2E0F0E0F0938B05E0938A050E94C1014A
:101B900060935505709356058093570590935805AB
:101BA000CCCDC12CD12C7601FDCE6AE0C62E67EDDE
:101BB000D62E63EAE62E6CE3F62E7BCF82309105BB
:101BC00009F071C08091790590917A05A0917B050B
:101BD000B0917C0589839A83AB83BC838EE0849D1E
:101BE000F001859DF00D1124EE5CFE4FA284B384BC
:101BF000C484D58460900E0170900F018090100114
:101C0000909011019301A401B501C6010E948313B4
:101C100087FF02C0350146012EE0249DC001259DAD
:101C2000900D11248E5C9E4FDC0112966D917D917A
:101C30008D919C911597E980FA800B811C8193010D
:101C4000A4010E9409020E94C10100915505109152
:101C500056052091570530915805601B710B820B7A
:101C6000930B603477478B419105B0F42DEC3CEC3D
:101C70004CEC5DE3B501C6010E94E0149B01AC0190
:101C80006091690570916A0580916B0590916C0572
:101C90000E94831387FF51CDE3E0F0E0F0938B05C2
:101CA000E0938A054ACD039709F047CD80917905E5
:101CB00090917A05A0917B05B0917C0589839A83E8
:101CC000AB83BC838EE0849DF001859DF00D1124D3
:101CD000EE5CFE4F22843384E484F58460900E0130
:101CE00070900F01C0901001D09011019301A601D6
:101CF000B101C7010E94831387FF02C03101670150
:101D00002EE0249DC001259D900D11248E5C9E4FD8
:101D1000DC0116962D903D904D905C901997E980CE
:101D2000FA800B811C819301A601C201B1010E94BE
:101D300009022DEC3CEC4CEC5EE3C201B1010E94C7
:101D400016139B01AC01C501B4010E94831387FFE8
:101D5000F4CC81E090E090938B0580938A05EDCCE4
:101D6000029709F010CD0E941D080DCD8FEF9FEF57
:101D7000332311F081E090E060919D0570919E0504
:101D80006130710559F520919B0530919C05820FBA
:101D9000931F069666E070E00E94521590939C0592
:101DA00080939B052091990530919A05821793079E
:101DB00024F490939A058093990520919905309188
:101DC0009A052E5F3F4F281739072CF402979093FE
:101DD0009A05809399050E9466051DCD63307105B3
:101DE00081F42091970530919805820F931F0396F7
:101DF0000E94521590939805809397050E9426059E
:101E00000ACD6430710591F42091950530919605C5
:101E1000820F931F039663E070E00E945215909327
:101E20009605809395050E94D504F5CC6630710522
:101E300091F42091970530919805820F931F039696
:101E400063E070E00E945215909398058093970587
:101E50000E948D04E0CC6A30710591F420919305C5
:101E600030919405820F931F059665E070E00E9403
:101E7000521590939405809393050E94D306CBCC82
:101E80006930710591F42091970530919805820F82
:101E9000931F029662E070E00E945215909398059D
:101EA000809397050E947607B6CC6530710509F0DE
:101EB0004EC06DEC7CEC8CEC9DE3211104C06DEC0C
:101EC0007CEC8CEC9DEB20918F053091900540913E
:101ED0009105509192050E9417132B01682EA92E8F
:101EE00020E030E0A9010E94831387FD2BC0809180
:101EF000950590919605B12CE12C58ECF52E0297A2
:101F000011F040E7F42E02E42B2D3E2D4F2D502FE3
:101F1000B201862D9A2D0E94DB14181624F0B42CE1
:101F2000E52CF62C0A2D8B2D9E2DAF2DB02F8093F6
:101F30008F0590939005A0939105B09392050E9410
:101F4000CA0769CCB12CE12CF12C00E0ECCF673052
:101F50007105E9F56DEC7CEC8CEC9DE3211104C07E
:101F60006DEC7CEC8CEC9DEB20916001309161017B
:101F700040916201509163010E9417131B012C01D3
:101F800020E030E0A9010E94831387FD1CC020E0FF
:101F900030E040E752E4C201B1010E94DB141816A0
:101FA00034F4212C312C30E7432E32E4532E20928E
:101FB000600130926101409262015092630181E0C0
:101FC0000E943A0728CC212C312C2101F0CF683017
:101FD0007105D9F56DEC7CEC8CEC9DE3211104C00E
:101FE0006DEC7CEC8CEC9DEB20915C0130915D0103
:101FF00040915E0150915F010E9417131B012C015B
:1020000020E030E0A9010E94831387FD1AC020E080
:1020100030E040EF51E4C201B1010E94DB14181618
:1020200034F4212C312C20EF422E21E4522E209228
:102030005C0130925D0140925E0150925F0180E050
:10204000BFCF212C312C2101F2CF6B30710509F06B
:10205000E2CB6DEC7CEC8CEC9DE3211104C06DECCB
:102060007CEC8CEC9DEB20918F053091900540919C
:102070009105509192050E9417132B01682EA92EED
:1020800020E030E0A9010E94831387FD2CC08091DD
:10209000930590919405B12CE12C049709F596E1F4
:1020A000F92E03E42B2D3E2D4F2D502FB201862DFE
:1020B0009A2D0E94DB14181624F0B42CE52CF62C73
:1020C0000A2D8B2D9E2DAF2DB02F80938F059093D1
:1020D0009005A0939105B09392050E9472069BCB48
:1020E00088E4F82EDECFB12CE12CF12C00E0E9CF12
:1020F0008130910509F07BC080919B0590919C05F2
:102100008230910509F448C074F40097F1F1019709
:1021100009F092CBE2E0F0E0F0939E05E0939D059C
:102120000E941D0889CB8430910509F453C00CF43A
:1021300044C0059709F080CB8CE090E090939E0519
:1021400080939D050E94D60360E080E00E947E049B
:102150008EE594E00E94330361E080E00E947E04FB
:102160008AE694E00E94330362E080E00E947E04ED
:1021700086E794E00E94330363E080E00E947E04DF
:102180008EEF93E00E94330357CB10929E0510927E
:102190009D050E94C70850CB83E090E090939E0578
:1021A00080939D0580918D0590918E059093980563
:1021B000809397050E9426053FCB86E090E09093A0
:1021C0009E0580939D0510929805109297050E9498
:1021D0008D0432CB8AE090E090939E0580939D051C
:1021E00010929405109293050E94D30625CB83305C
:1021F0009105A9F4809197059091980590938E058B
:1022000080938D051092960510929505A4E0B0E09C
:10221000B0939E05A0939D050E94D5040DCB8430FC
:10222000910509F045C080919705909198052091FE
:1022300095053091960521153105E9F42EE0289F8A
:10224000F001299FF00D1124EE5CFE4F82819381F5
:10225000A481B58180938F0590939005A0939105FB
:10226000B0939205E5E0F0E0F0939E05E0939D05C4
:102270000E94CA07E1CA2130310569F42EE0289F87
:10228000F001299FF00D1124EE5CFE4F86819781AD
:10229000A085B185DFCF2EE0289FF001299FF00DAA
:1022A0001124EE5CFE4F82859385A485B585D2CF3F
:1022B0008530910509F046C0209197053091980529
:1022C000809195059091960540918F0550919005CC
:1022D0006091910570919205EEE00097A9F4E29F5C
:1022E000C001E39F900D11248E5C9E4FDC0112967D
:1022F0004D935D936D937C931597E4E0F0E0F0933C
:102300009E05E0939D0588CF019769F4E29FC00187
:10231000E39F900D11248E5C9E4FFC0146835783F2
:1023200060877187EACFE29FC001E39F900D11247F
:102330008E5C9E4FDC011A964D935D936D937C935A
:102340001D97DBCF86309105B1F58091970590916F
:102350009805009761F410928C0587E090E09093C7
:102360009E0580939D0581E00E943A0765CA01970A
:1023700051F410928C0588E090E090939E05809334
:102380009D0580E0F1CF80918A0590918B05909317
:1023900089058093880581E08093870510929805D0
:1023A0001092970589E090E090939E0580939D059B
:1023B0000E94760741CA89309105B1F481E080938B
:1023C0008C05809197059091980527E030E0892B46
:1023D00011F028E030E030939E0520939D0581E0C8
:1023E0002730310571F6C0CF8A309105B9F480915C
:1023F0009305909194050E94D10160938F0570938D
:10240000900580939105909392058BE090E09093D6
:102410009E0580939D050E9472060ECA8B30910521
:1024200009F04AC040918F05509190056091910547
:10243000709192058091930590919405813091055A
:1024400049F15CF4892BB9F04093120150931301C8
:10245000609314017093150116C08230910519F133
:10246000039791F740930E0150930F016093100171
:102470007093110108C040930201509303016093CF
:102480000401709305018AE090E090939E0580938B
:102490009D05AACE40930601509307016093080161
:1024A00070930901F0CF40930A0150930B016093A0
:1024B0000C0170930D01E7CF9C01275031092230A8
:1024C000310508F079C020918C0589E090E0211158
:1024D00002C086E090E090939E0580939D052223A4
:1024E00009F475CE65CF8130910529F410929E05CF
:1024F00010929D05BCC98430910501F583E090E000
:1025000090939E0580939D050E942605D0926701B9
:10251000C0926601909265018092640164E170E06E
:1025200080E090E00E948F0180E090E0892B11F420
:102530000C94290A0E9400000C94290A8530910508
:10254000F1F5A4E0B0E0B0939E05A0939D050E9434
:10255000D504DCCF0E948D04D9CF8B30910549F48E
:102560008AE090E090939E0580939D050E94D3069B
:10257000CDCF0997C1F4109287058091880590917D
:1025800089059C01215031092330310538F490939D
:102590008B0580938A0510928C05A8CF10928B052D
:1025A00010928A05F8CF81E090E090939E05809389
:1025B0009D050E946605AACF112309F4A7CF9C01AF
:1025C000275031092230310540F620918C0589E0F1
:1025D00090E0211102C086E090E090939E058093E8
:1025E0009D05222309F4B6CF0E9476078FCFEFE92D
:1025F000F5E0138212828CE991E09183808383E07D
:1026000084838FEF858382E0868384E0878385E0FF
:10261000808786E0818787E0828713861486158607
:102620001686178661E080E10C94DE035058BB27C4
:10263000AA270E942E130C94A1140E94931438F020
:102640000E949A1420F039F49F3F19F426F40C9458
:1026500090140EF4E095E7FB0C948A14E92F0E9485
:10266000B21458F3BA17620773078407950720F06E
:1026700079F4A6F50C94D4140EF4E0950B2EBA2F31
:10268000A02D0B01B90190010C01CA01A001112478
:10269000FF27591B99F0593F50F4503E68F11A1624
:1026A000F040A22F232F342F4427585FF3CF4695B5
:1026B00037952795A795F0405395C9F77EF41F16D7
:1026C000BA0B620B730B840BBAF09150A1F0FF0FA1
:1026D000BB1F661F771F881FC2F70EC0BA0F621F8D
:1026E000731F841F48F4879577956795B795F7957D
:1026F0009E3F08F0B0CF9395880F08F09927EE0F12
:102700009795879508950E94661408F481E00895CE
:102710000E949C130C94A1140E949A1458F00E94D9
:10272000931440F029F45F3F29F00C948A1451115E
:102730000C94D5140C9490140E94B21468F399234D
:10274000B1F3552391F3951B550BBB27AA276217AD
:102750007307840738F09F5F5F4F220F331F441FBA
:10276000AA1FA9F335D00E2E3AF0E0E832D09150EE
:102770005040E695001CCAF72BD0FE2F29D0660FDB
:10278000771F881FBB1F261737074807AB07B0E81E
:1027900009F0BB0B802DBF01FF2793585F4F3AF024
:1027A0009E3F510578F00C948A140C94D5145F3F29
:1027B000E4F3983ED4F3869577956795B795F795AA
:1027C0009F5FC9F7880F911D9695879597F9089592
:1027D000E1E0660F771F881FBB1F6217730784072E
:1027E000BA0720F0621B730B840BBA0BEE1F88F73D
:1027F000E09508950E94BA1488F09F5798F0B92F79
:102800009927B751B0F0E1F0660F771F881F991F25
:102810001AF0BA95C9F714C0B13091F00E94D414DF
:10282000B1E008950C94D414672F782F8827B85FEF
:1028300039F0B93FCCF3869577956795B395D9F77D
:102840003EF490958095709561957F4F8F4F9F4F87
:102850000895E89409C097FB3EF490958095709593
:1028600061957F4F8F4F9F4F9923A9F0F92F96E9DC
:10287000BB279395F695879577956795B795F11151
:10288000F8CFFAF4BB0F11F460FF1BC06F5F7F4FEE
:102890008F4F9F4F16C0882311F096E911C0772300
:1028A00021F09EE8872F762F05C0662371F096E809
:1028B000862F70E060E02AF09A95660F771F881FD8
:1028C000DAF7880F9695879597F90895990F00087C
:1028D000550FAA0BE0E8FEEF16161706E807F907F2
:1028E000C0F012161306E407F50798F0621B730B8D
:1028F000840B950B39F40A2661F0232B242B252B0E
:1029000021F408950A2609F4A140A6958FEF811DB0
:10291000811D089597F99F6780E870E060E0089551
:102920009FEF80EC089500240A94161617061806E7
:102930000906089500240A941216130614060506C3
:102940000895092E0394000C11F4882352F0BB0F54
:1029500040F4BF2B11F460FF04C06F5F7F4F8F4FB7
:102960009F4F089557FD9058440F551F59F05F3FF2
:1029700071F04795880F97FB991F61F09F3F79F0A1
:1029800087950895121613061406551FF2CF469523
:10299000F1DF08C0161617061806991FF1CF8695A5
:1029A0007105610508940895E894BB276627772789
:1029B000CB0197F908950E94661408F48FEF0895EB
:1029C0000E94F3140C94A1140E94931438F00E94F6
:1029D0009A1420F0952311F00C948A140C949014FE
:1029E00011240C94D5140E94B21470F3959FC1F376
:1029F000950F50E0551F629FF001729FBB27F00DAD
:102A0000B11D639FAA27F00DB11DAA1F649F662701
:102A1000B00DA11D661F829F2227B00DA11D621F50
:102A2000739FB00DA11D621F839FA00D611D221F0A
:102A3000749F3327A00D611D231F849F600D211DEE
:102A4000822F762F6A2F11249F5750409AF0F1F071
:102A500088234AF0EE0FFF1FBB1F661F771F881FDA
:102A600091505040A9F79E3F510580F00C948A1474
:102A70000C94D5145F3FE4F3983ED4F38695779594
:102A80006795B795F795E7959F5FC1F7FE2B880F80
:102A9000911D9695879597F908950E946614880B65
:102AA000990B089597FB072E16F4009407D077FD35
:102AB00009D00E94881507FC05D03EF490958195B9
:102AC0009F4F0895709561957F4F0895A1E21A2E4A
:102AD000AA1BBB1BFD010DC0AA1FBB1FEE1FFF1FC2
:102AE000A217B307E407F50720F0A21BB30BE40B12
:102AF000F50B661F771F881F991F1A9469F7609559
:102B00007095809590959B01AC01BD01CF01089512
:102B1000AA1BBB1B51E107C0AA1FBB1FA617B70703
:102B200010F0A61BB70B881F991F5A95A9F780951F
:102B30009095BC01CD010895EE0FFF1F0590F49113
:082B4000E02D0994F894FFCF89
:102B480001000000704200001041000080410000B8
:102B5800F041000096420000A8410000C04000007B
:102B6800A8410AD7233D000020400000803F0AD733
:102B7800233C2905666666419A9959410000A0419F
:102B880031059A996141CDCC5C4100007041350511
:102B980033336B41000058410000C8410000A04099
:102BA8000000404101010101B002BB02CB02DB027F
:102BB800EE029303A403B60380048C049904A504CD
:102BC800AE04B904C304CE04D404DE04E404E90466
:102BD800F50402050F051D0500000000A4058C0082
:102BE800CE01CD013E204F757470757420566F6C00
:102BF800746167650020204F757470757420566F76
:102C08006C74616765003E2043757272656E74204E
:102C18004C696D697400202043757272656E74206A
:102C28004C696D6974003E2000202000416374697E
:102C380076617465202A0041637469766174650061
:102C4800504F57455220535550504C59003E204242
:102C5800756C6B20566F6C74616765002020427537
:102C68006C6B20566F6C74616765003E20466C6F14
:102C7800617420566F6C74616765002020466C6F24
:102C8800617420566F6C74616765003E204D6178F1
:102C98002043757272656E740020204D6178204360
:102CA800757272656E74002053455454494E4753EB
:102CB80000424154544552592054595045004D4101
:102CC800494E204D454E55006E616E00696E660096
:102CD8006F7666002041002043002056005345547B
:102CE800200055502F444E204F4B3D534156450030
:102CF8005056204D6178696D756D00426174746538
:102D08007279204D696E696D756D004261747465E4
:102D18007279204D6178696D756D004368617267DD
:102D2800652043757272656E74204D617800546534
:102D38006D7065726174757265204D6178696D7525
:102D48006D0053595354454D204C494D4954530037
:102D580055502F444E204F4B3D4544495400534550
:102D680054204F555450555420564F4C54414745C4
:102D7800005345542043555252454E54204C494D1A
:102D88004954003E20566F6C746167653A200020F4
:102D980020566F6C746167653A20003E2043757257
:102DA80072656E743A2000202043757272656E74E5
:102DB8003A200050535520414354495645202A0093
:102DC8004F4B3D45646974204241434B3D4C65611E
:102DD8007665005345542042554C4B20564F4C5471
:102DE8004147450053455420464C4F415420564FC7
:102DF8004C5441474500534554204D4158204355B4
:102E08005252454E54005053553A20434F4E535456
:102E1800414E5420562F49004D5050542053544190
:102E280054555300505620503A005720443A002534
:102E3800005461726765743A00562000432042418D
:102E4800434B3D4D656E75004E4F4E450049444C11
:102E580045004F4B3D4D656E75004241434B3D5219
:102E680065736574206661756C74004641554C54F1
:102E78003A200050563A004241543A0054495641CB
:102E88004E4120534F4C4152204D50505400496EF2
:102E9800697469616C697A696E672E2E2E005359C0
:102EA8005354454D20494E464F00546976616E6132
:102EB800204D5050540056657273696F6E20310072
:102EC8005056204F564552564F4C540042415420BC
:102ED8004F564552564F4C54004F56455243555243
:102EE80052454E54004F56455254454D50004E4F92
:102EF80020424154544552590042554C4B204D50A4
:102F08005054004142534F525054494F4E00464C82
:102F18004F4154005053552043432F4356004641D8
:102F2800554C5400486F6D65004D505054205374F3
:102F38006174757300426174746572792054797094
:102F48006500506F77657220537570706C79005307
:102F5800797374656D204C696D6974730053797366
:102F680074656D20496E666F004C69746869756D8B
:102F78000047656C004C656164204163696400002A
:00000001FF
