:020000040000FA
:100000000C9472000C949A000C949A000C949A0030
:100010000C949A000C949A000C949A000C949A00F8
:100020000C949A000C949A000C949A000C949A00E8
:100030000C949A000C949A000C949A000C949A00D8
:100040000C9470050C949A000C943E050C941805C1
:100050000C949A000C949A000C949A000C949A00B8
:100060000C949A000C949A0005A84CCDB2D44EB9C9
:100070003836A9020C50B9918688083CA6AAAA2A4B
:10008000BE000000803F00000000240027002A007E
:1000900000000000250028002B00000000002300C5
:1000A00026002900040404040404040402020202D9
:1000B000020203030303030301020408102040802B
:1000C00001020408102001020408102000000008AA
:1000D000000201000003040700000000000000000F
:1000E000BA05E00A11241FBECFEFD8E0DEBFCDBFB6
:1000F00012E0A0E0B1E0ECECF0E202C005900D925D
:10010000AE35B107D9F723E0AEE5B2E001C01D92EC
:10011000AA34B207E1F710E0C1E7D0E004C02197AC
:10012000FE010E94610EC037D107C9F70E94DD06AB
:100130000C9459100C940000AF92BF92CF92DF92B2
:10014000EF92FF920F931F93CF93DF936C017B018C
:100150008B01040F151FEB015E01AE18BF08C0171D
:10016000D10759F06991D601ED91FC910190F08190
:10017000E02DC6010995892B79F7C501DF91CF9153
:100180001F910F91FF90EF90DF90CF90BF90AF90B5
:100190000895FC0144815581608171818EE293E074
:1001A0000C949C00FC01538D448D252F30E0842F4E
:1001B00090E0821B930B541710F0CF96089501978F
:1001C0000895FC01918D828D981761F0A28DAE0F7C
:1001D000BF2FB11D5D968C91928D9F5F9F73928F03
:1001E00090E008958FEF9FEF0895FC01918D828D2F
:1001F000981731F0828DE80FF11D858D90E00895FC
:100200008FEF9FEF0895FC01918D228D892F90E053
:10021000805C9F4F821B91098F739927089583E714
:1002200092E00E94030121E0892B09F420E0822F53
:10023000089580E090E0892B29F00E940F01811140
:100240000C9400000895FC01A48DA80FB92FB11DD6
:10025000A35ABF4F2C91848D90E001968F739927FC
:10026000848FA689B7892C93A089B1898C918370DA
:1002700080648C93938D848D981306C00288F389D3
:10028000E02D80818F7D80830895EF92FF920F9300
:100290001F93CF93DF93EC0181E0888F9B8D8C8D32
:1002A00098131AC0E889F989808185FF15C09FB726
:1002B000F894EE89FF896083E889F98980818370E9
:1002C000806480839FBF81E090E0DF91CF911F9198
:1002D0000F91FF90EF900895F62E0B8D10E00F5FB9
:1002E0001F4F0F731127E02E8C8D8E110CC00FB68F
:1002F00007FCFACFE889F989808185FFF5CFCE0127
:100300000E942301F1CFEB8DEC0FFD2FF11DE35A7D
:10031000FF4FF0829FB7F8940B8FEA89FB898081A9
:100320008062CFCFCF93DF93EC01888D8823B9F023
:10033000AA89BB89E889F9898C9185FD03C08081F0
:1003400086FD0DC00FB607FCF7CF8C9185FFF2CF6D
:10035000808185FFEDCFCE010E942301E9CFDF919F
:10036000CF910895833081F028F4813099F0823064
:10037000A9F008958730A9F08830C9F08430B1F42D
:10038000809180008F7D03C0809180008F77809363
:100390008000089584B58F7784BD089584B58F7DDE
:1003A000FBCF8091B0008F778093B000089580914B
:1003B000B0008F7DF9CFCF93DF93282F30E0F90184
:1003C000E453FF4F8491F901E854FF4FD491F901B0
:1003D000EC55FF4FC491CC23A1F081110E94B201D2
:1003E000EC2FF0E0EE0FFF1FE656FF4FA591B49102
:1003F000EC91ED2381E090E009F480E0DF91CF9172
:10040000089580E090E0FACF1F93CF93DF93282FD9
:1004100030E0F901E453FF4F8491F901E854FF4FB4
:10042000D491F901EC55FF4FC491CC23A9F0162FBC
:1004300081110E94B201EC2FF0E0EE0FFF1FE05798
:10044000FF4FA591B4918FB7F894EC91111108C0AA
:10045000D095DE23DC938FBFDF91CF911F9108955C
:10046000DE2BF8CFCF93DF9390E0FC01E854FF4FF1
:1004700024918C559F4FFC0184918823D1F090E00A
:10048000880F991FFC01EA57FF4FA591B491FC0119
:10049000E057FF4FC591D491623071F49FB7F89443
:1004A0003C91822F809583238C93E8812E2B288387
:1004B0009FBFDF91CF9108958FB7F894EC912E2BC9
:1004C0002C938FBFF6CF3FB7F89480916302909141
:1004D0006402A0916502B091660226B5A89B05C092
:1004E0002F3F19F00196A11DB11D3FBFBA2FA92FB3
:1004F000982F8827BC01CD01620F711D811D911DB0
:1005000042E0660F771F881F991F4A95D1F708951B
:100510008F929F92AF92BF92CF92DF92EF92FF9213
:100520004B015C010E9463026B017C010E9463022B
:100530006C197D098E099F09683E734081059105FC
:10054000A8F321E0821A9108A108B10888EEC80E2C
:1005500083E0D81EE11CF11C81149104A104B104B4
:1005600029F7FF90EF90DF90CF90BF90AF909F90D2
:100570008F900895089590E080E00895CF93DF93E1
:10058000EC0160E08E810E94040261E08E810E9495
:10059000040260E08E810E9404028BE891E00197E2
:1005A000F1F7DF91CF910895CF92DF92EF92FF9212
:1005B0000F931F93CF93DF936C017C0187E0E80ECC
:1005C000F11CD0E0C0E0062F10E0B8010C2E02C0F4
:1005D000759567950A94E2F76170F70181917F0143
:1005E0000E9404022196C430D10579F7C601DF913B
:1005F000CF911F910F91FF90EF90DF90CF900C94CF
:10060000BE02CF92DF92EF92FF920F931F93CF9390
:10061000DF93EC01F62E642F8C810E9404028D8101
:100620008F3F19F060E00E9404020F2D10E08F85CB
:1006300084FF25C06E0187E0C80ED11CF12CE12C8F
:10064000B8010E2C02C0759567950A94E2F76170A7
:10065000F60181916F010E940402FFEFEF1AFF0A79
:1006600088E0E816F10461F7CE01DF91CF911F9188
:100670000F91FF90EF90DF90CF900C94BE02B801E5
:1006800084E0759567958A95E1F7CE010E94D402C2
:100690006F2DCE01DF91CF911F910F91FF90EF90C1
:1006A000DF90CF900C94D40240E0682F8EE293E06C
:1006B0000C94010381E00E9454038BE39FE10197B6
:1006C000F1F7089590914103691710F06FEF690FEA
:1006D000E62FF0E0E25DFC4F9489890F80680C946E
:1006E000540341E00E94010381E090E00895FC0181
:1006F00001900020E9F73197AF01481B590BBC016D
:100700008EE293E00C949C008F929F92AF92BF92E6
:100710000F931F93CF93DF93CDB7DEB7A1970FB69B
:10072000F894DEBF0FBECDBF19A2423008F44AE0F4
:100730008E010F5D1F4F842E912CB12CA12CA50191
:1007400094010E94810CE62FB901CA01EA30F4F449
:10075000E05DD801EE938D01232B242B252B79F717
:1007600090E080E0109719F0CD010E947703A196E8
:100770000FB6F894DEBF0FBECDBFDF91CF911F91B2
:100780000F91BF90AF909F908F900895E95CE1CF5B
:100790000C9477034F925F926F927F928F929F9209
:1007A000AF92BF92CF92DF92EF92FF920F931F937F
:1007B000CF936B017C01B42EAC019B010E94D40D40
:1007C000882399F084E391E0CF911F910F91FF90DE
:1007D000EF90DF90CF90BF90AF909F908F907F90E1
:1007E0006F905F904F900C94770326013701E89447
:1007F00077F82FEF3FEF4FE75FE7C301B2010E94A9
:10080000D40D81110DC02FEF3FEF4FE75FE7C3011C
:10081000B2010E94F40A18161CF488E391E0D4CFC8
:100820002FEF3FEF4FE75FE4C701B6010E94C70D0E
:1008300018161CF48CE391E0C7CF2FEF3FEF4FE782
:100840005FECC701B6010E94F40A87FDF3CF20E0F8
:1008500030E0A901C701B6010E94F40A10E000E0EF
:1008600087FF0CC041E06DE28EE293E00E9401033D
:10087000F7FAF094F7F8F09401E010E0CB2DA12CFA
:1008800060E070E080E09FE3AB1440F420E030E0F3
:1008900040E251E40E941F0DA394F6CFA7019601F8
:1008A0000E94B30C2B013C010E94980D6B017C014E
:1008B0004AE00E948403080F191FBB20C9F1C70139
:1008C000B6010E94F90A9B01AC01C301B2010E946A
:1008D000B20C4B015C0141E06EE28EE293E00E94BB
:1008E00001030F5F1F4FC15018F120E030E040E2DC
:1008F00051E4C501B4010E945A0B2B013C010E9436
:10090000980D4B01B12CA12C4AE0C501B4010E9405
:100910008403080F191FC501B4010E94F90A9B0145
:10092000AC01C301B2010E94B20C4B015C01DBCFF0
:10093000C801CF911F910F91FF90EF90DF90CF9062
:10094000BF90AF909F908F907F906F905F904F90EF
:100950000895FC0180819181009711F00C94030FA0
:100960000895EF92FF920F931F93CF93DF93EC01C3
:100970007B01198218821B821A821D821C82FB0154
:1009800001900020E9F731978F01061B170BB80182
:100990006F5F7F4F90E080E00E948C0F0097B9F06E
:1009A000998388831B830A832C813D81232B11F437
:1009B000FC0110821D830C83B70188819981DF912E
:1009C000CF911F910F91FF90EF900C94521088815E
:1009D0009981009711F00E94030F198218821D82DD
:1009E0001C821B821A82DF91CF911F910F91FF9081
:1009F000EF900895CF93DF93EC018091670290917F
:100A0000680265E471E08130910559F060E471E0BD
:100A10008130910530F069E471E0029711F06BE8E4
:100A200071E0CE010E94B104CE01DF91CF91089513
:100A30001F920F920FB60F9211242F933F934F9353
:100A40005F936F937F938F939F93AF93BF93EF9336
:100A5000FF9383E792E00E942301FF91EF91BF9102
:100A6000AF919F918F917F916F915F914F913F9146
:100A70002F910F900FBE0F901F9018951F920F92FD
:100A80000FB60F9211242F938F939F93EF93FF93A1
:100A9000E0918302F09184028081E0918902F091DB
:100AA0008A0282FD1BC0908180918C028F5F8F73C0
:100AB00020918D02821741F0E0918C02F0E0ED5818
:100AC000FD4F958F80938C02FF91EF919F918F91B5
:100AD0002F910F900FBE0F901F9018958081F4CF2B
:100AE0001F920F920FB60F9211242F933F938F9363
:100AF0009F93AF93BF9380915F0290916002A0910A
:100B00006102B091620230915E0223E0230F2D3723
:100B100058F50196A11DB11D20935E0280935F02DE
:100B200090936002A0936102B0936202809163028D
:100B300090916402A0916502B09166020196A11D98
:100B4000B11D8093630290936402A0936502B093F9
:100B50006602BF91AF919F918F913F912F910F901E
:100B60000FBE0F901F90189526E8230F0296A11D27
:100B7000B11DD2CFCF93DF931092760210927502FF
:100B800088EE93E0A0E0B0E0809377029093780243
:100B9000A0937902B0937A028AE191E09093740273
:100BA0008093730285EC90E09093800280937F02A3
:100BB00084EC90E0909382028093810280EC90E03C
:100BC000909384028093830281EC90E0909386025C
:100BD0008093850282EC90E0909388028093870254
:100BE00086EC90E090938A028093890210928C02A6
:100BF00010928D0210928E0210928F021092310389
:100C0000109230038CE291E090932F0380932E0397
:100C100083E0809332038FEF8093330382E08093ED
:100C2000340384E08093350385E08093360386E0C7
:100C30008093370387E08093380310923903109232
:100C40003A0310923B0310923C0310923D0381E063
:100C5000809341031092420380E48093430380E138
:100C60008093440380E58093450361E083E00E9424
:100C70003202809133038F3F19F061E00E9432020B
:100C800061E0809134030E943202CEE2D3E09E0103
:100C90002E52334080913D0384FD0BC084E090E0F0
:100CA00021962817390744F461E08E810E943202B0
:100CB000EECF88E090E0F4CF8BE39DE00197F1F771
:100CC00060E0809132030E94040260E0809134036E
:100CD0000E940402809133038F3F19F060E00E946C
:100CE000040280913D0384FD52C063E08EE293E0F4
:100CF0000E94D402CBE4D6E4CE010197F1F763E081
:100D00008EE293E00E94D4022197F1F763E08EE235
:100D100093E00E94D40283E592E00197F1F762E04C
:100D20008EE293E00E94D40280913D0380620E9493
:100D3000540384E080933E038CE00E9454030E949D
:100D40005A0382E080933F0386E00E9454036FE4DD
:100D500071E08CE193E00E94B10467E571E082E20A
:100D600093E00E94B1046BE571E088E293E00E9499
:100D7000B10464EF71E080E193E00E94B10461E1AD
:100D800072E086E193E0DF91CF910C94B104806230
:100D90000E9454038BE496E40197F1F780913D03A0
:100DA00080620E94540383E592E00197F1F78091FD
:100DB0003D0380620E945403B7CFCF93DF9300D0EE
:100DC00000D000D0CDB7DEB7789484B5826084BD02
:100DD00084B5816084BD85B5826085BD85B581603F
:100DE00085BD80916E00816080936E0010928100BD
:100DF0008091810082608093810080918100816078
:100E00008093810080918000816080938000809138
:100E1000B10084608093B1008091B00081608093C4
:100E2000B00080917A00846080937A0080917A008B
:100E3000826080937A0080917A00816080937A004A
:100E400080917A00806880937A001092C100E091CE
:100E50008302F091840282E08083E0917F02F0912E
:100E600080021082E0918102F091820280E1808311
:100E700010928B02E0918702F091880286E08083D5
:100E8000E0918502F0918602808180618083E0910B
:100E90008502F0918602808188608083E0918502DE
:100EA000F0918602808180688083E0918502F091D4
:100EB000860280818F7D808380913E03982F94608D
:100EC00090933E038C600E94540362E080E20E9493
:100ED000320262E081E20E94320262E089E10E9415
:100EE000320262E08AE10E9432020E945A0360E00C
:100EF00083E00E94620385E691E00E94C80361E0FE
:100F000086E00E94620380E791E00E94C80362E0ED
:100F100081E00E94620386E791E00E94C80303E03B
:100F200010E083E891E00E94C80364EF71E080E084
:100F300090E00E9488020150110999F792E8892EE9
:100F4000912CA12CB12C23E3422E542C23E5622EAC
:100F500021E4722E32E0232E312C2DEC3CEC4CECB3
:100F60005DE36091690270916A0280916B029091D9
:100F70006C020E94B30C6093690270936A028093C2
:100F80006B0290936C020E94CC0D6B017C0120E0FF
:100F900030E040E450E40E945A0B20E030E040E1B1
:100FA00052E40E94B30C609308017093090180938E
:100FB0000A0190930B0120E030E040EA50E4C701C1
:100FC000B6010E94B30C60930001709301018093FD
:100FD0000201909303012FE632E143E05BE360916D
:100FE00004017091050180910601909107010E9412
:100FF000B30C6B017C0120E030E048E651E40E9434
:10100000C70D18160CF4B2C0C0920401D0920501AD
:10101000E0920601F0920701C0900401D090050112
:10102000E0900601F090070120E030E048EC52E447
:10103000C701B6010E945A0B0E94910D9B01AC01A1
:101040002852354041095109A4ECBFEF0E94450CDC
:10105000A50194010E94180CCA01B901605B7F4F81
:101060008F4F9F4F0E94FB0A60930C0170930D01FC
:1010700080930E0190930F012DEC3CEC44E651E47B
:10108000C701B6010E94F40A87FF79C01092680276
:101090001092670289E10E94DB01892B99F468ECC8
:1010A00070E080E090E00E9488028091710290914F
:1010B0007202009709F079C083E090E09093720289
:1010C000809371028AE10E94DB01892B51F468EC64
:1010D00070E080E090E00E9488021092720210920C
:1010E000710280E20E94DB01009171021091720294
:1010F000892BA9F468EC70E080E090E00E948802FF
:101100000330110509F06AC080916D0290916E0262
:10111000019797FD60C090936E0280936D0281E20B
:101120000E94DB01892B09F4B3C00230110509F4D8
:1011300001C208F068C00115110509F435C101307C
:10114000110509F4AAC164E670E080E090E00E9415
:10115000880280E090E0892B09F4FFCE0E940F0105
:10116000882309F4FACE0E940000F7CE40920401D1
:101170005092050160920601709207014DCF23E362
:1011800033E347E651E4C701B6010E94F40A87FF42
:1011900007C081E090E090936802809367027ACF65
:1011A000309268022092670275CF8330910579F4FE
:1011B00080916D0290916E02009719F484E090E0A6
:1011C0007DCF019709F07ECF85E090E077CF04973F
:1011D00009F078CF71CF81E090E09DCF0430110508
:1011E00009F09DCF80916F0290917002019797FD59
:1011F00005C09093700280936F0291CF309270027D
:1012000020926F028CCF0430110509F49BC008F4C2
:1012100055C00530110509F096CF0E945A0360E0D1
:1012200080E00E9462038BE392E00E94C80361E0C9
:1012300080E00E9462038BE492E00E94C80342E0D7
:1012400050E066E676E686E691E40E94CA0362E034
:1012500080E00E94620381E592E00E94C80342E0C0
:1012600050E063E373E383E691E40E94CA0363E022
:1012700080E00E94620386E592E00E94C80342E09B
:1012800050E06AE979E989E591E40E94CA035BCFFD
:1012900068EC70E080E090E00E9488020330110565
:1012A00009F040C080916D0290916E0201968230EB
:1012B00091059CF590936E0280936D020E945A03F3
:1012C00060E080E00E94620382E492E00E94C80332
:1012D00061E080E00E94620380916D0290916E0255
:1012E000892B09F064C185EE91E00E94C80362E099
:1012F00080E00E94620380916D0290916E020197DE
:1013000009F058C181E092E00E94C80363E080E0E8
:101310000E9462038FE192E0BDC010926E021092B3
:101320006D02CCCF0430110509F0FFCE80916F0221
:10133000909170020196833091058CF59093700224
:1013400080936F020E945A0360E080E00E94620373
:101350008CE292E00E94C8038CE1E82E83E0F82E34
:1013600010E000E061E0600F80E00E946203809185
:101370006F02909170028017910709F01EC189E3F6
:1013800092E00E94C803C7010E94C9000F5F1F4F6F
:1013900096E0E90EF11C0330110521F7D4CE10922E
:1013A000700210926F02CECF0E945A0360E080E07C
:1013B0000E94620385E891E00E94C80360910801E1
:1013C0007091090180910A0190910B0141E050E078
:1013D0000E94CA0389E891E00E94C803609100015D
:1013E00070910101809102019091030141E050E070
:1013F0000E94CA038CE891E00E94C80361E080E08B
:101400000E9462038EE891E00E94C803609104018B
:1014100070910501809106019091070142E050E032
:101420000E94CA0389E891E00E94C803CE01019698
:101430000E94FA04CE0101960E94C900CE010196D5
:101440000E94A90462E080E00E94620383E991E0C7
:101450000E94C803209100013091010140910201D6
:1014600050910301609108017091090180910A0176
:1014700090910B010E945A0B50E040E00E94CA0379
:101480008AE991E00E94C80363E080E00E94620361
:101490008CE991E00E94C80356CE0E945A0360E096
:1014A00080E00E94620387EA91E00E94C80361E045
:1014B00080E00E94620385E891E00E94C803609189
:1014C00008017091090180910A0190910B0142E09D
:1014D00050E00E94CA0385EB91E00E94C80362E0DD
:1014E00080E00E9462038EE891E00E94C803609150
:1014F000040170910501809106019091070142E07D
:1015000050E00E94CA0385EB91E00E94C80363E0AB
:1015100080E00E94620387EB91E00E94C80342E0F2
:1015200050E060E070E080E092E40E94CA038DEB3E
:1015300091E0B0CF0E945A0360E080E00E94620315
:101540008FEB91E00E94C80361E080E00E9462039B
:101550008BEC91E00E94C803CE0101960E94FA0430
:10156000CE0101960E94C900CE0101960E94A904F5
:1015700062E080E00E94620381ED91E00E94C80376
:1015800060910C0170910D0180910E0190910F01FD
:1015900042E050E00E94CA0387ED91E00E94C80338
:1015A00063E080E00E94620389ED91E073CF83EFF6
:1015B00091E09BCE80E192E0A7CE8AE891E0E1CE77
:1015C00086E193E00E94A90480E193E00E94A904CF
:1015D00088E293E00E94A90482E293E00E94A904B9
:1015E0008CE193E00C94A9040E94360B08F481E08E
:1015F0000895E89409C097FB3EF490958095709506
:1016000061957F4F8F4F9F4F9923A9F0F92F96E94E
:10161000BB279395F695879577956795B795F111C3
:10162000F8CFFAF4BB0F11F460FF1BC06F5F7F4F60
:101630008F4F9F4F16C0882311F096E911C0772372
:1016400021F09EE8872F762F05C0662371F096E87B
:10165000862F70E060E02AF09A95660F771F881F4A
:10166000DAF7880F9695879597F90895990F0008EE
:10167000550FAA0BE0E8FEEF16161706E807F90764
:10168000C0F012161306E407F50798F0621B730BFF
:10169000840B950B39F40A2661F0232B242B252B80
:1016A00021F408950A2609F4A140A6958FEF811D23
:1016B000811D08950E946D0B0C94DE0B0E94D00BCF
:1016C00038F00E94D70B20F0952311F00C94C70B33
:1016D0000C94CD0B11240C94120C0E94EF0B70F3A0
:1016E000959FC1F3950F50E0551F629FF001729FC7
:1016F000BB27F00DB11D639FAA27F00DB11DAA1FD6
:10170000649F6627B00DA11D661F829F2227B00D22
:10171000A11D621F739FB00DA11D621F839FA00DAD
:10172000611D221F749F3327A00D611D231F849FFD
:10173000600D211D822F762F6A2F11249F57504054
:101740009AF0F1F088234AF0EE0FFF1FBB1F661FCF
:10175000771F881F91505040A9F79E3F510580F098
:101760000C94C70B0C94120C5F3FE4F3983ED4F337
:10177000869577956795B795F795E7959F5FC1F73C
:10178000FE2B880F911D9695879597F9089597F9E7
:101790009F6780E870E060E008959FEF80EC089517
:1017A00000240A9416161706180609060895002440
:1017B0000A9412161306140605060895092E0394BA
:1017C000000C11F4882352F0BB0F40F4BF2B11F42E
:1017D00060FF04C06F5F7F4F8F4F9F4F089557FD8D
:1017E0009058440F551F59F05F3F71F04795880F8F
:1017F00097FB991F61F09F3F79F087950895121626
:1018000013061406551FF2CF4695F1DF08C01616D1
:1018100017061806991FF1CF869571056105089482
:101820000895E894BB2766277727CB0197F9089599
:10183000052E97FB1EF400940E942F0C57FD07D035
:101840000E94810C07FC03D04EF40C942F0C509591
:101850004095309521953F4F4F4F5F4F089590959C
:101860008095709561957F4F8F4F9F4F08950E948F
:10187000A30CA59F900DB49F900DA49F800D911D6A
:1018800011240895B7FF0C94370C0E94370C821B6B
:10189000930B08952F923F924F925F926F927F9297
:1018A0008F929F92AF92BF92CF92DF92EF92FF9270
:1018B0000F931F93CF93DF93CDB7DEB7CA1BDB0B1C
:1018C0000FB6F894DEBF0FBECDBF09942A883988C1
:1018D00048885F846E847D848C849B84AA84B984C8
:1018E000C884DF80EE80FD800C811B81AA81B981D4
:1018F000CE0FD11D0FB6F894DEBF0FBECDBFED01E8
:101900000895A1E21A2EAA1BBB1BFD010DC0AA1F40
:10191000BB1FEE1FFF1FA217B307E407F50720F058
:10192000A21BB30BE40BF50B661F771F881F991FD3
:101930001A9469F760957095809590959B01AC011C
:10194000BD01CF010895A29FB001B39FC001A39F25
:10195000700D811D1124911DB29F700D811D1124E8
:10196000911D08955058BB27AA270E94CA0C0C94B9
:10197000DE0B0E94D00B38F00E94D70B20F039F418
:101980009F3F19F426F40C94CD0B0EF4E095E7FB81
:101990000C94C70BE92F0E94EF0B58F3BA1762079C
:1019A00073078407950720F079F4A6F50C94110CC1
:1019B0000EF4E0950B2EBA2FA02D0B01B90190016A
:1019C0000C01CA01A0011124FF27591B99F0593FAE
:1019D00050F4503E68F11A16F040A22F232F342FF6
:1019E0004427585FF3CF469537952795A795F04044
:1019F0005395C9F77EF41F16BA0B620B730B840B59
:101A0000BAF09150A1F0FF0FBB1F661F771F881F10
:101A1000C2F70EC0BA0F621F731F841F48F4879568
:101A200077956795B795F7959E3F08F0B0CF93955A
:101A3000880F08F09927EE0F9795879508950E94D3
:101A4000330D0C94DE0B0E94D70B58F00E94D00B84
:101A500040F029F45F3F29F00C94C70B51110C940E
:101A6000120C0C94CD0B0E94EF0B68F39923B1F389
:101A7000552391F3951B550BBB27AA2762177307B4
:101A8000840738F09F5F5F4F220F331F441FAA1F48
:101A9000A9F335D00E2E3AF0E0E832D09150504004
:101AA000E695001CCAF72BD0FE2F29D0660F771FB2
:101AB000881FBB1F261737074807AB07B0E809F098
:101AC000BB0B802DBF01FF2793585F4F3AF09E3F1D
:101AD000510578F00C94C70B0C94120C5F3FE4F3A3
:101AE000983ED4F3869577956795B795F7959F5F60
:101AF000C9F7880F911D9695879597F90895E1E0AC
:101B0000660F771F881FBB1F621773078407BA070A
:101B100020F0621B730B840BBA0BEE1F88F7E09565
:101B200008950E94980D6894B1110C94120C0895B8
:101B30000E94F70B88F09F5798F0B92F9927B7515B
:101B4000B0F0E1F0660F771F881F991F1AF0BA9561
:101B5000C9F714C0B13091F00E94110CB1E00895A2
:101B60000C94110C672F782F8827B85F39F0B93F94
:101B7000CCF3869577956795B395D9F73EF4909514
:101B80008095709561957F4F8F4F9F4F08950E946C
:101B9000360B08F48FEF08959F930E94DB0D0F9092
:101BA00007FCEE5F0C94040E0E94360B880B990B19
:101BB00008950C94CD0B0E94F70BD8F3E894E0E065
:101BC000BB279F57F0F02AED3FE049EC06C0EE0F2F
:101BD000BB0F661F771F881F28F0B23A6207730792
:101BE000840728F0B25A620B730B840BE3959A9525
:101BF00072F7803830F49A95BB0F661F771F881FE5
:101C0000D2F790480C941A0EEF93E0FF07C0A2EAB7
:101C10002AED3FE049EC5FEB0E94CA0C0E94DE0B0C
:101C20000F90039401FC9058E8E6F0E00C94260E27
:101C30009F3F31F0915020F4879577956795B79540
:101C4000880F911D9695879597F908959F938F9387
:101C50007F936F93FF93EF939B01AC010E945A0B0C
:101C6000EF91FF910E943A0E2F913F914F915F911A
:101C70000C945A0BDF93CF931F930F93FF92EF9225
:101C8000DF927B018C01689406C0DA2EEF010E947E
:101C90006D0BFE01E894A5912591359145915591E3
:101CA000A6F3EF010E94CA0CFE019701A801DA9485
:101CB00069F7DF90EF90FF900F911F91CF91DF9127
:101CC0000895EE0FFF1F0590F491E02D09940F93F6
:101CD0001F93CF93DF938230910510F482E090E060
:101CE000E0914803F091490330E020E0B0E0A0E04B
:101CF000309799F42115310509F44AC0281B390B96
:101D000024303105D8F58A819B816115710589F1EF
:101D1000FB0193838283FE0111C0408151810281C6
:101D2000138148175907E0F04817590799F410979D
:101D300061F012960C93129713961C933296CF0172
:101D4000DF91CF911F910F91089500934803109355
:101D50004903F4CF2115310551F04217530738F0EC
:101D6000A901DB019A01BD01DF01F801C1CFEF013B
:101D7000F9CF9093490380934803CDCFFE01E20F42
:101D8000F31F819391932250310939832883D7CF50
:101D90002091460330914703232B41F420911201F7
:101DA0003091130130934703209346032091100193
:101DB000309111012115310541F42DB73EB7409105
:101DC000140150911501241B350BE0914603F0914D
:101DD0004703E217F307A0F42E1B3F0B2817390720
:101DE00078F0AC014E5F5F4F2417350748F04E0F77
:101DF0005F1F5093470340934603819391939FCF76
:101E0000F0E0E0E09CCFCF93DF930097E9F0FC0196
:101E1000329713821282A0914803B0914903ED01D9
:101E200030E020E01097A1F420813181820F931FD0
:101E300020914603309147032817390709F061C004
:101E4000F0934703E0934603DF91CF910895EA01B1
:101E5000CE17DF07E8F54A815B819E0141155105E8
:101E6000B1F7E901FB83EA8349915991C40FD51F6A
:101E7000EC17FD0761F4808191810296840F951F14
:101E8000E90199838883828193819B838A83F0E02F
:101E9000E0E012968D919C9113970097B9F52D91E2
:101EA0003C911197CD010296820F931F209146031A
:101EB000309147032817390739F6309751F51092BA
:101EC000490310924803B0934703A0934603BCCF45
:101ED000D383C28340815181840F951FC817D907CE
:101EE00061F44E5F5F4F88819981480F591F51837C
:101EF00040838A819B81938382832115310509F078
:101F0000B0CFF0934903E09348039ECFFD01DC017D
:101F1000C0CF13821282D7CFB0E0A0E0E2E9FFE0A9
:101F20000C944C0C8C01009751F4CB010E94670E6D
:101F30008C01C801CDB7DEB7E0E10C94680CFC0160
:101F4000E60FF71F9C0122503109E217F30708F44E
:101F50009DC0D901CD91DC911197C617D70798F094
:101F6000C530D10530F3CE0104978617970708F3E3
:101F7000C61BD70B2297C193D1936D937C93CF014E
:101F80000E94030FD6CF5B01AC1ABD0A4C018C0E28
:101F90009D1EA0914803B0914903512C412CF12C76
:101FA000E12C109731F580914603909147038815F5
:101FB000990509F05CC04616570608F058C0809194
:101FC000100190911101009741F48DB79EB7409197
:101FD000140150911501841B950BE817F90708F0BF
:101FE00055C0F0934703E0934603F9017183608382
:101FF000A0CF8D919C91119712966C901297139689
:102000007C901397A815B90559F56C0142E0C40EF0
:10201000D11CCA14DB0420F1AC014A195B09DA01B6
:102020001296159780F06282738251834083D901A2
:102030006D937C93E114F10471F0D7011396FC9336
:10204000EE93129776CF22968C0F9D1FF901918304
:102050008083F301EFCFF0934903E093480369CF06
:102060004816590608F42C017D01D3019ACFCB0103
:102070000E94670E7C01009749F0AE01B8010E94F2
:102080004910C8010E94030F870153CF10E000E000
:1020900050CFFB01DC0102C001900D924150504035
:1020A000D8F70895FB01DC0101900D920020E1F7C3
:1020B000089510E0C1E7D0E004C0FE010E94610E67
:1020C0002196C237D107C9F7F894FFCF6666A640BC
:1020D000CDCC5C4100001A4200005C4200004A0383
:1020E00080000000000045019C00D2009201030125
:1020F000E100F5000000000071039C00BB02BA0281
:102100006E616E00696E66006F76660042554C4BDC
:102110000041425300464C4F4154004C49544849F9
:10212000554D0047454C004C4541442041434944EE
:1021300000534F4C4152204D5050540045535033A2
:102140003200496E697469616C697A696E67002E44
:102150000050563A0056200041004241543A005087
:102160004F5745523A005700454E5445523D4D4554
:102170004E55004C4956452052454144494E47531F
:1021800000560054454D503A0043004D50505420E5
:10219000535441545553004D4F44453A004455540F
:1021A000593A002500545241434B494E47204F4E67
:1021B000003E426174746572792054797065002024
:1021C000426174746572792054797065003E566F6F
:1021D0006C746167652053657475700020566F6C70
:1021E0007461676520536574757000454E5445529F
:1021F0002053454C454354004241545445525920C4
:1022000054595045003E00434841524745205345EC
:102210005454494E47530042756C6B200041627321
:0A2220002000466C6F61742000007E
:107E0000112484B714BE81FFF0D085E080938100F7
:107E100082E08093C00088E18093C10086E0809377
:107E2000C20080E18093C4008EE0C9D0259A86E02C
:107E300020E33CEF91E0309385002093840096BBD3
:107E4000B09BFECF1D9AA8958150A9F7CC24DD24C4
:107E500088248394B5E0AB2EA1E19A2EF3E0BF2EE7
:107E6000A2D0813461F49FD0082FAFD0023811F036
:107E7000013811F484E001C083E08DD089C08234E0
:107E800011F484E103C0853419F485E0A6D080C0E4
:107E9000853579F488D0E82EFF2485D0082F10E0AE
:107EA000102F00270E291F29000F111F8ED06801E7
:107EB0006FC0863521F484E090D080E0DECF843638
:107EC00009F040C070D06FD0082F6DD080E0C81688
:107ED00080E7D80618F4F601B7BEE895C0E0D1E017
:107EE00062D089930C17E1F7F0E0CF16F0E7DF06D8
:107EF00018F0F601B7BEE89568D007B600FCFDCFD4
:107F0000A601A0E0B1E02C9130E011968C91119780
:107F100090E0982F8827822B932B1296FA010C0160
:107F200087BEE89511244E5F5F4FF1E0A038BF0790
:107F300051F7F601A7BEE89507B600FCFDCF97BE46
:107F4000E89526C08437B1F42ED02DD0F82E2BD052
:107F50003CD0F601EF2C8F010F5F1F4F84911BD097
:107F6000EA94F801C1F70894C11CD11CFA94CF0C13
:107F7000D11C0EC0853739F428D08EE10CD085E9AC
:107F80000AD08FE07ACF813511F488E018D01DD067
:107F900080E101D065CF982F8091C00085FFFCCF94
:107FA0009093C60008958091C00087FFFCCF809118
:107FB000C00084FD01C0A8958091C6000895E0E648
:107FC000F0E098E1908380830895EDDF803219F02E
:107FD00088E0F5DFFFCF84E1DECF1F93182FE3DFCA
:107FE0001150E9F7F2DF1F91089580E0E8DFEE27F6
:047FF000FF270994CA
:027FFE00040479
:00000001FF
