:100000000C9472000C949A000C949A000C949A0030
:100010000C949A000C949A000C949A000C949A00F8
:100020000C949A000C949A000C949A000C949A00E8
:100030000C949A000C949A000C949A000C949A00D8
:100040000C9410060C949A000C94DE050C94B805E0
:100050000C949A000C949A000C949A000C949A00B8
:100060000C949A000C949A0005A84CCDB2D44EB9C9
:100070003836A9020C50B9918688083CA6AAAA2A4B
:10008000BE000000803F00000000240027002A007E
:1000900000000000250028002B00000000002300C5
:1000A00026002900040404040404040402020202D9
:1000B000020203030303030301020408102040802B
:1000C00001020408102001020408102000000008AA
:1000D000000201000003040700000000000000000F
:1000E0005A06CA0A11241FBECFEFD8E0DEBFCDBF2B
:1000F00012E0A0E0B1E0E0EAF0E202C005900D926B
:10010000AE35B107D9F723E0AEE5B2E001C01D92EC
:10011000AA34B207E1F710E0C1E7D0E004C02197AC
:10012000FE010E944B0EC037D107C9F70E94C306DB
:100130000C9443100C940000AF92BF92CF92DF92C8
:10014000EF92FF920F931F93CF93DF936C017B018C
:100150008B01040F151FEB015E01AE18BF08C0171D
:10016000D10759F06991D601ED91FC910190F08190
:10017000E02DC6010995892B79F7C501DF91CF9153
:100180001F910F91FF90EF90DF90CF90BF90AF90B5
:100190000895FC0144815581608171818EE293E074
:1001A0000C949C00FC01538D448D252F30E0842F4E
:1001B00090E0821B930B541710F0CF96089501978F
:1001C0000895FC01918D828D981761F0A28DAE0F7C
:1001D000BF2FB11D5D968C91928D9F5F9F73928F03
:1001E00090E008958FEF9FEF0895FC01918D828D2F
:1001F000981731F0828DE80FF11D858D90E00895FC
:100200008FEF9FEF0895FC01918D228D892F90E053
:10021000805C9F4F821B91098F739927089583E714
:1002200092E00E94030121E0892B09F420E0822F53
:10023000089580E090E0892B29F00E940F01811140
:100240000C9400000895FC01A48DA80FB92FB11DD6
:10025000A35ABF4F2C91848D90E001968F739927FC
:10026000848FA689B7892C93A089B1898C918370DA
:1002700080648C93938D848D981306C00288F389D3
:10028000E02D80818F7D80830895EF92FF920F9300
:100290001F93CF93DF93EC0181E0888F9B8D8C8D32
:1002A00098131AC0E889F989808185FF15C09FB726
:1002B000F894EE89FF896083E889F98980818370E9
:1002C000806480839FBF81E090E0DF91CF911F9198
:1002D0000F91FF90EF900895F62E0B8D10E00F5FB9
:1002E0001F4F0F731127E02E8C8D8E110CC00FB68F
:1002F00007FCFACFE889F989808185FFF5CFCE0127
:100300000E942301F1CFEB8DEC0FFD2FF11DE35A7D
:10031000FF4FF0829FB7F8940B8FEA89FB898081A9
:100320008062CFCFCF93DF93EC01888D8823B9F023
:10033000AA89BB89E889F9898C9185FD03C08081F0
:1003400086FD0DC00FB607FCF7CF8C9185FFF2CF6D
:10035000808185FFEDCFCE010E942301E9CFDF919F
:10036000CF910895833081F028F4813099F0823064
:10037000A9F008958730A9F08830C9F08430B1F42D
:10038000809180008F7D03C0809180008F77809363
:100390008000089584B58F7784BD089584B58F7DDE
:1003A000FBCF8091B0008F778093B000089580914B
:1003B000B0008F7DF9CFCF93DF93282F30E0F90184
:1003C000E453FF4F8491F901E854FF4FD491F901B0
:1003D000EC55FF4FC491CC23A1F081110E94B201D2
:1003E000EC2FF0E0EE0FFF1FE656FF4FA591B49102
:1003F000EC91ED2381E090E009F480E0DF91CF9172
:10040000089580E090E0FACF1F93CF93DF93282FD9
:1004100030E0F901E453FF4F8491F901E854FF4FB4
:10042000D491F901EC55FF4FC491CC23A9F0162FBC
:1004300081110E94B201EC2FF0E0EE0FFF1FE05798
:10044000FF4FA591B4918FB7F894EC91111108C0AA
:10045000D095DE23DC938FBFDF91CF911F9108955C
:10046000DE2BF8CFCF93DF9390E0FC01E854FF4FF1
:1004700024918C559F4FFC0184918823D1F090E00A
:10048000880F991FFC01EA57FF4FA591B491FC0119
:10049000E057FF4FC591D491623071F49FB7F89443
:1004A0003C91822F809583238C93E8812E2B288387
:1004B0009FBFDF91CF9108958FB7F894EC912E2BC9
:1004C0002C938FBFF6CF3FB7F89480916302909141
:1004D0006402A0916502B091660226B5A89B05C092
:1004E0002F3F19F00196A11DB11D3FBFBA2FA92FB3
:1004F000982F8827BC01CD01620F711D811D911DB0
:1005000042E0660F771F881F991F4A95D1F708951B
:100510008F929F92AF92BF92CF92DF92EF92FF9213
:100520004B015C010E9463026B017C010E9463022B
:100530006C197D098E099F09683E734081059105FC
:10054000A8F321E0821A9108A108B10888EEC80E2C
:1005500083E0D81EE11CF11C81149104A104B104B4
:1005600029F7FF90EF90DF90CF90BF90AF909F90D2
:100570008F900895089590E080E00895CF93DF93E1
:10058000EC0160E08E810E94040261E08E810E9495
:10059000040260E08E810E9404028BE891E00197E2
:1005A000F1F7DF91CF910895CF92DF92EF92FF9212
:1005B0000F931F93CF93DF936C017C0187E0E80ECC
:1005C000F11CD0E0C0E0062F10E0B8010C2E02C0F4
:1005D000759567950A94E2F76170F70181917F0143
:1005E0000E9404022196C430D10579F7C601DF913B
:1005F000CF911F910F91FF90EF90DF90CF900C94CF
:10060000BE02CF92DF92EF92FF920F931F93CF9390
:10061000DF93EC01F62E642F8C810E9404028D8101
:100620008F3F19F060E00E9404020F2D10E08F85CB
:1006300084FF25C06E0187E0C80ED11CF12CE12C8F
:10064000B8010E2C02C0759567950A94E2F76170A7
:10065000F60181916F010E940402FFEFEF1AFF0A79
:1006600088E0E816F10461F7CE01DF91CF911F9188
:100670000F91FF90EF90DF90CF900C94BE02B801E5
:1006800084E0759567958A95E1F7CE010E94D402C2
:100690006F2DCE01DF91CF911F910F91FF90EF90C1
:1006A000DF90CF900C94D40240E0682F8EE293E06C
:1006B0000C94010381E00E9454038BE39FE10197B6
:1006C000F1F70895CF93DF93613029F090913D03C6
:1006D000986090933D03609341031092420390E42D
:1006E0009093430380934403805C8093450361E0CF
:1006F000809132030E943202809133038F3F19F0C0
:1007000061E00E94320261E0809134030E94320273
:10071000CEE2D3E09E012E52334080913D0384FD12
:100720000BC084E090E021962817390744F461E07B
:100730008E810E943202EECF88E090E0F4CF8BE30E
:100740009DE00197F1F760E0809132030E9404027E
:1007500060E0809134030E940402809133038F3F54
:1007600019F060E00E94040280913D0384FD34C0D2
:1007700063E08EE293E00E94D402CBE4D6E4CE01A3
:100780000197F1F763E08EE293E00E94D402219793
:10079000F1F763E08EE293E00E94D40283E592E0F9
:1007A0000197F1F762E08EE293E00E94D40280911B
:1007B0003D0380620E94540384E080933E038CE0FA
:1007C0000E9454030E945A0382E080933F0386E014
:1007D000DF91CF910C94540380620E9454038BE408
:1007E00096E40197F1F780913D0380620E945403E3
:1007F00083E592E00197F1F780913D0380620E94CA
:100800005403D5CF90914103691710F06FEF690F32
:10081000E62FF0E0E25DFC4F9489890F80680C942C
:10082000540341E00E94010381E090E00895FC013F
:1008300001900020E9F73197AF01481B590BBC012B
:100840008EE293E00C949C008F929F92AF92BF92A5
:100850000F931F93CF93DF93CDB7DEB7A1970FB65A
:10086000F894DEBF0FBECDBF19A2423008F44AE0B3
:100870008E010F5D1F4F842E912CB12CA12CA50150
:1008800094010E946B0CE62FB901CA01EA30F4F41E
:10089000E05DD801EE938D01232B242B252B79F7D6
:1008A00090E080E0109719F0CD010E941704A19606
:1008B0000FB6F894DEBF0FBECDBFDF91CF911F9171
:1008C0000F91BF90AF909F908F900895E95CE1CF1A
:1008D0000C9417044F925F926F927F928F929F9227
:1008E000AF92BF92CF92DF92EF92FF920F931F933E
:1008F000CF936B017C01B42EAC019B010E94BE0D15
:10090000882399F084E391E0CF911F910F91FF909C
:10091000EF90DF90CF90BF90AF909F908F907F909F
:100920006F905F904F900C94170426013701E89464
:1009300077F82FEF3FEF4FE75FE7C301B2010E9467
:10094000BE0D81110DC02FEF3FEF4FE75FE7C301F1
:10095000B2010E94DE0A18161CF488E391E0D4CF9D
:100960002FEF3FEF4FE75FE4C701B6010E94B10DE3
:1009700018161CF48CE391E0C7CF2FEF3FEF4FE741
:100980005FECC701B6010E94DE0A87FDF3CF20E0CD
:1009900030E0A901C701B6010E94DE0A10E000E0C4
:1009A00087FF0CC041E06DE28EE293E00E940103FC
:1009B000F7FAF094F7F8F09401E010E0CB2DA12CB9
:1009C00060E070E080E09FE3AB1440F420E030E0B2
:1009D00040E251E40E94090DA394F6CFA7019601CD
:1009E0000E949D0C2B013C010E94820D6B017C0139
:1009F0004AE00E942404080F191FBB20C9F1C70157
:100A0000B6010E94E30A9B01AC01C301B2010E943E
:100A10009C0C4B015C0141E06EE28EE293E00E948F
:100A200001030F5F1F4FC15018F120E030E040E29A
:100A300051E4C501B4010E94440B2B013C010E940A
:100A4000820D4B01B12CA12C4AE0C501B4010E94DA
:100A50002404080F191FC501B4010E94E30A9B0179
:100A6000AC01C301B2010E949C0C4B015C01DBCFC5
:100A7000C801CF911F910F91FF90EF90DF90CF9021
:100A8000BF90AF909F908F907F906F905F904F90AE
:100A90000895FC0180819181009711F00C94ED0E76
:100AA0000895EF92FF920F931F93CF93DF93EC0182
:100AB0007B01198218821B821A821D821C82FB0113
:100AC00001900020E9F731978F01061B170BB80141
:100AD0006F5F7F4F90E080E00E94760F0097B9F043
:100AE000998388831B830A832C813D81232B11F4F6
:100AF000FC0110821D830C83B70188819981DF91ED
:100B0000CF911F910F91FF90EF900C943C10888132
:100B10009981009711F00E94ED0E198218821D82B2
:100B20001C821B821A82DF91CF911F910F91FF903F
:100B3000EF900895CF93DF93EC018091670290913D
:100B4000680265E471E08130910559F060E471E07C
:100B50008130910530F069E471E0029711F06BE8A3
:100B600071E0CE010E945105CE01DF91CF91089531
:100B70001F920F920FB60F9211242F933F934F9312
:100B80005F936F937F938F939F93AF93BF93EF93F5
:100B9000FF9383E792E00E942301FF91EF91BF91C1
:100BA000AF919F918F917F916F915F914F913F9105
:100BB0002F910F900FBE0F901F9018951F920F92BC
:100BC0000FB60F9211242F938F939F93EF93FF9360
:100BD000E0918302F09184028081E0918902F0919A
:100BE0008A0282FD1BC0908180918C028F5F8F737F
:100BF00020918D02821741F0E0918C02F0E0ED58D7
:100C0000FD4F958F80938C02FF91EF919F918F9173
:100C10002F910F900FBE0F901F9018958081F4CFE9
:100C20001F920F920FB60F9211242F933F938F9321
:100C30009F93AF93BF9380915F0290916002A091C8
:100C40006102B091620230915E0223E0230F2D37E2
:100C500058F50196A11DB11D20935E0280935F029D
:100C600090936002A0936102B0936202809163024C
:100C700090916402A0916502B09166020196A11D57
:100C8000B11D8093630290936402A0936502B093B8
:100C90006602BF91AF919F918F913F912F910F90DD
:100CA0000FBE0F901F90189526E8230F0296A11DE6
:100CB000B11DD2CFE3E7F2E01382128288EE93E017
:100CC000A0E0B0E084839583A683B7838AE191E0B6
:100CD0009183808385EC90E09587848784EC90E015
:100CE0009787868780EC90E0918B808B81EC90E0F9
:100CF000938B828B82EC90E0958B848B86EC90E0DA
:100D0000978B868B118E128E138E148EEEE2F3E08B
:100D1000138212828CE291E09183808383E084834A
:100D20008FEF858382E0868384E0878385E08087F8
:100D300086E0818787E0828713861486158616866B
:100D4000178661E080E10E9462036FE471E08CE14C
:100D500093E00E94510567E571E082E293E00E9412
:100D600051056BE571E088E293E00E94510564EF64
:100D700071E080E193E00E94510561E172E086E15B
:100D800093E00C945105CF93DF9300D000D000D0B6
:100D9000CDB7DEB7789484B5826084BD84B58160B8
:100DA00084BD85B5826085BD85B5816085BD809136
:100DB0006E00816080936E001092810080918100AE
:100DC00082608093810080918100816080938100A6
:100DD000809180008160809380008091B100846068
:100DE0008093B1008091B00081608093B0008091C9
:100DF0007A00846080937A0080917A008260809388
:100E00007A0080917A00816080937A0080917A00E4
:100E1000806880937A001092C100E0918302F09183
:100E2000840282E08083E0917F02F0918002108250
:100E3000E0918102F091820280E1808310928B0226
:100E4000E0918702F091880286E08083E09185023C
:100E5000F0918602808180618083E0918502F0912B
:100E60008602808188608083E0918502F09186020D
:100E7000808180688083E0918502F0918602808184
:100E80008F7D808364E084E10E94620380913E0351
:100E9000982F946090933E038C600E94540362E00C
:100EA00080E20E94320262E081E20E94320262E04D
:100EB00089E10E94320262E08AE10E9432020E94CD
:100EC0005A0360E083E00E94020485E691E00E94FC
:100ED000680461E086E00E94020480E791E00E94DD
:100EE000680462E081E00E94020486E791E00E94CB
:100EF000680403E010E083E891E00E94680464EF76
:100F000071E080E090E00E9488020150110999F799
:100F100092E8892E912CA12CB12C23E3422E542C43
:100F200023E5622E21E4722E32E0232E312C2DECAB
:100F30003CEC4CEC5DE36091690270916A02809137
:100F40006B0290916C020E949D0C609369027093F9
:100F50006A0280936B0290936C020E94B60D6B0143
:100F60007C0120E030E040E450E40E94440B20E0AB
:100F700030E040E152E40E949D0C609308017093C0
:100F8000090180930A0190930B0120E030E040EAD0
:100F900050E4C701B6010E949D0C6093000170935C
:100FA000010180930201909303012FE632E143E0B7
:100FB0005BE36091040170910501809106019091BD
:100FC00007010E949D0C6B017C0120E030E048E6A7
:100FD00051E40E94B10D18160CF4B2C0C092040185
:100FE000D0920501E0920601F0920701C090040141
:100FF000D0900501E0900601F090070120E030E07C
:1010000048EC52E4C701B6010E94440B0E947B0DDC
:101010009B01AC012852354041095109A4ECBFEFB6
:101020000E942F0CA50194010E94020CCA01B90173
:10103000605B7F4F8F4F9F4F0E94E50A60930C01CA
:1010400070930D0180930E0190930F012DEC3CECF9
:1010500044E651E4C701B6010E94DE0A87FF79C069
:10106000109268021092670289E10E94DB01892BCD
:1010700099F468EC70E080E090E00E948802809132
:10108000710290917202009709F079C083E090E0BC
:1010900090937202809371028AE10E94DB01892B96
:1010A00051F468EC70E080E090E00E9488021092B9
:1010B00072021092710280E20E94DB0100917102C3
:1010C00010917202892BA9F468EC70E080E090E046
:1010D0000E9488020330110509F06AC080916D02F8
:1010E00090916E02019797FD60C090936E0280937D
:1010F0006D0281E20E94DB01892B09F4B3C002304A
:10110000110509F401C208F068C00115110509F4C0
:1011100035C10130110509F4AAC164E670E080E030
:1011200090E00E94880280E090E0892B09F4FFCED5
:101130000E940F01882309F4FACE0E940000F7CE26
:1011400040920401509205016092060170920701DD
:101150004DCF23E333E347E651E4C701B6010E94D4
:10116000DE0A87FF07C081E090E0909368028093D9
:1011700067027ACF309268022092670275CF83307F
:10118000910579F480916D0290916E02009719F4A7
:1011900084E090E07DCF019709F07ECF85E090E07C
:1011A00077CF049709F078CF71CF81E090E09DCFA1
:1011B0000430110509F09DCF80916F02909170026B
:1011C000019797FD05C09093700280936F0291CFB5
:1011D0003092700220926F028CCF0430110509F416
:1011E0009BC008F455C00530110509F096CF0E9448
:1011F0005A0360E080E00E9402048BE392E00E94C8
:10120000680461E080E00E9402048BE492E00E94A6
:10121000680442E050E066E676E686E691E40E94E5
:101220006A0462E080E00E94020481E592E00E948C
:10123000680442E050E063E373E383E691E40E94D4
:101240006A0463E080E00E94020486E592E00E9466
:10125000680442E050E06AE979E989E591E40E9496
:101260006A045BCF68EC70E080E090E00E94880246
:101270000330110509F040C080916D0290916E021B
:101280000196823091059CF590936E0280936D02D9
:101290000E945A0360E080E00E94020482E492E02F
:1012A0000E94680461E080E00E94020480916D0267
:1012B00090916E02892B09F064C185EE91E00E9445
:1012C000680462E080E00E94020480916D029091C7
:1012D0006E02019709F058C181E092E00E94680413
:1012E00063E080E00E9402048FE192E0BDC01092B2
:1012F0006E0210926D02CCCF0430110509F0FFCEC2
:1013000080916F02909170020196833091058CF567
:101310009093700280936F020E945A0360E080E015
:101320000E9402048CE292E00E9468048CE1E82EA4
:1013300083E0F82E10E000E061E0600F80E00E94A2
:10134000020480916F02909170028017910709F05A
:101350001EC189E392E00E946804C7010E94C9008F
:101360000F5F1F4F96E0E90EF11C0330110521F7C6
:10137000D4CE1092700210926F02CECF0E945A0308
:1013800060E080E00E94020485E891E00E94680429
:10139000609108017091090180910A0190910B01FF
:1013A00041E050E00E946A0489E891E00E946804EC
:1013B00060910001709101018091020190910301FF
:1013C00041E050E00E946A048CE891E00E946804C9
:1013D00061E080E00E9402048EE891E00E946804CF
:1013E00060910401709105018091060190910701BF
:1013F00042E050E00E946A0489E891E00E9468049B
:10140000CE0101960E949A05CE0101960E94C90064
:10141000CE0101960E94490562E080E00E9402042C
:1014200083E991E00E94680420910001309101015C
:1014300040910201509103016091080170910901EE
:1014400080910A0190910B010E94440B50E040E012
:101450000E946A048AE991E00E94680463E080E0E7
:101460000E9402048CE991E00E94680456CE0E941A
:101470005A0360E080E00E94020487EA91E00E9443
:10148000680461E080E00E94020485E891E00E9427
:101490006804609108017091090180910A0190919E
:1014A0000B0142E050E00E946A0485EB91E00E944B
:1014B000680462E080E00E9402048EE891E00E94ED
:1014C000680460910401709105018091060190917A
:1014D000070142E050E00E946A0485EB91E00E941F
:1014E000680463E080E00E94020487EB91E00E94C0
:1014F000680442E050E060E070E080E092E40E9426
:101500006A048DEB91E0B0CF0E945A0360E080E066
:101510000E9402048FEB91E00E94680461E080E089
:101520000E9402048BEC91E00E946804CE010196B7
:101530000E949A05CE0101960E94C900CE01019633
:101540000E94490562E080E00E94020481ED91E082
:101550000E94680460910C0170910D0180910E0150
:1015600090910F0142E050E00E946A0487ED91E003
:101570000E94680463E080E00E94020489ED91E02B
:1015800073CF83EF91E09BCE80E192E0A7CE8AE813
:1015900091E0E1CE86E193E00E94490580E193E08D
:1015A0000E94490588E293E00E94490582E293E0A7
:1015B0000E9449058CE193E00C9449050E94200BA0
:1015C00008F481E00895E89409C097FB3EF49095F3
:1015D0008095709561957F4F8F4F9F4F9923A9F00C
:1015E000F92F96E9BB279395F6958795779567959B
:1015F000B795F111F8CFFAF4BB0F11F460FF1BC0DF
:101600006F5F7F4F8F4F9F4F16C0882311F096E971
:1016100011C0772321F09EE8872F762F05C066231F
:1016200071F096E8862F70E060E02AF09A95660FD8
:10163000771F881FDAF7880F9695879597F9089591
:10164000990F0008550FAA0BE0E8FEEF16161706D3
:10165000E807F907C0F012161306E407F50798F03B
:10166000621B730B840B950B39F40A2661F0232B54
:10167000242B252B21F408950A2609F4A140A695D0
:101680008FEF811D811D08950E94570B0C94C80B8C
:101690000E94BA0B38F00E94C10B20F0952311F084
:1016A0000C94B10B0C94B70B11240C94FC0B0E94FE
:1016B000D90B70F3959FC1F3950F50E0551F629FB2
:1016C000F001729FBB27F00DB11D639FAA27F00D9B
:1016D000B11DAA1F649F6627B00DA11D661F829FC2
:1016E0002227B00DA11D621F739FB00DA11D621FA7
:1016F000839FA00D611D221F749F3327A00D611DC4
:10170000231F849F600D211D822F762F6A2F1124A5
:101710009F5750409AF0F1F088234AF0EE0FFF1FD8
:10172000BB1F661F771F881F91505040A9F79E3F2F
:10173000510580F00C94B10B0C94FC0B5F3FE4F36B
:10174000983ED4F3869577956795B795F795E79585
:101750009F5FC1F7FE2B880F911D9695879597F98E
:10176000089597F99F6780E870E060E008959FEF23
:1017700080EC089500240A94161617061806090628
:10178000089500240A9412161306140605060895F7
:10179000092E0394000C11F4882352F0BB0F40F47F
:1017A000BF2B11F460FF04C06F5F7F4F8F4F9F4FBF
:1017B000089557FD9058440F551F59F05F3F71F041
:1017C0004795880F97FB991F61F09F3F79F08795A8
:1017D0000895121613061406551FF2CF4695F1DF31
:1017E00008C0161617061806991FF1CF86957105C1
:1017F000610508940895E894BB2766277727CB01F5
:1018000097F90895052E97FB1EF400940E94190C79
:1018100057FD07D00E946B0C07FC03D04EF40C94CC
:10182000190C50954095309521953F4F4F4F5F4F84
:10183000089590958095709561957F4F8F4F9F4F3C
:1018400008950E948D0CA59F900DB49F900DA49FAC
:10185000800D911D11240895B7FF0C94210C0E9456
:10186000210C821B930B08952F923F924F925F920F
:101870006F927F928F929F92AF92BF92CF92DF92A0
:10188000EF92FF920F931F93CF93DF93CDB7DEB705
:10189000CA1BDB0B0FB6F894DEBF0FBECDBF099499
:1018A0002A88398848885F846E847D848C849B84F0
:1018B000AA84B984C884DF80EE80FD800C811B81FE
:1018C000AA81B981CE0FD11D0FB6F894DEBF0FBE2D
:1018D000CDBFED010895A1E21A2EAA1BBB1BFD018D
:1018E0000DC0AA1FBB1FEE1FFF1FA217B307E407FF
:1018F000F50720F0A21BB30BE40BF50B661F771F57
:10190000881F991F1A9469F7609570958095909536
:101910009B01AC01BD01CF010895A29FB001B39F0F
:10192000C001A39F700D811D1124911DB29F700DE8
:10193000811D1124911D08955058BB27AA270E948C
:10194000B40C0C94C80B0E94BA0B38F00E94C10B67
:1019500020F039F49F3F19F426F40C94B70B0EF4E1
:10196000E095E7FB0C94B10BE92F0E94D90B58F3DB
:10197000BA17620773078407950720F079F4A6F574
:101980000C94FB0B0EF4E0950B2EBA2FA02D0B013F
:10199000B90190010C01CA01A0011124FF27591BB4
:1019A00099F0593F50F4503E68F11A16F040A22FBA
:1019B000232F342F4427585FF3CF4695379527952B
:1019C000A795F0405395C9F77EF41F16BA0B620B2A
:1019D000730B840BBAF09150A1F0FF0FBB1F661F71
:1019E000771F881FC2F70EC0BA0F621F731F841FB4
:1019F00048F4879577956795B795F7959E3F08F0DA
:101A0000B0CF9395880F08F09927EE0F979587959B
:101A100008950E941D0D0C94C80B0E94C10B58F034
:101A20000E94BA0B40F029F45F3F29F00C94B10BEF
:101A300051110C94FC0B0C94B70B0E94D90B68F35A
:101A40009923B1F3552391F3951B550BBB27AA2777
:101A500062177307840738F09F5F5F4F220F331FB1
:101A6000441FAA1FA9F335D00E2E3AF0E0E832D079
:101A700091505040E695001CCAF72BD0FE2F29D07C
:101A8000660F771F881FBB1F261737074807AB074E
:101A9000B0E809F0BB0B802DBF01FF2793585F4FC3
:101AA0003AF09E3F510578F00C94B10B0C94FC0B6E
:101AB0005F3FE4F3983ED4F3869577956795B795A5
:101AC000F7959F5FC9F7880F911D9695879597F9B0
:101AD0000895E1E0660F771F881FBB1F6217730729
:101AE0008407BA0720F0621B730B840BBA0BEE1F3E
:101AF00088F7E09508950E94820D6894B1110C94C6
:101B0000FC0B08950E94E10B88F09F5798F0B92FC5
:101B10009927B751B0F0E1F0660F771F881F991F22
:101B20001AF0BA95C9F714C0B13091F00E94FB0BBE
:101B3000B1E008950C94FB0B672F782F8827B85FCE
:101B400039F0B93FCCF3869577956795B395D9F77A
:101B50003EF490958095709561957F4F8F4F9F4F84
:101B600008950E94200B08F48FEF08959F930E9420
:101B7000C50D0F9007FCEE5F0C94EE0D0E94200B3C
:101B8000880B990B08950C94B70B0E94E10BD8F3C6
:101B9000E894E0E0BB279F57F0F02AED3FE049ECE6
:101BA00006C0EE0FBB0F661F771F881F28F0B23AE2
:101BB00062077307840728F0B25A620B730B840B19
:101BC000E3959A9572F7803830F49A95BB0F661FAB
:101BD000771F881FD2F790480C94040EEF93E0FF14
:101BE00007C0A2EA2AED3FE049EC5FEB0E94B40C8B
:101BF0000E94C80B0F90039401FC9058E8E6F0E0B7
:101C00000C94100E9F3F31F0915020F487957795FA
:101C10006795B795880F911D9695879597F90895C3
:101C20009F938F937F936F93FF93EF939B01AC01EF
:101C30000E94440BEF91FF910E94240E2F913F913F
:101C40004F915F910C94440BDF93CF931F930F93AD
:101C5000FF92EF92DF927B018C01689406C0DA2E2E
:101C6000EF010E94570BFE01E894A5912591359153
:101C700045915591A6F3EF010E94B40CFE01970126
:101C8000A801DA9469F7DF90EF90FF900F911F9110
:101C9000CF91DF910895EE0FFF1F0590F491E02D95
:101CA00009940F931F93CF93DF938230910510F423
:101CB00082E090E0E0914803F091490330E020E0B9
:101CC000B0E0A0E0309799F42115310509F44AC03D
:101CD000281B390B24303105D8F58A819B81611589
:101CE000710589F1FB0193838283FE0111C040815C
:101CF00051810281138148175907E0F048175907AD
:101D000099F4109761F012960C93129713961C9306
:101D10003296CF01DF91CF911F910F9108950093DB
:101D2000480310934903F4CF2115310551F04217B0
:101D3000530738F0A901DB019A01BD01DF01F80169
:101D4000C1CFEF01F9CF9093490380934803CDCFE2
:101D5000FE01E20FF31F81939193225031093983E1
:101D60002883D7CF2091460330914703232B41F49A
:101D700020911201309113013093470320934603C1
:101D800020911001309111012115310541F42DB739
:101D90003EB74091140150911501241B350BE09181
:101DA0004603F0914703E217F307A0F42E1B3F0B05
:101DB0002817390778F0AC014E5F5F4F24173507BD
:101DC00048F04E0F5F1F50934703409346038193A3
:101DD00091939FCFF0E0E0E09CCFCF93DF9300970B
:101DE000E9F0FC01329713821282A0914803B0916E
:101DF0004903ED0130E020E01097A1F4208131810A
:101E0000820F931F2091460330914703281739070B
:101E100009F061C0F0934703E0934603DF91CF914F
:101E20000895EA01CE17DF07E8F54A815B819E013C
:101E300041155105B1F7E901FB83EA8349915991B5
:101E4000C40FD51FEC17FD0761F4808191810296C4
:101E5000840F951FE90199838883828193819B83F5
:101E60008A83F0E0E0E012968D919C9113970097A1
:101E7000B9F52D913C911197CD010296820F931FD8
:101E800020914603309147032817390739F63097D8
:101E900051F51092490310924803B0934703A09361
:101EA0004603BCCFD383C28340815181840F951FE9
:101EB000C817D90761F44E5F5F4F88819981480F39
:101EC000591F518340838A819B819383828321158B
:101ED000310509F0B0CFF0934903E09348039ECF5A
:101EE000FD01DC01C0CF13821282D7CFB0E0A0E0A9
:101EF000ECE7FFE00C94360C8C01009751F4CB0119
:101F00000E94510E8C01C801CDB7DEB7E0E10C9400
:101F1000520CFC01E60FF71F9C0122503109E21719
:101F2000F30708F49DC0D901CD91DC911197C61734
:101F3000D70798F0C530D10530F3CE010497861746
:101F4000970708F3C61BD70B2297C193D1936D93C4
:101F50007C93CF010E94ED0ED6CF5B01AC1ABD0A77
:101F60004C018C0E9D1EA0914803B0914903512C49
:101F7000412CF12CE12C109731F580914603909182
:101F800047038815990509F05CC04616570608F006
:101F900058C08091100190911101009741F48DB7C4
:101FA0009EB74091140150911501841B950BE817C1
:101FB000F90708F055C0F0934703E0934603F90191
:101FC00071836083A0CF8D919C91119712966C9034
:101FD000129713967C901397A815B90559F56C01C3
:101FE00042E0C40ED11CCA14DB0420F1AC014A1932
:101FF0005B09DA011296159780F062827382518331
:102000004083D9016D937C93E114F10471F0D70101
:102010001396FC93EE93129776CF22968C0F9D1F0A
:10202000F90191838083F301EFCFF0934903E093AB
:10203000480369CF4816590608F42C017D01D301E5
:102040009ACFCB010E94510E7C01009749F0AE015E
:10205000B8010E943310C8010E94ED0E870153CFD2
:1020600010E000E050CFFB01DC0102C001900D92B6
:1020700041505040D8F70895FB01DC0101900D92CA
:102080000020E1F7089510E0C1E7D0E004C0FE01B0
:102090000E944B0E2196C237D107C9F7F894FFCFA3
:1020A0006666A640CDCC5C4100001A4200005C424E
:1020B00000004A0380000000000045019C00D2009F
:1020C00092010301E100F5000000000011049C00F2
:1020D000BB02BA026E616E00696E66006F766600C2
:1020E00042554C4B0041425300464C4F4154004C2A
:1020F00049544849554D0047454C004C4541442002
:102100004143494400534F4C4152204D50505400DC
:10211000455350333200496E697469616C697A695C
:102120006E67002E0050563A005620004100424192
:10213000543A00504F5745523A005700454E5445C7
:10214000523D4D454E55004C49564520524541445F
:10215000494E475300560054454D503A0043004DF8
:1021600050505420535441545553004D4F44453A18
:1021700000445554593A002500545241434B494EAE
:1021800047204F4E003E4261747465727920547945
:1021900070650020426174746572792054797065AD
:1021A000003E566F6C7461676520536574757000EE
:1021B00020566F6C746167652053657475700045B7
:1021C0004E5445522053454C4543540042415454CB
:1021D0004552592054595045003E0043484152470A
:1021E000452053455454494E47530042756C6B206B
:0E21F000004162732000466C6F617420000095
:00000001FF
