:020000040000FA
:100000000C9462000C948A000C948A000C948A0070
:100010000C948A000C948A000C948A000C948A0038
:100020000C948A000C948A000C948A000C948A0028
:100030000C948A000C948A000C948A000C948A0018
:100040000C945E090C948A000C948A000C948A002B
:100050000C948A000C948A000C948A000C948A00F8
:100060000C948A000C948A000000000024002700F1
:100070002A0000000000250028002B0000000000DE
:1000800023002600290004040404040404040202DA
:100090000202020203030303030301020408102007
:1000A0004080010204081020010204081020000012
:1000B0000008000201000003040700000000000027
:1000C0000000DB1211241FBECFEFD8E0DEBFCDBF92
:1000D00015E0A0E0B1E0E0E1FBE202C005900D9286
:1000E000A034B107D9F725E0A0E4B5E001C01D9226
:1000F000A53BB207E1F710E0C2E6D0E004C02197CB
:10010000FE010E948015C136D107C9F70E94A809D7
:100110000C9486150C940000AF92BF92CF92DF92A0
:10012000EF92FF920F931F93CF93DF936C017B01AC
:100130008B01040F151FEB015E01AE18BF08C0173D
:10014000D10759F06991D601ED91FC910190F081B0
:10015000E02DC6010995892B79F7C501DF91CF9173
:100160001F910F91FF90EF90DF90CF90BF90AF90D5
:100170000895833081F028F4813099F08230A9F01D
:1001800008958730A9F08830C9F08430B1F48091A7
:1001900080008F7D03C0809180008F7780938000E6
:1001A000089584B58F7784BD089584B58F7DFBCF86
:1001B0008091B0008F778093B00008958091B00057
:1001C0008F7DF9CFCF93DF93282F30E0F901E255EF
:1001D000FF4F8491F901E656FF4FD491F901EA5798
:1001E000FF4FC491CC23A1F081110E94B900EC2FE4
:1001F000F0E0EE0FFF1FE458FF4FA591B491EC9192
:10020000ED2381E090E009F480E0DF91CF91089543
:1002100080E090E0FACF1F93CF93DF93282F30E058
:10022000F901E255FF4F8491F901E656FF4FD49151
:10023000F901EA57FF4FC491CC23A9F0162F811181
:100240000E94B900EC2FF0E0EE0FFF1FEE58FF4FB9
:10025000A591B4918FB7F894EC91111108C0D09585
:10026000DE23DC938FBFDF91CF911F910895DE2BAA
:10027000F8CFCF93DF9390E0FC01E656FF4F249137
:100280008A579F4FFC0184918823D1F090E0880F1A
:10029000991FFC01E859FF4FA591B491FC01EE585C
:1002A000FF4FC591D491623071F49FB7F8943C919F
:1002B000822F809583238C93E8812E2B28839FBFE8
:1002C000DF91CF9108958FB7F894EC912E2B2C935A
:1002D0008FBFF6CF3FB7F8948091450590914605C2
:1002E000A0914705B091480526B5A89B05C02F3FB2
:1002F00019F00196A11DB11D3FBFBA2FA92F982F4C
:100300008827BC01CD01620F711D811D911D42E046
:10031000660F771F881F991F4A95D1F708958F920E
:100320009F92AF92BF92CF92DF92EF92FF924B01DA
:100330005C010E946A016B017C010E946A016C19D8
:100340007D098E099F09683E734081059105A8F3D8
:1003500021E0821A9108A108B10888EEC80E83E056
:10036000D81EE11CF11C81149104A104B10429F7E9
:10037000FF90EF90DF90CF90BF90AF909F908F90C5
:1003800008952FB7F89460914105709142058091CE
:100390004305909144052FBF0895089590E080E0B3
:1003A00008958130910519F15CF4892BB9F06091C1
:1003B000120170911301809114019091150108951B
:1003C00082309105E9F0039791F760910E017091E9
:1003D0000F01809110019091110108956091020127
:1003E000709103018091040190910501089560913D
:1003F000060170910701809108019091090108950B
:1004000060910A0170910B0180910C0190910D0196
:1004100008954F925F926F927F928F929F92AF92C8
:10042000BF92CF92DF92EF92FF920F931F93CF93E1
:10043000DF93CDB7DEB728970FB6F894DEBF0FBEB7
:10044000CDBF2B013C012D833E834F83588767012D
:1004500078018091690590916A05A0916B05B09132
:100460006C0589839A83AB83BC83BC01CD010E9458
:10047000BF142FE832EC45E75CE31816ACF080902F
:10048000650590906605A0906705B0906805A3018A
:100490009201C501B4010E94BF1418160CF04DC0A2
:1004A0002AE037ED43E25CE3C701B6010E94FA128D
:1004B0006B017C0120E030E0A901C701B6010E9478
:1004C000671387FD67C023E333E343E75FE3C701B7
:1004D000B6010E94BF1418160CF460C0C0927905D2
:1004E000D0927A05E0927B05F0927C0591E09983A9
:1004F0002FE632E143E85AE3C701B6010E94BF1478
:1005000018160CF0198269818FE028960FB6F894BE
:10051000DEBF0FBECDBFDF91CF911F910F91FF9036
:10052000EF90DF90CF90BF90AF909F908F907F9093
:100530006F905F904F900C940B012DEC3CEC4CE4D1
:100540005DE3C301B2010E94FA129B01AC01C50137
:10055000B4010E94671387FFADCF2DEC3CEC4CEC4F
:100560005DE36D817E818F8198850E94FA129B01E7
:10057000AC0169817A818B819C810E94671387FF1E
:1005800099CF2AE037ED43EA5BE3C801B6010E9448
:10059000FB128ECFC12CD12C7601A0CF83E3C82EC5
:1005A000DC2C83E7E82E8FE3F82E98CF10927905A4
:1005B00010927A0510927B0510927C0560E08FE026
:1005C0000C940B01FC0101900020E9F73197AF0179
:1005D000481B590BBC018DE995E00C948C008F925F
:1005E0009F92AF92BF920F931F93CF93DF93CDB79C
:1005F000DEB7A1970FB6F894DEBF0FBECDBF19A22C
:10060000423008F44AE08E010F5D1F4F842E912C7A
:10061000B12CA12CA50194010E944A15E62FB90125
:10062000CA01EA30F4F4E05DD801EE938D01232B8A
:10063000242B252B79F790E080E0109719F0CD015D
:100640000E94E202A1960FB6F894DEBF0FBECDBFA6
:10065000DF91CF911F910F91BF90AF909F908F909E
:100660000895E95CE1CF009711F00C94E20290E06C
:1006700080E00895CF93DF93EC0160E08E810E94CB
:100680000B0161E08E810E940B0160E08E810E946F
:100690000B018BE891E00197F1F7DF91CF9108957D
:1006A000CF92DF92EF92FF920F931F93CF93DF933E
:1006B0006C017C0187E0E80EF11CD0E0C0E0062F61
:1006C00010E0B8010C2E02C0759567950A94E2F708
:1006D0006170F70181917F010E940B012196C43066
:1006E000D10579F7C601DF91CF911F910F91FF904E
:1006F000EF90DF90CF900C943A03CF92DF92EF927D
:10070000FF920F931F93CF93DF93EC01F62E642F8C
:100710008C810E940B018D818F3F19F060E00E9457
:100720000B010F2D10E08F8584FF25C06E0187E03F
:10073000C80ED11CF12CE12CB8010E2C02C075950D
:1007400067950A94E2F76170F60181916F010E944A
:100750000B01FFEFEF1AFF0A88E0E816F10461F7DA
:10076000CE01DF91CF911F910F91FF90EF90DF901D
:10077000CF900C943A03B80184E0759567958A95FB
:10078000E1F7CE010E9450036F2DCE01DF91CF9192
:100790001F910F91FF90EF90DF90CF900C9450033A
:1007A00040E0682F8DE995E00C947D0381E00E9484
:1007B000D0038BE39FE10197F1F70895CF93DF9387
:1007C000613029F09091AC0598609093AC056093EE
:1007D000B0051092B10590E49093B2058093B305F3
:1007E000805C8093B40561E08091A1050E9439018D
:1007F0008091A2058F3F19F061E00E94390161E00C
:100800008091A3050E943901CDE9D5E09E012D59C3
:1008100035408091AC0584FD0BC084E090E02196CA
:100820002817390744F461E08E810E943901EECF28
:1008300088E090E0F4CF8BE39DE00197F1F760E072
:100840008091A1050E940B0160E08091A3050E94A8
:100850000B018091A2058F3F19F060E00E940B010F
:100860008091AC0584FD34C063E08DE995E00E9481
:100870005003CBE4D6E4CE010197F1F763E08DE9B4
:1008800095E00E9450032197F1F763E08DE995E030
:100890000E94500383E592E00197F1F762E08DE951
:1008A00095E00E9450038091AC0580620E94D003C5
:1008B00084E08093AD058CE00E94D0030E94D603B3
:1008C00082E08093AE0586E0DF91CF910C94D00357
:1008D00080620E94D0038BE496E40197F1F7809147
:1008E000AC0580620E94D00383E592E00197F1F7A6
:1008F0008091AC0580620E94D003D5CF9091B00565
:10090000691710F06FEF690FE62FF0E0E356FA4F2A
:100910009489890F80680C94D0030E94D60360E00C
:1009200080E00E947E0480E092E00E94330361E058
:1009300080E00E947E048091950590919605892B18
:1009400041F185EB91E00E94330362E080E00E9478
:100950007E0480919505909196050197E9F086EDCA
:1009600091E00E94330363E080E00E947E04809166
:10097000950590919605029791F089EE91E00E947D
:1009800033038091890581110DC087EF91E00C94AC
:10099000330384EA91E0D7CF86EC91E0E2CF86EE94
:1009A00091E0EDCF8CEE91E0F2CFCF93DF93C09149
:1009B0009505D09196050E94D60360E080E00E94E4
:1009C0007E048EE08C9FF0018D9FF00D1124EE5C73
:1009D000FE4F808191810E94330387E692E00E945E
:1009E000330361E080E00E947E0480919305909142
:1009F0009405892B11F18CE192E00E94330362E0AF
:100A000080E00E947E048091930590919405019767
:100A1000B9F08BE392E00E94330363E080E00E9430
:100A20007E048091930590919405029761F089E589
:100A300092E0DF91CF910C9433038DE092E0DDCF13
:100A40008BE292E0E8CF8BE492E0F3CF0F931F9319
:100A5000CF93DF930E94D60360E080E00E947E0483
:100A600081E792E00E94330302E311E0D0E0C0E0AE
:100A70006C2F6F5F80E00E947E04809195059091BD
:100A800096058C179D07F9F089EE91E00E943303DB
:100A9000F801808191810E94330380918B059091B0
:100AA0008C058C179D0721F48DE793E00E9433039A
:100AB0002196025F1F4FC330D105D1F6DF91CF9150
:100AC0001F910F91089586EE91E0E0CF0F931F9351
:100AD000CF93DF930E94D60360E080E00E947E0403
:100AE0008EE792E00E94330310E000E0C09197058A
:100AF000D0919805C00FD11FC630D105ECF461E04C
:100B0000600F80E00E947E048091990590919A0583
:100B10008C179D07B1F089EE91E00E943303CC0F52
:100B2000DD1FC457DE4F888199810E9433030F5F18
:100B30001F4F03301105D1F6DF91CF911F910F9117
:100B4000089586EE91E0E9CF41E00E947D0381E0C7
:100B500090E008954F925F926F927F928F929F9252
:100B6000AF92BF92CF92DF92EF92FF921F93CF93FB
:100B7000DF936B017C01142FAC019B010E943115A6
:100B8000882399F088E892E0DF91CF911F91FF9040
:100B9000EF90DF90CF90BF90AF909F908F907F901D
:100BA0006F905F904F900C94E20246015701E894D9
:100BB000B7F82FEF3FEF4FE75FE7C501B4010E94A1
:100BC000311581110DC02FEF3FEF4FE75FE7C501F2
:100BD000B4010E94671318161CF48CE892E0D4CF7D
:100BE0002FEF3FEF4FE75FE4C701B6010E94BF144C
:100BF00018161CF480E992E0C7CF2FEF3FEF4FE7C4
:100C00005FECC701B6010E94671387FDF3CF20E0B8
:100C100030E0A901C701B6010E946713D0E0C0E02F
:100C200087FF0CC041E06DE28DE995E00E947D03F5
:100C3000F7FAF094F7F8F094C1E0D0E020E060E03B
:100C400070E080E09FE3211740F420E030E040E2D4
:100C500051E40E946C1321E0F6CFA70196010E9497
:100C6000FB122B013C010E94DE134B015C014AE0A8
:100C70000E94EF027C01EC0EFD1E112311F141E0F8
:100C80006EE28DE995E00E947D038FEFE81AF80A85
:100C9000C501B4010E940D149B01AC01C301B20156
:100CA0000E94FA1220E030E040E251E40E94C414B5
:100CB0000E94DE1390E080E04AE00E94EF02E80E1E
:100CC000F91EC701DF91CF911F91FF90EF90DF9048
:100CD000CF90BF90AF909F908F907F906F905F90DC
:100CE0004F900895CF93DF93CDB7DEB72A970FB615
:100CF000F894DEBF0FBECDBF0E94D60360E080E057
:100D00000E947E048DE992E00E9433038091910558
:100D1000909192052AE0E8E6F1E0DE01119601905B
:100D20000D922A95E1F7FC01EE0FFF1F81E090E0A4
:100D30008C0F9D1FE80FF91F808191810E94330362
:100D400061E080E00E947E0460918D0570918E05C7
:100D500080918F059091900541E050E00E94AA0596
:100D6000809191059091920583309105B1F004979F
:100D7000B9F08AE992E00E94330363E080E00E94C8
:100D80007E0482EA92E02A960FB6F894DEBF0FBE88
:100D9000CDBFDF91CF910C94330384E992E0EBCF88
:100DA00087E992E0E8CFCF93DF93CDB7DEB72A97FC
:100DB0000FB6F894DEBF0FBECDBF0E94D60360E031
:100DC00080E00E947E0482E093E00E94330361E0B1
:100DD00080E00E947E0486EE91E00E9433038091C1
:100DE0009105909192052AE0E8E6F1E0DE01119686
:100DF00001900D922A95E1F7FC01EE0FFF1F81E0B3
:100E000090E08C0F9D1FE80FF91F808191810E9457
:100E1000330362E080E00E947E048091910590910E
:100E200092050E94D10141E050E00E94AA05809104
:100E300091059091920583309105B1F00497B9F036
:100E40008AE992E00E94330363E080E00E947E041E
:100E500080E193E02A960FB6F894DEBF0FBECDBFB7
:100E6000DF91CF910C94330384E992E0EBCF87E9D3
:100E700092E0E8CFCF93C82F0E94D60360E080E0D5
:100E80000E947E0481E393E0CC2311F08EE193E095
:100E90000E94330361E080E00E947E04CC23E9F0ED
:100EA0006091600170916101809162019091630194
:100EB00041E050E00E94AA0584E992E0CC2311F0C1
:100EC0008AE992E00E94330363E080E00E947E049E
:100ED00082EA92E0CF910C94330360915C017091AF
:100EE0005D0180915E0190915F01E2CF0E94D60387
:100EF00060E080E00E947E0483E793E00E94330379
:100F000061E080E00E947E048091950590919605B5
:100F1000892BD1F18FE493E00E943303609160014B
:100F200070916101809162019091630141E050E014
:100F30000E94AA058BE992E00E94330362E080E000
:100F40000E947E0480919505909196050197F9F095
:100F500087E693E00E94330360915C0170915D012C
:100F600080915E0190915F0141E050E00E94AA05EE
:100F700085E992E00E94330363E080E00E947E04F2
:100F800080E893E00C94330383E493E0C5CF8BE5D2
:100F900093E0E0CFCF93DF9300D000D000D0CDB767
:100FA000DEB786E0E2E7F1E0DE01119601900D92F6
:100FB0008A95E1F70E94D60360E080E00E947E04FB
:100FC000E0919305F0919405EE0FFF1F81E090E012
:100FD0008C0F9D1FE80FF91F808191810E943303C0
:100FE00061E080E00E947E0460918D0570918E0525
:100FF00080918F059091900541E050E00E94AA05F4
:1010000080919305909194050297A1F08AE992E06E
:101010000E94330363E080E00E947E0482EA92E053
:1010200026960FB6F894DEBF0FBECDBFDF91CF91ED
:101030000C94330384E992E0EBCF0E94D60360E086
:1010400080E00E947E048091890581117BC088ED3B
:1010500093E00E94330361E080E00E947E0484EE0E
:1010600093E00E943303609175057091760580913D
:1010700077059091780550E040E00E94AA058AEE3D
:1010800093E00E94330320E030E048EC52E46091AA
:10109000790570917A0580917B0590917C050E947D
:1010A000C41450E040E00E94AA058FEE93E00E9435
:1010B000330362E080E00E947E0481EF93E00E94AF
:1010C000330380918905882309F43FC06091600152
:1010D00070916101809162019091630141E050E063
:1010E0000E94AA0589EF93E00E943303809189054D
:1010F0008823E1F160915C0170915D0180915E0156
:1011000090915F0141E050E00E94AA0585E992E0DC
:101110000E94330363E080E00E947E0489E394E050
:101120000E9433036091710570917205809173057F
:101130009091740550E040E00E94AA058CEF93E086
:101140000C94330386EC93E084CF80918B059091CF
:101150008C052EE0289FF001299FF00D1124EE5CF4
:10116000FE4F6281738184819581B8CF80918B0518
:1011700090918C052EE0289FF001299FF00D1124FD
:10118000EE5CFE4F6285738584859585BBCF0E949A
:10119000D60360E080E00E947E04809187059091F4
:1011A0008805892B09F476C08BE294E00E94330312
:1011B000809187059091880501978530910540F4CD
:1011C000880F991FFC01E858FE4F8081918102C071
:1011D00088E094E00E94330361E080E00E947E0496
:1011E00083E394E00E94330360915D0570915E0596
:1011F00080915F059091600541E050E00E94AA0552
:1012000089EF93E00E94330360916105709162055C
:10121000809163059091640541E050E00E94AA0529
:1012200085E992E00E94330362E080E00E947E0440
:1012300087E394E00E943303609165057091660531
:10124000809167059091680541E050E00E94AA05F1
:1012500089EF93E00E9433036091690570916A05FC
:1012600080916B0590916C0541E050E00E94AA05C9
:1012700085E992E00E94330363E080E00E947E04EF
:101280008091870590918805892BA9F08AE194E0E7
:101290000C943303809185059091860501978530E4
:1012A000910530F4880F991FFC01EE57FE4F8DCF4A
:1012B0008DE094E08FCF82E194E0EACF1F920F920D
:1012C0000FB60F9211242F933F938F939F93AF9359
:1012D000BF938091410590914205A0914305B09143
:1012E00044053091400523E0230F2D3758F5019632
:1012F000A11DB11D209340058093410590934205A7
:10130000A0934305B093440580914505909146050F
:10131000A0914705B09148050196A11DB11D80938C
:10132000450590934605A0934705B0934805BF91A6
:10133000AF919F918F913F912F910F900FBE0F9082
:101340001F90189526E8230F0296A11DB11DD2CF3C
:10135000CF93DF9300D000D0CDB7DEB7789484B5BB
:10136000826084BD84B5816084BD85B5826085BDA1
:1013700085B5816085BD80916E00816080936E002F
:101380001092810080918100826080938100809121
:1013900081008160809381008091800081608093D2
:1013A00080008091B10084608093B1008091B00092
:1013B00081608093B00080917A00846080937A008D
:1013C00080917A00826080937A0080917A008160B7
:1013D00080937A0080917A00806880937A001092DE
:1013E000C10064E084E10E94DE0362E089E00E94C3
:1013F000390162E088E00E94390162E081E00E94E8
:10140000390162E080E00E94390161E08FE00E94D2
:10141000390160E08FE00E940B010E94D6020E9419
:10142000D60360E082E00E947E048CE394E00E9498
:10143000330362E081E00E947E048EE494E00E9427
:1014400033036CED75E080E090E00E948F010E9414
:10145000C7080E94C1010091490510914A052091D9
:101460004B0530914C05601B710B820B930B64365E
:1014700071058105910508F4B3C00E94C101609314
:10148000490570934A0580934B0590934C050E9443
:10149000C10124E630E040E050E00E944A15CA0154
:1014A000B9012AE030E040E050E00E944A150E9475
:1014B0000D142AE037ED43EA5CE30E94C4146B018B
:1014C0007C0120E030E04AE152E40E94FB122B0153
:1014D0003C0140925D0550925E0560925F057092FE
:1014E0006005A701960166E676E686EA90E40E942A
:1014F000FA1269837A838B839C836093610570936E
:1015000062058093630590936405309089053320CC
:1015100009F483C02DEC3CEC4CE45DE36091600188
:101520007091610180916201909163010E94FA12B1
:101530004B015C018092650590926605A09267055B
:10154000B0926805332091F0C0905C01D0905D01AD
:10155000E0905E01F0905F0120E030E040EA50E46E
:10156000C701B6010E94671387FD06C0C12CD12CAC
:10157000F0EAEF2EF0E4FF2EC0926905D0926A05E2
:10158000E0926B05F0926C052DEC3CEC4CE45EE3D4
:10159000C501B4010E94FB1260936D0570936E0546
:1015A00080936F059093700580E090E0A0EEB1E429
:1015B0008093710590937205A0937305B0937405A1
:1015C00029813A814B815C81C301B2010E94C4141C
:1015D00060937505709376058093770590937805F1
:1015E000C0905D05D0905E05E0905F05F0906005CD
:1015F00020910201309103014091040150910501B5
:10160000C701B6010E94BF14181684F481E090E06F
:1016100090938805809387053DC02DEC3CEC4CE50C
:1016200051E4C701B6010E94FB1282CF809065058C
:1016300090906605A0906705B090680520910A011A
:1016400030910B0140910C0150910D01C501B40185
:101650000E94BF14A2E0B0E018160CF439C120912A
:101660000E0130910F0140911001509111016091D4
:10167000690570916A0580916B0590916C050E94D7
:10168000BF1418160CF0F6C0E3E0F0E0F093880504
:10169000E0938705009187051091880501151105D4
:1016A00041F0E5E0F0E0F0938605E09385050E94C7
:1016B000D6020E94C10180907D0590907E05A09089
:1016C0007F05B0908005681979098A099B09623302
:1016D00071058105910588F1012B79F50E94C10101
:1016E00060937D0570937E0580937F0590938005C0
:1016F00080918905882309F4F0C084E090E09093FC
:10170000860580938505E0907905F0907A05009133
:101710007B0510917C0520915C0130915D01409129
:101720005E0150915F016091600170916101809153
:101730006201909163010E9409020E94C10100911F
:101740008105109182052091830530918405601BED
:10175000710B820B930B643F71408105910598F0EA
:101760000E94C10160938105709382058093830577
:101770009093840580919B0590919C05009709F0BA
:10178000EFC20E94C70881E00E94E2007C01DD24D4
:10179000D394892B09F4D12C80E00E94E2008C01C3
:1017A000CC24C394892B09F4C12C89E00E94E20067
:1017B0005C0199249394892B09F4912C88E00E9470
:1017C000E20088248394009709F4812C209167011A
:1017D000222321F021E0EF2809F020E0309166017A
:1017E000332321F031E0012B09F030E070906501E6
:1017F000772029F077247394AB2809F0712C10918D
:101800006401112321F011E0892B09F010E021116E
:10181000ADC23111AFC2772079F080919B059091D4
:101820009C05009709F064C481E090E090939C05CA
:1018300080939B050E946605112309F45FC6809181
:101840009B0590919C05009709F045C680918705FE
:1018500090918805892B09F451C610928805109241
:10186000870510928605109285050E94D6020E9477
:10187000C70844C620911201309113014091140110
:1018800050911501609171057091720580917305F9
:10189000909174050E94BF1418161CF484E090E027
:1018A000B7CE20E030E040E85FE3C501B4010E941C
:1018B000671387FFEFCE20E030E040EA50E4C70135
:1018C000B6010E94BF1418160CF0E4CEA5E0B0E0FB
:1018D000B0938805A0938705DDCE80906505909034
:1018E0006605A0906705B090680520E030E040E80C
:1018F0005FE3C501B4010E94FB129B01AC01C7016B
:10190000B6010E94671387FF07C0109286051092E8
:1019100085050E94D60211CF40908B0550908C0512
:101920008091850590918605892B09F043C081E05F
:1019300090E090938605809385052DEC3CEC4CEC73
:101940005DE3C701B6010E94671318160CF029C1A8
:101950008EE0849DF001859DF00D1124EE5CFE4F1C
:10196000A701960162817381848195810E946C1325
:101970006B017C0120E030E0A9010E94671387FD24
:1019800010C123E333E343E75FE3C701B6010E94DD
:10199000BF1418163CF4E3E3CE2EDC2CE3E7EE2E66
:1019A000EFE3FE2EC0925905D0925A05E0925B05F6
:1019B000F0925C05809185059091860581309105B6
:1019C00009F0FCC00E94C10100915105109152051F
:1019D0002091530530915405601B710B820B930BC2
:1019E0006A3F71058105910508F477C00E94C10125
:1019F000609351057093520580935305909354055D
:101A00008091750590917605A0917705B091780544
:101A100089839A83AB83BC8320914D0530914E0519
:101A200040914F0550915005BC01CD010E946713B4
:101A300087FF0BC0809100019091010191958195E4
:101A400091099093010180930001609100017091D0
:101A50000101072E000C880B990B0E940F142AE03D
:101A600037ED43EA5BE30E94C4142091590530919D
:101A70005A0540915B0550915C050E94FB126B0179
:101A80007C012AE037ED43EA5CE30E94671387FD9F
:101A90008CC026E636E646E65FE3C701B6010E9443
:101AA000BF14181634F476E6C72EDC2CEC2C7FE33A
:101AB000F72EC0925905D0925A05E0925B05F0923C
:101AC0005C0589819A81AB81BC8180934D0590939F
:101AD0004E05A0934F05B093500580915905909104
:101AE0005A05A0915B05B0915C0589839A83AB830D
:101AF000BC838EE0849DF001859DF00D1124EE5C89
:101B0000FE4F22843384E484F58460900E0170904B
:101B10000F01C0901001D09011019301A601B101F5
:101B2000C7010E94671387FF02C0310167012EE0E1
:101B3000249DC001259D900D11248E5C9E4FDC01DB
:101B400012962D903D904D905C901597E980FA800B
:101B50000B811C819301A601C201B1010E940902FF
:101B60002DEC3CEC4CE45DE3C201B1010E94FA12A1
:101B70009B01AC01C501B4010E94BF1487FDDDCDFE
:101B8000E2E0F0E0F0938605E09385050E94C10154
:101B900060935505709356058093570590935805AB
:101BA000CCCDC12CD12C7601FDCE6AE0C62E67EDDE
:101BB000D62E63EAE62E6CE3F62E7BCF82309105BB
:101BC00009F071C08091790590917A05A0917B050B
:101BD000B0917C0589839A83AB83BC838EE0849D1E
:101BE000F001859DF00D1124EE5CFE4FA284B384BC
:101BF000C484D58460900E0170900F018090100114
:101C0000909011019301A401B501C6010E946713D0
:101C100087FF02C0350146012EE0249DC001259DAD
:101C2000900D11248E5C9E4FDC0112966D917D917A
:101C30008D919C911597E980FA800B811C8193010D
:101C4000A4010E9409020E94C10100915505109152
:101C500056052091570530915805601B710B820B7A
:101C6000930B603477478B419105B0F42DEC3CEC3D
:101C70004CEC5DE3B501C6010E94C4149B01AC01AC
:101C80006091690570916A0580916B0590916C0572
:101C90000E94671387FF51CDE3E0F0E0F0938605E3
:101CA000E09385054ACD039709F047CD80917905EA
:101CB00090917A05A0917B05B0917C0589839A83E8
:101CC000AB83BC838EE0849DF001859DF00D1124D3
:101CD000EE5CFE4F22843384E484F58460900E0130
:101CE00070900F01C0901001D09011019301A601D6
:101CF000B101C7010E94671387FF02C0310167016C
:101D00002EE0249DC001259D900D11248E5C9E4FD8
:101D1000DC0116962D903D904D905C901997E980CE
:101D2000FA800B811C819301A601C201B1010E94BE
:101D300009022DEC3CEC4CEC5EE3C201B1010E94C7
:101D4000FA129B01AC01C501B4010E94671387FF21
:101D5000F4CC81E090E09093860580938505EDCCEE
:101D6000029709F010CD0E941D080DCD8FEF9FEF57
:101D7000332311F081E090E060919B0570919C0508
:101D80006130710559F52091990530919A05820FBE
:101D9000931F069666E070E00E94361590939A05B0
:101DA00080939905209197053091980582179307A4
:101DB00024F490939805809397052091970530918E
:101DC00098052E5F3F4F281739072CF40297909300
:101DD0009805809397050E9466051DCD63307105B7
:101DE00081F42091950530919605820F931F0396FB
:101DF0000E94361590939605809395050E942605BE
:101E00000ACD6430710591F42091930530919405C9
:101E1000820F931F039663E070E00E943615909343
:101E20009405809393050E94D504F5CC6630710526
:101E300091F42091950530919605820F931F03969A
:101E400063E070E00E9436159093960580939505A7
:101E50000E948D04E0CC6A30710591F420919105C7
:101E600030919205820F931F059665E070E00E9405
:101E7000361590939205809391050E94D306CBCCA2
:101E80006930710591F42091950530919605820F86
:101E9000931F029662E070E00E94361590939605BB
:101EA000809395050E947607B6CC6530710509F0E0
:101EB0004EC06DEC7CEC8CEC9DE3211104C06DEC0C
:101EC0007CEC8CEC9DEB20918D0530918E05409142
:101ED0008F05509190050E94FB122B01682EA92EB0
:101EE00020E030E0A9010E94671387FD2BC080919C
:101EF000930590919405B12CE12C58ECF52E0297A6
:101F000011F040E7F42E02E42B2D3E2D4F2D502FE3
:101F1000B201862D9A2D0E94BF14181624F0B42CFD
:101F2000E52CF62C0A2D8B2D9E2DAF2DB02F8093F6
:101F30008D0590938E05A0938F05B09390050E9418
:101F4000CA0769CCB12CE12CF12C00E0ECCF673052
:101F50007105E9F56DEC7CEC8CEC9DE3211104C07E
:101F60006DEC7CEC8CEC9DEB20916001309161017B
:101F700040916201509163010E94FB121B012C01F0
:101F800020E030E0A9010E94671387FD1CC020E01B
:101F900030E040E752E4C201B1010E94BF141816BC
:101FA00034F4212C312C30E7432E32E4532E20928E
:101FB000600130926101409262015092630181E0C0
:101FC0000E943A0728CC212C312C2101F0CF683017
:101FD0007105D9F56DEC7CEC8CEC9DE3211104C00E
:101FE0006DEC7CEC8CEC9DEB20915C0130915D0103
:101FF00040915E0150915F010E94FB121B012C0178
:1020000020E030E0A9010E94671387FD1AC020E09C
:1020100030E040EF51E4C201B1010E94BF14181634
:1020200034F4212C312C20EF422E21E4522E209228
:102030005C0130925D0140925E0150925F0180E050
:10204000BFCF212C312C2101F2CF6B30710509F06B
:10205000E2CB6DEC7CEC8CEC9DE3211104C06DECCB
:102060007CEC8CEC9DEB20918D0530918E054091A0
:102070008F05509190050E94FB122B01682EA92E0E
:1020800020E030E0A9010E94671387FD2CC08091F9
:10209000910590919205B12CE12C049709F596E1F8
:1020A000F92E03E42B2D3E2D4F2D502FB201862DFE
:1020B0009A2D0E94BF14181624F0B42CE52CF62C8F
:1020C0000A2D8B2D9E2DAF2DB02F80938D059093D3
:1020D0008E05A0938F05B09390050E9472069BCB4E
:1020E00088E4F82EDECFB12CE12CF12C00E0E9CF12
:1020F0008130910509F07BC08091990590919A05F6
:102100008230910509F448C074F40097F1F1019709
:1021100009F092CBE2E0F0E0F0939C05E0939B05A0
:102120000E941D0889CB8430910509F453C00CF43A
:1021300044C0059709F080CB8CE090E090939C051B
:1021400080939B050E94D60360E080E00E947E049D
:102150008EE594E00E94330361E080E00E947E04FB
:102160008AE694E00E94330362E080E00E947E04ED
:1021700086E794E00E94330363E080E00E947E04DF
:102180008EEF93E00E94330357CB10929C05109280
:102190009B050E94C70850CB83E090E090939C057C
:1021A00080939B0580918B0590918C05909396056B
:1021B000809395050E9426053FCB86E090E09093A2
:1021C0009C0580939B0510929605109295050E94A0
:1021D0008D0432CB8AE090E090939C0580939B0520
:1021E00010929205109291050E94D30625CB833060
:1021F0009105A9F4809195059091960590938C0591
:1022000080938B051092940510929305A4E0B0E0A2
:10221000B0939C05A0939B050E94D5040DCB843000
:10222000910509F045C08091950590919605209102
:1022300093053091940521153105E9F42EE0289F8E
:10224000F001299FF00D1124EE5CFE4F82819381F5
:10225000A481B58180938D0590938E05A0938F0501
:10226000B0939005E5E0F0E0F0939C05E0939B05CA
:102270000E94CA07E1CA2130310569F42EE0289F87
:10228000F001299FF00D1124EE5CFE4F86819781AD
:10229000A085B185DFCF2EE0289FF001299FF00DAA
:1022A0001124EE5CFE4F82859385A485B585D2CF3F
:1022B0008530910509F046C020919505309196052D
:1022C000809193059091940540918D0550918E05D4
:1022D00060918F0570919005EEE00097A9F4E29F60
:1022E000C001E39F900D11248E5C9E4FDC0112967D
:1022F0004D935D936D937C931597E4E0F0E0F0933C
:102300009C05E0939B0588CF019769F4E29FC0018B
:10231000E39F900D11248E5C9E4FFC0146835783F2
:1023200060877187EACFE29FC001E39F900D11247F
:102330008E5C9E4FDC011A964D935D936D937C935A
:102340001D97DBCF8630910571F5809195059091B1
:102350009605009761F410928A0587E090E09093CB
:102360009C0580939B0581E00E943A0765CA01970E
:1023700051F410928A0588E090E090939C05809338
:102380009B0580E0F1CF81E080938905109296054E
:102390001092950589E090E090939C0580939B05B1
:1023A0000E94760749CA89309105B1F481E0809393
:1023B0008A05809195059091960527E030E0892B5C
:1023C00011F028E030E030939C0520939B0581E0DC
:1023D00027303105B1F6C8CF8A309105B9F4809124
:1023E0009105909192050E94D10160938D057093A3
:1023F0008E0580938F05909390058BE090E09093ED
:102400009C0580939B050E94720616CA8B3091052D
:1024100009F04AC040918D0550918E0560918F055D
:102420007091900580919105909192058130910570
:1024300049F15CF4892BB9F04093120150931301D8
:10244000609314017093150116C08230910519F143
:10245000039791F740930E0150930F016093100181
:102460007093110108C040930201509303016093DF
:102470000401709305018AE090E090939C0580939D
:102480009B05B2CE4093060150930701609308016B
:1024900070930901F0CF40930A0150930B016093B0
:1024A0000C0170930D01E7CF9C01275031092230B8
:1024B000310508F066C020918A0589E090E021117D
:1024C00002C086E090E090939C0580939B052223B8
:1024D00009F47DCE65CF8130910529F410929C05D9
:1024E00010929B05C4C98430910501F583E090E00A
:1024F00090939C0580939B050E942605D0926701CE
:10250000C0926601909265018092640164E170E07E
:1025100080E090E00E948F0180E090E0892B11F430
:102520000C94290A0E9400000C94290A8530910518
:1025300059F5A4E0B0E0B0939C05A0939B050E94E0
:10254000D504DCCF0E948D04D9CF8B30910549F49E
:102550008AE090E090939C0580939B050E94D306AF
:10256000CDCF099729F41092890510928A05B6CF2C
:1025700081E090E090939C0580939B050E94660506
:10258000BDCF112309F4BACF9C0127503109223065
:102590003105D8F620918A0589E090E0211102C02A
:1025A00086E090E090939C0580939B05222351F256
:1025B0000E947607A3CFEDE9F5E0138212828CE941
:1025C00091E09183808383E084838FEF858382E031
:1025D000868384E0878385E0808786E0818787E043
:1025E00082871386148615861686178661E080E139
:1025F0000C94DE035058BB27AA270E9412130C9498
:1026000085140E94771438F00E947E1420F039F46B
:102610009F3F19F426F40C9474140EF4E095E7FB34
:102620000C946E14E92F0E94961458F3BA1762079F
:1026300073078407950720F079F4A6F50C94B81475
:102640000EF4E0950B2EBA2FA02D0B01B9019001CD
:102650000C01CA01A0011124FF27591B99F0593F11
:1026600050F4503E68F11A16F040A22F232F342F59
:102670004427585FF3CF469537952795A795F040A7
:102680005395C9F77EF41F16BA0B620B730B840BBC
:10269000BAF09150A1F0FF0FBB1F661F771F881F74
:1026A000C2F70EC0BA0F621F731F841F48F48795CC
:1026B00077956795B795F7959E3F08F0B0CF9395BE
:1026C000880F08F09927EE0F9795879508950E9437
:1026D0004A1408F481E008950E9480130C94851434
:1026E0000E947E1458F00E94771440F029F45F3F56
:1026F00029F00C946E1451110C94B9140C947414A8
:102700000E94961468F39923B1F3552391F3951B16
:10271000550BBB27AA2762177307840738F09F5F02
:102720005F4F220F331F441FAA1FA9F335D00E2E6F
:102730003AF0E0E832D091505040E695001CCAF7DC
:102740002BD0FE2F29D0660F771F881FBB1F26179F
:1027500037074807AB07B0E809F0BB0B802DBF0176
:10276000FF2793585F4F3AF09E3F510578F00C9445
:102770006E140C94B9145F3FE4F3983ED4F386953D
:1027800077956795B795F7959F5FC9F7880F911D66
:102790009695879597F90895E1E0660F771F881F52
:1027A000BB1F621773078407BA0720F0621B730B05
:1027B000840BBA0BEE1F88F7E09508950E949E14D3
:1027C00088F09F5798F0B92F9927B751B0F0E1F0F2
:1027D000660F771F881F991F1AF0BA95C9F714C0A2
:1027E000B13091F00E94B814B1E008950C94B8147F
:1027F000672F782F8827B85F39F0B93FCCF38695DB
:1028000077956795B395D9F73EF490958095709537
:1028100061957F4F8F4F9F4F0895E89409C097FBB4
:102820003EF490958095709561957F4F8F4F9F4FA7
:102830009923A9F0F92F96E9BB279395F6958795EB
:1028400077956795B795F111F8CFFAF4BB0F11F4AE
:1028500060FF1BC06F5F7F4F8F4F9F4F16C0882355
:1028600011F096E911C0772321F09EE8872F762F8B
:1028700005C0662371F096E8862F70E060E02AF0CC
:102880009A95660F771F881FDAF7880F96958795B8
:1028900097F90895990F0008550FAA0BE0E8FEEF8D
:1028A00016161706E807F907C0F012161306E40714
:1028B000F50798F0621B730B840B950B39F40A260D
:1028C00061F0232B242B252B21F408950A2609F4EB
:1028D000A140A6958FEF811D811D089597F99F67EF
:1028E00080E870E060E008959FEF80EC0895002498
:1028F0000A941616170618060906089500240A9465
:1029000012161306140605060895092E0394000CEA
:1029100011F4882352F0BB0F40F4BF2B11F460FF79
:1029200004C06F5F7F4F8F4F9F4F089557FD9058A2
:10293000440F551F59F05F3F71F04795880F97FB83
:10294000991F61F09F3F79F087950895121613063D
:102950001406551FF2CF4695F1DF08C0161617066C
:102960001806991FF1CF86957105610508940895A1
:10297000E894BB2766277727CB0197F908950E9433
:102980004A1408F48FEF08950E94D7140C9485140C
:102990000E94771438F00E947E1420F0952311F0E5
:1029A0000C946E140C94741411240C94B9140E9499
:1029B000961470F3959FC1F3950F50E0551F629FD9
:1029C000F001729FBB27F00DB11D639FAA27F00D88
:1029D000B11DAA1F649F6627B00DA11D661F829FAF
:1029E0002227B00DA11D621F739FB00DA11D621F94
:1029F000839FA00D611D221F749F3327A00D611DB1
:102A0000231F849F600D211D822F762F6A2F112492
:102A10009F5750409AF0F1F088234AF0EE0FFF1FC5
:102A2000BB1F661F771F881F91505040A9F79E3F1C
:102A3000510580F00C946E140C94B9145F3FE4F3CC
:102A4000983ED4F3869577956795B795F795E79572
:102A50009F5FC1F7FE2B880F911D9695879597F97B
:102A600008950E944A14880B990B089597FB072E2E
:102A700016F4009407D077FD09D00E946C1507FC6E
:102A800005D03EF4909581959F4F0895709561957E
:102A90007F4F0895A1E21A2EAA1BBB1BFD010DC09A
:102AA000AA1FBB1FEE1FFF1FA217B307E407F507FE
:102AB00020F0A21BB30BE40BF50B661F771F881FDA
:102AC000991F1A9469F760957095809590959B0170
:102AD000AC01BD01CF010895AA1BBB1B51E107C08A
:102AE000AA1FBB1FA617B70710F0A61BB70B881F9E
:102AF000991F5A95A9F780959095BC01CD0108952D
:102B0000EE0FFF1F0590F491E02D0994F894FFCF8C
:102B100001000000704200001041000080410000F0
:102B2000F041000096420000A8410000C0400000B3
:102B3000A8410AD7233D000020400000803F0AD76B
:102B4000233C2905666666419A9959410000A041D7
:102B500031059A996141CDCC5C4100007041350549
:102B600033336B41000058410000C8410000A040D1
:102B70000000404101010101B002BB02CB02DB02B7
:102B8000EE029303A403B60380048C049904A50405
:102B9000AE04B904C304CE04D404DE04E404E9049E
:102BA000F50402050F051D0500000000A4058C00BA
:102BB000CE01CD013E204F757470757420566F6C38
:102BC000746167650020204F757470757420566FAE
:102BD0006C74616765003E2043757272656E742087
:102BE0004C696D697400202043757272656E7420A3
:102BF0004C696D6974003E200020200041637469B7
:102C000076617465202A0041637469766174650099
:102C1000504F57455220535550504C59003E20427A
:102C2000756C6B20566F6C7461676500202042756F
:102C30006C6B20566F6C74616765003E20466C6F4C
:102C4000617420566F6C74616765002020466C6F5C
:102C5000617420566F6C74616765003E204D617829
:102C60002043757272656E740020204D6178204398
:102C7000757272656E74002053455454494E475323
:102C800000424154544552592054595045004D4139
:102C9000494E204D454E55006E616E00696E6600CE
:102CA0006F766600204100204300205600534554B3
:102CB000200055502F444E204F4B3D534156450068
:102CC0005056204D6178696D756D00426174746570
:102CD0007279204D696E696D756D0042617474651D
:102CE0007279204D6178696D756D00436861726716
:102CF000652043757272656E74204D61780054656D
:102D00006D7065726174757265204D6178696D755D
:102D10006D0053595354454D204C494D495453006F
:102D200055502F444E204F4B3D4544495400534588
:102D300054204F555450555420564F4C54414745FC
:102D4000005345542043555252454E54204C494D52
:102D50004954003E20566F6C746167653A2000202C
:102D600020566F6C746167653A20003E204375728F
:102D700072656E743A2000202043757272656E741D
:102D80003A200050535520414354495645202A00CB
:102D90004F4B3D45646974204241434B3D4C656156
:102DA0007665005345542042554C4B20564F4C54A9
:102DB0004147450053455420464C4F415420564FFF
:102DC0004C5441474500534554204D4158204355EC
:102DD0005252454E54005053553A20434F4E53548F
:102DE000414E5420562F49004D50505420535441C9
:102DF00054555300505620503A005720443A00256D
:102E0000005461726765743A0056200043204241C5
:102E1000434B3D4D656E75004E4F4E450049444C49
:102E200045004F4B3D4D656E75004241434B3D5251
:102E300065736574206661756C74004641554C5429
:102E40003A200050563A004241543A005449564103
:102E50004E4120534F4C4152204D50505400496E2A
:102E6000697469616C697A696E672E2E2E005359F8
:102E70005354454D20494E464F00546976616E616A
:102E8000204D5050540056657273696F6E203100AA
:102E90005056204F564552564F4C540042415420F4
:102EA0004F564552564F4C54004F5645524355527B
:102EB00052454E54004F56455254454D50004E4FCA
:102EC00020424154544552590042554C4B204D50DC
:102ED0005054004142534F525054494F4E00464CBB
:102EE0004F4154005053552043432F435600464111
:102EF000554C5400486F6D65004D5050542053742C
:102F000061747573004261747465727920547970CC
:102F10006500506F77657220537570706C7900533F
:102F2000797374656D204C696D697473005379739E
:102F300074656D20496E666F004C69746869756DC3
:102F40000047656C004C6561642041636964000062
:107E0000112484B714BE81FFF0D085E080938100F7
:107E100082E08093C00088E18093C10086E0809377
:107E2000C20080E18093C4008EE0C9D0259A86E02C
:107E300020E33CEF91E0309385002093840096BBD3
:107E4000B09BFECF1D9AA8958150A9F7CC24DD24C4
:107E500088248394B5E0AB2EA1E19A2EF3E0BF2EE7
:107E6000A2D0813461F49FD0082FAFD0023811F036
:107E7000013811F484E001C083E08DD089C08234E0
:107E800011F484E103C0853419F485E0A6D080C0E4
:107E9000853579F488D0E82EFF2485D0082F10E0AE
:107EA000102F00270E291F29000F111F8ED06801E7
:107EB0006FC0863521F484E090D080E0DECF843638
:107EC00009F040C070D06FD0082F6DD080E0C81688
:107ED00080E7D80618F4F601B7BEE895C0E0D1E017
:107EE00062D089930C17E1F7F0E0CF16F0E7DF06D8
:107EF00018F0F601B7BEE89568D007B600FCFDCFD4
:107F0000A601A0E0B1E02C9130E011968C91119780
:107F100090E0982F8827822B932B1296FA010C0160
:107F200087BEE89511244E5F5F4FF1E0A038BF0790
:107F300051F7F601A7BEE89507B600FCFDCF97BE46
:107F4000E89526C08437B1F42ED02DD0F82E2BD052
:107F50003CD0F601EF2C8F010F5F1F4F84911BD097
:107F6000EA94F801C1F70894C11CD11CFA94CF0C13
:107F7000D11C0EC0853739F428D08EE10CD085E9AC
:107F80000AD08FE07ACF813511F488E018D01DD067
:107F900080E101D065CF982F8091C00085FFFCCF94
:107FA0009093C60008958091C00087FFFCCF809118
:107FB000C00084FD01C0A8958091C6000895E0E648
:107FC000F0E098E1908380830895EDDF803219F02E
:107FD00088E0F5DFFFCF84E1DECF1F93182FE3DFCA
:107FE0001150E9F7F2DF1F91089580E0E8DFEE27F6
:047FF000FF270994CA
:027FFE00040479
:00000001FF
