:100000000C945D000C94D4040C94AD040C94850005
:100010000C9485000C9485000C9485000C9485004C
:100020000C9485000C9485000C9485000C94FB04C2
:100030000C9485000C9485000C9485000C9485002C
:100040000C9463040C9485000C9485000C9485003A
:100050000C9485000C9485000C9485000C9485000C
:100060000C9485000C9485000000000024002700FB
:100070002A0000000000250028002B0004040404CE
:100080000404040402020202020203030303030342
:10009000010204081020408001020408102001021F
:1000A00004081020000000080002010000030407FB
:1000B0000000000000000000670711241FBECFEF02
:1000C000D8E0DEBFCDBF11E0A0E0B1E0E8E0F5E1AF
:1000D00002C005900D92AE36B107D9F721E0AEE629
:1000E000B1E001C01D92A23AB207E1F710E0CDE500
:1000F000D0E004C02197FE010E947C0ACC35D107D4
:10010000C9F70E945F050C94820A0C940000AF921C
:10011000BF92CF92DF92EF92FF920F931F93CF93F4
:10012000DF936C017B018B01040F151FEB015E0156
:10013000AE18BF08C017D10759F06991D601ED91EB
:10014000FC910190F081E02DC6010995892B79F78A
:10015000C501DF91CF911F910F91FF90EF90DF903C
:10016000CF90BF90AF90089590E0FC01EC55FF4F09
:100170002491FC01E057FF4F3491FC01E458FF4FFC
:10018000E491EE23C9F0222339F0233001F1A8F4E1
:10019000213019F1223029F1F0E0EE0FFF1FEE5867
:1001A000FF4FA591B4918FB7F894EC91611126C0DF
:1001B00030953E233C938FBF08952730A9F0283017
:1001C000C9F0243049F7809180008F7D03C0809171
:1001D00080008F7780938000DFCF84B58F7784BDD8
:1001E000DBCF84B58F7DFBCF8091B0008F7780937C
:1001F000B000D2CF8091B0008F7DF9CF3E2BDACF07
:10020000CF93DF9390E0FC01E057FF4F2491845897
:100210009F4FFC0184918823D1F090E0880F991FB3
:10022000FC01E859FF4FA591B491FC01EE58FF4F36
:10023000C591D49161110EC09FB7F8948C91E22FB3
:10024000E0958E238C932881E223E8839FBFDF9182
:10025000CF9108958FB7F894EC91E22BEC938FBF78
:10026000F6CF8E50806480937C0080917A00806409
:1002700080937A0080917A0086FDFCCF809178008F
:100280009091790008953FB7F89480917901909109
:100290007A01A0917B01B0917C0126B5A89B05C095
:1002A0002F3F19F00196A11DB11D3FBFBA2FA92FF5
:1002B000982F8827BC01CD01620F711D811D911DF2
:1002C00042E0660F771F881F991F4A95D1F708955E
:1002D0008F929F92AF92BF92CF92DF92EF92FF9256
:1002E0000E9443014B015C0180916E0190916F016E
:1002F000A0917001B0917101892B8A2B8B2BC9F1D0
:1003000080916E0190916F01A0917001B091710187
:1003100075016401C81AD90AEA0AFB0AD701C601A5
:1003200089559B41A109B109873C9243A105B105BB
:1003300000F5C701B6010E94E9089B01AC010E94CB
:10034000D7079B01AC0160E074E284E799E40E9466
:100350004808609308017093090180930A01909303
:100360000B01C0920401D0920501E0920601F092C7
:10037000070180926E0190926F01A0927001B0927D
:10038000710181E0809374011092730110927201E7
:1003900060E088E0FF90EF90DF90CF90BF90AF904B
:1003A0009F908F900C94B4000895089590E080E0A1
:1003B0000895FC0101900020E9F73197AF01481B37
:1003C000590BBC018AE891E00C9487008F929F92B0
:1003D000AF92BF920F931F93CF93DF93CDB7DEB74A
:1003E000A1970FB6F894DEBF0FBECDBF19A2423061
:1003F00008F44AE08E010F5D1F4F842E912CB12C22
:10040000A12CA50194010E94A507E62FB901CA01FC
:10041000EA30F4F4E05DD801EE938D01232B242B18
:10042000252B79F790E080E0109719F0CD010E941C
:10043000D901A1960FB6F894DEBF0FBECDBFDF91F4
:10044000CF911F910F91BF90AF909F908F90089583
:10045000E95CE1CF0C94D901CF93DF93EC0160E02C
:100460008E810E94B40061E08E810E94B40060E041
:100470008E810E94B4008BE891E00197F1F7DF9143
:10048000CF910895CF92DF92EF92FF920F931F9337
:10049000CF93DF936C017C0187E0E80EF11CD0E084
:1004A000C0E0062F10E0B8010C2E02C075956795CC
:1004B0000A94E2F76170F70181917F010E94B40014
:1004C0002196C430D10579F7C601DF91CF911F91F4
:1004D0000F91FF90EF90DF90CF900C942C02CF9271
:1004E000DF92EF92FF920F931F93CF93DF93EC0174
:1004F000F62E642F8C810E94B4008D818F3F19F0FD
:1005000060E00E94B4000F2D10E08F8584FF25C0AD
:100510006E0187E0C80ED11CF12CE12CB8010E2C25
:1005200002C0759567950A94E2F76170F6018191B2
:100530006F010E94B400FFEFEF1AFF0A88E0E8168F
:10054000F10461F7CE01DF91CF911F910F91FF90E0
:10055000EF90DF90CF900C942C02B80184E0759559
:1005600067958A95E1F7CE010E9442026F2DCE0178
:10057000DF91CF911F910F91FF90EF90DF90CF907F
:100580000C94420240E0682F8AE891E00C946F02DC
:1005900081E00E94C2028BE39FE10197F1F7089589
:1005A000CF93DF93613029F09091990198609093F7
:1005B000990160939D0110929E0190E490939F0198
:1005C0008093A001805C8093A10161E080918E0105
:1005D0000E94000180918F018F3F19F061E00E941D
:1005E000000161E0809190010E940001CAE8D1E021
:1005F0009E012A5831408091990184FD0BC084E00E
:1006000090E021962817390744F461E08E810E941A
:100610000001EECF88E090E0F4CF8BE39DE00197FE
:10062000F1F760E080918E010E94B40060E080915B
:1006300090010E94B40080918F018F3F19F060E01B
:100640000E94B4008091990184FD34C063E08AE87F
:1006500091E00E944202CBE4D6E4CE010197F1F78B
:1006600063E08AE891E00E9442022197F1F763E09B
:100670008AE891E00E94420283E592E00197F1F757
:1006800062E08AE891E00E944202809199018062D2
:100690000E94C20284E080939A018CE00E94C20210
:1006A0000E94C80282E080939B0186E0DF91CF9197
:1006B0000C94C20280620E94C2028BE496E401970D
:1006C000F1F78091990180620E94C20283E592E075
:1006D0000197F1F78091990180620E94C202D5CF03
:1006E00090919D01691710F06FEF690FE62FF0E010
:1006F000E657FE4F9489890F80680C94C20241E04E
:100700000E946F0281E090E008954F925F926F9295
:100710007F928F929F92AF92BF92CF92DF92EF9291
:10072000FF920F931F93CF936B017C01742EAC014A
:100730009B010E94530A882399F08CE191E0CF91AC
:100740001F910F91FF90EF90DF90CF90BF90AF90EF
:100750009F908F907F906F905F904F900C94D901F5
:1007600046015701E894B7F82FEF3FEF4FE75FE7F7
:10077000C501B4010E94530A81110DC02FEF3FEF54
:100780004FE75FE7C501B4010E94430818161CF447
:1007900080E291E0D4CF2FEF3FEF4FE75FE4C70156
:1007A000B6010E949B0918161CF484E291E0C7CFA1
:1007B0002FEF3FEF4FE75FECC701B6010E94430800
:1007C00087FDF3CF20E030E0A901C701B6010E9408
:1007D000430810E000E087FF0CC041E06DE28AE8CA
:1007E00091E00E946F02F7FAF094F7F8F09401E0BC
:1007F00010E0C0E060E070E080E09FE37C1641F034
:1008000020E030E040E251E40E944808CF5FF6CF9C
:10081000A70196010E94D7074B015C010E94BA080C
:100820002B013C014AE00E94E601080F191FCC236E
:10083000C9F1C301B2010E94E9089B01AC01C501E5
:10084000B4010E94D6074B015C0141E06EE28AE8E8
:1008500091E00E946F020F5F1F4FC15018F120E01E
:1008600030E040E251E4C501B4010E94A0092B012F
:100870003C010E94BA084B01B12CA12C4AE0C501F1
:10088000B4010E94E601080F191FC501B4010E94BE
:10089000E9089B01AC01C301B2010E94D6074B01DC
:1008A0005C01DBCFC801CF911F910F91FF90EF90BA
:1008B000DF90CF90BF90AF909F908F907F906F9080
:1008C0005F904F9008951F920F920FB60F921124D0
:1008D0002F933F938F939F93AF93BF9380917D010D
:1008E00090917E01A0917F01B091800130917801BB
:1008F00023E0230F2D3758F50196A11DB11D20933C
:10090000780180937D0190937E01A0937F01B09345
:1009100080018091790190917A01A0917B01B09141
:100920007C010196A11DB11D8093790190937A01FC
:10093000A0937B01B0937C01BF91AF919F918F9168
:100940003F912F910F900FBE0F901F90189526E8A2
:10095000230F0296A11DB11DD2CF1F920F920FB689
:100960000F9211242F933F934F935F936F937F9335
:100970008F939F93AF93BF93EF93FF93E091020107
:10098000F09103010995FF91EF91BF91AF919F9174
:100990008F917F916F915F914F913F912F910F9028
:1009A0000FBE0F901F9018951F920F920FB60F92C7
:1009B00011242F933F934F935F936F937F938F9364
:1009C0009F93AF93BF93EF93FF93E0910001F0915A
:1009D00001010995FF91EF91BF91AF919F918F9187
:1009E0007F916F915F914F913F912F910F900FBE2B
:1009F0000F901F9018951F920F920FB60F9211240F
:100A00002F933F934F935F936F937F938F939F9316
:100A1000AF93BF93EF93FF93809177018823C9F041
:100A20008091750190917601019690937601809363
:100A300075018091750190917601029750F060E008
:100A400088E00E94B4001092770110927601109213
:100A50007501809174018823B9F0209189018091FA
:100A60007201909173012817190609F0F0F461E002
:100A700088E00E94B40081E08093770110927601B3
:100A80001092750110927401FF91EF91BF91AF9197
:100A90009F918F917F916F915F914F913F912F9196
:100AA0000F900FBE0F901F9018958091720190913A
:100AB000730101969093730180937201E5CF78944E
:100AC00084B5826084BD84B5816084BD85B5826053
:100AD00085BD85B5816085BD80916E008160809304
:100AE0006E0010928100809181008260809381006D
:100AF000809181008160809381008091800081607D
:100B0000809380008091B10084608093B1008091D7
:100B1000B00081608093B00080917A0084608093FF
:100B20007A0080917A00826080937A0080917A00C6
:100B3000816080937A0080917A00806880937A0047
:100B40001092C10061E088E00E94000160E082E054
:100B50000E94000160E08EE00E94000160E080E100
:100B60000E94000160E088E00E94B40064E084E13B
:100B70000E94D0020E94C80260E080E00E947003E0
:100B800088E291E00E942A020E9443014B015C012D
:100B900098EEC92E93E0D92EE12CF12C0E9443014E
:100BA000681979098A099B09683E73408105910596
:100BB000A8F321E0C21AD108E108F10888EE880EF6
:100BC00083E0981EA11CB11CC114D104E104F104FE
:100BD00029F788E691E090930101809300018091CC
:100BE0006900836080936900E89AF894109280000D
:100BF00010928100109285001092840087EC90E0A2
:100C00009093890080938800809181008860809310
:100C100081008091810082608093810080916F00CB
:100C2000826080936F00789444244A9483E0582E25
:100C3000612C712C00E010E08EE00E9431012AE569
:100C400030E0DC010E94750AA30192010E94860730
:100C50002093890160918901C0900401D090050121
:100C6000E0900601F090070170E090E080E00E94C3
:100C7000EB0820E030E048EC52E40E94A0094B0170
:100C80005C01C701B6010E94E9089B01AC01C501E6
:100C9000B4010E94480820E030E044E353E40E949D
:100CA000A0096093850170938601809387019093DA
:100CB0008801C4E6D0E0C12CD12C7601812C912C86
:100CC000540180E10E943101AC01092E000C660B39
:100CD000770B840E951EA61EB71E9C01DC010E9498
:100CE0006D0AC60ED71EE81EF91E219751F7C501E1
:100CF000B4010E94EB0820E030E048EC52E40E948E
:100D000048084B015C01C701B6010E94EB0820E0D6
:100D100030E048EC52E40E9448086B017C01A501D8
:100D20009401C501B4010E94A0099B01AC01C70157
:100D3000B6010E94D6076B017C0120E030E0A901DA
:100D40000E94430887FF03C0C12CD12C7601C70144
:100D5000B6010E94130A20E030E040EA50E40E940D
:100D6000A00920E030EC4FE754E40E94480820E05E
:100D700030E040E351E40E94A00960930C017093BD
:100D80000D0180930E0190930F012FB7F89480917D
:100D90007D0190917E01A0917F01B09180012FBFD4
:100DA0004091810150918201609183017091840191
:100DB000841B950BA60BB70B843F9140A105B10591
:100DC00008F47EC02FB7F89480917D0190917E0148
:100DD000A0917F01B09180012FBF809381019093FA
:100DE0008201A0938301B09384010E94C80260E055
:100DF00080E00E94700386E391E00E942A026091E5
:100E0000890170E090E080E04AE00E94E6018AE318
:100E100091E00E942A0260E089E00E9470038DE365
:100E200091E00E942A02609108017091090180916D
:100E30000A0190910B0141E00E94850380E491E05A
:100E40000E942A0261E080E00E94700383E491E046
:100E50000E942A026091850170918601809187012C
:100E60009091880140E00E94850386E491E00E9411
:100E70002A0261E089E00E9470038AE491E00E9406
:100E80002A0260910C0170910D0180910E019091E8
:100E90000F0140E00E9485038EE491E00E942A0247
:100EA00062E080E00E94700380E591E00E942A02E7
:100EB00063E080E00E9470038EE591E00E942A02C8
:100EC0000115110509F4B8CE0E940000B5CEEAE87C
:100ED000F1E01382128284E191E09183808383E0C8
:100EE00084838FEF85838AE0868384E0878385E02F
:100EF000808786E0818787E082871386148615863F
:100F00001686178661E080E10C94D002052E97FBCF
:100F10001EF400940E949D0757FD07D00E94A5076C
:100F200007FC03D04EF40C949D07509540953095E6
:100F300021953F4F4F4F5F4F089590958095709545
:100F400061957F4F8F4F9F4F0895A1E21A2EAA1BE4
:100F5000BB1BFD010DC0AA1FBB1FEE1FFF1FA21769
:100F6000B307E407F50720F0A21BB30BE40BF50B66
:100F7000661F771F881F991F1A9469F760957095EF
:100F8000809590959B01AC01BD01CF010895A29F72
:100F9000B001B39FC001A39F700D811D1124911D4D
:100FA000B29F700D811D1124911D08955058BB27CB
:100FB000AA270E94EE070C9461090E94530938F099
:100FC0000E945A0920F039F49F3F19F426F40C943A
:100FD00050090EF4E095E7FB0C944A09E92F0E94B2
:100FE000720958F3BA17620773078407950720F050
:100FF00079F4A6F50C9494090EF4E0950B2EBA2F13
:10100000A02D0B01B90190010C01CA01A00111240E
:10101000FF27591B99F0593F50F4503E68F11A16BA
:10102000F040A22F232F342F4427585FF3CF46954B
:1010300037952795A795F0405395C9F77EF41F166D
:10104000BA0B620B730B840BBAF09150A1F0FF0F37
:10105000BB1F661F771F881FC2F70EC0BA0F621F23
:10106000731F841F48F4879577956795B795F79513
:101070009E3F08F0B0CF9395880F08F09927EE0FA8
:101080009795879508950E94260908F481E00895B0
:101090000E945C080C9461090E945A0958F00E9451
:1010A000530940F029F45F3F29F00C944A0951118B
:1010B0000C9495090C9450090E94720968F39923C5
:1010C000B1F3552391F3951B550BBB27AA27621744
:1010D0007307840738F09F5F5F4F220F331F441F51
:1010E000AA1FA9F335D00E2E3AF0E0E832D0915085
:1010F0005040E695001CCAF72BD0FE2F29D0660F72
:10110000771F881FBB1F261737074807AB07B0E8B4
:1011100009F0BB0B802DBF01FF2793585F4F3AF0BA
:101120009E3F510578F00C944A090C9495095F3F55
:10113000E4F3983ED4F3869577956795B795F79540
:101140009F5FC9F7880F911D9695879597F9089528
:10115000E1E0660F771F881FBB1F621773078407C4
:10116000BA0720F0621B730B840BBA0BEE1F88F7D3
:10117000E09508950E947A0988F09F5798F0B92F5A
:101180009927B751B0F0E1F0660F771F881F991FBC
:101190001AF0BA95C9F714C0B13091F00E949409C1
:1011A000B1E008950C949409672F782F8827B85FD1
:1011B00039F0B93FCCF3869577956795B395D9F714
:1011C0003EF490958095709561957F4F8F4F9F4F1E
:1011D0000895E89409C097FB3EF49095809570952A
:1011E00061957F4F8F4F9F4F9923A9F0F92F96E973
:1011F000BB279395F695879577956795B795F111E8
:10120000F8CFFAF4BB0F11F460FF1BC06F5F7F4F84
:101210008F4F9F4F16C0882311F096E911C0772396
:1012200021F09EE8872F762F05C0662371F096E89F
:10123000862F70E060E02AF09A95660F771F881F6E
:10124000DAF7880F9695879597F90895990F000812
:10125000550FAA0BE0E8FEEF16161706E807F90788
:10126000C0F012161306E407F50798F0621B730B23
:10127000840B950B39F40A2661F0232B242B252BA4
:1012800021F408950A2609F4A140A6958FEF811D47
:10129000811D089597F99F6780E870E060E00895E8
:1012A0009FEF80EC089500240A941616170618067E
:1012B0000906089500240A9412161306140605065A
:1012C0000895092E0394000C11F4882352F0BB0FEB
:1012D00040F4BF2B11F460FF04C06F5F7F4F8F4F4E
:1012E0009F4F089557FD9058440F551F59F05F3F89
:1012F00071F04795880F97FB991F61F09F3F79F038
:1013000087950895121613061406551FF2CF4695B9
:10131000F1DF08C0161617061806991FF1CF86953B
:101320007105610508940895E894BB27662777271F
:10133000CB0197F908950E94260908F48FEF0895CC
:101340000E94B3090C9461090E94530938F00E946D
:101350005A0920F0952311F00C944A090C94500975
:1013600011240C9495090E94720970F3959FC1F3A2
:10137000950F50E0551F629FF001729FBB27F00D43
:10138000B11D639FAA27F00DB11DAA1F649F662798
:10139000B00DA11D661F829F2227B00DA11D621FE7
:1013A000739FB00DA11D621F839FA00D611D221FA1
:1013B000749F3327A00D611D231F849F600D211D85
:1013C000822F762F6A2F11249F5750409AF0F1F008
:1013D00088234AF0EE0FFF1FBB1F661F771F881F71
:1013E00091505040A9F79E3F510580F00C944A0956
:1013F0000C9495095F3FE4F3983ED4F38695779576
:101400006795B795F795E7959F5FC1F7FE2B880F16
:10141000911D9695879597F9089519F416F40C94F3
:1014200050090C94580A0E947A09B8F39923C9F319
:10143000B6F39F57550B87FF0E94660A0024A0E66B
:1014400040EA900180585695979528F4805C660F85
:10145000771F881F20F026173707480730F4621BD4
:10146000730B840B202931294A2BA69517940794D6
:10147000202531254A2758F7660F771F881F20F04F
:1014800026173707480730F4620B730B840B200DC7
:10149000311D411DA09581F7B901842F9158880F06
:1014A0009695879508950E942609880B990B0895B3
:1014B0009F3F31F0915020F4879577956795B795C8
:1014C000880F911D9695879597F9089591505040F2
:1014D000660F771F881FD2F708950E94C70733232E
:1014E00012F48A1B9B0B0C94770A0E94C707B7FF64
:1014F0000895821B930B0895EE0FFF1F0590F49142
:08150000E02D0994F894FFCFDF
:10150800D401D401102700000000484200006643BF
:10151800000000007F038700D601D5016E616E00D0
:10152800696E66006F766600546976616E61205355
:1015380054532056310050443A00757300463A001F
:10154800487A00503A006465670056723A005600BF
:10155800475249443A2053594E43204F4B00535465
:0E1568005320434F4E54524F4C4C45520000FE
:00000001FF
