:020000040000FA
:100000000C9462000C948A000C948A000C948A0070
:100010000C948A000C948A000C948A000C948A0038
:100020000C948A000C948A000C948A000C948A0028
:100030000C948A000C948A000C948A000C948A0018
:100040000C9490030C948A000C948A000C948A00FF
:100050000C948A000C948A000C948A000C948A00F8
:100060000C948A000C948A000000000024002700F1
:100070002A0000000000250028002B0000000000DE
:1000800023002600290004040404040404040202DA
:100090000202020203030303030301020408102007
:1000A0004080010204081020010204081020000012
:1000B0000008000201000003040700000000000027
:1000C00000008D0511241FBECFEFD8E0DEBFCDBFED
:1000D00012E0A0E0B1E0E8E6FBE002C005900D927E
:1000E000A436B107D9F722E0A4E6B2E001C01D9220
:1000F000AA38B207E1F710E0C2E6D0E004C02197C9
:10010000FE010E94AC05C136D107C9F70E94DA038F
:100110000C94B2050C940000AF92BF92CF92DF9284
:10012000EF92FF920F931F93CF93DF936C017B01AC
:100130008B01040F151FEB015E01AE18BF08C0173D
:10014000D10759F06991D601ED91FC910190F081B0
:10015000E02DC6010995892B79F7C501DF91CF9173
:100160001F910F91FF90EF90DF90CF90BF90AF90D5
:100170000895833081F028F4813099F08230A9F01D
:1001800008958730A9F08830C9F08430B1F48091A7
:1001900080008F7D03C0809180008F7780938000E6
:1001A000089584B58F7784BD089584B58F7DFBCF86
:1001B0008091B0008F778093B00008958091B00057
:1001C0008F7DF9CFCF93DF93282F30E0F901E255EF
:1001D000FF4F8491F901E656FF4FD491F901EA5798
:1001E000FF4FC491CC23A1F081110E94B900EC2FE4
:1001F000F0E0EE0FFF1FE458FF4FA591B491EC9192
:10020000ED2381E090E009F480E0DF91CF91089543
:1002100080E090E0FACF1F93CF93DF93282F30E058
:10022000F901E255FF4F8491F901E656FF4FD49151
:10023000F901EA57FF4FC491CC23A9F0162F811181
:100240000E94B900EC2FF0E0EE0FFF1FEE58FF4FB9
:10025000A591B4918FB7F894EC91111108C0D09585
:10026000DE23DC938FBFDF91CF911F910895DE2BAA
:10027000F8CFCF93DF9390E0FC01E656FF4F249137
:100280008A579F4FFC0184918823D1F090E0880F1A
:10029000991FFC01E859FF4FA591B491FC01EE585C
:1002A000FF4FC591D491623071F49FB7F8943C919F
:1002B000822F809583238C93E8812E2B28839FBFE8
:1002C000DF91CF9108958FB7F894EC912E2B2C935A
:1002D0008FBFF6CF3FB7F8948091690290916A0280
:1002E000A0916B02B0916C0226B5A89B05C02F3F70
:1002F00019F00196A11DB11D3FBFBA2FA92F982F4C
:100300008827BC01CD01620F711D811D911D42E046
:10031000660F771F881F991F4A95D1F708958F920E
:100320009F92AF92BF92CF92DF92EF92FF924B01DA
:100330005C010E946A016B017C010E946A016C19D8
:100340007D098E099F09683E734081059105A8F3D8
:1003500021E0821A9108A108B10888EEC80E83E056
:10036000D81EE11CF11C81149104A104B10429F7E9
:10037000FF90EF90DF90CF90BF90AF909F908F90C5
:100380000895089590E080E00895009769F0FC01D9
:1003900001900020E9F73197AF01481B590BBC01D0
:1003A00082E792E00C948C0090E080E00895CF9377
:1003B000DF93EC0160E08E810E940B0161E08E8191
:1003C0000E940B0160E08E810E940B018BE891E09E
:1003D0000197F1F7DF91CF910895CF92DF92EF92DD
:1003E000FF920F931F93CF93DF936C017C0187E003
:1003F000E80EF11CD0E0C0E0062F10E0B8010C2E92
:1004000002C0759567950A94E2F76170F7018191D2
:100410007F010E940B012196C430D10579F7C601F6
:10042000DF91CF911F910F91FF90EF90DF90CF90D0
:100430000C94D701CF92DF92EF92FF920F931F930C
:10044000CF93DF93EC01F62E642F8C810E940B0179
:100450008D818F3F19F060E00E940B010F2D10E09D
:100460008F8584FF25C06E0187E0C80ED11CF12C5A
:10047000E12CB8010E2C02C0759567950A94E2F73D
:100480006170F60181916F010E940B01FFEFEF1A7D
:10049000FF0A88E0E816F10461F7CE01DF91CF9101
:1004A0001F910F91FF90EF90DF90CF900C94D701A8
:1004B000B80184E0759567958A95E1F7CE010E94B1
:1004C000ED016F2DCE01DF91CF911F910F91FF9024
:1004D000EF90DF90CF900C94ED0140E0682F82E721
:1004E00092E00C941A0281E00E946D028BE39FE17E
:1004F0000197F1F70895CF93DF93613029F0909140
:100500008102986090938102609385021092860226
:1005100090E49093870280938802805C80938902A4
:1005200061E0809176020E943901809177028F3FCD
:1005300019F061E00E94390161E0809178020E9427
:100540003901C2E7D2E09E012257324080918102F8
:1005500084FD0BC084E090E021962817390744F40D
:1005600061E08E810E943901EECF88E090E0F4CF07
:100570008BE39DE00197F1F760E0809176020E94A5
:100580000B0160E0809178020E940B01809177025C
:100590008F3F19F060E00E940B018091810284FD81
:1005A00034C063E082E792E00E94ED01CBE4D6E440
:1005B000CE010197F1F763E082E792E00E94ED013E
:1005C0002197F1F763E082E792E00E94ED0183E575
:1005D00092E00197F1F762E082E792E00E94ED017C
:1005E0008091810280620E946D0284E08093820289
:1005F0008CE00E946D020E94730282E0809383026D
:1006000086E0DF91CF910C946D0280620E946D02B2
:100610008BE496E40197F1F78091810280620E9459
:100620006D0283E592E00197F1F78091810280628B
:100630000E946D02D5CF90918502691710F06FEF7F
:10064000690FE62FF0E0EE58FD4F9489890F80681E
:100650000C946D020E94730260E080E00E941B0314
:1006600080E291E00E94C50161E080E00E941B03EE
:1006700081E391E00E94C50162E080E00E941B03DB
:1006800082E491E00E94C50163E080E00E941B03C8
:1006900087E591E00C94C5010F931F93CF93DF93EF
:1006A0000E94730260E080E00E941B038FE591E0EE
:1006B0000E94C50110E000E0C0916D02D0916E0271
:1006C000C00FD11FC830D105ECF461E0600F80E0AD
:1006D0000E941B0380916F02909170028C179D07FE
:1006E000B1F489E691E00E94C501CC0FDD1FCC5F1B
:1006F000DE4F888199810E94C5010F5F1F4F033033
:100700001105D1F6DF91CF911F910F9108958CE6DD
:1007100091E0E9CF41E00E941A0281E090E0089563
:100720001F920F920FB60F9211242F933F938F9326
:100730009F93AF93BF938091650290916602A091C1
:100740006702B09168023091640223E0230F2D37D5
:1007500058F50196A11DB11D209364028093650296
:1007600090936602A0936702B09368028091690239
:1007700090916A02A0916B02B0916C020196A11D4A
:10078000B11D8093690290936A02A0936B02B093AB
:100790006C02BF91AF919F918F913F912F910F90DC
:1007A0000FBE0F901F90189526E8230F0296A11DEB
:1007B000B11DD2CF789484B5826084BD84B5816048
:1007C00084BD85B5826085BD85B5816085BD80911C
:1007D0006E00816080936E00109281008091810094
:1007E000826080938100809181008160809381008C
:1007F000809180008160809380008091B10084604E
:100800008093B1008091B00081608093B0008091AE
:100810007A00846080937A0080917A00826080936D
:100820007A0080917A00816080937A0080917A00CA
:10083000806880937A001092C10064E084E10E9495
:100840007B0262E089E00E94390162E088E00E9458
:10085000390162E081E00E94390162E080E00E949B
:1008600039010E94730260E083E00E941B038FE65F
:1008700091E00E94C50161E086E00E941B0381E8CF
:1008800091E00E94C50162E081E00E941B038BE8B9
:1008900091E00E94C501C3E0D0E088E991E00E94A8
:1008A000C50164EF71E080E090E00E948F01219724
:1008B000A1F70E942A0381E08093710280E0682EF4
:1008C00080E0782E97E0892E912C25E0A22EB12C85
:1008D00081E00E94E2006C0122242394892B09F418
:1008E000212C80E00E94E2007C0133243394892B88
:1008F00009F4312C89E00E94E2008C0144244394E5
:10090000892B09F4412C88E00E94E200EC01552477
:100910005394892B09F4512C80910301882319F1F8
:10092000CD2809F58091710281111DC080916F025F
:1009300090917002019797FD76C09093700280931A
:100940006F0280916D0290916E0220916F02309142
:100950007002281739072CF4019790936E02809348
:100960006D020E944C0380910201882371F1EF28EF
:1009700061F580917102811128C080916F02909180
:1009800070020196883091050CF056C09093700269
:1009900080936F0280916D0290916E0220916F02A0
:1009A00030917002AC014E5F5F4F421753072CF439
:1009B000019690936E0280936D02232B21F4109286
:1009C0006E0210926D020E944C03809101018823F7
:1009D00051F0012B41F480917102882391F1109222
:1009E00071020E944C0380910001882339F0CD2BC5
:1009F00029F481E0809371020E942A03209203016E
:100A000030920201409201015092000164E170E0D5
:100A100080E090E00E948F016114710409F458CFC6
:100A20000E94000055CF9092700280926F02B092A7
:100A30006E02A0926D0285CF1092700210926F022A
:100A4000A9CF81E08093710280916F029091700232
:100A50008130910531F12CF4892B29F60E942A036B
:100A6000C2CF8230910509F43FC0039709F0BBCF94
:100A70000E94730260E080E00E941B0386EE91E01A
:100A80000E94C50161E080E00E941B038CEE91E0B2
:100A90000E94C50162E080E00E941B0387EF91E0A5
:100AA00018C00E94730260E080E00E941B038AE984
:100AB00091E00E94C50161E080E00E941B0383EA8F
:100AC00091E00E94C50162E080E00E941B0381EB7F
:100AD00091E00E94C50163E080E00E941B038BEB64
:100AE00091E00E94C5017FCF0E94730260E080E028
:100AF0000E941B0385EC91E00E94C50161E080E04B
:100B00000E941B038EEC91E00E94C50162E080E030
:100B10000E941B038BED91E0DCCFE2E7F2E0138251
:100B2000128288E191E09183808383E084838FEF58
:100B3000858382E0868384E0878385E0808786E002
:100B4000818787E082871386148615861686178626
:100B500061E080E10C947B02EE0FFF1F0590F491A1
:100B6000E02D0994F894FFCF0101010105020A026A
:100B700013021F022C023C024A025602000000002F
:100B80008A038C00C201C101484F4D4520504147A6
:100B900045203A2042554C4B0050563A2033382ECF
:100BA00035562020493A203841004241543A2031FC
:100BB000342E342E35562020493A20323041004F11
:100BC0004B3D4D656E75004D41494E204D454E558E
:100BD000003E2000202000544956414E4120534FF2
:100BE0004C4152204D5050540056657273696F6EDF
:100BF000203100496E697469616C697A696E6700B9
:100C00002E0052454144494E47530050563A33381E
:100C10002E355620352E3241004241543A31332E82
:100C20003856004241434B3D4D656E750053455467
:100C300054494E475300426174746572793A4C6965
:100C400074680042756C6B3A31342E345600414260
:100C50004F5554004553503332204D505054004CA2
:100C6000434420323078342044656D6F00486F6D06
:100C7000650052656164696E6773004D5050542081
:100C80005374617475730042617474657279205491
:100C90007970650043686172676520566F6C746196
:100CA0006765730043757272656E74204C696D6977
:100CB000740053797374656D20496E666F004661E8
:0C0CC00063746F727920526573657400D4
:107E0000112484B714BE81FFF0D085E080938100F7
:107E100082E08093C00088E18093C10086E0809377
:107E2000C20080E18093C4008EE0C9D0259A86E02C
:107E300020E33CEF91E0309385002093840096BBD3
:107E4000B09BFECF1D9AA8958150A9F7CC24DD24C4
:107E500088248394B5E0AB2EA1E19A2EF3E0BF2EE7
:107E6000A2D0813461F49FD0082FAFD0023811F036
:107E7000013811F484E001C083E08DD089C08234E0
:107E800011F484E103C0853419F485E0A6D080C0E4
:107E9000853579F488D0E82EFF2485D0082F10E0AE
:107EA000102F00270E291F29000F111F8ED06801E7
:107EB0006FC0863521F484E090D080E0DECF843638
:107EC00009F040C070D06FD0082F6DD080E0C81688
:107ED00080E7D80618F4F601B7BEE895C0E0D1E017
:107EE00062D089930C17E1F7F0E0CF16F0E7DF06D8
:107EF00018F0F601B7BEE89568D007B600FCFDCFD4
:107F0000A601A0E0B1E02C9130E011968C91119780
:107F100090E0982F8827822B932B1296FA010C0160
:107F200087BEE89511244E5F5F4FF1E0A038BF0790
:107F300051F7F601A7BEE89507B600FCFDCF97BE46
:107F4000E89526C08437B1F42ED02DD0F82E2BD052
:107F50003CD0F601EF2C8F010F5F1F4F84911BD097
:107F6000EA94F801C1F70894C11CD11CFA94CF0C13
:107F7000D11C0EC0853739F428D08EE10CD085E9AC
:107F80000AD08FE07ACF813511F488E018D01DD067
:107F900080E101D065CF982F8091C00085FFFCCF94
:107FA0009093C60008958091C00087FFFCCF809118
:107FB000C00084FD01C0A8958091C6000895E0E648
:107FC000F0E098E1908380830895EDDF803219F02E
:107FD00088E0F5DFFFCF84E1DECF1F93182FE3DFCA
:107FE0001150E9F7F2DF1F91089580E0E8DFEE27F6
:047FF000FF270994CA
:027FFE00040479
:00000001FF
