:020000040000FA
:100000000C94DA000C9473090C944C090C940201C2
:100010000C9402010C9402010C9402010C94020154
:100020000C9402010C9402010C9402010C94020144
:100030000C9402010C9402010C9402010C94020134
:100040000C9402090C9402010C9402010C9402011C
:100050000C9402010C9402010C9402010C94020114
:100060000C9402010C94020100407A10F35A00A093
:10007000724E18090010A5D4E80000E87648170071
:1000800000E40B54020000CA9A3B000000E1F505B1
:10009000000080969800000040420F000000A086FB
:1000A00001000000102700000000E803000000002D
:1000B0006400000000000A000000000001000000D1
:1000C00000002C76D888DC674F0823DFC1DFAE59EB
:1000D000E1B1B796E5E3E453C63AE651997696E87E
:1000E000E6C28426EB898C9B62ED407C6FFCEFBC02
:1000F0009C9F40F2BAA56FA5F490055A2AF75C932D
:100100006B6CF9676DC11BFCE0E40D47FEF520E662
:10011000B500D0ED902E0300943577050080841E45
:10012000080000204E0A000000C80C333333330FA0
:10013000986E12831141EF8D2114893BE65516CF3D
:10014000FEE6DB18D1844B381BF77C1D901DA4BB49
:10015000E424203284725E228100C9F124ECA1E5FE
:100160003D2700000000240027002A0000000000B6
:10017000250028002B0004040404040404040202E3
:100180000202020203030303030301020408102016
:100190004080010204081020010204081020000021
:1001A0000008000201000003040700000000000036
:1001B0000000FA0E11241FBECFEFD8E0DEBFCDBF86
:1001C00012E0A0E0B1E0ECEFF8E202C005900D9281
:1001D000A036B107D9F723E0A0E6B2E001C01D9236
:1001E000A130B207E1F710E0CAEDD0E004C02197DA
:1001F000FE010E946414C93DD107C9F70E949A0903
:100200000C947C140C940000AF92BF92CF92DF92BA
:10021000EF92FF920F931F93CF93DF936C017B01BB
:100220008B01040F151FEB015E01AE18BF08C0174C
:10023000D10759F06991D601ED91FC910190F081BF
:10024000E02DC6010995892B79F7C501DF91CF9182
:100250001F910F91FF90EF90DF90CF90BF90AF90E4
:10026000089590E0FC01E256FE4F2491FC01E65710
:10027000FE4F3491FC01EA58FE4FE491EE23C9F0A1
:10028000222339F0233001F1A8F4213019F1223072
:1002900029F1F0E0EE0FFF1FE459FE4FA591B49154
:1002A0008FB7F894EC91611126C030953E233C93B2
:1002B0008FBF08952730A9F02830C9F0243049F7BE
:1002C000809180008F7D03C0809180008F77809324
:1002D0008000DFCF84B58F7784BDDBCF84B58F7D81
:1002E000FBCF8091B0008F778093B000D2CF809108
:1002F000B0008F7DF9CF3E2BDACFCF93DF9390E024
:10030000FC01E657FE4F24918A589E4FFC018491D0
:100310008823D1F090E0880F991FFC01EE59FE4F21
:10032000A591B491FC01E459FE4FC591D49161119E
:100330000EC09FB7F8948C91E22FE0958E238C939A
:100340002881E223E8839FBFDF91CF9108958FB783
:10035000F894EC91E22BEC938FBFF6CF3FB7F89473
:100360008091750290917602A0917702B091780207
:1003700026B5A89B05C02F3F19F00196A11DB11D00
:100380003FBFBA2FA92F982F8827BC01CD01620F3C
:10039000711D811D911D42E0660F771F881F991FF7
:1003A0004A95D1F70895CF92DF92EF92FF920F9383
:1003B0001F930E94AE010091600210916102209192
:1003C000620230916302012B022B032B29F1009171
:1003D00060021091610220916202309163026B0110
:1003E0007C01C01AD10AE20AF30A9701860141EBA7
:1003F000C41A46E3D40AE108F10847E2C41643E20E
:10040000D406E104F10440F40093080110930901BB
:1004100020930A0130930B01609360027093610294
:10042000809362029093630260936C0270936D02FA
:1004300080936E0290936F021F910F91FF90EF9047
:10044000DF90CF900895CF92DF92EF92FF920F93BB
:100450001F930E94AE0100916402109165022091E9
:10046000660230916702012B022B032B29F10091C8
:1004700064021091650220916602309167026B015F
:100480007C01C01AD10AE20AF30A9701860141EB06
:10049000C41A46E3D40AE108F10847E2C41643E26D
:1004A000D406E104F10440F4009304011093050123
:1004B00020930601309307016093640270936502F4
:1004C000809366029093670260936802709369025A
:1004D00080936A0290936B021F910F91FF90EF90AF
:1004E000DF90CF9008952FB7F894609171027091CA
:1004F000720280917302909174022FBF0895089543
:10050000089590E080E00895CF92DF92EF92FF92FD
:10051000CF93C090E502D090E602E090E702F09021
:10052000E80220E030E040E85FE3C701B6010E9446
:10053000111287FD1EC020E030E046E653E4C701FB
:10054000B6010E94A4119F7720E030E046E653E414
:100550000E94161220E030E048EC52E40E9475132D
:10056000C1E020E030E040E251E40E941112181690
:100570000CF4C0E08C2FCF91FF90EF90DF90CF90E4
:100580000895CF92DF92EF92FF92CF93C090E10255
:10059000D090E202E090E302F090E40220E030E04C
:1005A00040E85FE3C701B6010E94111287FD1EC03B
:1005B00020E030E046E653E4C701B6010E94A411F2
:1005C0009F7720E030E046E653E40E94161220E0D8
:1005D00030E048EC52E40E947513C1E020E030E0C6
:1005E00040E251E40E94111218160CF4C0E08C2F66
:1005F000CF91FF90EF90DF90CF9008954F925F9250
:100600006F927F928F929F92AF92BF92CF92DF9222
:10061000EF92FF920F931F93CF93DF9300D000D000
:10062000CDB7DEB7F89440906C0250906D026090A8
:100630006E0270906F028090680290906902A090A4
:100640006A02B0906B028091080190910901A0911B
:100650000A01B0910B01C0900401D0900501E09017
:100660000601F0900701789441145104610471046B
:1006700009F4A5C081149104A104B10409F49FC038
:100680008C019D01005B1643210931090932134297
:100690002105310508F093C097018601005B1643E0
:1006A00021093109093213422105310508F087C0BB
:1006B000BC01CD016C0D7D1D8E1D9F1D0E94BE12C3
:1006C00020E030E040E05FE30E9475136B017C01A5
:1006D000481859086A087B0820E030E040E05FE3F2
:1006E0000E9475134B015C01C301B2010E94C0124C
:1006F000A50194010E947013181624F120E030E047
:1007000040E05FE3C701B60190580E94751369830A
:100710007A838B839C83C301B2010E94C0124B0178
:100720005C0129813A814B815C810E94111287FF13
:1007300012C0C701B6010E948812460E571E681EDD
:10074000791EE9CFC701B6010E948812461A570ADE
:10075000680A790AC9CFA7019601C501B4010E94B0
:10076000161220E030E044EB53E40E9475136B0155
:100770007C0120E030E044E353E40E94701318163B
:100780004CF420E030E044EB53E4C701B6010E9492
:10079000A411EDCF20E030E044E353ECC701B601F3
:1007A0000E94111287FF12C020E030E044EB53E4B6
:1007B000C701B6010E94A5116B017C01EBCFC12CD2
:1007C00080ECD82E89E7E82E84E4F82EC701B60124
:1007D0000F900F900F900F90DF91CF911F910F917D
:1007E000FF90EF90DF90CF90BF90AF909F908F9051
:1007F0007F906F905F904F9008950F931F930E948A
:10080000AE01F894009168021091690220916A0289
:1008100030916B027894011511052105310561F0C5
:10082000AB01BC01401B510B620B730B81E04136E5
:100830005A4E6105710508F080E01F910F910895EF
:10084000CF92DF92EF92FF92CF930E94FD03C82FC9
:100850008823F1F0C0902501D0902601E090270177
:10086000F090280120E030E044E452E4C701B601F2
:100870000E94701387FD0BC0C1E020E030E04CE423
:1008800052E4C701B6010E94111218160CF4C0E020
:100890008C2FCF91FF90EF90DF90CF9008950E9422
:1008A000FD03882329F00E94200481110C94840206
:1008B00080E008950F931F930E94AE01F894009179
:1008C0006C0210916D0220916E0230916F0278944B
:1008D000011511052105310561F0AB01BC01401B7B
:1008E000510B620B730B81E041365A4E6105710565
:1008F00008F080E01F910F910895CF92DF92EF9260
:10090000FF92CF930E945A04C82F8823F1F0C09021
:100910000C01D0900D01E0900E01F0900F0120E04D
:1009200030E044E452E4C701B6010E94701387FD31
:100930000BC0C1E020E030E04CE452E4C701B60156
:100940000E94111218160CF4C0E08C2FCF91FF906A
:10095000EF90DF90CF9008950E945A04882329F0E9
:100960000E947D0481110C94C10280E008954F9291
:100970005F926F927F928F929F92AF92BF92CF922F
:10098000DF92EF92FF920F931F93CF93DF93CDB738
:10099000DEB72A970FB6F894DEBF0FBECDBF0E9418
:1009A000FD0365E371E0882309F42BC10E94200454
:1009B000811131C06091250170912601809127013C
:1009C000909128018E010F5F1F4F21E044E00E94AB
:1009D000180F6EE371E080E191E00E947514B80198
:1009E00080E191E00E946A142A960FB6F894DEBF67
:1009F0000FBECDBFDF91CF911F910F91FF90EF9070
:100A0000DF90CF90BF90AF909F908F907F906F902E
:100A10005F904F9008950E948402811112C06091EE
:100A2000E5027091E6028091E7029091E8028E0162
:100A30000F5F1F4F20E044E00E94180F66E471E052
:100A4000CACF0E945A046EE471E0882309F4D9C029
:100A50000E947D04811112C060910C0170910D0102
:100A600080910E0190910F018E010F5F1F4F21E0C9
:100A700044E00E94180F67E571E0ADCF0E94C1020B
:100A8000811112C06091E1027091E2028091E30253
:100A90009091E4028E010F5F1F4F20E044E00E941E
:100AA000180F6FE571E097CFC090DD02D090DE02A5
:100AB000E090DF02F090E00220E030EC49E754E4FF
:100AC000C701B6010E94111267E671E0882309F49C
:100AD00098C020E030E040EA50E4C701B6019F77BB
:100AE0000E947013181664F48E010F5F1F4F21E0EF
:100AF00044E0C701B6010E94180F65E771E06BCFB3
:100B00002091250130912601409127015091280123
:100B100060910C0170910D0180910E0190910F0177
:100B20000E94A4116B017C01E894F7F820E030E00A
:100B300040E05FE3C701B6010E947013181664F429
:100B40008E010F5F1F4F22E044E0C701B6010E94F3
:100B5000180F6CE771E03FCF8090E1029090E202C5
:100B6000A090E302B090E4024090E5025090E602CB
:100B70006090E7027090E802A3019201C501B40100
:100B80000E94A51120E030E040E05FE30E94751371
:100B90006B017C0120E030E040E85FE30E947013CD
:100BA00018163CF5A3019201C501B4010E94A411DD
:100BB0009F77A70196010E94161220E030E048ECD2
:100BC00052E40E9475136B017C0120E030E040E2AA
:100BD00051E40E947013181664F48E010F5F1F4FCA
:100BE00021E044E0C701B6010E94180F63E871E0FC
:100BF000F2CE8091DC026AE871E0882311F066E9A8
:100C000071E080E191E02A960FB6F894DEBF0FBE46
:100C1000CDBFDF91CF911F910F91FF90EF90DF90AB
:100C2000CF90BF90AF909F908F907F906F905F908C
:100C30004F900C947514FC0101900020E9F7319756
:100C4000AF01481B590BBC0189EE92E00C940401E2
:100C50008F929F92AF92BF920F931F93CF93DF9388
:100C6000CDB7DEB7A1970FB6F894DEBF0FBECDBFEC
:100C700019A2423008F44AE08E010F5D1F4F842E06
:100C8000912CB12CA12CA50194010E944214E62FB5
:100C9000B901CA01EA30F4F4E05DD801EE938D01A8
:100CA000232B242B252B79F790E080E0109719F067
:100CB000CD010E941B06A1960FB6F894DEBF0FBEB1
:100CC000CDBFDF91CF911F910F91BF90AF909F90BB
:100CD0008F900895E95CE1CF0C941B06CF93DF93CE
:100CE000EC0160E08E810E94310161E08E810E9402
:100CF000310160E08E810E9431018BE891E0019723
:100D0000F1F7DF91CF910895CF92DF92EF92FF92AA
:100D10000F931F93CF93DF936C017C0187E0E80E64
:100D2000F11CD0E0C0E0062F10E0B8010C2E02C08C
:100D3000759567950A94E2F76170F70181917F01DB
:100D40000E9431012196C430D10579F7C601DF91A7
:100D5000CF911F910F91FF90EF90DF90CF900C9467
:100D60006E06CF92DF92EF92FF920F931F93CF9375
:100D7000DF93EC01F62E642F8C810E9431018D816E
:100D80008F3F19F060E00E9431010F2D10E08F8538
:100D900084FF25C06E0187E0C80ED11CF12CE12C28
:100DA000B8010E2C02C0759567950A94E2F7617040
:100DB000F60181916F010E943101FFEFEF1AFF0AE6
:100DC00088E0E816F10461F7CE01DF91CF911F9121
:100DD0000F91FF90EF90DF90CF900C946E06B801CA
:100DE00084E0759567958A95E1F7CE010E948406A7
:100DF0006F2DCE01DF91CF911F910F91FF90EF905A
:100E0000DF90CF900C94840640E0682F89EE92E04A
:100E10000C94B106CF93DF93613029F09091F802E2
:100E200098609093F8026093FC021092FD0290E4A7
:100E30009093FE028093FF02805C8093000361E048
:100E40008091ED020E947D018091EE028F3F19F0AA
:100E500061E00E947D0161E08091EF020E947D01CE
:100E6000C9EED2E09E01295E32408091F80284FDF5
:100E70000BC084E090E021962817390744F461E024
:100E80008E810E947D01EECF88E090E0F4CF8BE36D
:100E90009DE00197F1F760E08091ED020E94310141
:100EA00060E08091EF020E9431018091EE028F3F5D
:100EB00019F060E00E9431018091F80284FD39C090
:100EC00063E089EE92E00E948406CBE4D6E4CE0192
:100ED0000197F1F763E089EE92E00E948406219782
:100EE000F1F763E089EE92E00E94840683E592E0E8
:100EF0000197F1F762E089EE92E00E94840680910A
:100F0000F80280620E94040784E08093F9028CE07A
:100F10000E94040781E00E9404078BE39FE1019790
:100F2000F1F782E08093FA0286E0DF91CF910C9492
:100F3000040780620E9404078BE496E40197F1F7AE
:100F40008091F80280620E94040783E592E0019795
:100F5000F1F78091F80280620E940407D0CF90914F
:100F6000FC02691710F06FEF690FE62FF0E0E75110
:100F7000FD4F9489890F80680C94040741E00E941A
:100F8000B10681E090E008954F925F926F927F9258
:100F90008F929F92AF92BF92CF92DF92EF92FF9289
:100FA0000F931F93CF936B017C01742EAC019B01B7
:100FB0000E942814882399F087EA91E0CF911F912D
:100FC0000F91FF90EF90DF90CF90BF90AF909F90E8
:100FD0008F907F906F905F904F900C941B0646010E
:100FE0005701E894B7F82FEF3FEF4FE75FE7C501F0
:100FF000B4010E94281481110DC02FEF3FEF4FE77D
:101000005FE7C501B4010E94111218161CF48BEAA7
:1010100091E0D4CF2FEF3FEF4FE75FE4C701B60178
:101020000E94701318161CF48FEA91E0C7CF2FEFBF
:101030003FEF4FE75FECC701B6010E94111287FD39
:10104000F3CF20E030E0A901C701B6010E941112E0
:1010500010E000E087FF0CC041E06DE289EE92E015
:101060000E94B106F7FAF094F7F8F09401E010E06E
:10107000C0E060E070E080E09FE37C1641F020E09B
:1010800030E040E251E40E941612CF5FF6CFA70194
:1010900096010E94A5114B015C010E948F122B0149
:1010A0003C014AE00E942806080F191FCC23C9F111
:1010B000C301B2010E94BE129B01AC01C501B40183
:1010C0000E94A4114B015C0141E06EE289EE92E0C6
:1010D0000E94B1060F5F1F4FC15018F120E030E0B1
:1010E00040E251E4C501B4010E9475132B013C019B
:1010F0000E948F124B01B12CA12C4AE0C501B40112
:101100000E942806080F191FC501B4010E94BE12D3
:101110009B01AC01C301B2010E94A4114B015C010F
:10112000DBCFC801CF911F910F91FF90EF90DF901F
:10113000CF90BF90AF909F908F907F906F905F9077
:101140004F900895CF92DF92EF92FF921F93CF932B
:10115000DF93CCE2D1E0C12CD12C76018E50182F38
:10116000106410937C0080917A00806480937A00F0
:1011700080917A0086FDFCCF6091780070917900B3
:10118000072E000C880B990B0E94C01220E030E063
:1011900040EA50E40E94751320E030EC4FE754E43D
:1011A0000E94161220E030E040E250E40E94A411B8
:1011B0009B01AC010E9475139B01AC01C701B601F4
:1011C0000E94A5116B017C01219759F620E030E0C7
:1011D00046E953E40E9416120E94E8132CE83EE20E
:1011E0004AEB5DE30E9416122AED3BE448E851E425
:1011F0000E947513DF91CF911F91FF90EF90DF90C8
:10120000CF9008951F920F920FB60F9211242F9333
:101210003F938F939F93AF93BF938091710290916F
:101220007202A0917302B09174023091700223E0B7
:10123000230F2D3758F50196A11DB11D2093700283
:101240008093710290937202A0937302B093740220
:101250008091750290917602A0917702B091780208
:101260000196A11DB11D8093750290937602A09303
:101270007702B0937802BF91AF919F918F913F9188
:101280002F910F900FBE0F901F90189526E8230FF7
:101290000296A11DB11DD2CF1F920F920FB60F92D1
:1012A00011242F933F934F935F936F937F938F936B
:1012B0009F93AF93BF93EF93FF93E0910201F0915F
:1012C00003010995FF91EF91BF91AF919F918F918C
:1012D0007F916F915F914F913F912F910F900FBE32
:1012E0000F901F9018951F920F920FB60F92112416
:1012F0002F933F934F935F936F937F938F939F931E
:10130000AF93BF93EF93FF93E0910001F091010140
:101310000995FF91EF91BF91AF919F918F917F912F
:101320006F915F914F913F912F910F900FBE0F9052
:101330001F901895CF93DF93CDB7DEB72E970FB6DA
:10134000F894DEBF0FBECDBF789484B5826084BDB3
:1013500084B5816084BD85B5826085BD85B58160B9
:1013600085BD80916E00816080936E001092810037
:1013700080918100826080938100809181008160F2
:1013800080938100809180008160809380008091B3
:10139000B10084608093B1008091B000816080933F
:1013A000B00080917A00846080937A0080917A0006
:1013B000826080937A0080917A00816080937A00C5
:1013C00080917A00806880937A001092C10060E07A
:1013D00082E00E947D0160E083E00E947D0161E087
:1013E00088E00E947D0160E088E00E94310164E0B5
:1013F00084E10E940A0781E00E9404078BE39FE1D9
:101400000197F1F760E080E00E94AF0783EB91E085
:101410000E946C0661E080E00E94AF0782EC91E0E0
:101420000E946C062AEB32E069E772E04AE952E07A
:101430005E874D8780E090E0A8E4B2E4ED85FE850C
:1014400081939193A193B193FE87ED87FB018193E3
:101450009193A193B193BF014D855E852417350704
:1014600069F71092D7021092D60283ED91E0909323
:10147000010180930001809169008360809369007D
:10148000E89A83E292E090930301809302018091B5
:1014900069008C6080936900E99A0E9473026093EE
:1014A000C1027093C2028093C3029093C4020E944F
:1014B000AE014B015C0128EEC22E23E0D22EE12CBE
:1014C000F12C0E94AE01681979098A099B09683ECE
:1014D000734081059105A8F351E0C51AD108E108D0
:1014E000F10888EE880E83E0981EA11CB11CC1147F
:1014F000D104E104F10429F722242394312CF89437
:10150000609108017091090180910A0190910B018D
:10151000C0900401D0900501E0900601F090070111
:1015200078948B019C01005B164321093109093233
:1015300013422105310508F03FC0B090BA02E4E043
:10154000BE9E8001112406561D4F0E94BE129B01B3
:10155000AC0160E074E284E799E40E941612D801BD
:101560006D937D938D939C93139781E08B0D8830C1
:1015700008F042C18093BA020AE912E060E070E02C
:10158000CB01F80121913191419151918F010E943C
:10159000A5112D853E852017310799F720E030E011
:1015A00040E05EE30E94751360930C0170930D019F
:1015B00080930E0190930F01D701C601805B964383
:1015C000A109B10989329342A105B10508F041C0D2
:1015D000B090990244E0B49E8001112407581D4F39
:1015E000C701B6010E94BE129B01AC0160E074E22B
:1015F00084E799E40E941612D8016D937D938D9330
:101600009C93139781E08B0D883008F0F8C080938D
:10161000990209E712E060E070E0CB01F801219146
:101620003191419151918F010E94A51129E932E038
:101630002017310799F720E030E040E05EE30E9498
:101640007513609325017093260180932701909371
:10165000280180E10E94A2084B015C0126E636E6E3
:1016600046E65FE36091E1027091E2028091E3025D
:101670009091E4020E9475136B017C012DEC3CEC0F
:101680004CEC5DE3C501B4010E9475139B01AC01F4
:10169000C701B6010E94A5114B015C018092E102D5
:1016A0009092E202A092E302B092E40281E10E94F1
:1016B000A2082B013C0126E636E646E65FE3609190
:1016C000E5027091E6028091E7029091E8020E94A3
:1016D00075136B017C012DEC3CEC4CEC5DE3C3011C
:1016E000B2010E9475139B01AC01C701B6010E94B3
:1016F000A5112B013C014092E5025092E602609256
:10170000E7027092E8028091DC0281114DC00E94D4
:1017100073020091C1021091C2022091C302309164
:10172000C402601B710B820B930B683873418105F7
:10173000910508F067C00E94FE026B017C0120E069
:1017400030E044E353EC0E94701318160CF09EC175
:1017500020E030E044E353E4C701B6010E941112D7
:1017600087FF94C1A70196016091BB027091BC02F2
:101770008091BD029091BE020E94A5116093BB02B0
:101780007093BC028093BD029093BE028091BF0211
:101790009091C00201969093C0028093BF02809105
:1017A000DC02882309F472C10E94FE026B017C01F5
:1017B00020E030E041E654E40E94701318160CF467
:1017C00064C02091C5023091C6024091C702509179
:1017D000C802C701B6010E94A4116B017C0120E080
:1017E00030E044E353E40E9470131816CCF520E077
:1017F00030E044EB53E4EDCF1092BA02BDCE10922C
:10180000990207CF6091BF027091C00265367105E1
:10181000F4F0072E000C880B990B0E94C0129B015C
:10182000AC016091BB027091BC028091BD029091AD
:10183000BE020E9416126093C5027093C602809386
:10184000C7029093C80281E08093DC02A8CF109277
:10185000C5021092C6021092C7021092C802F3CFBE
:1018600020E030E044E353ECC701B6010E941112BE
:1018700087FF12C020E030E044EB53E4C701B6011B
:101880000E94A5116B017C01EBCFC12C80ECD82EFE
:1018900089E7E82E84E4F82EC092DD02D092DE02C1
:1018A000E092DF02F092E00280910C0190910D0134
:1018B000A0910E01B0910F018D839E83AF83B887F5
:1018C0002091250130912601409127015091280156
:1018D00029873A874B875C87A3019201C501B40130
:1018E0000E94A51120E030E040E05FE30E94751304
:1018F00069837A838B839C8320E030E040E85FE358
:101900000E94701318160CF09EC1A3019201C5012C
:10191000B4010E94A4119F7729813A814B815C8197
:101920000E94161220E030E048EC52E40E94751349
:101930004B015C0120E030EC49E754E4C701B601FB
:101940000E941112882361F0C701B6019F7701E060
:1019500020E030E040EA50E40E94111218160CF426
:1019600000E00E94AC04F82E0E944F04182FFF20C4
:1019700011F1882309F10023F1F029853A854B857F
:101980005C856D817E818F8198850E94A4119F77EF
:1019900020E030E040E05FE30E94111218165CF096
:1019A00011E020E030E040E251E4C501B4010E94C2
:1019B000111218160CF410E01093C9020E94AC0426
:1019C000B82E0E944F04082F0E9473026B017C0105
:1019D0008091D6029091D7028130910509F04DC1D6
:1019E0001092D2021092D3021092D4021092D50219
:1019F000011134C18091CE029091CF02A091D0020A
:101A0000B091D102892B8A2B8B2B41F4C092CE024C
:101A1000D092CF02E092D002F092D1028091CE0219
:101A20009091CF02A091D002B091D102A70196016E
:101A3000281B390B4A0B5B0BDA01C901843F91402B
:101A4000A105B10508F403C160E088E00E943101FE
:101A50001092D7021092D602C092CA02D092CB0244
:101A6000E092CC02F092CD026EEC71E0B11002C0B7
:101A70006AED71E080E191E00E9475141092CE024F
:101A80001092CF021092D0021092D1020E947302E3
:101A90000091D8021091D9022091DA023091DB0234
:101AA000601B710B820B930B6139714081059105AD
:101AB00008F4C1C00E9473026093D8027093D902E7
:101AC0008093DA029093DB0260E080E00E94AF072F
:101AD00081E492E00E946C0660910C0170910D010E
:101AE00080910E0190910F0142E00E94C4078BE2A9
:101AF00092E00E946C0660E08AE00E94AF0788E4F2
:101B000092E00E946C0660912501709126018091FF
:101B100027019091280142E00E94C4078FE292E0E1
:101B20000E946C0661E080E00E94AF0782E392E0D1
:101B30000E946C06C090DD02D090DE02E090DF02D1
:101B4000F090E00220E030E041E654E4C701B60145
:101B50000E94701318160CF044C186E392E00E94B4
:101B60006C0641E06FED89EE92E00E94B1068EE5D1
:101B700092E00E946C0661E08BE00E94AF078CE36C
:101B800092E00E946C06209125013091260140913F
:101B900027015091280160910C0170910D018091F5
:101BA0000E0190910F010E94A4119F7742E00E94C4
:101BB000C40762E080E00E94AF0780E492E00E94E8
:101BC0006C066091E1027091E2028091E3029091D3
:101BD000E40240E00E94C40784E492E00E946C06A4
:101BE00062E08AE00E94AF0787E492E00E946C0600
:101BF0006091E5027091E6028091E7029091E8021F
:101C000040E00E94C40784E492E00E946C0663E016
:101C100080E00E94AF078BE492E00E946C0663E0D4
:101C200080E00E94AF078091DC028111E0C08AE869
:101C300091E00E946C0680E090E0892B09F45FCC73
:101C40000E9400005CCC812C912C540173CE62EE7A
:101C500071E080E191E00E94751418CF1092CE02DD
:101C60001092CF021092D0021092D10261E088E06F
:101C70000E9431016DEE71E0ECCF892B09F006CFA7
:101C80001092CE021092CF021092D0021092D10286
:101C9000B1103AC0002361F1112351F18091CA02C1
:101CA0009091CB02A091CC02B091CD02A7019601F8
:101CB000281B390B4A0B5B0BDA01C90160E072E0AB
:101CC000883B9B40A105B10520F261E088E00E94BD
:101CD00031013092D7022092D602C092CA02D0922D
:101CE000CB02E092CC02F092CD0265EF71E0B1CF71
:101CF00060E088E00E9431016AED71E0002309F4A0
:101D0000A8CF0E94B704C2CE002309F45DC0809121
:101D1000D2029091D302A091D402B091D502892B26
:101D20008A2B8B2B41F4C092D202D092D302E09244
:101D3000D402F092D5028091D2029091D302A09168
:101D4000D402B091D502A7019601281B390B4A0B8A
:101D50005B0BDA01C90188389341A105B10568F12F
:101D60001123D1F18091CA029091CB02A091CC02B3
:101D7000B091CD02A7019601281B390B4A0B5B0BD2
:101D8000DA01C90166E172E0883B9B40A105B1051B
:101D900008F45FCF61E088E00E9431013092D70201
:101DA0002092D602C092CA02D092CB02E092CC021C
:101DB000F092CD026BE072E04CCF60E088E00E94D0
:101DC00031016EE172E045CF1092D2021092D3023F
:101DD0001092D4021092D50260E088E00E94310196
:101DE00090CF41E0C701B6010E94C407BACE80E19E
:101DF00091E01FCFE9EEF2E0138212828DE291E0D2
:101E00009183808314828FEF85838AE0868384E0C8
:101E1000878385E0808786E0818787E082871386D5
:101E2000148615861686178661E080E10C940A07F1
:101E3000EF920F931F93CF93DF93E80134E047FDB8
:101E400034E1042E000C550B57FF03C0519541950A
:101E50005109E32E022F242FAE010E94360FCE012E
:101E6000DF91CF911F910F91EF900895A9E0B0E01D
:101E7000ECE3FFE00C9473116A01F22EB02E102FE8
:101E8000FBE3AF2EA01608F41BE31F5F012F27E032
:101E9000AE014F5F5F4F0E949510BC018981982F62
:101EA0009970913009F43FC09BE2E1FC04C09E2D83
:101EB0009170E0FC3AC05E2D5071E82FE87083FF0E
:101EC00046C084E0911101C083E0EF2DE81B8F151F
:101ED00008F0E0E0D6018E2F20E2552351F199233E
:101EE00029F0D6019C93C60101966C0196012D5FE5
:101EF0003F4FE2FE24C08EE4D6018C9391E411960C
:101F00009C93119712968C93D9018E2F90E2811198
:101F10001BC0E20FF32FF11D10828EEF9FEF299669
:101F2000ECE00C948F119DE2C6CF90E2C4CF2D93CC
:101F300081508111FCCFCE0ED11CE0E0D0CF8EE6D7
:101F4000D6018C9391E6DBCF9D938150E0CF482F53
:101F5000447082FF3DC084E0911101C083E08F1581
:101F600010F4EF2DE81BD6018E2F20E2552309F146
:101F7000992329F0D6019C93C60101966C01960124
:101F80002D5F3F4FE2FE1BC089E4D6018C938EE4A7
:101F900011968C93119786E412968C93D9018E2F0B
:101FA00090E2882309F4B5CF9D938150FACF2D9309
:101FB00081508111FCCFCE0ED11CE0E0D9CF89E653
:101FC000D6018C938EE611968C93119786E6E4CF1A
:101FD0009B0177FF02C030E020E0A1E0B0E091116A
:101FE00002C0B0E0A0E0F9013196AE0FBF1F8B2C0C
:101FF000912CBB2009F461C05401EFEFAE1ABE0A68
:10200000AA0DBB1DFA161B0619F014F04F2D4A1B22
:10201000511188C0E3FC59C07601A42FB0E2A11190
:102020004FC0C40ED11C992309F45BC040E0D60117
:102030001196F60190836D01552309F448C0012FD4
:10204000060F9A81582F507184FF03C0913309F411
:10205000015010160CF047C0093008F008E0EEE21D
:10206000FE2E5B01A01AB10885019194819491081C
:102070002F3F320729F4D601FC92F60131966F0109
:102080006217730794F1021713077CF5DB01A21B9B
:10209000B30BAA24A394B12CAC0EBD1EAA0DBB1D7C
:1020A00011968C9121503109D601119628153905C8
:1020B000F4F0F60180836D01DBCFB12CA12CA0CF11
:1020C000F701B1937F01A150AACF9111B0CFD601F2
:1020D000942F50E302C05D9391509111FCCFC40E38
:1020E000D11C40E0ACCF01E0BACF80E3DBCF621778
:1020F000730731F4963388F4953311F4552369F05E
:10210000F6018083FD01842F90E2811108C0A40FA5
:10211000B11D1C9290E080E002CF81E3F1CF91935A
:102120008150F3CF911183CF8ACF283008F027E078
:102130003327DA01990F311D87FD91600096610503
:10214000710539F432602E5F3D9330E32A95E1F753
:1021500008959F3F30F080387105610509F03C5FBC
:102160003C5F3D93913008F08068911DDF93CF93E1
:102170001F930F93FF92EF92192F987F9695E92F57
:1021800096959695E90FFF27EE53FF4F9927332732
:10219000EE24FF24A701E70105900894079428F492
:1021A000360FE71EF81E491F511D660F771F881F47
:1021B000991F0694A1F70590079428F4E70EF81EDE
:1021C000491F561FC11D770F881F991F661F069450
:1021D000A1F70590079428F4F80E491F561FC71F52
:1021E000D11D880F991F661F771F0694A1F70590D0
:1021F000079420F4490F561FC71FD81F990F661F59
:10220000771F881F0694A9F784911095177041F0E5
:10221000D695C79557954795F794E7941A95C1F7C2
:10222000E8E6F0E0689415901591359165919591E7
:1022300005907FE27395E118F10A430B560BC90B29
:10224000D009C0F7E10CF11E431F561FC91FD01D56
:102250007EF4703311F48A95E6CFE894015030F0A3
:10226000080F0AF40027021708F4202F2395022FE5
:102270007A3328F079E37D932A95E9F710C07D93AE
:102280002A9589F60694979567953795179517942B
:10229000E118F10A430B560BC90BD00998F02395AE
:1022A0007E9173957A3308F070E37C932013B8F72E
:1022B0007E9170617D9330F0839571E37D9370E33F
:1022C0002A95E1F71124EF90FF900F911F91CF9184
:1022D000DF91992787FD909508952F923F924F9215
:1022E0005F926F927F928F929F92AF92BF92CF92A6
:1022F000DF92EF92FF920F931F93CF93DF93CDB7AF
:10230000DEB7CA1BDB0B0FB6F894DEBF0FBECDBF26
:1023100009942A88398848885F846E847D848C84F7
:102320009B84AA84B984C884DF80EE80FD800C8100
:102330001B81AA81B981CE0FD11D0FB6F894DEBFE3
:102340000FBECDBFED0108955058BB27AA270E94AC
:10235000BC110C9436130E94281338F00E942F13DE
:1023600020F039F49F3F19F426F40C9425130EF451
:10237000E095E7FB0C941F13E92F0E94471358F3D5
:10238000BA17620773078407950720F079F4A6F55A
:102390000C9469130EF4E0950B2EBA2FA02D0B01AF
:1023A000B90190010C01CA01A0011124FF27591B9A
:1023B00099F0593F50F4503E68F11A16F040A22FA0
:1023C000232F342F4427585FF3CF46953795279511
:1023D000A795F0405395C9F77EF41F16BA0B620B10
:1023E000730B840BBAF09150A1F0FF0FBB1F661F57
:1023F000771F881FC2F70EC0BA0F621F731F841F9A
:1024000048F4879577956795B795F7959E3F08F0BF
:10241000B0CF9395880F08F09927EE0F9795879581
:1024200008950E94FB1208F481E008950E942A1288
:102430000C9436130E942F1358F00E94281340F07A
:1024400029F45F3F29F00C941F1351110C946A1367
:102450000C9425130E94471368F39923B1F3552375
:1024600091F3951B550BBB27AA27621773078407A7
:1024700038F09F5F5F4F220F331F441FAA1FA9F33D
:1024800035D00E2E3AF0E0E832D091505040E6952B
:10249000001CCAF72BD0FE2F29D0660F771F881F8C
:1024A000BB1F261737074807AB07B0E809F0BB0B7F
:1024B000802DBF01FF2793585F4F3AF09E3F510593
:1024C00078F00C941F130C946A135F3FE4F3983E6A
:1024D000D4F3869577956795B795F7959F5FC9F77C
:1024E000880F911D9695879597F90895E1E0660FFD
:1024F000771F881FBB1F621773078407BA0720F076
:10250000621B730B840BBA0BEE1F88F7E0950895DE
:102510000E948F126894B1110C946A1308950E945E
:102520004F1388F09F5798F0B92F9927B751B0F003
:10253000E1F0660F771F881F991F1AF0BA95C9F747
:1025400014C0B13091F00E946913B1E008950C9469
:102550006913672F782F8827B85F39F0B93FCCF31C
:10256000869577956795B395D9F73EF490958095C4
:10257000709561957F4F8F4F9F4F0895E89409C0E4
:1025800097FB3EF490958095709561957F4F8F4FA6
:102590009F4F9923A9F0F92F96E9BB279395F695BC
:1025A000879577956795B795F111F8CFFAF4BB0F3A
:1025B00011F460FF1BC06F5F7F4F8F4F9F4F16C09E
:1025C000882311F096E911C0772321F09EE8872F28
:1025D000762F05C0662371F096E8862F70E060E0E4
:1025E0002AF09A95660F771F881FDAF7880F96955D
:1025F000879597F90895990F0008550FAA0BE0E801
:10260000FEEF16161706E807F907C0F012161306B4
:10261000E407F50798F0621B730B840B950B39F4F4
:102620000A2661F0232B242B252B21F408950A265A
:1026300009F4A140A6958FEF811D811D089597F99A
:102640009F6780E870E060E008959FEF80EC089558
:1026500000240A9416161706180609060895002481
:102660000A9412161306140605060895092E0394FB
:10267000000C11F4882352F0BB0F40F4BF2B11F46F
:1026800060FF04C06F5F7F4F8F4F9F4F089557FDCE
:102690009058440F551F59F05F3F71F04795880FD0
:1026A00097FB991F61F09F3F79F087950895121667
:1026B00013061406551FF2CF4695F1DF08C0161613
:1026C00017061806991FF1CF8695710561050894C4
:1026D0000895E894BB2766277727CB0197F90895DB
:1026E0000E94FB1208F48FEF08950E9488130C9447
:1026F00036130E94281338F00E942F1320F09523E0
:1027000011F00C941F130C94251311240C946A13CC
:102710000E94471370F3959FC1F3950F50E0551F2A
:10272000629FF001729FBB27F00DB11D639FAA2726
:10273000F00DB11DAA1F649F6627B00DA11D661F75
:10274000829F2227B00DA11D621F739FB00DA11D96
:10275000621F839FA00D611D221F749F3327A00D50
:10276000611D231F849F600D211D822F762F6A2FEC
:1027700011249F5750409AF0F1F088234AF0EE0F51
:10278000FF1FBB1F661F771F881F91505040A9F77E
:102790009E3F510580F00C941F130C946A135F3F09
:1027A000E4F3983ED4F3869577956795B795F795BA
:1027B000E7959F5FC1F7FE2B880F911D9695879532
:1027C00097F9089519F416F40C9425130C942D140C
:1027D0000E944F13B8F39923C9F3B6F39F57550BD3
:1027E00087FF0E943B140024A0E640EA9001805835
:1027F0005695979528F4805C660F771F881F20F008
:1028000026173707480730F4621B730B840B202907
:1028100031294A2BA69517940794202531254A275C
:1028200058F7660F771F881F20F0261737074807CD
:1028300030F4620B730B840B200D311D411DA095EC
:1028400081F7B901842F9158880F9695879508953F
:102850000E94FB12880B990B08959F3F31F0915015
:1028600020F4879577956795B795880F911D969574
:10287000879597F9089591505040660F771F881FEC
:10288000D2F70895A1E21A2EAA1BBB1BFD010DC0B1
:10289000AA1FBB1FEE1FFF1FA217B307E407F50710
:1028A00020F0A21BB30BE40BF50B661F771F881FEC
:1028B000991F1A9469F760957095809590959B0182
:1028C000AC01BD01CF010895EE0FFF1F0590F491FB
:1028D000E02D0994FB01DC010D900020E9F7119730
:1028E00001900D920020E1F70895FB01DC010190B9
:1028F0000D920020E1F70895F894FFCF7F027F0248
:10290000204E0000204E0000000048425354415227
:1029100054494E4700000000000000000000000085
:10292000000000484200000000BE07040181028050
:102930000242204E4F205A43440042204652455105
:1029400020004220564F4C54200041204E4F205A28
:1029500043440041204652455120004120564F4CEF
:10296000542000504841534520494E56414C49445B
:1029700000504841534520004446524551200044F0
:10298000564F4C54200043414C4942524154494E09
:1029900047004E4F542053594E4348524F4E495AC8
:1029A0004544006E616E00696E66006F7666005386
:1029B000545320436F6E74726F6C6C657200537465
:1029C000617274696E672E2E2E0042204641494C7A
:1029D000202D3E204100412B422042414400422014
:1029E000434845434B2E2E2E004F4E2042204F4B46
:1029F000004120424144202D3E20420041204241DE
:102A0000442057414954005452414E5346455220A8
:102A10004200422052454144590042205245434F12
:102A2000564552494E4700487A2000487A0050489F
:102A30003A002D2D2D2E2D0064463A0056413A00C5
:102A400056200056423A002020202020202020201E
:0C2A50002020202020202020202020001A
:107E0000112484B714BE81FFF0D085E080938100F7
:107E100082E08093C00088E18093C10086E0809377
:107E2000C20080E18093C4008EE0C9D0259A86E02C
:107E300020E33CEF91E0309385002093840096BBD3
:107E4000B09BFECF1D9AA8958150A9F7CC24DD24C4
:107E500088248394B5E0AB2EA1E19A2EF3E0BF2EE7
:107E6000A2D0813461F49FD0082FAFD0023811F036
:107E7000013811F484E001C083E08DD089C08234E0
:107E800011F484E103C0853419F485E0A6D080C0E4
:107E9000853579F488D0E82EFF2485D0082F10E0AE
:107EA000102F00270E291F29000F111F8ED06801E7
:107EB0006FC0863521F484E090D080E0DECF843638
:107EC00009F040C070D06FD0082F6DD080E0C81688
:107ED00080E7D80618F4F601B7BEE895C0E0D1E017
:107EE00062D089930C17E1F7F0E0CF16F0E7DF06D8
:107EF00018F0F601B7BEE89568D007B600FCFDCFD4
:107F0000A601A0E0B1E02C9130E011968C91119780
:107F100090E0982F8827822B932B1296FA010C0160
:107F200087BEE89511244E5F5F4FF1E0A038BF0790
:107F300051F7F601A7BEE89507B600FCFDCF97BE46
:107F4000E89526C08437B1F42ED02DD0F82E2BD052
:107F50003CD0F601EF2C8F010F5F1F4F84911BD097
:107F6000EA94F801C1F70894C11CD11CFA94CF0C13
:107F7000D11C0EC0853739F428D08EE10CD085E9AC
:107F80000AD08FE07ACF813511F488E018D01DD067
:107F900080E101D065CF982F8091C00085FFFCCF94
:107FA0009093C60008958091C00087FFFCCF809118
:107FB000C00084FD01C0A8958091C6000895E0E648
:107FC000F0E098E1908380830895EDDF803219F02E
:107FD00088E0F5DFFFCF84E1DECF1F93182FE3DFCA
:107FE0001150E9F7F2DF1F91089580E0E8DFEE27F6
:047FF000FF270994CA
:027FFE00040479
:00000001FF
