:020000040000FA
:100000000C94DA000C94A2090C947B090C94020164
:100010000C9402010C9402010C9402010C94020154
:100020000C9402010C9402010C9402010C94020144
:100030000C9402010C9402010C9402010C94020134
:100040000C9431090C9402010C9402010C940201ED
:100050000C9402010C9402010C9402010C94020114
:100060000C9402010C94020100407A10F35A00A093
:10007000724E18090010A5D4E80000E87648170071
:1000800000E40B54020000CA9A3B000000E1F505B1
:10009000000080969800000040420F000000A086FB
:1000A00001000000102700000000E803000000002D
:1000B0006400000000000A000000000001000000D1
:1000C00000002C76D888DC674F0823DFC1DFAE59EB
:1000D000E1B1B796E5E3E453C63AE651997696E87E
:1000E000E6C28426EB898C9B62ED407C6FFCEFBC02
:1000F0009C9F40F2BAA56FA5F490055A2AF75C932D
:100100006B6CF9676DC11BFCE0E40D47FEF520E662
:10011000B500D0ED902E0300943577050080841E45
:10012000080000204E0A000000C80C333333330FA0
:10013000986E12831141EF8D2114893BE65516CF3D
:10014000FEE6DB18D1844B381BF77C1D901DA4BB49
:10015000E424203284725E228100C9F124ECA1E5FE
:100160003D2700000000240027002A0000000000B6
:10017000250028002B0004040404040404040202E3
:100180000202020203030303030301020408102016
:100190004080010204081020010204081020000021
:1001A0000008000201000003040700000000000036
:1001B0000000AE0F11241FBECFEFD8E0DEBFCDBFD1
:1001C00012E0A0E0B1E0E4E6FAE202C005900D9290
:1001D000A037B107D9F723E0A0E7B2E001C01D9234
:1001E000A132B207E1F710E0CAEDD0E004C02197D8
:1001F000FE010E941815C93DD107C9F70E94C9091F
:100200000C9430150C940000AF92BF92CF92DF9205
:10021000EF92FF920F931F93CF93DF936C017B01BB
:100220008B01040F151FEB015E01AE18BF08C0174C
:10023000D10759F06991D601ED91FC910190F081BF
:10024000E02DC6010995892B79F7C501DF91CF9182
:100250001F910F91FF90EF90DF90CF90BF90AF90E4
:10026000089590E0FC01E256FE4F2491FC01E65710
:10027000FE4F3491FC01EA58FE4FE491EE23C9F0A1
:10028000222339F0233001F1A8F4213019F1223072
:1002900029F1F0E0EE0FFF1FE459FE4FA591B49154
:1002A0008FB7F894EC91611126C030953E233C93B2
:1002B0008FBF08952730A9F02830C9F0243049F7BE
:1002C000809180008F7D03C0809180008F77809324
:1002D0008000DFCF84B58F7784BDDBCF84B58F7D81
:1002E000FBCF8091B0008F778093B000D2CF809108
:1002F000B0008F7DF9CF3E2BDACFCF93DF9390E024
:10030000FC01E657FE4F24918A589E4FFC018491D0
:100310008823D1F090E0880F991FFC01EE59FE4F21
:10032000A591B491FC01E459FE4FC591D49161119E
:100330000EC09FB7F8948C91E22FE0958E238C939A
:100340002881E223E8839FBFDF91CF9108958FB783
:10035000F894EC91E22BEC938FBFF6CF3FB7F89473
:100360008091850290918602A0918702B0918802C7
:1003700026B5A89B05C02F3F19F00196A11DB11D00
:100380003FBFBA2FA92F982F8827BC01CD01620F3C
:10039000711D811D911D42E0660F771F881F991FF7
:1003A0004A95D1F70895CF92DF92EF92FF920F9383
:1003B0001F930E94AE010091700210917102209172
:1003C000720230917302012B022B032B41F1009139
:1003D00070021091710220917202309173026B01D0
:1003E0007C01C01AD10AE20AF30A9701860140E4AF
:1003F000C41A4FE1D40AE108F10841EAC4164FE0FB
:10040000D406E104F10458F40093D1021093D2020F
:100410002093D3023093D40221E02093CC02609346
:1004200070027093710280937202909373026093D2
:100430007C0270937D0280937E0290937F021F91D5
:100440000F91FF90EF90DF90CF900895CF92DF92C1
:10045000EF92FF920F931F930E94AE0100917402DE
:10046000109175022091760230917702012B022BB8
:10047000032B41F1009174021091750220917602D4
:10048000309177026B017C01C01AD10AE20AF30AAB
:100490009701860140E4C41A4FE1D40AE108F1084B
:1004A00041EAC4164FE0D406E104F10458F4009385
:1004B000CD021093CE022093CF023093D00221E0E0
:1004C0002093CB026093740270937502809376023E
:1004D00090937702609378027093790280937A0206
:1004E00090937B021F910F91FF90EF90DF90CF9040
:1004F00008952FB7F89460918102709182028091E3
:100500008302909184022FBF08950895089590E08A
:1005100080E00895CF92DF92EF92FF92CF93C09048
:100520000003D0900103E0900203F090030320E069
:1005300030E040E85FE3C701B6010E94C51287FDC5
:100540001EC020E030E046E653E4C701B6010E9439
:1005500058129F7720E030E046E653E40E94CA122A
:1005600020E030E048EC52E40E942914C1E020E091
:1005700030E040E251E40E94C51218160CF4C0E0CD
:100580008C2FCF91FF90EF90DF90CF900895CF9276
:10059000DF92EF92FF92CF93C090F702D090F802D3
:1005A000E090F902F090FA0220E030E040E85FE3EA
:1005B000C701B6010E94C51287FD1EC020E030E0D1
:1005C00046E653E4C701B6010E9458129F7720E027
:1005D00030E046E653E40E94CA1220E030E048ECE6
:1005E00052E40E942914C1E020E030E040E251E4EE
:1005F0000E94C51218160CF4C0E08C2FCF91FF900A
:10060000EF90DF90CF9008954F925F926F927F921C
:100610008F929F92AF92BF92CF92DF92EF92FF9212
:10062000CF93DF9300D000D0CDB7DEB7F8948090A1
:100630007C0290907D02A0907E02B0907F0220917B
:1006400078023091790240917A0250917B0229839D
:100650003A834B835C836091D1027091D202809186
:10066000D3029091D402C090CD02D090CE02E090FF
:10067000CF02F090D002789481149104A104B104C7
:1006800009F4B8C0232B242B252B09F4B3C02B016C
:100690003C0130E4431A3FE1530A6108710841EA22
:1006A00044164FE054066104710408F0A3C026010B
:1006B000370150E4451A5FE1550A61087108A1EA63
:1006C0004A16AFE05A066104710408F093C00E9414
:1006D00072132B013C01C701B6010E9472139B01EA
:1006E000AC01C301B2010E94591220E030E040E0A9
:1006F0005FE30E9429146B017C01240135012981EB
:100700003A814B815C81421A530A640A750A20E0DF
:1007100030E040E05FE30E9429144B015C01C3011B
:10072000B2010E947413A50194010E9424141816AA
:1007300024F120E030E040E05FE3C701B6019058CB
:100740000E94291469837A838B839C83C301B2013D
:100750000E9474134B015C0129813A814B815C81B9
:100760000E94C51287FF12C0C701B6010E943C1348
:10077000460E571E681E791EE9CFC701B6010E94BA
:100780003C13461A570A680A790AC9CFA70196018D
:10079000C501B4010E94CA1220E030E044EB53E4EA
:1007A0000E9429146B017C0120E030E044E353E413
:1007B0000E94241418164CF420E030E044EB53E47B
:1007C000C701B6010E945812EDCF20E030E044E3AB
:1007D00053ECC701B6010E94C51287FF12C020E08A
:1007E00030E044EB53E4C701B6010E9459126B019B
:1007F0007C01EBCFC12C80ECD82E89E7E82E84E475
:10080000F82EC701B6010F900F900F900F90DF9157
:10081000CF91FF90EF90DF90CF90BF90AF909F90DF
:100820008F907F906F905F904F9008950F931F93DC
:100830000E94AE01F8940091780210917902209103
:100840007A0230917B02789401151105210531055A
:1008500061F0AB01BC01401B510B620B730B81E0DB
:1008600041365A4E6105710508F080E01F910F91E5
:100870000895CF92DF92EF92FF92CF930E941604D9
:10088000C82F882311F1809108038830E8F0C090C8
:100890000403D0900503E0900603F090070320E0E6
:1008A00030E044E452E4C701B6010E94241487FDFD
:1008B0000BC0C1E020E030E04CE452E4C701B601D7
:1008C0000E94C51218160CF4C0E08C2FCF91FF9037
:1008D000EF90DF90CF9008950E941604882329F0AE
:1008E0000E94390481110C948A0280E008950F93CC
:1008F0001F930E94AE01F89400917C0210917D023A
:1009000020917E0230917F02789401151105210516
:10091000310561F0AB01BC01401B510B620B730B45
:1009200081E041365A4E6105710508F080E01F9163
:100930000F910895CF92DF92EF92FF92CF930E9492
:100940007704C82F882311F18091FF028830E8F0E6
:10095000C090FB02D090FC02E090FD02F090FE02FD
:1009600020E030E044E452E4C701B6010E942414C0
:1009700087FD0BC0C1E020E030E04CE452E4C70149
:10098000B6010E94C51218160CF4C0E08C2FCF914E
:10099000FF90EF90DF90CF9008950E947704882316
:1009A00029F00E949A0481110C94C70280E00895F6
:1009B0004F925F926F927F928F929F92AF92BF926F
:1009C000CF92DF92EF92FF920F931F93CF93DF931B
:1009D000CDB7DEB72A970FB6F894DEBF0FBECDBFF6
:1009E0000E94160469E271E0882309F439C18091FC
:1009F000080362E371E0883008F432C10E943904D0
:100A0000811131C060910403709105038091060348
:100A1000909107038E010F5F1F4F21E044E00E9479
:100A2000CC0F6EE371E088E091E00E942915B801D7
:100A300088E091E00E941E152A960FB6F894DEBF5A
:100A40000FBECDBFDF91CF911F910F91FF90EF901F
:100A5000DF90CF90BF90AF909F908F907F906F90DE
:100A60005F904F9008950E948A02811112C0609198
:100A700000037091010380910203909103038E01A2
:100A80000F5F1F4F20E044E00E94CC0F66E471E04E
:100A9000CACF0E9477046EE471E0882309F4E0C0B5
:100AA0008091FF0267E571E0883008F4D9C00E94A8
:100AB0009A04811112C06091FB027091FC02809136
:100AC000FD029091FE028E010F5F1F4F21E044E076
:100AD0000E94CC0F63E671E0A6CF0E94C70281118D
:100AE00012C06091F7027091F8028091F902909122
:100AF000FA028E010F5F1F4F20E044E00E94CC0FEE
:100B00006BE671E090CFC0900401D0900501E090B9
:100B10000601F090070120E030EC49E754E4C701FA
:100B2000B6010E94C51263E771E0882309F498C0FA
:100B300020E030E040EA50E4C701B6019F770E9410
:100B40002414181664F48E010F5F1F4F21E044E057
:100B5000C701B6010E94CC0F61E871E064CF20911B
:100B600004033091050340910603509107036091FF
:100B7000FB027091FC028091FD029091FE020E94A6
:100B800058126B017C01E894F7F820E030E040E077
:100B90005FE3C701B6010E942414181664F48E01A5
:100BA0000F5F1F4F22E044E0C701B6010E94CC0F47
:100BB00068E871E038CF8090F7029090F802A0903A
:100BC000F902B090FA024090000350900103609047
:100BD000020370900303A3019201C501B4010E94B6
:100BE000591220E030E040E05FE30E9429146B01DD
:100BF0007C0120E030E040E85FE30E9424141816F6
:100C00003CF5A3019201C501B4010E9458129F77DF
:100C1000A70196010E94CA1220E030E048EC52E49D
:100C20000E9429146B017C0120E030E040E251E495
:100C30000E942414181664F48E010F5F1F4F21E0E8
:100C400044E0C701B6010E94CC0F6FE871E0EBCE23
:100C50008091F60266E971E0882311F062EA71E0A2
:100C600088E091E02A960FB6F894DEBF0FBECDBFA4
:100C7000DF91CF911F910F91FF90EF90DF90CF9078
:100C8000BF90AF909F908F907F906F905F904F90AC
:100C90000C942915FC0101900020E9F73197AF0170
:100CA000481B590BBC0189E093E00C9404018F921E
:100CB0009F92AF92BF920F931F93CF93DF93CDB7C5
:100CC000DEB7A1970FB6F894DEBF0FBECDBF19A255
:100CD000423008F44AE08E010F5D1F4F842E912CA4
:100CE000B12CA12CA50194010E94F614E62FB901A4
:100CF000CA01EA30F4F4E05DD801EE938D01232BB4
:100D0000242B252B79F790E080E0109719F0CD0186
:100D10000E944A06A1960FB6F894DEBF0FBECDBF63
:100D2000DF91CF911F910F91BF90AF909F908F90C7
:100D30000895E95CE1CF0C944A06CF93DF93EC0170
:100D400060E08E810E94310161E08E810E9431015C
:100D500060E08E810E9431018BE891E00197F1F70C
:100D6000DF91CF910895CF92DF92EF92FF920F9390
:100D70001F93CF93DF936C017C0187E0E80EF11C99
:100D8000D0E0C0E0062F10E0B8010C2E02C075952F
:100D900067950A94E2F76170F70181917F010E94E3
:100DA00031012196C430D10579F7C601DF91CF9189
:100DB0001F910F91FF90EF90DF90CF900C949D06C4
:100DC000CF92DF92EF92FF920F931F93CF93DF9317
:100DD000EC01F62E642F8C810E9431018D818F3FB2
:100DE00019F060E00E9431010F2D10E08F8584FF23
:100DF00025C06E0187E0C80ED11CF12CE12CB80192
:100E00000E2C02C0759567950A94E2F76170F601A1
:100E100081916F010E943101FFEFEF1AFF0A88E014
:100E2000E816F10461F7CE01DF91CF911F910F9188
:100E3000FF90EF90DF90CF900C949D06B80184E076
:100E4000759567958A95E1F7CE010E94B3066F2DDF
:100E5000CE01DF91CF911F910F91FF90EF90DF9026
:100E6000CF900C94B30640E0682F89E093E00C9497
:100E7000E006CF93DF93613029F0909118039860DA
:100E80009093180360931C0310921D0390E49093B9
:100E90001E0380931F03805C8093200361E0809198
:100EA0000D030E947D0180910E038F3F19F061E0D8
:100EB0000E947D0161E080910F030E947D01C9E0E5
:100EC000D3E09E01295033408091180384FD0BC06C
:100ED00084E090E021962817390744F461E08E8180
:100EE0000E947D01EECF88E090E0F4CF8BE39DE09F
:100EF0000197F1F760E080910D030E94310160E0FD
:100F000080910F030E94310180910E038F3F19F0F1
:100F100060E00E9431018091180384FD39C063E0D4
:100F200089E093E00E94B306CBE4D6E4CE010197BA
:100F3000F1F763E089E093E00E94B3062197F1F7AF
:100F400063E089E093E00E94B30683E592E00197B5
:100F5000F1F762E089E093E00E94B3068091180304
:100F600080620E94330784E0809319038CE00E9422
:100F7000330781E00E9433078BE39FE10197F1F78C
:100F800082E080931A0386E0DF91CF910C943307BF
:100F900080620E9433078BE496E40197F1F7809119
:100FA000180380620E94330783E592E00197F1F70E
:100FB0008091180380620E943307D0CF90911C0368
:100FC000691710F06FEF690FE62FF0E0E75FFC4F55
:100FD0009489890F80680C94330741E00E94E006F1
:100FE00081E090E008954F925F926F927F928F928E
:100FF0009F92AF92BF92CF92DF92EF92FF920F93A8
:101000001F93CF936B017C01742EAC019B010E9456
:10101000DC14882399F083EB91E0CF911F910F911D
:10102000FF90EF90DF90CF90BF90AF909F908F9008
:101030007F906F905F904F900C944A064601570145
:10104000E894B7F82FEF3FEF4FE75FE7C501B40132
:101050000E94DC1481110DC02FEF3FEF4FE75FE7D7
:10106000C501B4010E94C51218161CF487EB91E06B
:10107000D4CF2FEF3FEF4FE75FE4C701B6010E94E7
:10108000241418161CF48BEB91E0C7CF2FEF3FEF21
:101090004FE75FECC701B6010E94C51287FDF3CF91
:1010A00020E030E0A901C701B6010E94C51210E09E
:1010B00000E087FF0CC041E06DE289E093E00E9410
:1010C000E006F7FAF094F7F8F09401E010E0C0E0E1
:1010D00060E070E080E09FE37C1641F020E030E0CB
:1010E00040E251E40E94CA12CF5FF6CFA7019601F9
:1010F0000E9459124B015C010E9443132B013C01D9
:101100004AE00E945706080F191FCC23C9F1C301FA
:10111000B2010E9472139B01AC01C501B4010E948F
:1011200058124B015C0141E06EE289E093E00E94BD
:10113000E0060F5F1F4FC15018F120E030E040E2A1
:1011400051E4C501B4010E9429142B013C010E9405
:1011500043134B01B12CA12C4AE0C501B4010E94FC
:101160005706080F191FC501B4010E9472139B0195
:10117000AC01C301B2010E9458124B015C01DBCFEC
:10118000C801CF911F910F91FF90EF90DF90CF900A
:10119000BF90AF909F908F907F906F905F904F9097
:1011A0000895CF92DF92EF92FF921F93CF93DF9338
:1011B000CCE2D1E0C12CD12C76018E50182F1064D6
:1011C00010937C0080917A00806480937A008091F3
:1011D0007A0086FDFCCF6091780070917900072E2F
:1011E000000C880B990B0E94741320E030E040EA59
:1011F00050E40E94291420E030EC4FE754E40E94B0
:10120000CA1220E030E040E250E40E9458129B01F4
:10121000AC010E9429149B01AC01C701B6010E94D8
:1012200059126B017C01219759F620E030E046E924
:1012300053E40E94CA120E949C142CE83EE24AEB3E
:101240005DE30E94CA122AED3BE448E851E40E94A3
:101250002914DF91CF911F91FF90EF90DF90CF90F5
:1012600008951F920F920FB60F9211242F933F9360
:101270008F939F93AF93BF9380918102909182024D
:10128000A0918302B09184023091800223E0230F69
:101290002D3758F50196A11DB11D20938002809332
:1012A000810290938202A0938302B0938402809182
:1012B000850290918602A0918702B09188020196E2
:1012C000A11DB11D8093850290938602A093870291
:1012D000B0938802BF91AF919F918F913F912F91D1
:1012E0000F900FBE0F901F90189526E8230F0296BF
:1012F000A11DB11DD2CF1F920F920FB60F921124D4
:101300002F933F934F935F936F937F938F939F930D
:10131000AF93BF93EF93FF93E0910201F09103012C
:101320000995FF91EF91BF91AF919F918F917F911F
:101330006F915F914F913F912F910F900FBE0F9042
:101340001F9018951F920F920FB60F9211242F9392
:101350003F934F935F936F937F938F939F93AF933D
:10136000BF93EF93FF93E0910001F0910101099584
:10137000FF91EF91BF91AF919F918F917F916F916D
:101380005F914F913F912F910F900FBE0F901F9043
:101390001895CF93DF9300D000D0CDB7DEB7789407
:1013A00084B5826084BD84B5816084BD85B582606A
:1013B00085BD85B5816085BD80916E00816080931B
:1013C0006E00109281008091810082608093810084
:1013D0008091810081608093810080918000816094
:1013E000809380008091B10084608093B1008091EF
:1013F000B00081608093B00080917A008460809317
:101400007A0080917A00826080937A0080917A00DD
:10141000816080937A0080917A00806880937A005E
:101420001092C10060E082E00E947D0160E083E0F4
:101430000E947D0161E088E00E947D0160E088E01B
:101440000E94310164E084E10E94390781E00E943A
:1014500033078BE39FE10197F1F760E080E00E94A2
:10146000DE078FEB91E00E949B0661E080E00E9426
:10147000DE078EEC91E00E949B06A9E8B2E0EAEA62
:10148000F2E011921192119211921D921D921D92F1
:101490001D9222E0EA3CF207A1F71092CA021092D4
:1014A000A9021092FF02109208031092FB02109200
:1014B000FC021092FD021092FE02109204031092A0
:1014C000050310920603109207031092F102109286
:1014D000F00283ED91E090930101809300018091EF
:1014E0006900836080936900E89A86E292E09093B5
:1014F000030180930201809169008C6080936900F0
:10150000E99A0E9479026093DB027093DC02809377
:10151000DD029093DE020E94AE014B015C0138EEC9
:10152000C32E33E0D32EE12CF12C0E94AE016819BA
:1015300079098A099B09683E734081059105A8F3E2
:1015400031E0C31AD108E108F10848EE840E43E007
:10155000941EA11CB11CC114D104E104F10429F7AB
:1015600000E010E0F8946091D1027091D202809175
:10157000D3029091D4028090CD029090CE02A090A0
:10158000CF02B090D0022091CC02D090CB0210922A
:10159000CC021092CB027894222309F476C02B015E
:1015A0003C01E0E44E1AEFE15E0A61087108F1EADD
:1015B0004F16FFE05F066104710408F066C0C0903A
:1015C000CA0244E0C49E90011124F901E655FD4F82
:1015D0007F010E947213F70160837183828393837A
:1015E00081E08C0D883008F09AC18093CA02809106
:1015F000FF02883018F48F5F8093FF02C090FF02D3
:10160000CC2009F442C02AEAE22E22E0F22E412C3C
:10161000512C3201312CF70121913191419151919D
:101620007F01C301B2010E9459122B013C01339486
:10163000C310F1CF6C2D70E090E080E00E94741335
:101640009B01AC01C301B2010E94CA122B013C01F3
:1016500020E030E0A9010E9424141816B4F4A3017C
:101660009201C301B2010E9459129B01AC0160E0DA
:1016700074E284E799E40E94CA126093FB027093BB
:10168000FC028093FD029093FE02DD2009F474C0F9
:10169000D501C40180549F41A109B109813A9F40FD
:1016A000A105B10508F068C0F090A90224E0F29EFF
:1016B000C0011124AC0147575D4F6A01C501B40157
:1016C0000E947213F601608371838283938381E0A9
:1016D0008F0D883008F026C18093A90280910803FD
:1016E000883018F48F5F80930803F0900803FF2080
:1016F00009F442C099E8C92E92E0D92E812C912C90
:101700005401E12CF60121913191419151916F01E8
:10171000C501B4010E9459124B015C01E394FE1013
:10172000F1CF6F2D70E090E080E00E9474139B0178
:10173000AC01C501B4010E94CA126B017C0120E01A
:1017400030E0A9010E9424141816B4F4A7019601F0
:10175000C701B6010E9459129B01AC0160E074E21E
:1017600084E799E40E94CA1260930403709305030E
:10177000809306039093070380E10E94D1084B01F8
:101780005C0126E636E646E65FE36091F70270917B
:10179000F8028091F9029091FA020E9429146B01DB
:1017A0007C012DEC3CEC4CEC5DE3C501B4010E94E6
:1017B00029149B01AC01C701B6010E9459124B01CB
:1017C0005C018092F7029092F802A092F902B09226
:1017D000FA0281E10E94D1082B013C0126E636E69F
:1017E00046E65FE36091000370910103809102037C
:1017F000909103030E9429146B017C012DEC3CECB9
:101800004CEC5DE3C301B2010E9429149B01AC01C1
:10181000C701B6010E9459122B013C0140920003FE
:101820005092010360920203709203038091F602CA
:1018300081114DC00E947902C090DB02D090DC0281
:10184000E090DD02F090DE026C197D098E099F099F
:10185000683873418105910508F067C00E94040350
:101860006B017C0120E030E044E353EC0E9424143F
:1018700018160CF09DC120E030E044E353E4C701AA
:10188000B6010E94C51287FF93C1A701960160911E
:10189000D5027091D6028091D7029091D8020E9411
:1018A00059126093D5027093D6028093D702909319
:1018B000D8028091D9029091DA0201969093DA02CF
:1018C0008093D9028091F602882309F471C10E94A5
:1018D00004036B017C0120E030E041E654E40E9407
:1018E000241418160CF464C02091DF023091E00239
:1018F0004091E1025091E202C701B6010E945812E4
:101900006B017C0120E030E044E353E40E942414A6
:101910001816CCF520E030E044EB53E4EDCF109204
:10192000CA0265CE1092A902D9CE6091D9027091F7
:10193000DA0265317105F4F0072E000C880B990B63
:101940000E9474139B01AC016091D5027091D60284
:101950008091D7029091D8020E94CA126093DF0250
:101960007093E0028093E1029093E20281E0809321
:10197000F602A8CF1092DF021092E0021092E1026C
:101980001092E202F3CF20E030E044E353ECC701D1
:10199000B6010E94C51287FF12C020E030E044EB80
:1019A00053E4C701B6010E9459126B017C01EBCFD1
:1019B000C12C80ECD82E89E7E82E84E4F82EC09262
:1019C0000401D0920501E0920601F0920701A30103
:1019D0009201C501B4010E94591220E030E040E0BC
:1019E0005FE30E94291469837A838B839C8320E0C0
:1019F00030E040E85FE30E94241418160CF0A4C104
:101A0000A3019201C501B4010E9458129F77298158
:101A10003A814B815C810E94CA1220E030E048ECA0
:101A200052E40E9429144B015C0120E030EC49E7AC
:101A300054E4C701B6010E94C512882369F0C701AA
:101A4000B6019F77EE24E39420E030E040EA50E4D2
:101A50000E94C51218160CF4E12C8091FF02883008
:101A600008F16091FB027091FC028091FD0290915F
:101A7000FE0220910403309105034091060350912A
:101A80000703E0910803E83068F00E9458129F773E
:101A9000FF24F39420E030E040E05FE30E94C512B1
:101AA00018160CF4F12C0E94CD04D82E0E946C0460
:101AB000782EDD2091F0882389F0EE2071F0FF2050
:101AC00061F07724739420E030E040E251E4C501F6
:101AD000B4010E94C51218160CF4712C7092E30226
:101AE0000E94CD04A82E0E946C04B82E0E94790298
:101AF0006B017C018091F0029091F102813091059F
:101B000009F03CC11092EC021092ED021092EE022C
:101B10001092EF02B11023C18091E8029091E90286
:101B2000A091EA02B091EB02892B8A2B8B2B41F416
:101B3000C092E802D092E902E092EA02F092EB024F
:101B40008091E8029091E902A091EA02B091EB0243
:101B5000A7019601281B390B4A0B5B0BDA01C9015F
:101B6000843F9140A105B10508F4F2C060E088E02F
:101B70000E9431011092F1021092F002C092E40230
:101B8000D092E502E092E602F092E7026AED71E09F
:101B9000A11002C066EE71E088E091E00E94291574
:101BA0001092E8021092E9021092EA021092EB02FF
:101BB0000E947902C090F202D090F302E090F40209
:101BC000F090F5026C197D098E099F096139714009
:101BD0008105910508F4B1C00E9479026093F20278
:101BE0007093F3028093F4029093F50260E080E03A
:101BF0000E94DE0781E592E00E949B068091FF0231
:101C0000811174C187E392E00E949B068DE392E00C
:101C10000E949B0660E08AE00E94DE0788E592E071
:101C20000E949B068091080381116CC187E392E0BA
:101C30000E949B0681E492E00E949B0661E080E0A6
:101C40000E94DE0784E492E00E949B06C09004019B
:101C5000D0900501E0900601F090070120E030E00F
:101C600041E654E4C701B6010E94241418160CF092
:101C700055C187E392E00E949B0641E06FED89E049
:101C800093E00E94E0068EE692E00E949B0661E0EF
:101C90008BE00E94DE0788E492E00E949B06809120
:101CA000FF02882321F08091080381113DC18CE45B
:101CB00092E00E949B0662E080E00E94DE0780E5E1
:101CC00092E00E949B066091F7027091F802809169
:101CD000F9029091FA0240E00E94F30784E592E055
:101CE0000E949B0662E08AE00E94DE0787E592E0A0
:101CF0000E949B0660910003709101038091020392
:101D00009091030340E00E94F30784E592E00E9473
:101D10009B0663E080E00E94DE078BE592E00E9474
:101D20009B0663E080E00E94DE078091F60281114D
:101D300012C186E991E00E949B060115110509F484
:101D400011CC0E9400000ECC812C912C54016DCE40
:101D50006EEE71E088E091E00E94291529CF109283
:101D6000E8021092E9021092EA021092EB0261E09E
:101D700088E00E94310169EF71E0ECCF892B09F016
:101D800017CF1092E8021092E9021092EA02109224
:101D9000EB02A1103CC0BB2071F1772061F1809172
:101DA000E4029091E502A091E602B091E702A7015A
:101DB0009601281B390B4A0B5B0BDA01C9016CE059
:101DC00072E0883B9B40A105B10520F261E088E00C
:101DD0000E94310141E050E05093F1024093F00243
:101DE000C092E402D092E502E092E602F092E702AD
:101DF00061E072E0AFCF60E088E00E94310166EE02
:101E000071E0BB2009F4A6CF0E94D804D1CEBB203C
:101E100009F45FC08091EC029091ED02A091EE0276
:101E2000B091EF02892B8A2B8B2B41F4C092EC02EC
:101E3000D092ED02E092EE02F092EF028091EC027D
:101E40009091ED02A091EE02B091EF02A7019601F0
:101E5000281B390B4A0B5B0BDA01C9018838934107
:101E6000A105B10578F17720E1F18091E40290912C
:101E7000E502A091E602B091E702A7019601281BB6
:101E8000390B4A0B5B0BDA01C90162E272E0883B55
:101E90009B40A105B10508F45DCF61E088E00E9498
:101EA000310141E050E05093F1024093F002C092C2
:101EB000E402D092E502E092E602F092E70267E1E6
:101EC00072E048CF60E088E00E9431016AE272E08F
:101ED00041CF1092EC021092ED021092EE0210929D
:101EE000EF0260E088E00E9431018ECF6091FB023A
:101EF0007091FC028091FD029091FE0241E00E94EF
:101F0000F30784CE6091040370910503809106036A
:101F10009091070341E00E94F3078CCE41E0C70196
:101F2000B6010E94F307A9CE209104033091050366
:101F300040910603509107036091FB027091FC02EF
:101F40008091FD029091FE020E9458129F7742E01C
:101F50000E94F307B0CE88E091E0EDCEE9E0F3E037
:101F60001382128281E291E09183808314828FEF49
:101F700085838AE0868384E0878385E0808786E0A6
:101F8000818787E0828713861486158616861786D2
:101F900061E080E10C943907EF920F931F93CF9388
:101FA000DF93E80134E047FD34E1042E000C550BCB
:101FB00057FF03C0519541955109E32E022F242F5D
:101FC000AE010E94EA0FCE01DF91CF911F910F91D8
:101FD000EF900895A9E0B0E0E0EFFFE00C94271245
:101FE0006A01F22EB02E102FFBE3AF2EA01608F4DC
:101FF0001BE31F5F012F27E0AE014F5F5F4F0E9481
:102000004911BC018981982F9970913009F43FC022
:102010009BE2E1FC04C09E2D9170E0FC3AC05E2D75
:102020005071E82FE87083FF46C084E0911101C031
:1020300083E0EF2DE81B8F1508F0E0E0D6018E2F2E
:1020400020E2552351F1992329F0D6019C93C60132
:1020500001966C0196012D5F3F4FE2FE24C08EE495
:10206000D6018C9391E411969C93119712968C93C0
:10207000D9018E2F90E281111BC0E20FF32FF11DC9
:1020800010828EEF9FEF2996ECE00C9443129DE2B4
:10209000C6CF90E2C4CF2D9381508111FCCFCE0EDC
:1020A000D11CE0E0D0CF8EE6D6018C9391E6DBCF59
:1020B0009D938150E0CF482F447082FF3DC084E063
:1020C000911101C083E08F1510F4EF2DE81BD601AC
:1020D0008E2F20E2552309F1992329F0D6019C93F4
:1020E000C60101966C0196012D5F3F4FE2FE1BC0B9
:1020F00089E4D6018C938EE411968C93119786E433
:1021000012968C93D9018E2F90E2882309F4B5CFD3
:102110009D938150FACF2D9381508111FCCFCE0E2B
:10212000D11CE0E0D9CF89E6D6018C938EE61196DA
:102130008C93119786E6E4CF9B0177FF02C030E0D5
:1021400020E0A1E0B0E0911102C0B0E0A0E0F90110
:102150003196AE0FBF1F8B2C912CBB2009F461C0B0
:102160005401EFEFAE1ABE0AAA0DBB1DFA161B06EC
:1021700019F014F04F2D4A1B511188C0E3FC59C0CF
:102180007601A42FB0E2A1114FC0C40ED11C992337
:1021900009F45BC040E0D6011196F60190836D0111
:1021A000552309F448C0012F060F9A81582F50710A
:1021B00084FF03C0913309F4015010160CF047C09E
:1021C000093008F008E0EEE2FE2E5B01A01AB1082B
:1021D00085019194819491082F3F320729F4D6010B
:1021E000FC92F60131966F016217730794F10217A2
:1021F00013077CF5DB01A21BB30BAA24A394B12C1B
:10220000AC0EBD1EAA0DBB1D11968C91215031093B
:10221000D601119628153905F4F0F60180836D0179
:10222000DBCFB12CA12CA0CFF701B1937F01A1503E
:10223000AACF9111B0CFD601942F50E302C05D9385
:1022400091509111FCCFC40ED11C40E0ACCF01E005
:10225000BACF80E3DBCF6217730731F4963388F48B
:10226000953311F4552369F0F6018083FD01842F25
:1022700090E2811108C0A40FB11D1C9290E080E093
:1022800002CF81E3F1CF91938150F3CF911183CFAE
:102290008ACF283008F027E03327DA01990F311D63
:1022A00087FD916000966105710539F432602E5FFB
:1022B0003D9330E32A95E1F708959F3F30F0803851
:1022C0007105610509F03C5F3C5F3D93913008F07A
:1022D0008068911DDF93CF931F930F93FF92EF922E
:1022E000192F987F9695E92F96959695E90FFF27D8
:1022F000EE53FF4F99273327EE24FF24A701E70170
:1023000005900894079428F4360FE71EF81E491F1D
:10231000511D660F771F881F991F0694A1F705901E
:10232000079428F4E70EF81E491F561FC11D770FAA
:10233000881F991F661F0694A1F70590079428F43B
:10234000F80E491F561FC71FD11D880F991F661F02
:10235000771F0694A1F70590079420F4490F561FA4
:10236000C71FD81F990F661F771F881F0694A9F7EC
:1023700084911095177041F0D695C795579547955C
:10238000F794E7941A95C1F7E8E6F0E068941590A1
:10239000159135916591959105907FE27395E118BE
:1023A000F10A430B560BC90BD009C0F7E10CF11E23
:1023B000431F561FC91FD01D7EF4703311F48A9538
:1023C000E6CFE894015030F0080F0AF40027021716
:1023D00008F4202F2395022F7A3328F079E37D9398
:1023E0002A95E9F710C07D932A9589F6069497956A
:1023F0006795379517951794E118F10A430B560B1B
:10240000C90BD00998F023957E9173957A3308F023
:1024100070E37C932013B8F77E9170617D9330F068
:10242000839571E37D9370E32A95E1F71124EF9092
:10243000FF900F911F91CF91DF91992787FD909584
:1024400008952F923F924F925F926F927F928F9258
:102450009F92AF92BF92CF92DF92EF92FF920F9333
:102460001F93CF93DF93CDB7DEB7CA1BDB0B0FB63D
:10247000F894DEBF0FBECDBF09942A8839884888FA
:102480005F846E847D848C849B84AA84B984C88490
:10249000DF80EE80FD800C811B81AA81B981CE0F87
:1024A000D11D0FB6F894DEBF0FBECDBFED0108956C
:1024B0005058BB27AA270E9470120C94EA130E945E
:1024C000DC1338F00E94E31320F039F49F3F19F435
:1024D00026F40C94D9130EF4E095E7FB0C94D31377
:1024E000E92F0E94FB1358F3BA176207730784079A
:1024F000950720F079F4A6F50C941D140EF4E095E0
:102500000B2EBA2FA02D0B01B90190010C01CA01AD
:10251000A0011124FF27591B99F0593F50F4503E58
:1025200068F11A16F040A22F232F342F4427585F4A
:10253000F3CF469537952795A795F0405395C9F762
:102540007EF41F16BA0B620B730B840BBAF091501A
:10255000A1F0FF0FBB1F661F771F881FC2F70EC0B9
:10256000BA0F621F731F841F48F48795779567958C
:10257000B795F7959E3F08F0B0CF9395880F08F078
:102580009927EE0F9795879508950E94AF1308F449
:1025900081E008950E94DE120C94EA130E94E31376
:1025A00058F00E94DC1340F029F45F3F29F00C94AE
:1025B000D31351110C941E140C94D9130E94FB13C5
:1025C00068F39923B1F3552391F3951B550BBB2762
:1025D000AA2762177307840738F09F5F5F4F220FA7
:1025E000331F441FAA1FA9F335D00E2E3AF0E0E89E
:1025F00032D091505040E695001CCAF72BD0FE2FE8
:1026000029D0660F771F881FBB1F2617370748077B
:10261000AB07B0E809F0BB0B802DBF01FF27935833
:102620005F4F3AF09E3F510578F00C94D3130C9411
:102630001E145F3FE4F3983ED4F386957795679533
:10264000B795F7959F5FC9F7880F911D9695879568
:1026500097F90895E1E0660F771F881FBB1F621787
:1026600073078407BA0720F0621B730B840BBA0B45
:10267000EE1F88F7E09508950E9443136894B11106
:102680000C941E1408950E94031488F09F5798F02C
:10269000B92F9927B751B0F0E1F0660F771F881F67
:1026A000991F1AF0BA95C9F714C0B13091F00E9481
:1026B0001D14B1E008950C941D14672F782F8827FE
:1026C000B85F39F0B93FCCF3869577956795B395A8
:1026D000D9F73EF490958095709561957F4F8F4F17
:1026E0009F4F0895E89409C097FB3EF4909580951C
:1026F000709561957F4F8F4F9F4F9923A9F0F92FC8
:1027000096E9BB279395F695879577956795B79545
:10271000F111F8CFFAF4BB0F11F460FF1BC06F5F2B
:102720007F4F8F4F9F4F16C0882311F096E911C03D
:10273000772321F09EE8872F762F05C0662371F05E
:1027400096E8862F70E060E02AF09A95660F771F72
:10275000881FDAF7880F9695879597F90895990F4E
:102760000008550FAA0BE0E8FEEF16161706E8075B
:10277000F907C0F012161306E407F50798F0621B7C
:10278000730B840B950B39F40A2661F0232B242B51
:10279000252B21F408950A2609F4A140A6958FEF70
:1027A000811D811D089597F99F6780E870E060E0C2
:1027B00008959FEF80EC089500240A9416161706DA
:1027C00018060906089500240A9412161306140622
:1027D00005060895092E0394000C11F4882352F085
:1027E000BB0F40F4BF2B11F460FF04C06F5F7F4F3D
:1027F0008F4F9F4F089557FD9058440F551F59F024
:102800005F3F71F04795880F97FB991F61F09F3FDD
:1028100079F087950895121613061406551FF2CF06
:102820004695F1DF08C0161617061806991FF1CF56
:1028300086957105610508940895E894BB2766277D
:102840007727CB0197F908950E94AF1308F48FEF13
:1028500008950E943C140C94EA130E94DC1338F093
:102860000E94E31320F0952311F00C94D3130C94E1
:10287000D91311240C941E140E94FB1370F3959F1E
:10288000C1F3950F50E0551F629FF001729FBB2767
:10289000F00DB11D639FAA27F00DB11DAA1F649F03
:1028A0006627B00DA11D661F829F2227B00DA11DB6
:1028B000621F739FB00DA11D621F839FA00D611D3C
:1028C000221F749F3327A00D611D231F849F600D5D
:1028D000211D822F762F6A2F11249F5750409AF086
:1028E000F1F088234AF0EE0FFF1FBB1F661F771F12
:1028F000881F91505040A9F79E3F510580F00C94DD
:10290000D3130C941E145F3FE4F3983ED4F38695E2
:1029100077956795B795F795E7959F5FC1F7FE2B7C
:10292000880F911D9695879597F9089519F416F4D7
:102930000C94D9130C94E1140E940314B8F3992356
:10294000C9F3B6F39F57550B87FF0E94EF1400247D
:10295000A0E640EA900180585695979528F4805C4F
:10296000660F771F881F20F026173707480730F4B7
:10297000621B730B840B202931294A2BA6951794CF
:102980000794202531254A2758F7660F771F881F9F
:1029900020F026173707480730F4620B730B840BBF
:1029A000200D311D411DA09581F7B901842F91584B
:1029B000880F9695879508950E94AF13880B990B01
:1029C00008959F3F31F0915020F487957795679552
:1029D000B795880F911D9695879597F90895915011
:1029E0005040660F771F881FD2F70895A1E21A2E74
:1029F000AA1BBB1BFD010DC0AA1FBB1FEE1FFF1FA3
:102A0000A217B307E407F50720F0A21BB30BE40BF2
:102A1000F50B661F771F881F991F1A9469F7609539
:102A20007095809590959B01AC01BD01CF010895F3
:102A3000EE0FFF1F0590F491E02D0994FB01DC01DE
:102A40000D900020E9F7119701900D920020E1F719
:102A50000895FB01DC0101900D920020E1F708953B
:102A6000F894FFCF8502850200C079445354415247
:102A700054494E4700000000000000000000000024
:102A80000000000000ED0704018702860242204E8C
:102A90004F205A4344004220465245512057414955
:102AA000540042204652455120004220564F4C547B
:102AB000200041204E4F205A4344004120465245B9
:102AC0005120574149540041204652455120004170
:102AD00020564F4C542000504841534520494E56F3
:102AE000414C49440050484153452000444652451A
:102AF00051200044564F4C54200043414C4942520F
:102B00004154494E47004E4F542053594E4348526A
:102B10004F4E495A4544006E616E00696E66006F03
:102B200076660053545320436F6E74726F6C6C65FD
:102B300072005374617274696E672E2E2E004220EB
:102B40004641494C202D3E204100412B422042412C
:102B500044004220434845434B2E2E2E004F4E202A
:102B600042204F4B004120424144202D3E20420054
:102B700041204241442057414954005452414E5350
:102B800046455220420042205245414459004220CD
:102B90005245434F564552494E47002D2D2D2E2D5F
:102BA00000487A2000487A0050483A0064463A00CB
:102BB0002D2D2D0056413A0056200056423A002055
:102BC0002020202020202020202020202020202005
:042BD00020202000A1
:107E0000112484B714BE81FFF0D085E080938100F7
:107E100082E08093C00088E18093C10086E0809377
:107E2000C20080E18093C4008EE0C9D0259A86E02C
:107E300020E33CEF91E0309385002093840096BBD3
:107E4000B09BFECF1D9AA8958150A9F7CC24DD24C4
:107E500088248394B5E0AB2EA1E19A2EF3E0BF2EE7
:107E6000A2D0813461F49FD0082FAFD0023811F036
:107E7000013811F484E001C083E08DD089C08234E0
:107E800011F484E103C0853419F485E0A6D080C0E4
:107E9000853579F488D0E82EFF2485D0082F10E0AE
:107EA000102F00270E291F29000F111F8ED06801E7
:107EB0006FC0863521F484E090D080E0DECF843638
:107EC00009F040C070D06FD0082F6DD080E0C81688
:107ED00080E7D80618F4F601B7BEE895C0E0D1E017
:107EE00062D089930C17E1F7F0E0CF16F0E7DF06D8
:107EF00018F0F601B7BEE89568D007B600FCFDCFD4
:107F0000A601A0E0B1E02C9130E011968C91119780
:107F100090E0982F8827822B932B1296FA010C0160
:107F200087BEE89511244E5F5F4FF1E0A038BF0790
:107F300051F7F601A7BEE89507B600FCFDCF97BE46
:107F4000E89526C08437B1F42ED02DD0F82E2BD052
:107F50003CD0F601EF2C8F010F5F1F4F84911BD097
:107F6000EA94F801C1F70894C11CD11CFA94CF0C13
:107F7000D11C0EC0853739F428D08EE10CD085E9AC
:107F80000AD08FE07ACF813511F488E018D01DD067
:107F900080E101D065CF982F8091C00085FFFCCF94
:107FA0009093C60008958091C00087FFFCCF809118
:107FB000C00084FD01C0A8958091C6000895E0E648
:107FC000F0E098E1908380830895EDDF803219F02E
:107FD00088E0F5DFFFCF84E1DECF1F93182FE3DFCA
:107FE0001150E9F7F2DF1F91089580E0E8DFEE27F6
:047FF000FF270994CA
:027FFE00040479
:00000001FF
