:020000040000FA
:100000000C9462000C948A000C948A000C948A0070
:100010000C948A000C948A000C948A000C948A0038
:100020000C948A000C948A000C948A000C948A0028
:100030000C948A000C948A000C948A000C948A0018
:100040000C9416050C948A000C948A000C948A0077
:100050000C948A000C948A000C948A000C948A00F8
:100060000C948A000C948A000000000024002700F1
:100070002A0000000000250028002B0000000000DE
:1000800023002600290004040404040404040202DA
:100090000202020203030303030301020408102007
:1000A0004080010204081020010204081020000012
:1000B0000008000201000003040700000000000027
:1000C00000002B0811241FBECFEFD8E0DEBFCDBF4C
:1000D00013E0A0E0B1E0ECECF4E102C005900D9279
:1000E000A830B107D9F723E0A8E0B3E001C01D9222
:1000F000A333B207E1F710E0C2E6D0E004C02197D5
:10010000FE010E945E0AC136D107C9F70E94600550
:100110000C94640A0C940000AF92BF92CF92DF92CD
:10012000EF92FF920F931F93CF93DF936C017B01AC
:100130008B01040F151FEB015E01AE18BF08C0173D
:10014000D10759F06991D601ED91FC910190F081B0
:10015000E02DC6010995892B79F7C501DF91CF9173
:100160001F910F91FF90EF90DF90CF90BF90AF90D5
:100170000895833081F028F4813099F08230A9F01D
:1001800008958730A9F08830C9F08430B1F48091A7
:1001900080008F7D03C0809180008F7780938000E6
:1001A000089584B58F7784BD089584B58F7DFBCF86
:1001B0008091B0008F778093B00008958091B00057
:1001C0008F7DF9CFCF93DF93282F30E0F901E255EF
:1001D000FF4F8491F901E656FF4FD491F901EA5798
:1001E000FF4FC491CC23A1F081110E94B900EC2FE4
:1001F000F0E0EE0FFF1FE458FF4FA591B491EC9192
:10020000ED2381E090E009F480E0DF91CF91089543
:1002100080E090E0FACF1F93CF93DF93282F30E058
:10022000F901E255FF4F8491F901E656FF4FD49151
:10023000F901EA57FF4FC491CC23A9F0162F811181
:100240000E94B900EC2FF0E0EE0FFF1FEE58FF4FB9
:10025000A591B4918FB7F894EC91111108C0D09585
:10026000DE23DC938FBFDF91CF911F910895DE2BAA
:10027000F8CFCF93DF9390E0FC01E656FF4F249137
:100280008A579F4FFC0184918823D1F090E0880F1A
:10029000991FFC01E859FF4FA591B491FC01EE585C
:1002A000FF4FC591D491623071F49FB7F8943C919F
:1002B000822F809583238C93E8812E2B28839FBFE8
:1002C000DF91CF9108958FB7F894EC912E2B2C935A
:1002D0008FBFF6CF3FB7F89480910D0390910E0336
:1002E000A0910F03B091100326B5A89B05C02F3F26
:1002F00019F00196A11DB11D3FBFBA2FA92F982F4C
:100300008827BC01CD01620F711D811D911D42E046
:10031000660F771F881F991F4A95D1F708958F920E
:100320009F92AF92BF92CF92DF92EF92FF924B01DA
:100330005C010E946A016B017C010E946A016C19D8
:100340007D098E099F09683E734081059105A8F3D8
:1003500021E0821A9108A108B10888EEC80E83E056
:10036000D81EE11CF11C81149104A104B10429F7E9
:10037000FF90EF90DF90CF90BF90AF909F908F90C5
:100380000895089590E080E00895FC010190002018
:10039000E9F73197AF01481B590BBC018BE193E0A2
:1003A0000C948C008F929F92AF92BF920F931F93E9
:1003B000CF93DF93CDB7DEB7A1970FB6F894DEBF2A
:1003C0000FBECDBF19A2423008F44AE08E010F5D86
:1003D0001F4F842E912CB12CA12CA50194010E94B9
:1003E000280AE62FB901CA01EA30F4F4E05DD80129
:1003F000EE938D01232B242B252B79F790E080E0C1
:10040000109719F0CD010E94C501A1960FB6F8947E
:10041000DEBF0FBECDBFDF91CF911F910F91BF9077
:10042000AF909F908F900895E95CE1CF009711F015
:100430000C94C50190E080E00895CF93DF93EC0128
:1004400060E08E810E940B0161E08E810E940B01B1
:1004500060E08E810E940B018BE891E00197F1F73B
:10046000DF91CF910895CF92DF92EF92FF920F9399
:100470001F93CF93DF936C017C0187E0E80EF11CA2
:10048000D0E0C0E0062F10E0B8010C2E02C0759538
:1004900067950A94E2F76170F70181917F010E94EC
:1004A0000B012196C430D10579F7C601DF91CF91B8
:1004B0001F910F91FF90EF90DF90CF900C941D0251
:1004C000CF92DF92EF92FF920F931F93CF93DF9320
:1004D000EC01F62E642F8C810E940B018D818F3FE1
:1004E00019F060E00E940B010F2D10E08F8584FF52
:1004F00025C06E0187E0C80ED11CF12CE12CB8019B
:100500000E2C02C0759567950A94E2F76170F601AA
:1005100081916F010E940B01FFEFEF1AFF0A88E043
:10052000E816F10461F7CE01DF91CF911F910F9191
:10053000FF90EF90DF90CF900C941D02B80184E003
:10054000759567958A95E1F7CE010E9433026F2D6C
:10055000CE01DF91CF911F910F91FF90EF90DF902F
:10056000CF900C94330240E0682F8BE193E00C9421
:10057000600281E00E94B3028BE39FE10197F1F7F3
:100580000895CF93DF93613029F090912A0398600A
:1005900090932A0360932E0310922F0390E490937C
:1005A000300380933103805C8093320361E080915B
:1005B0001F030E943901809120038F3F19F061E0F1
:1005C0000E94390161E0809121030E943901CBE151
:1005D000D3E09E012B51334080912A0384FD0BC050
:1005E00084E090E021962817390744F461E08E8179
:1005F0000E943901EECF88E090E0F4CF8BE39DE0DC
:100600000197F1F760E080911F030E940B0160E009
:10061000809121030E940B01809120038F3F19F0EC
:1006200060E00E940B0180912A0384FD34C063E0E6
:100630008BE193E00E943302CBE4D6E4CE01019734
:10064000F1F763E08BE193E00E9433022197F1F729
:1006500063E08BE193E00E94330283E592E001972F
:10066000F1F762E08BE193E00E94330280912A036C
:1006700080620E94B30284E080932B038CE00E948E
:10068000B3020E94B90282E080932C0386E0DF91DE
:10069000CF910C94B30280620E94B3028BE496E483
:1006A0000197F1F780912A0380620E94B30283E5EB
:1006B00092E00197F1F780912A0380620E94B302D1
:1006C000D5CF90912E03691710F06FEF690FE62FC9
:1006D000F0E0E55EFC4F9489890F80680C94B302CA
:1006E0000E94B90260E080E00E9461038EE891E020
:1006F0000E94160261E080E00E9461038091130372
:1007000090911403892BD1F08DE591E00E9416029F
:1007100062E080E00E9461038091130390911403D2
:10072000019779F08EE791E00E94160263E080E085
:100730000E9461038BE991E00C9416028CE491E035
:10074000E5CF8EE691E0F0CF0F931F93CF93DF9329
:100750000E94B90260E080E00E94610383EB91E0B7
:100760000E94160206E111E0D0E0C0E06C2F6F5F3E
:1007700080E00E94610380911303909114038C1711
:100780009D07F9F080EB91E00E941602F80180814C
:1007900091810E94160280911103909112038C178F
:1007A0009D0721F480EC91E00E9416022196025FE1
:1007B0001F4FC330D105D1F6DF91CF911F910F911B
:1007C00008958DEA91E0E0CF0F931F93CF93DF93CD
:1007D0000E94B90260E080E00E94610383EC91E036
:1007E0000E94160210E000E0C0911503D09116039C
:1007F000C00FD11FC530D105ECF461E0600F80E07F
:100800000E94610380911703909118038C179D0734
:10081000B1F080EB91E00E941602CC0FDD1FC45FA7
:10082000DE4F888199810E9416020F5F1F4F0330AF
:100830001105D1F6DF91CF911F910F9108958DEAA7
:1008400091E0E9CF0E94B90260E080E00E9461037C
:100850008DEC91E00E94160261E080E00E9461034D
:100860008EED91E00E94160262E080E00E9461033A
:100870008EEE91E00E94160263E080E00E94610328
:100880008FEF91E00C94160241E00E94600281E03B
:1008900090E008958F929F92AF92BF92CF92DF9295
:1008A000EF92FF92CF93C82F0E94B90260E080E0E0
:1008B0000E9461038AE192E0CC2311F087E092E08C
:1008C0000E94160261E080E00E946103CC2369F17E
:1008D000C0900401D0900501E0900601F09007015E
:1008E000A7019601C701B6010E940F0A882331F1C2
:1008F00082E392E00E94C5018FE292E0CC2311F0E6
:100900008CE292E00E94160263E080E00E946103A4
:100910008EE392E0CF91FF90EF90DF90CF90BF9069
:10092000AF909F908F900C941602C0900001D090D1
:100930000101E0900201F0900301D2CF460157017E
:10094000E894B7F82FEF3FEF4FE75FE7C501B40139
:100950000E940F0A81110DC02FEF3FEF4FE75FE7B5
:10096000C501B4010E94B70818161CF486E392E092
:10097000C1CF2FEF3FEF4FE75FE4C701B6010E9401
:100980009D0918161CF48AE392E0B4CF2FEF3FEFD5
:100990004FE75FECC701B6010E94B70887FDF3CFB0
:1009A00020E030E0A901C701B6010E94B70887FF27
:1009B0000AC041E06DE28BE193E00E946002F7FA29
:1009C000F094F7F8F0942DEC3CEC4CE45DE3C701B7
:1009D000B6010E944B084B015C010E94BC086B01F0
:1009E0007C010E94EB089B01AC01C501B4010E948F
:1009F0004A084B015C014AE0C701B6010E94D201DE
:100A000041E06EE28BE193E00E94600220E030E082
:100A100040E251E4C501B4010E94A2090E94BC0851
:100A200090E080E04AE00E94D20166CF1F920F92D0
:100A30000FB60F9211242F933F938F939F93AF93F1
:100A4000BF938091090390910A03A0910B03B09189
:100A50000C033091080323E0230F2D3758F501963E
:100A6000A11DB11D209308038093090390930A03ED
:100A7000A0930B03B0930C0380910D0390910E0390
:100A8000A0910F03B09110030196A11DB11D809399
:100A90000D0390930E03A0930F03B0931003BF9127
:100AA000AF919F918F913F912F910F900FBE0F901B
:100AB0001F90189526E8230F0296A11DB11DD2CFD5
:100AC000789484B5826084BD84B5816084BD85B529
:100AD000826085BD85B5816085BD80916E00816035
:100AE00080936E00109281008091810082608093DB
:100AF00081008091810081608093810080918000DD
:100B00008160809380008091B10084608093B10007
:100B10008091B00081608093B00080917A00846001
:100B200080937A0080917A00826080937A0080912D
:100B30007A00816080937A0080917A008068809347
:100B40007A001092C10064E084E10E94C10262E078
:100B500089E00E94390162E088E00E94390162E088
:100B600081E00E94390162E080E00E9439010E9428
:100B7000B90260E082E00E9461038CE492E00E948E
:100B8000160261E086E00E9461038EE592E00E9419
:100B9000160262E081E00E94610388E692E00E9412
:100BA00016026CED75E080E090E00E948F010E94DB
:100BB0002204CC24C394D12C04E010E043E0442E62
:100BC000512C22E0222E312C81E00E94E2004C01C7
:100BD000FF24F394892B09F4F12C80E00E94E200B9
:100BE000EC01EE24E394892B09F4E12C89E00E94C6
:100BF000E2005C0177247394892B09F4712C88E05E
:100C00000E94E20066246394009709F4612C20910D
:100C10000B01222321F021E0892809F020E0309106
:100C20000A01332321F031E0CD2B09F030E0C091EF
:100C30000901CC2321F0C1E0AB2809F0C0E0D0913C
:100C40000801DD2321F0D1E0892B09F0D0E080916B
:100C5000190390911A038130910509F07DC021118B
:100C600005C0311107C0C11140C14AC08FEF9FEFCD
:100C7000332311F081E090E02091170330911803A5
:100C8000820F931F97FD63C09093180380931703FF
:100C90008091170390911803059724F01092180380
:100CA0001092170380911703909118032091150358
:100CB000309116038217930724F4909316038093C0
:100CC000150320911503309116032E5F3F4F28170F
:100CD00039072CF4029790931603809315030E9412
:100CE000E403CC2369F08091190390911A030097D3
:100CF00009F0F7C0D0921A03C09219030E94E403CE
:100D0000DD2379F08091190390911A03009749F03F
:100D1000019709F096C110921A03109219030E94CC
:100D20002204F0920B01E0920A0170920901609294
:100D3000080164E170E080E090E00E948F0120E013
:100D400030E0232B09F440CF0E9400003ACF1093EB
:100D50001803009317039CCF83309105F1F4211100
:100D600005C0311107C0CC2359F23EC182E090E0AA
:100D7000332311F081E090E02091130330911403AC
:100D8000820F931F63E070E00E94140A9093140393
:100D9000809313030E94A403A4CF84309105A1F48F
:100DA000211103C0332309F453C18091130390919F
:100DB000140321E030E0281B390B309314032093F7
:100DC00013030E9470038DCF8630910509F045C052
:100DD000211106C031110AC0CC2309F491CF29C1D9
:100DE0006DEC7CEC8CEC9DE3332321F06DEC7CEC22
:100DF0008CEC9DEB2091040130910501409106019E
:100E0000509107010E944B084B015C0120E030E04B
:100E1000A9010E94B70887FD1CC020E030E040E730
:100E200052E4C501B4010E949D09181634F4812CC6
:100E3000912C90E7A92E92E4B92E80920401909211
:100E40000501A0920601B092070181E00E944A04C8
:100E500048CF812C912C5401F0CF079709F041CF56
:100E6000211108C0332309F4B7CF6DEC7CEC8CEC76
:100E70009DEB06C06DEC7CEC8CEC9DE33111F5CF65
:100E80002091000130910101409102015091030134
:100E90000E944B084B015C0120E030E0A9010E9458
:100EA000B70887FD1AC020E030E040EF51E4C501EB
:100EB000B4010E949D09181634F4812C912C80EF06
:100EC000A82E81E4B82E8092000190920101A09298
:100ED0000201B092030180E0B9CF812C912C540122
:100EE000F2CF8130910509F07CC080911703909179
:100EF00018038230910509F45AC06CF5009709F483
:100F00004FC0019709F0FCCE30921A0320921903CA
:100F10000E94B90260E080E00E94610388E792E0ED
:100F20000E94160261E080E00E9461038AE892E07C
:100F30000E94160262E080E00E94610388E992E06C
:100F40000E94160263E080E00E94610383EA91E060
:100F50000E941602D5CE83309105C1F1049709F0A5
:100F6000CFCE85E090E090931A03809319030E94FE
:100F7000B90260E080E00E94610382EA92E00E9490
:100F8000160261E080E00E9461038EEA92E00E9416
:100F9000160262E080E00E9461038EE592E0D0CF0D
:100FA00010921A03109219030E942204A9CE5092A3
:100FB0001A034092190380911103909112039093A8
:100FC0001403809313030E94A4039ACE10931A0370
:100FD0000093190310921403109213030E947003DC
:100FE0008FCE8330910549F48091130390911403BF
:100FF0009093120380931103E6CF84309105B1F4EE
:10100000809113039091140326E030E0892B11F0B6
:1010100027E030E030931A032093190381E0263053
:10102000310509F080E00E944A046ACE06970297D3
:1010300028F410931A0300931903D0CFDD2309F489
:1010400070CED0921A03C09219030E94E40369CEB5
:10105000C111D6CF55CEEBE1F3E01382128284E4C6
:1010600091E09183808383E084838FEF858382E0A6
:10107000868384E0878385E0808786E0818787E0B8
:1010800082871386148615861686178661E080E1AE
:101090000C94C1025058BB27AA270E9462080C94E6
:1010A00063090E94550938F00E945C0920F039F468
:1010B0009F3F19F426F40C9452090EF4E095E7FBD7
:1010C0000C944C09E92F0E94740958F3BA1762076F
:1010D00073078407950720F079F4A6F50C94960918
:1010E0000EF4E0950B2EBA2FA02D0B01B901900143
:1010F0000C01CA01A0011124FF27591B99F0593F87
:1011000050F4503E68F11A16F040A22F232F342FCE
:101110004427585FF3CF469537952795A795F0401C
:101120005395C9F77EF41F16BA0B620B730B840B31
:10113000BAF09150A1F0FF0FBB1F661F771F881FE9
:10114000C2F70EC0BA0F621F731F841F48F4879541
:1011500077956795B795F7959E3F08F0B0CF939533
:10116000880F08F09927EE0F9795879508950E94AC
:10117000280908F481E008950E947C0988F09F57AF
:1011800098F0B92F9927B751B0F0E1F0660F771FAB
:10119000881F991F1AF0BA95C9F714C0B13091F0A1
:1011A0000E949609B1E008950C949609672F782F54
:1011B0008827B85F39F0B93FCCF386957795679566
:1011C000B395D9F73EF490958095709561957F4FD2
:1011D0008F4F9F4F0895E89409C097FB3EF4909578
:1011E0008095709561957F4F8F4F9F4F9923A9F000
:1011F000F92F96E9BB279395F6958795779567958F
:10120000B795F111F8CFFAF4BB0F11F460FF1BC0D2
:101210006F5F7F4F8F4F9F4F16C0882311F096E965
:1012200011C0772321F09EE8872F762F05C0662313
:1012300071F096E8862F70E060E02AF09A95660FCC
:10124000771F881FDAF7880F9695879597F9089585
:10125000990F0008550FAA0BE0E8FEEF16161706C7
:10126000E807F907C0F012161306E407F50798F02F
:10127000621B730B840B950B39F40A2661F0232B48
:10128000242B252B21F408950A2609F4A140A695C4
:101290008FEF811D811D089597F99F6780E870E0A9
:1012A00060E008959FEF80EC089500240A941616DC
:1012B000170618060906089500240A941216130644
:1012C000140605060895092E0394000C11F48823D2
:1012D00052F0BB0F40F4BF2B11F460FF04C06F5FEE
:1012E0007F4F8F4F9F4F089557FD9058440F551FC4
:1012F00059F05F3F71F04795880F97FB991F61F098
:101300009F3F79F087950895121613061406551F0E
:10131000F2CF4695F1DF08C0161617061806991F7A
:10132000F1CF86957105610508940895E894BB276F
:1013300066277727CB0197F908950E94280908F4BA
:101340008FEF08950E94B5090C9463090E94550916
:1013500038F00E945C0920F0952311F00C944C09A0
:101360000C94520911240C9497090E94740970F38B
:10137000959FC1F3950F50E0551F629FF001729F3A
:10138000BB27F00DB11D639FAA27F00DB11DAA1F49
:10139000649F6627B00DA11D661F829F2227B00D96
:1013A000A11D621F739FB00DA11D621F839FA00D21
:1013B000611D221F749F3327A00D611D231F849F71
:1013C000600D211D822F762F6A2F11249F575040C8
:1013D0009AF0F1F088234AF0EE0FFF1FBB1F661F43
:1013E000771F881F91505040A9F79E3F510580F00C
:1013F0000C944C090C9497095F3FE4F3983ED4F3A6
:10140000869577956795B795F795E7959F5FC1F7AF
:10141000FE2B880F911D9695879597F908950E9448
:101420002809880B990B089597FB072E16F4009452
:1014300007D077FD09D00E944A0A07FC05D03EF488
:10144000909581959F4F0895709561957F4F089570
:10145000A1E21A2EAA1BBB1BFD010DC0AA1FBB1FB8
:10146000EE1FFF1FA217B307E407F50720F0A21B2A
:10147000B30BE40BF50B661F771F881F991F1A9497
:1014800069F760957095809590959B01AC01BD01C1
:10149000CF010895AA1BBB1B51E107C0AA1FBB1FA8
:1014A000A617B70710F0A61BB70B881F991F5A95F0
:1014B000A9F780959095BC01CD010895EE0FFF1F0F
:1014C0000590F491E02D0994F894FFCF0000A0401E
:1014D0000000404101010101BA02BF02CB02D80263
:1014E000E502F102666666419A9959410000A04101
:1014F000F9029A996141CDCC5C4100007041FD0236
:1015000033336B41000058410000C8410000000027
:1015100044048C00C201C1013E204F757470757483
:1015200020566F6C746167650020204F757470756C
:101530007420566F6C74616765003E20437572724B
:10154000656E74204C696D69740020204375727259
:10155000656E74204C696D697400504F5745522078
:10156000535550504C59004F4B3D456469742042CF
:1015700041434B3D4D656E75003E200020200042EA
:10158000415454455259205459504500202A004D89
:1015900041494E204D454E5500484F4D4520504144
:1015A0004745203A2042554C4B0050563A2033389C
:1015B0002E355620493A203841004241543A2031D4
:1015C000342E345620493A323041004F4B3D4D6560
:1015D0006E7500534554204F555450555420564F66
:1015E0004C54414745005345542043555252454EB3
:1015F00054204C494D4954002056002041006E6152
:101600006E00696E66006F76660055502F444E205E
:101610004F4B3D5341564500544956414E4120538E
:101620004F4C4152204D5050540056657273696FB3
:101630006E203100496E697469616C697A696E6700
:101640002E2E2E004D50505420537461747573200B
:10165000443D3637250050563A33382E355620351E
:101660002E3241004241543A31332E3856005359FC
:101670005354454D20494E464F00546976616E6182
:10168000204D50505400486F6D65004D505054200F
:101690005374617475730042617474657279205477
:1016A00079706500506F77657220537570706C7932
:1016B0000053797374656D20496E666F004C6974D0
:1016C0006869756D0047656C004C65616420416315
:0416D0006964000049
:107E0000112484B714BE81FFF0D085E080938100F7
:107E100082E08093C00088E18093C10086E0809377
:107E2000C20080E18093C4008EE0C9D0259A86E02C
:107E300020E33CEF91E0309385002093840096BBD3
:107E4000B09BFECF1D9AA8958150A9F7CC24DD24C4
:107E500088248394B5E0AB2EA1E19A2EF3E0BF2EE7
:107E6000A2D0813461F49FD0082FAFD0023811F036
:107E7000013811F484E001C083E08DD089C08234E0
:107E800011F484E103C0853419F485E0A6D080C0E4
:107E9000853579F488D0E82EFF2485D0082F10E0AE
:107EA000102F00270E291F29000F111F8ED06801E7
:107EB0006FC0863521F484E090D080E0DECF843638
:107EC00009F040C070D06FD0082F6DD080E0C81688
:107ED00080E7D80618F4F601B7BEE895C0E0D1E017
:107EE00062D089930C17E1F7F0E0CF16F0E7DF06D8
:107EF00018F0F601B7BEE89568D007B600FCFDCFD4
:107F0000A601A0E0B1E02C9130E011968C91119780
:107F100090E0982F8827822B932B1296FA010C0160
:107F200087BEE89511244E5F5F4FF1E0A038BF0790
:107F300051F7F601A7BEE89507B600FCFDCF97BE46
:107F4000E89526C08437B1F42ED02DD0F82E2BD052
:107F50003CD0F601EF2C8F010F5F1F4F84911BD097
:107F6000EA94F801C1F70894C11CD11CFA94CF0C13
:107F7000D11C0EC0853739F428D08EE10CD085E9AC
:107F80000AD08FE07ACF813511F488E018D01DD067
:107F900080E101D065CF982F8091C00085FFFCCF94
:107FA0009093C60008958091C00087FFFCCF809118
:107FB000C00084FD01C0A8958091C6000895E0E648
:107FC000F0E098E1908380830895EDDF803219F02E
:107FD00088E0F5DFFFCF84E1DECF1F93182FE3DFCA
:107FE0001150E9F7F2DF1F91089580E0E8DFEE27F6
:047FF000FF270994CA
:027FFE00040479
:00000001FF
