:020000040000FA
:100000000C945D000C9485000C9485000C94850084
:100010000C9485000C9485000C9485000C9485004C
:100020000C9485000C9485000C9485000C9485003C
:100030000C9485000C9485000C9485000C9485002C
:100040000C9481020C9485000C9485000C9485001E
:100050000C9485000C9485000C9485000C9485000C
:100060000C9485000C94850000000008000201003B
:100070000003040700000000000000000000000072
:10008000250028002B0000000000240027002A0083
:10009000040404040404040402020202020203032E
:1000A0000303030301020408102040800102040836
:1000B0001020010204081020350311241FBECFEFC9
:1000C000D8E0DEBFCDBF11E0A0E0B1E0E8EBF6E0A4
:1000D00002C005900D92A233B107D9F721E0A2E347
:1000E000B1E001C01D92A335B207E1F710E0CDE504
:1000F000D0E004C02197FE010E945403CC35D10703
:10010000C9F70E94CB020C945A030C94000090E0B3
:10011000FC01EC55FF4F249180579F4FFC018491C7
:10012000882399F090E0880F991FFC01EA57FF4F50
:10013000A591B491FC01E458FF4F859194918FB73C
:10014000F894EC91E22BEC938FBF0895AF92BF929D
:10015000CF92DF92EF92FF920F931F93CF93DF9393
:100160006C017B018B01040F151FEB015E01AE18C2
:10017000BF08C017D10759F06991D601ED91FC91E4
:100180000190F081E02DC6010995892B79F7C50111
:10019000DF91CF911F910F91FF90EF90DF90CF9063
:1001A000BF90AF90089590E0FC01E859FF4F249173
:1001B000FC01EC55FF4F3491FC01E057FF4FE491F7
:1001C000EE23C9F0222339F0233001F1A8F42130C5
:1001D00019F1223029F1F0E0EE0FFF1FE458FF4F34
:1001E000A591B4918FB7F894EC91611126C0309528
:1001F0003E233C938FBF08952730A9F02830C9F0E3
:10020000243049F7809180008F7D03C08091800069
:100210008F7780938000DFCF84B58F7784BDDBCF6D
:1002200084B58F7DFBCF8091B0008F778093B00035
:10023000D2CF8091B0008F7DF9CF3E2BDACF0895D9
:1002400090E080E00895FC0101900020E9F73197EB
:10025000AF01481B590BBC018BE391E00C94A60045
:10026000CF93DF93EC0160E08E810E94D30061E0C8
:100270008E810E94D30060E08E810E94D3008BE8C3
:1002800091E00197F1F7DF91CF910895CF92DF923E
:10029000EF92FF920F931F93CF93DF936C017C013A
:1002A00087E0E80EF11CD0E0C0E0062F10E0B801B6
:1002B0000C2E02C0759567950A94E2F76170F701FC
:1002C00081917F010E94D3002196C430D10579F736
:1002D000C601DF91CF911F910F91FF90EF90DF90BA
:1002E000CF900C943001CF92DF92EF92FF920F9358
:1002F0001F93CF93DF93EC01F62E642F8C810E9425
:10030000D3008D818F3F19F060E00E94D3000F2D44
:1003100010E08F8584FF25C06E0187E0C80ED11CD8
:10032000F12CE12CB8010E2C02C0759567950A944A
:10033000E2F76170F60181916F010E94D300FFEF37
:10034000EF1AFF0A88E0E816F10461F7CE01DF91A9
:10035000CF911F910F91FF90EF90DF90CF900C9471
:100360003001B80184E0759567958A95E1F7CE0173
:100370000E9446016F2DCE01DF91CF911F910F9109
:10038000FF90EF90DF90CF900C94460140E0682FF3
:100390008BE391E00C947301CF93DF93613029F0EC
:1003A00090914A01986090934A0160934E01109297
:1003B0004F0190E49093500180935101805C8093B1
:1003C000520180913F010E948700809140018F3F40
:1003D00011F00E948700809141010E948700CBE3C9
:1003E000D1E09E012B53314080914A0184FD0AC027
:1003F00084E090E02196281739073CF48E810E9412
:100400008700EFCF88E090E0F5CF8BE39DE0019788
:10041000F1F760E080913F010E94D30060E080919D
:1004200041010E94D300809140018F3F19F060E0AC
:100430000E94D30080914A0184FD39C063E08BE3C0
:1004400091E00E944601CBE4D6E4CE010197F1F79A
:1004500063E08BE391E00E9446012197F1F763E0AE
:100460008BE391E00E94460183E592E00197F1F76A
:1004700062E08BE391E00E94460180914A01806234
:100480000E94C60184E080934B018CE00E94C6016B
:1004900081E00E94C6018BE39FE10197F1F782E0C2
:1004A00080934C0186E0DF91CF910C94C60180626D
:1004B0000E94C6018BE496E40197F1F780914A010E
:1004C00080620E94C60183E592E00197F1F7809176
:1004D0004A0180620E94C601D0CF90914E018917D7
:1004E00010F08FEF890FE82FF0E0E55CFE4F848974
:1004F00080680C94C60141E00E94730181E090E0A5
:1005000008951F920F920FB60F9211242F933F93CD
:100510008F939F93AF93BF93809137019091380150
:10052000A0913901B0913A013091360123E0230FB7
:100530002D3758F50196A11DB11D209336018093EA
:10054000370190933801A0933901B0933A0180911B
:10055000320190913301A0913401B091350101969F
:10056000A11DB11D8093320190933301A0933401FA
:10057000B0933501BF91AF919F918F913F912F9192
:100580000F900FBE0F901F90189526E8230F02962C
:10059000A11DB11DD2CF789484B5826084BD84B58D
:1005A000816084BD85B5826085BD85B5816085BD6E
:1005B00080916E00816080936E0010928100809126
:1005C00081008260809381008091810081608093AE
:1005D0008100809180008160809380008091B100D3
:1005E00084608093B1008091B00081608093B000FE
:1005F00080917A00846080937A0080917A00826092
:1006000080937A0080917A00816080937A00809153
:100610007A00806880937A001092C10064E084E1DF
:100620000E94CC0180E00E946D028CE091E00E946B
:10063000230181E00E946D0284E191E00E94230188
:1006400082E00E946D028FE191E00E94230183E02D
:100650000E946D028AE291E00E942301C0E0D0E096
:100660002097F1F30E940000FBCFEBE3F1E013824F
:10067000128284E091E09183808383E084838FEF12
:10068000858382E0868384E0878385E0808786E0B7
:10069000818787E0828713861486158616861786DB
:1006A00061E080E10C94CC01EE0FFF1F0590F49106
:1006B000E02D0994F894FFCF000000007B02A60013
:1006C00020011F0157656C636F6D650046726F6D89
:1006D00020455350333200696E2050726F74657537
:0A06E0007300526561647921000087
:107E0000112484B714BE81FFF0D085E080938100F7
:107E100082E08093C00088E18093C10086E0809377
:107E2000C20080E18093C4008EE0C9D0259A86E02C
:107E300020E33CEF91E0309385002093840096BBD3
:107E4000B09BFECF1D9AA8958150A9F7CC24DD24C4
:107E500088248394B5E0AB2EA1E19A2EF3E0BF2EE7
:107E6000A2D0813461F49FD0082FAFD0023811F036
:107E7000013811F484E001C083E08DD089C08234E0
:107E800011F484E103C0853419F485E0A6D080C0E4
:107E9000853579F488D0E82EFF2485D0082F10E0AE
:107EA000102F00270E291F29000F111F8ED06801E7
:107EB0006FC0863521F484E090D080E0DECF843638
:107EC00009F040C070D06FD0082F6DD080E0C81688
:107ED00080E7D80618F4F601B7BEE895C0E0D1E017
:107EE00062D089930C17E1F7F0E0CF16F0E7DF06D8
:107EF00018F0F601B7BEE89568D007B600FCFDCFD4
:107F0000A601A0E0B1E02C9130E011968C91119780
:107F100090E0982F8827822B932B1296FA010C0160
:107F200087BEE89511244E5F5F4FF1E0A038BF0790
:107F300051F7F601A7BEE89507B600FCFDCF97BE46
:107F4000E89526C08437B1F42ED02DD0F82E2BD052
:107F50003CD0F601EF2C8F010F5F1F4F84911BD097
:107F6000EA94F801C1F70894C11CD11CFA94CF0C13
:107F7000D11C0EC0853739F428D08EE10CD085E9AC
:107F80000AD08FE07ACF813511F488E018D01DD067
:107F900080E101D065CF982F8091C00085FFFCCF94
:107FA0009093C60008958091C00087FFFCCF809118
:107FB000C00084FD01C0A8958091C6000895E0E648
:107FC000F0E098E1908380830895EDDF803219F02E
:107FD00088E0F5DFFFCF84E1DECF1F93182FE3DFCA
:107FE0001150E9F7F2DF1F91089580E0E8DFEE27F6
:047FF000FF270994CA
:027FFE00040479
:00000001FF
