:020000040000FA
:100000000C9462000C948A000C948A000C948A0070
:100010000C948A000C948A000C948A000C948A0038
:100020000C948A000C948A000C948A000C948A0028
:100030000C948A000C948A000C948A000C948A0018
:100040000C94480B0C948A000C948A000C948A003F
:100050000C948A000C948A000C948A000C948A00F8
:100060000C948A000C948A000000000024002700F1
:100070002A0000000000250028002B0000000000DE
:1000800023002600290004040404040404040202DA
:100090000202020203030303030301020408102007
:1000A0004080010204081020010204081020000012
:1000B0000008000201000003040700000000000027
:1000C00000009C1411241FBECFEFD8E0DEBFCDBFCF
:1000D00015E0A0E0B1E0E2E9FEE202C005900D9279
:1000E000A834B107D9F725E0A8E4B5E001C01D9216
:1000F000A33CB207E1F710E0C2E6D0E004C02197CC
:10010000FE010E944117C136D107C9F70E94920B28
:100110000C9447170C940000AF92BF92CF92DF92DD
:10012000EF92FF920F931F93CF93DF936C017B01AC
:100130008B01040F151FEB015E01AE18BF08C0173D
:10014000D10759F06991D601ED91FC910190F081B0
:10015000E02DC6010995892B79F7C501DF91CF9173
:100160001F910F91FF90EF90DF90CF90BF90AF90D5
:100170000895833081F028F4813099F08230A9F01D
:1001800008958730A9F08830C9F08430B1F48091A7
:1001900080008F7D03C0809180008F7780938000E6
:1001A000089584B58F7784BD089584B58F7DFBCF86
:1001B0008091B0008F778093B00008958091B00057
:1001C0008F7DF9CFCF93DF93282F30E0F901E255EF
:1001D000FF4F8491F901E656FF4FD491F901EA5798
:1001E000FF4FC491CC23A1F081110E94B900EC2FE4
:1001F000F0E0EE0FFF1FE458FF4FA591B491EC9192
:10020000ED2381E090E009F480E0DF91CF91089543
:1002100080E090E0FACF1F93CF93DF93282F30E058
:10022000F901E255FF4F8491F901E656FF4FD49151
:10023000F901EA57FF4FC491CC23A9F0162F811181
:100240000E94B900EC2FF0E0EE0FFF1FEE58FF4FB9
:10025000A591B4918FB7F894EC91111108C0D09585
:10026000DE23DC938FBFDF91CF911F910895DE2BAA
:10027000F8CFCF93DF9390E0FC01E656FF4F249137
:100280008A579F4FFC0184918823D1F090E0880F1A
:10029000991FFC01E859FF4FA591B491FC01EE585C
:1002A000FF4FC591D491623071F49FB7F8943C919F
:1002B000822F809583238C93E8812E2B28839FBFE8
:1002C000DF91CF9108958FB7F894EC912E2B2C935A
:1002D0008FBFF6CF3FB7F89480914D0590914E05B2
:1002E000A0914F05B091500526B5A89B05C02F3FA2
:1002F00019F00196A11DB11D3FBFBA2FA92F982F4C
:100300008827BC01CD01620F711D811D911D42E046
:10031000660F771F881F991F4A95D1F708958F920E
:100320009F92AF92BF92CF92DF92EF92FF924B01DA
:100330005C010E946A016B017C010E946A016C19D8
:100340007D098E099F09683E734081059105A8F3D8
:1003500021E0821A9108A108B10888EEC80E83E056
:10036000D81EE11CF11C81149104A104B10429F7E9
:10037000FF90EF90DF90CF90BF90AF909F908F90C5
:1003800008952FB7F8946091490570914A058091BE
:100390004B0590914C052FBF0895089590E080E0A3
:1003A00008958130910519F15CF4892BB9F06091C1
:1003B000120170911301809114019091150108951B
:1003C00082309105E9F0039791F760910E017091E9
:1003D0000F01809110019091110108956091020127
:1003E000709103018091040190910501089560913D
:1003F000060170910701809108019091090108950B
:1004000060910A0170910B0180910C0190910D0196
:100410000895CF92DF92EF92FF920F931F93CF93A5
:10042000DF938B01D82FC92FF42E20E030E0A901F3
:100430000E94281587FD47C023E333E343E75FE3CA
:10044000B8018D2F9C2F0E948016181624F403E308
:1004500013E3D3E7CFE3FF20D9F1C801AD2FBC2FC1
:100460008093A3059093A405A093A505B093A6053A
:1004700020E030E04FE753E46091A3057091A405BC
:100480008091A5059091A6050E9485169B01AC015F
:1004900060E070E08FE793E40E94BB140E949F1518
:1004A000C62F61E08AE00E943901C11156C060E0A8
:1004B0008AE0DF91CF911F910F91FF90EF90DF9035
:1004C000CF900C940B0100E010E0D0E0C0E0C3CF6F
:1004D000C090A305D090A405E090A505F090A605D6
:1004E00080917001A7019601B8018823E1F08D2F5A
:1004F0009C2F0E9480162AE037ED43EA5BE3181632
:100500000CF0ABCFC701B6010E94BC146B017C019B
:1005100098014D2F5C2F0E94281587FD1BC0680194
:10052000ED2EFC2E17C08D2F9C2F0E9480162AE0E6
:1005300037ED43EA5BE318162CF3C701B6010E94BE
:10054000BB146B017C0198014D2F5C2F0E9480161B
:1005500018162CF7C601D70183CFCF3F11F461E005
:10056000A7CFE8EBF0E0E491E33059F138F4E13063
:10057000B1F0E23009F1C7FDF2CF99CFE73061F178
:10058000E83091F1E430B9F7809180008062809387
:100590008000D0E0D0938B00C0938A0004C084B563
:1005A000806884BDC7BDDF91CF911F910F91FF90EF
:1005B000EF90DF90CF90089584B5806284BDC8BD70
:1005C000F2CF80918000806880938000D0E0D0934B
:1005D0008900C0938800E7CF8091B0008068809345
:1005E000B000C093B300DFCF8091B00080628093F1
:1005F000B000C093B400D7CF4F925F926F927F92BA
:100600008F929F92AF92BF92CF92DF92EF92FF9222
:10061000CF93DF93CDB7DEB728970FB6F894DEBF40
:100620000FBECDBF2B013C012D833E834F835887E6
:10063000809170018823A9F00E94C101C090A70594
:10064000D090A805E090A905F090AA056C197D0945
:100650008E099F09613D77408105910510F0109248
:100660007001C090A305D090A405E090A505F0907E
:10067000A60580908F0590909005A0909105B09070
:1006800092058091930590919405A0919505B09164
:10069000960589839A83AB83BC832DEC3CEC4CE4B8
:1006A0005EE36D817E818F8198850E94BC149B01E1
:1006B000AC0169817A818B819C810E9480162DEC2E
:1006C0003CEC4CE45DE31816ACF02DEC3CEC4CE457
:1006D0005EE3C301B2010E94BC149B01AC01C501E1
:1006E000B4010E94801618160CF04EC02AE037EDB7
:1006F00043EA5CE3C701B6010E94BB146B017C01B5
:1007000020E030E040E85FE3C501B4010E94BC1482
:100710009B01AC01609187057091880580918905E6
:1007200090918A050E94281587FD84C02AE037ED44
:1007300043EA5CE3C701B6010E94281587FD7AC031
:1007400024EA30E74DE75FE3C701B6010E94801657
:1007500018160CF478C040E0C701B60128960FB611
:10076000F894DEBF0FBECDBFDF91CF91FF90EF9029
:10077000DF90CF90BF90AF909F908F907F906F90C1
:100780005F904F900C9409022DEC3CEC4CE45EE33E
:10079000C301B2010E94BB149B01AC01C501B401AD
:1007A0000E94281587FF2EC0A5019401C301B20144
:1007B0000E94BB1420E030E040E05FE30E94851619
:1007C0002B013C0120E030E0A9010E9428152AE01D
:1007D00037ED43EA5CE387FD10C02DEC3CEC4CE4C4
:1007E0005DE3C301B2010E9485162AE037ED43EABA
:1007F0005CE30E94BC149B01AC01C701B6010E94DE
:10080000BC147CCF29813A814B815C816D817E81D2
:100810008F8198850E94BB142DEC3CEC4CEC5DE381
:100820000E94801618160CF06BCF2AE037ED43E2D9
:100830005CE3E3CF9AE0C92E97EDD92E93EAE92E37
:100840009CE3F92E88CF84EAC82E80E7D82E8DE766
:10085000E82E8FE3F82E7FCFCF92DF92EF92FF92B8
:1008600020E130E040E050E0BA018E508064809397
:100870007C0090917A00906490937A0090917A0035
:1008800096FDFCCFC0907800D09079000D2C000C24
:10089000EE08FF084C0D5D1D6E1D7F1D21503109B6
:1008A00031F7CB01BA010E94CE1520E030E040E8DC
:1008B0005DE30E9485162DE038E643E55BE30E9488
:1008C0008516FF90EF90DF90CF9008958F929F92C2
:1008D000AF92BF92CF92DF92EF92FF920E942C04D0
:1008E0002091320130913301409134015091350112
:1008F0000E9485164B015C01C0902A01D0902B010B
:10090000E0902C01F0902D0120E030E0A901C7011A
:10091000B6010E9480161816A4F02091260130918D
:100920002701409128015091290160912201709185
:10093000230180912401909125010E9485166B016D
:100940007C0120912E0130912F0140913001509176
:100950003101C501B4010E94BB14A70196010E9498
:100960002D15FF90EF90DF90CF90BF90AF909F90AC
:100970008F90089590916F05992349F060916801D7
:100980007091690180916A0190916B0108952091A5
:10099000750530917605882369F08EE0829FF0011D
:1009A000839FF00D1124E65CFE4F66817781808580
:1009B000918508958EE0829FF001839FF00D1124B0
:1009C000E65CFE4F62817381848195810895FC010C
:1009D00001900020E9F73197AF01481B590BBC018A
:1009E0008BEA95E00C948C008F929F92AF92BF920D
:1009F0000F931F93CF93DF93CDB7DEB7A1970FB6B9
:100A0000F894DEBF0FBECDBF19A2423008F44AE011
:100A10008E010F5D1F4F842E912CB12CA12CA501AE
:100A200094010E940B17E62FB901CA01EA30F4F4D1
:100A3000E05DD801EE938D01232B242B252B79F734
:100A400090E080E0109719F0CD010E94E704A19694
:100A50000FB6F894DEBF0FBECDBFDF91CF911F91CF
:100A60000F91BF90AF909F908F900895E95CE1CF78
:100A7000009711F00C94E70490E080E00895CF9384
:100A8000DF93EC0160E08E810E940B0161E08E81BA
:100A90000E940B0160E08E810E940B018BE891E0C7
:100AA0000197F1F7DF91CF910895CF92DF92EF9206
:100AB000FF920F931F93CF93DF936C017C0187E02C
:100AC000E80EF11CD0E0C0E0062F10E0B8010C2EBB
:100AD00002C0759567950A94E2F76170F7018191FC
:100AE0007F010E940B012196C430D10579F7C60120
:100AF000DF91CF911F910F91FF90EF90DF90CF90FA
:100B00000C943F05CF92DF92EF92FF920F931F93C9
:100B1000CF93DF93EC01F62E642F8C810E940B01A2
:100B20008D818F3F19F060E00E940B010F2D10E0C6
:100B30008F8584FF25C06E0187E0C80ED11CF12C83
:100B4000E12CB8010E2C02C0759567950A94E2F766
:100B50006170F60181916F010E940B01FFEFEF1AA6
:100B6000FF0A88E0E816F10461F7CE01DF91CF912A
:100B70001F910F91FF90EF90DF90CF900C943F0565
:100B8000B80184E0759567958A95E1F7CE010E94DA
:100B900055056F2DCE01DF91CF911F910F91FF90E1
:100BA000EF90DF90CF900C94550540E0682F8BEAD2
:100BB00095E00C94820581E00E94D5058BE39FE1CE
:100BC0000197F1F70895CF93DF93613029F0909169
:100BD000BA0598609093BA056093BE051092BF0560
:100BE00090E49093C0058093C105805C8093C2051A
:100BF00061E08091AF050E9439018091B0058F3F7F
:100C000019F061E00E94390161E08091B1050E9414
:100C10003901CBEAD5E09E012B5A35408091BA05C7
:100C200084FD0BC084E090E021962817390744F436
:100C300061E08E810E943901EECF88E090E0F4CF30
:100C40008BE39DE00197F1F760E08091AF050E9492
:100C50000B0160E08091B1050E940B018091B0050D
:100C60008F3F19F060E00E940B018091BA0584FD6E
:100C700034C063E08BEA95E00E945505CBE4D6E4EE
:100C8000CE010197F1F763E08BEA95E00E945505EC
:100C90002197F1F763E08BEA95E00E94550583E523
:100CA00092E00197F1F762E08BEA95E00E9455052A
:100CB0008091BA0580620E94D50584E08093BB05CF
:100CC0008CE00E94D5050E94DB0582E08093BC0584
:100CD00086E0DF91CF910C94D50580620E94D50506
:100CE0008BE496E40197F1F78091BA0580620E9447
:100CF000D50583E592E00197F1F78091BA0580620E
:100D00000E94D505D5CF9091BE05691710F06FEF01
:100D1000690FE62FF0E0E555FA4F9489890F806856
:100D20000C94D5050E94DB0560E080E00E948306FC
:100D300089E092E00E94380561E080E00E9483062D
:100D400080917F0590918005892B41F18EEB91E098
:100D50000E94380562E080E00E94830680917F0552
:100D6000909180050197E9F08FED91E00E943805A0
:100D700063E080E00E94830680917F05909180056A
:100D8000029791F082EF91E00E94380580916F0503
:100D900081110DC080E092E00C9438058DEA91E05D
:100DA000D7CF8FEC91E0E2CF8FEE91E0EDCF85EFE2
:100DB00091E0F2CFCF93DF93C0917F05D091800572
:100DC0000E94DB0560E080E00E9483068EE08C9F3D
:100DD000F0018D9FF00D1124E65CFE4F8081918122
:100DE0000E94380580E792E00E94380561E080E0CB
:100DF0000E94830680917D0590917E05892B11F1DB
:100E000085E292E00E94380562E080E00E9483065D
:100E100080917D0590917E050197B9F084E492E080
:100E20000E94380563E080E00E94830680917D0582
:100E300090917E05029761F082E692E0DF91CF917A
:100E40000C94380586E192E0DDCF84E392E0E8CFB0
:100E500084E592E0F3CF0F931F93CF93DF930E942B
:100E6000DB0560E080E00E9483068AE792E00E9452
:100E700038050AE311E0D0E0C0E06C2F6F5F80E03E
:100E80000E94830680917F05909180058C179D07B5
:100E9000F9F082EF91E00E943805F801808191819C
:100EA0000E94380580917505909176058C179D07F5
:100EB00021F486E893E00E9438052196025F1F4FD7
:100EC000C330D105D1F6DF91CF911F910F910895D5
:100ED0008FEE91E0E0CF0F931F93CF93DF930E94AB
:100EE000DB0560E080E00E94830687E892E00E94D4
:100EF000380510E000E0C0918105D0918205C00F57
:100F0000D11FC630D105ECF461E0600F80E00E9493
:100F1000830680918305909184058C179D07B1F01D
:100F200082EF91E00E943805CC0FDD1FCB56DE4FDB
:100F3000888199810E9438050F5F1F4F033011058A
:100F4000D1F6DF91CF911F910F9108958FEE91E02F
:100F5000E9CF41E00E94820581E090E008954F9240
:100F60005F926F927F928F929F92AF92BF92CF9239
:100F7000DF92EF92FF921F93CF93DF936B017C017F
:100F8000142FAC019B010E94F216882399F081E98D
:100F900092E0DF91CF911F91FF90EF90DF90CF9083
:100FA000BF90AF909F908F907F906F905F904F9089
:100FB0000C94E70446015701E894B7F82FEF3FEF90
:100FC0004FE75FE7C501B4010E94F21681110DC021
:100FD0002FEF3FEF4FE75FE7C501B4010E942815EF
:100FE00018161CF485E992E0D4CF2FEF3FEF4FE7BE
:100FF0005FE4C701B6010E94801618161CF489E947
:1010000092E0C7CF2FEF3FEF4FE75FECC701B6018C
:101010000E94281587FDF3CF20E030E0A901C70129
:10102000B6010E942815D0E0C0E087FF0CC041E067
:101030006DE28BEA95E00E948205F7FAF094F7F8EA
:10104000F094C1E0D0E020E060E070E080E09FE359
:10105000211740F420E030E040E251E40E942D15D9
:1010600021E0F6CFA70196010E94BC142B013C01A0
:101070000E949F154B015C014AE00E94F4047C0130
:10108000EC0EFD1E112311F141E06EE28BEA95E0BA
:101090000E9482058FEFE81AF80AC501B4010E9488
:1010A000CE159B01AC01C301B2010E94BB1420E02C
:1010B00030E040E251E40E9485160E949F1590E0C6
:1010C00080E04AE00E94F404E80EF91EC701DF91B7
:1010D000CF911F91FF90EF90DF90CF90BF90AF9096
:1010E0009F908F907F906F905F904F900895CF93D7
:1010F000DF93CDB7DEB72A970FB6F894DEBF0FBEE9
:10110000CDBF0E94DB0560E080E00E94830686EA96
:1011100092E00E94380580917B0590917C052AE041
:10112000E1E7F1E0DE01119601900D922A95E1F7D9
:10113000FC01EE0FFF1F81E090E08C0F9D1FE80F78
:10114000F91F808191810E94380561E080E00E9452
:10115000830660917705709178058091790590916B
:101160007A0541E050E00E94AF0780917B059091A5
:101170007C0583309105B1F00497B9F083EA92E0E1
:101180000E94380563E080E00E9483068BEA92E0CB
:101190002A960FB6F894DEBF0FBECDBFDF91CF9178
:1011A0000C9438058DE992E0EBCF80EA92E0E8CF2D
:1011B000CF93DF93CDB7DEB72A970FB6F894DEBF93
:1011C0000FBECDBF0E94DB0560E080E00E94830679
:1011D0008BE093E00E94380561E080E00E94830686
:1011E0008FEE91E00E94380580917B0590917C05FF
:1011F0002AE0E1E7F1E0DE01119601900D922A95D7
:10120000E1F7FC01EE0FFF1F81E090E08C0F9D1FC6
:10121000E80FF91F808191810E94380562E080E02B
:101220000E94830680917B0590917C050E94D101EC
:1012300041E050E00E94AF0780917B0590917C05D2
:1012400083309105B1F00497B9F083EA92E00E94EF
:10125000380563E080E00E94830689E193E02A96E6
:101260000FB6F894DEBF0FBECDBFDF91CF910C94C7
:1012700038058DE992E0EBCF80EA92E0E8CFCF939A
:10128000C82F0E94DB0560E080E00E9483068AE3AD
:1012900093E0CC2311F087E293E00E94380561E0EF
:1012A00080E00E948306CC23E9F060916801709190
:1012B000690180916A0190916B0141E050E00E94C8
:1012C000AF078DE992E0CC2311F083EA92E00E940F
:1012D000380563E080E00E9483068BEA92E0CF91BC
:1012E0000C943805609164017091650180916601EC
:1012F00090916701E2CF0E94DB0560E080E00E94F0
:1013000083068CE793E00E94380561E080E00E944C
:10131000830680917F0590918005892BD1F188E526
:1013200093E00E9438056091680170916901809195
:101330006A0190916B0141E050E00E94AF0784EA9E
:1013400092E00E94380562E080E00E94830680916E
:101350007F05909180050197F9F080E793E00E9466
:1013600038056091640170916501809166019091EA
:10137000670141E050E00E94AF078EE992E00E94D1
:10138000380563E080E00E94830689E893E00C94CE
:1013900038058CE493E0C5CF84E693E0E0CFCF93AB
:1013A000DF9300D000D000D0CDB7DEB786E0EBE70A
:1013B000F1E0DE01119601900D928A95E1F70E940D
:1013C000DB0560E080E00E948306E0917D05F091FE
:1013D0007E05EE0FFF1F81E090E08C0F9D1FE80F50
:1013E000F91F808191810E94380561E080E00E94B0
:1013F00083066091770570917805809179059091C9
:101400007A0541E050E00E94AF0780917D05909100
:101410007E050297A1F083EA92E00E94380563E01E
:1014200080E00E9483068BEA92E026960FB6F8943D
:10143000DEBF0FBECDBFDF91CF910C9438058DE993
:1014400092E0EBCF0E94DB0560E080E00E94830623
:1014500080916F05811171C081EE93E00E94380583
:1014600061E080E00E9483068DEE93E00E943805E3
:1014700060919F057091A0058091A1059091A205B2
:1014800050E040E00E94AF0783EF93E00E943805F0
:1014900020E030E048EC52E46091A3057091A4058F
:1014A0008091A5059091A6050E94851650E040E028
:1014B0000E94AF0788EF93E00E94380562E080E069
:1014C0000E9483068AEF93E00E94380580E00E9424
:1014D000BA0441E050E00E94AF0782E094E00E942D
:1014E000380580916F05882359F1609164017091EE
:1014F0006501809166019091670141E050E00E9492
:10150000AF078EE992E00E94380563E080E00E9418
:10151000830682E494E00E94380560919B057091F7
:101520009C0580919D0590919E0550E040E00E94B1
:10153000AF0785E094E00C9438058FEC93E08ECFF4
:1015400080917505909176052EE0289FF001299FE6
:10155000F00D1124E65CFE4F6285738584859585C8
:10156000CCCF0E94DB0560E080E00E948306809182
:101570006D0590916E05892B09F476C084E394E0A3
:101580000E94380580916D0590916E050197853018
:10159000910540F4880F991FFC01EF57FE4F8081A1
:1015A000918102C081E194E00E94380561E080E011
:1015B0000E9483068CE394E00E94380560918705C1
:1015C000709188058091890590918A0541E050E0ED
:1015D0000E94AF0782E094E00E94380560918B057D
:1015E00070918C0580918D0590918E0541E050E0C1
:1015F0000E94AF078EE992E00E94380562E080E029
:101600000E94830680E494E00E94380560918F0573
:1016100070919005809191059091920541E050E084
:101620000E94AF0782E094E00E9438056091930524
:1016300070919405809195059091960541E050E058
:101640000E94AF078EE992E00E94380563E080E0D7
:101650000E94830680916D0590916E05892BA9F0FB
:1016600083E294E00C9438058091720590917305A3
:1016700001978530910530F4880F991FFC01E557DB
:10168000FE4F8DCF86E194E08FCF8BE194E0EACFDF
:101690001F920F920FB60F9211242F933F938F93A7
:1016A0009F93AF93BF938091490590914A05A09174
:1016B0004B05B0914C053091480523E0230F2D37A1
:1016C00058F50196A11DB11D209348058093490549
:1016D00090934A05A0934B05B0934C0580914D051E
:1016E00090914E05A0914F05B09150050196A11D16
:1016F000B11D80934D0590934E05A0934F05B09377
:101700005005BF91AF919F918F913F912F910F9075
:101710000FBE0F901F90189526E8230F0296A11D6B
:10172000B11DD2CFCF93DF9300D000D0CDB7DEB7BD
:10173000789484B5826084BD84B5816084BD85B5AC
:10174000826085BD85B5816085BD80916E008160B8
:1017500080936E001092810080918100826080935E
:101760008100809181008160809381008091800060
:101770008160809380008091B10084608093B1008B
:101780008091B00081608093B00080917A00846085
:1017900080937A0080917A00826080937A008091B1
:1017A0007A00816080937A0080917A0080688093CB
:1017B0007A001092C10064E084E10E94E30562E0D7
:1017C00089E00E94390162E088E00E94390162E00C
:1017D0008BE00E94390162E08CE00E94390161E0F7
:1017E0008AE00E94390160E08AE00E940B0141E03A
:1017F00060E070E0CB010E9409020E94DB0560E01E
:1018000082E00E94830685E494E00E94380562E04D
:1018100081E00E94830687E594E00E9438056CED24
:1018200075E080E090E00E948F010E94B10A03E021
:1018300010E0F4E02F2E312C0E94C101C090510520
:10184000D0905205E0905305F09054056C197D0935
:101850008E099F09643671058105910508F48AC0D7
:101860000E94C10160935105709352058093530506
:10187000909354058EE00E942C0420911601309123
:10188000170140911801509119010E9485164B01D2
:101890005C018092870590928805A0928905B0929C
:1018A0008A058FE00E9466046B017C01C0928B0563
:1018B000D0928C05E0928D05F0928E0580E10E9419
:1018C0002C049B01AC0160911A0170911B01809165
:1018D0001C0190911D010E94851660938F057093E5
:1018E0009005809391059093920581E10E94660492
:1018F0006093930570939405809395059093960556
:1019000082E10E942C049B01AC0160911E01709148
:101910001F0180912001909121010E948516609302
:101920009705709398058093990590939A0583E1A4
:101930000E942C04209136013091370140913801EA
:10194000509139010E942D1560939B0570939C0561
:1019500080939D0590939E05A5019401C701B60152
:101960000E94851660939F057093A0058093A10542
:101970009093A20581E02091720530917305233088
:10198000310509F080E00E94BA04C0900A01D090AD
:101990000B01E0900C01F0900D012DEC3CEC4CE4BF
:1019A0005FE30E94BC143B018A8399839B01AC01D5
:1019B000B601C7010E94801618161CF43601EA828F
:1019C000F982C0908705D0908805E0908905F09055
:1019D0008A05209102013091030140910401509148
:1019E0000501C701B6010E94801618160CF442C109
:1019F00080908F0590909005A0909105B0909205F1
:101A000020E030E0A901C501B4010E94801687FDE5
:101A100034C120E030E040EA51E4C501B4010E9445
:101A2000281518160CF429C193014A815981C50162
:101A3000B4010E94801618160CF41FC120E030E09B
:101A400040E85EE360910E0170910F0180911001FA
:101A5000909111010E94BC149B01AC01609193050F
:101A60007091940580919505909196050E9480163D
:101A700018160CF405C12091120130911301409108
:101A800014015091150160919B0570919C05809106
:101A90009D0590919E050E948016181664F484E0BE
:101AA00090E090936E0580936D0525E030E03093D3
:101AB0007305209372050E94C10180906505909086
:101AC0006605A0906705B0906805681979098A09CC
:101AD0009B09623371058105910558F180916D056F
:101AE00090916E05892B29F50E94C10160936505CF
:101AF00070936605809367059093680580916F05E4
:101B0000882309F4C0C03092730520927205209199
:101B100064013091650140916601509167016091C7
:101B200068017091690180916A0190916B010E9436
:101B3000FC020E94C101C0906905D0906A05E09046
:101B40006B05F0906C056C197D098E099F09643F47
:101B500071408105910598F00E94C101609369056B
:101B600070936A0580936B0590936C058091850551
:101B700090918605009709F0A5C20E94B10A8BE0FA
:101B80000E94E2007C0141E04983892B09F419821B
:101B90008CE00E94E2009B838A83BB24B394892B50
:101BA00009F4B12C89E00E94E2004C01AA24A3941C
:101BB000892B09F4A12C88E00E94E2007724739419
:101BC000009709F4712C20916F01222321F021E06C
:101BD000EF2809F020E030916E01332331F031E03D
:101BE000EA81FB81EF2B09F030E060906D01662007
:101BF00029F066246394892809F0612CF0916C0126
:101C0000FA83FF2329F041E04A83892B09F01A82E5
:101C100021115EC2311160C2662079F08091850584
:101C200090918605009709F016C421E030E03093CA
:101C30008605209385050E946B075A81552309F478
:101C40000AC68091850590918605009709F0F2C536
:101C500080916D0590916E05892B09F4FCC5109259
:101C60006E0510926D0510927305109272050E9418
:101C7000B10AF1C581E090E014CF82E090E011CF8D
:101C800083E090E00ECF80908F0590909005A0901B
:101C90009105B090920520E030E040E85FE3C50197
:101CA000B4010E94BC149B01AC01C701B6010E94A3
:101CB000281587FF0BC0109273051092720541E042
:101CC00060E070E0CB010E94090233CF40917505BE
:101CD000509176055B834A838091720590917305DC
:101CE000892B09F04DC081E090E0909373058093BB
:101CF00072052DEC3CEC4CEC5DE3C701B6010E9493
:101D0000281518160CF01DC180E00E94BA04A70126
:101D100096010E942D156B017C0120E030E0A901A5
:101D20000E94281587FD0DC123E333E343E75FE3FA
:101D3000C701B6010E94801618163CF4E3E3CE2ECC
:101D4000DC2CE3E7EE2EEFE3FE2EC0926105D0928D
:101D50006205E0926305F092640541E060E070E0A6
:101D6000CB010E94090291E0909370010E94C10191
:101D70006093A7057093A8058093A9059093AA0581
:101D800080917205909173058130910509F0E6C04C
:101D90000E94C101C0905905D0905A05E0905B05A2
:101DA000F0905C056C197D098E099F096A3F7105E9
:101DB0008105910508F46FC00E94C1016093590527
:101DC00070935A0580935B0590935C0540909F0546
:101DD0005090A0056090A1057090A2052091550536
:101DE000309156054091570550915805C301B201F5
:101DF0000E94281587FF0BC080910001909101017E
:101E000091958195910990930101809300016091D2
:101E1000000170910101072E000C880B990B0E94A4
:101E2000D0152AE037ED43EA5BE30E948516209146
:101E300061053091620540916305509164050E94EF
:101E4000BC146B017C012AE037ED43EA5CE30E949D
:101E5000281587FD7AC026E636E646E65FE3C70129
:101E6000B6010E948016181634F476E6C72EDC2CD4
:101E7000EC2C7FE3F72EC0926105D0926205E092D0
:101E80006305F092640540925505509256056092A4
:101E90005705709258058EE02A813B81829FF001A0
:101EA000839FF00D1124E65CFE4F428453846484CA
:101EB0007584C0900E01D0900F01E0901001F09059
:101EC00011019601A701B201C3010E94281587FFE5
:101ED00002C0620173012EE04A815B81249FC00130
:101EE000259F900D1124865C9E4FFC0142805380FB
:101EF000648075809601A701C301B2010E94FC02B3
:101F00002DEC3CEC4CE45DE3C301B2010E94BB1438
:101F10009B01AC01C501B4010E94801687FD09CE6A
:101F200022E030E030937305209372050E94C101D6
:101F300060935D0570935E0580935F0590936005E7
:101F4000F8CDC12CD12C760100CF6AE0C62E67ED0A
:101F5000D62E63EAE62E6CE3F62E8DCF8230910505
:101F600009F061C08EE04A815B81849FF001859F0A
:101F7000F00D1124E65CFE4FC284D384E484F58422
:101F800080900E0190900F01A0901001B09011016F
:101F90009401A501B601C7010E94281587FF02C060
:101FA000460157012EE0EA81FB812E9FC0012F9F41
:101FB000900D1124865C9E4FFC01628173818481A7
:101FC00095819401A5010E94FC020E94C1018090AC
:101FD0005D0590905E05A0905F05B0906005681962
:101FE00079098A099B09603477478B419105B0F4E0
:101FF0002DEC3CEC4CEC5DE3B601C7010E9485166C
:102000009B01AC01609193057091940580919505B9
:10201000909196050E94281587FF8BCD109373052C
:102020000093720586CD039709F083CD8EE02A8157
:102030003B81829FF001839FF00D1124E65CFE4FEF
:102040004284538464847584C0900E01D0900F0143
:10205000E0901001F09011019601A701B201C301B7
:102060000E94281587FF02C0620173012EE04A8199
:102070005B81249FC001259F900D1124865C9E4F9B
:10208000FC0146805780608471849601A701C301DA
:10209000B2010E94FC022DEC3CEC4CEC5EE3C3016F
:1020A000B2010E94BB149B01AC01C501B4010E94A6
:1020B000281587FF3ECD21E030E030937305209353
:1020C000720537CD029709F05ACD0E94220A57CDEA
:1020D0008FEF9FEF332311F081E090E06091850551
:1020E000709186056130710559F520918305309115
:1020F0008405820F931F069666E070E00E94F71633
:102100009093840580938305209181053091820509
:102110008217930724F49093820580938105209180
:102120008105309182052E5F3F4F281739072CF427
:10213000029790938205809381050E946B076CCD76
:102140006330710581F420917F0530918005820F05
:10215000931F03960E94F7169093800580937F0546
:102160000E942B0759CD6430710589F420917D05BB
:1021700030917E05820F931F0396B8010E94F716D7
:1021800090937E0580937D050E94DA0645CD6630EA
:10219000710589F420917F0530918005820F931F8E
:1021A0000396B8010E94F7169093800580937F05EF
:1021B0000E94920631CD6A30710591F420917B0521
:1021C00030917C05820F931F059665E070E00E94B8
:1021D000F71690937C0580937B050E94D8081CCD50
:1021E0006930710591F420917F0530918005820F4F
:1021F000931F029662E070E00E94F71690938005AC
:1022000080937F050E947B0907CD6530710509F039
:1022100050C06DEC7CEC8CEC9DE3211104C06DECA6
:102220007CEC8CEC9DEB209177053091780540910A
:10223000790550917A050E94BC142B014C0120E0D5
:1022400030E0A9010E94281587FD2EC080917D05F0
:1022500090917E05D12CE12C029709F558ECF52ED2
:1022600052E45C832D2D3E2D4F2D5C81B201C401C3
:102270000E948016181624F0D42CE52CF82C9C8291
:102280008D2D9E2DAF2DBC81809377059093780581
:10229000A0937905B0937A050E94CF09BDCC40E7A1
:1022A000F42E82E48C83DECFD12CE12CF12C1C8225
:1022B000E7CF67307105E9F56DEC7CEC8CEC9DE3C4
:1022C000211104C06DEC7CEC8CEC9DEB209168013D
:1022D0003091690140916A0150916B010E94BC14D8
:1022E0006B017C0120E030E0A9010E94281587FDE8
:1022F0001CC020E030E040E752E4C701B6010E9474
:102300008016181634F4C12CD12C30E7E32E32E4B9
:10231000F32EC0926801D0926901E0926A01F092B6
:102320006B0181E00E943F0977CCC12CD12C760152
:10233000F0CF68307105D9F56DEC7CEC8CEC9DE349
:10234000211104C06DEC7CEC8CEC9DEB20916401C0
:102350003091650140916601509167010E94BC1463
:102360006B017C0120E030E0A9010E94281587FD67
:102370001AC020E030E040EF51E4C701B6010E94EE
:102380008016181634F4C12CD12C20EFE22E21E453
:10239000F22EC0926401D0926501E0926601F09243
:1023A000670180E0BFCFC12CD12C7601F2CF6B301A
:1023B000710509F031CC6DEC7CEC8CEC9DE32111C6
:1023C00004C06DEC7CEC8CEC9DEB2091770530919A
:1023D00078054091790550917A050E94BC142B0133
:1023E0004C0120E030E0A9010E94281587FD2EC095
:1023F00080917B0590917C05D12CE12C049709F507
:1024000096E1F92E93E49C832D2D3E2D4F2D5C817A
:10241000B201C4010E948016181624F0D42CE52CB9
:10242000F82C9C828D2D9E2DAF2DBC81809377053D
:1024300090937805A0937905B0937A050E94770868
:10244000EBCB88E4F82EE3E4EC83DECFD12CE12C57
:10245000F12C1C82E7CF8130910509F079C0809181
:102460008305909184058230910509F448C074F485
:102470000097F1F1019709F0E0CB42E050E0509372
:102480008605409385050E94220AD7CB84309105AA
:1024900009F451C00CF442C0059709F0CECB8CE092
:1024A00090E090938605809385050E94DB0560E0AF
:1024B00080E00E94830687E694E00E94380561E090
:1024C00080E00E94830683E794E00E94380562E082
:1024D00080E00E9483068FE794E00E94380563E065
:1024E00080E00E94830687E094E00E943805A5CB37
:1024F00010928605109285050E94B10A9ECB10931A
:1025000086050093850580917505909176059093D9
:10251000800580937F050E942B078FCB86E090E09B
:1025200090938605809385051092800510927F0513
:102530000E94920682CBEAE0F0E0F0938605E093F9
:10254000850510927C0510927B050E94D80875CBFA
:102550008330910599F480917F0590918005909347
:1025600076058093750510927E0510927D05309258
:102570008605209285050E94DA065FCB843091059E
:1025800009F044C020917F053091800580917D0540
:1025900090917E054EE00097E9F4429FC001439F71
:1025A000900D1124865C9E4FFC0182819381A48151
:1025B000B5818093770590937805A0937905B093C2
:1025C0007A0525E030E030938605209385050E944A
:1025D000CF0933CB019769F4429FC001439F900D0F
:1025E0001124865C9E4FFC0186819781A085B18570
:1025F000E0CF429FC001439F900D1124865C9E4F07
:10260000FC0182859385A485B585D3CF853091055E
:1026100009F03FC080917F059091800520917D0554
:1026200030917E054091770550917805609179054C
:1026300070917A052115310571F4EEE0E89F900163
:10264000E99F300D1124265C3E4FF90142835383EC
:10265000648375838CCF2130310571F4EEE0E89FFF
:102660009001E99F300D1124265C3E4FF90146830D
:102670005783608771877BCF2EE0289FF001299FC9
:10268000F00D1124E65CFE4F4287538764877587FF
:102690006ECF86309105B1F580917F0590918005D0
:1026A000009761F41092740587E090E0909386059E
:1026B0008093850581E00E943F09BFCA019751F4CC
:1026C0001092740588E090E09093860580938505CC
:1026D00080E0F1CF80917205909173059093710520
:1026E00080937005F1E0F0936F05109280051092D1
:1026F0007F0589E090E090938605809385050E9490
:102700007B099BCA89309105B1F421E020937405BF
:1027100080917F059091800527E030E0892B11F0B2
:1027200028E030E0309386052093850581E027304E
:10273000310571F6C0CF8A309105B9F480917B05DF
:1027400090917C050E94D101609377057093780584
:102750008093790590937A058BE090E090938605BD
:10276000809385050E94770868CA8B30910509F02F
:102770004AC0409177055091780560917905709134
:102780007A0580917B0590917C058130910549F116
:102790005CF4892BB9F040931201509313016093BC
:1027A00014017093150116C08230910519F1039739
:1027B00091F740930E0150930F01609310017093B5
:1027C000110108C04093020150930301609304017A
:1027D000709305014AE050E05093860540938505CB
:1027E000B4CE4093060150930701609308017093A3
:1027F0000901F0CF40930A0150930B0160930C0143
:1028000070930D01E7CF9C0127503109223031052B
:1028100008F076C02091740589E090E0211102C093
:1028200086E090E09093860580938505222309F445
:102830007FCE65CF8130910529F4109286051092E4
:10284000850515CA84309105F9F410938605009327
:1028500085050E942B07F981F0936F01B0926E01FC
:10286000A0926D0170926C0164E170E080E090E0F4
:102870000E948F0180E090E0892B11F40C941C0CD5
:102880000E9400000C94170C85309105E9F53092F8
:102890008605209285050E94DA06DDCF0E94920609
:1028A000DACF8B30910549F48AE090E09093860569
:1028B000809385050E94D808CECF0997C1F4109265
:1028C0006F0580917005909171059C01215031092F
:1028D0002330310538F4909373058093720510927C
:1028E0007405ABCF1092730510927205F8CFE1E03A
:1028F000F0E0F0938605E09385050E946B07ABCF6F
:102900002A81222309F4A7CF9C01275031092230C4
:10291000310538F62091740589E090E0211102C05C
:1029200086E090E09093860580938505222309F444
:10293000B5CF0E947B098FCFEBEAF5E013821282BC
:1029400085EA91E09183808383E084838FEF8583A0
:1029500082E0868384E0878385E0808786E08187C4
:1029600087E082871386148615861686178661E0AF
:1029700080E10C94E3055058BB27AA270E94D3148A
:102980000C9446160E94381638F00E943F1620F02C
:1029900039F49F3F19F426F40C9435160EF4E095A3
:1029A000E7FB0C942F16E92F0E94571658F3BA171D
:1029B000620773078407950720F079F4A6F50C9455
:1029C00079160EF4E0950B2EBA2FA02D0B01B9014C
:1029D00090010C01CA01A0011124FF27591B99F095
:1029E000593F50F4503E68F11A16F040A22F232FA1
:1029F000342F4427585FF3CF469537952795A795F1
:102A0000F0405395C9F77EF41F16BA0B620B730B97
:102A1000840BBAF09150A1F0FF0FBB1F661F771F08
:102A2000881FC2F70EC0BA0F621F731F841F48F4BD
:102A3000879577956795B795F7959E3F08F0B0CF46
:102A40009395880F08F09927EE0F9795879508952D
:102A50000E940B1608F481E008950E9441150C9421
:102A600046160E943F1658F00E94381640F029F48E
:102A70005F3F29F00C942F1651110C947A160C9488
:102A800035160E94571668F39923B1F3552391F335
:102A9000951B550BBB27AA2762177307840738F0CD
:102AA0009F5F5F4F220F331F441FAA1FA9F335D02A
:102AB0000E2E3AF0E0E832D091505040E695001CDE
:102AC000CAF72BD0FE2F29D0660F771F881FBB1F98
:102AD000261737074807AB07B0E809F0BB0B802D76
:102AE000BF01FF2793585F4F3AF09E3F510578F0A2
:102AF0000C942F160C947A165F3FE4F3983ED4F3AF
:102B0000869577956795B795F7959F5FC9F7880F75
:102B1000911D9695879597F90895E1E0660F771FC7
:102B2000881FBB1F621773078407BA0720F0621B58
:102B3000730B840BBA0BEE1F88F7E09508950E9483
:102B40005F1688F09F5798F0B92F9927B751B0F0CA
:102B5000E1F0660F771F881F991F1AF0BA95C9F721
:102B600014C0B13091F00E947916B1E008950C9430
:102B70007916672F782F8827B85F39F0B93FCCF3E3
:102B8000869577956795B395D9F73EF4909580959E
:102B9000709561957F4F8F4F9F4F0895E89409C0BE
:102BA00097FB3EF490958095709561957F4F8F4F80
:102BB0009F4F9923A9F0F92F96E9BB279395F69596
:102BC000879577956795B795F111F8CFFAF4BB0F14
:102BD00011F460FF1BC06F5F7F4F8F4F9F4F16C078
:102BE000882311F096E911C0772321F09EE8872F02
:102BF000762F05C0662371F096E8862F70E060E0BE
:102C00002AF09A95660F771F881FDAF7880F969536
:102C1000879597F90895990F0008550FAA0BE0E8DA
:102C2000FEEF16161706E807F907C0F0121613068E
:102C3000E407F50798F0621B730B840B950B39F4CE
:102C40000A2661F0232B242B252B21F408950A2634
:102C500009F4A140A6958FEF811D811D089597F974
:102C60009F6780E870E060E008959FEF80EC089532
:102C700000240A941616170618060906089500245B
:102C80000A9412161306140605060895092E0394D5
:102C9000000C11F4882352F0BB0F40F4BF2B11F449
:102CA00060FF04C06F5F7F4F8F4F9F4F089557FDA8
:102CB0009058440F551F59F05F3F71F04795880FAA
:102CC00097FB991F61F09F3F79F087950895121641
:102CD00013061406551FF2CF4695F1DF08C01616ED
:102CE00017061806991FF1CF86957105610508949E
:102CF0000895E894BB2766277727CB0197F90895B5
:102D00000E940B1608F48FEF08950E9498160C94F9
:102D100046160E94381638F00E943F1620F0952380
:102D200011F00C942F160C94351611240C947A166D
:102D30000E94571670F3959FC1F3950F50E0551FF1
:102D4000629FF001729FBB27F00DB11D639FAA2700
:102D5000F00DB11DAA1F649F6627B00DA11D661F4F
:102D6000829F2227B00DA11D621F739FB00DA11D70
:102D7000621F839FA00D611D221F749F3327A00D2A
:102D8000611D231F849F600D211D822F762F6A2FC6
:102D900011249F5750409AF0F1F088234AF0EE0F2B
:102DA000FF1FBB1F661F771F881F91505040A9F758
:102DB0009E3F510580F00C942F160C947A165F3FBD
:102DC000E4F3983ED4F3869577956795B795F79594
:102DD000E7959F5FC1F7FE2B880F911D969587950C
:102DE00097F908950E940B16880B990B089597FB8D
:102DF000072E16F4009407D077FD09D00E942D17F6
:102E000007FC05D03EF4909581959F4F08957095ED
:102E100061957F4F0895A1E21A2EAA1BBB1BFD01ED
:102E20000DC0AA1FBB1FEE1FFF1FA217B307E407A9
:102E3000F50720F0A21BB30BE40BF50B661F771F01
:102E4000881F991F1A9469F76095709580959095E1
:102E50009B01AC01BD01CF010895AA1BBB1B51E131
:102E600007C0AA1FBB1FA617B70710F0A61BB70BFA
:102E7000881F991F5A95A9F780959095BC01CD019F
:102E80000895EE0FFF1F0590F491E02D0994F8943A
:102E9000FFCF0100000070420000A0400000804110
:102EA0000000F041000096420000A8410000A84147
:102EB0000000A8410000C8426F12833A00000000E1
:102EC000000000000000803F0AD7233C3205666600
:102ED00066419A9959410000A0413A059A99614189
:102EE000CDCC5C41000070413E0533336B410000A6
:102EF00058410000C8410000A040000040410101CD
:102F0000010101B902C402D402E402F7029C03AD3C
:102F100003BF0389049504A204AE04B704C204CC21
:102F200004D704DD04E704ED04F204FE040B0518E5
:102F300005260500000000A9078C00CE01CD013E4A
:102F4000204F757470757420566F6C7461676500DE
:102F500020204F757470757420566F6C74616765AE
:102F6000003E2043757272656E74204C696D697401
:102F700000202043757272656E74204C696D69740F
:102F8000003E200020200041637469766174652052
:102F90002A00416374697661746500504F57455249
:102FA00020535550504C59003E2042756C6B2056B2
:102FB0006F6C7461676500202042756C6B20566FE2
:102FC0006C74616765003E20466C6F617420566FBB
:102FD0006C74616765002020466C6F617420566FC9
:102FE0006C74616765003E204D6178204375727294
:102FF000656E740020204D61782043757272656E95
:1030000074002053455454494E4753004241545490
:103010004552592054595045004D41494E204D4587
:103020004E55006E616E00696E66006F7666002018
:103030004100204300205600534554200055502F96
:10304000444E204F4B3D53415645005056204D6154
:1030500078696D756D0042617474657279204D698F
:103060006E696D756D0042617474657279204D6191
:1030700078696D756D00436861726765204375728C
:1030800072656E74204D61780054656D7065726173
:1030900074757265204D6178696D756D0053595373
:1030A00054454D204C494D4954530055502F444EE2
:1030B000204F4B3D4544495400534554204F5554EF
:1030C00050555420564F4C544147450053455420C9
:1030D00043555252454E54204C494D4954003E20D0
:1030E000566F6C746167653A20002020566F6C74CF
:1030F0006167653A20003E2043757272656E743ACE
:103100002000202043757272656E743A200050537F
:103110005520414354495645202A004F4B3D4564B4
:103120006974204241434B3D4C65617665005345CF
:10313000542042554C4B20564F4C54414745005368
:10314000455420464C4F415420564F4C544147451E
:1031500000534554204D41582043555252454E543A
:10316000005053553A20434F4E5354414E5420562D
:103170002F49004D50505420535441545553005042
:103180005620503A005720443A0025005461726797
:1031900065743A0056200043204241434B3D4D6543
:1031A0006E75004E4F4E450049444C45004F4B3D17
:1031B0004D656E75004241434B3D52657365742009
:1031C0006661756C74004641554C543A2000505667
:1031D0003A004241543A00544956414E4120534F1F
:1031E0004C4152204D50505400496E697469616CD5
:1031F000697A696E672E2E2E0053595354454D201F
:10320000494E464F00546976616E61204D505054CE
:103210000056657273696F6E2031005056204F560C
:103220004552564F4C5400424154204F5645525639
:103230004F4C54004F56455243555252454E540040
:103240004F56455254454D50004E4F204241545424
:103250004552590042554C4B204D5050540041426C
:10326000534F525054494F4E00464C4F415400501A
:1032700053552043432F4356004641554C54004874
:103280006F6D65004D505054205374617475730018
:1032900042617474657279205479706500506F775B
:1032A000657220537570706C790053797374656D15
:1032B000204C696D6974730053797374656D20498E
:1032C0006E666F004C69746869756D0047656C00C7
:0A32D0004C656164204163696400ED
:107E0000112484B714BE81FFF0D085E080938100F7
:107E100082E08093C00088E18093C10086E0809377
:107E2000C20080E18093C4008EE0C9D0259A86E02C
:107E300020E33CEF91E0309385002093840096BBD3
:107E4000B09BFECF1D9AA8958150A9F7CC24DD24C4
:107E500088248394B5E0AB2EA1E19A2EF3E0BF2EE7
:107E6000A2D0813461F49FD0082FAFD0023811F036
:107E7000013811F484E001C083E08DD089C08234E0
:107E800011F484E103C0853419F485E0A6D080C0E4
:107E9000853579F488D0E82EFF2485D0082F10E0AE
:107EA000102F00270E291F29000F111F8ED06801E7
:107EB0006FC0863521F484E090D080E0DECF843638
:107EC00009F040C070D06FD0082F6DD080E0C81688
:107ED00080E7D80618F4F601B7BEE895C0E0D1E017
:107EE00062D089930C17E1F7F0E0CF16F0E7DF06D8
:107EF00018F0F601B7BEE89568D007B600FCFDCFD4
:107F0000A601A0E0B1E02C9130E011968C91119780
:107F100090E0982F8827822B932B1296FA010C0160
:107F200087BEE89511244E5F5F4FF1E0A038BF0790
:107F300051F7F601A7BEE89507B600FCFDCF97BE46
:107F4000E89526C08437B1F42ED02DD0F82E2BD052
:107F50003CD0F601EF2C8F010F5F1F4F84911BD097
:107F6000EA94F801C1F70894C11CD11CFA94CF0C13
:107F7000D11C0EC0853739F428D08EE10CD085E9AC
:107F80000AD08FE07ACF813511F488E018D01DD067
:107F900080E101D065CF982F8091C00085FFFCCF94
:107FA0009093C60008958091C00087FFFCCF809118
:107FB000C00084FD01C0A8958091C6000895E0E648
:107FC000F0E098E1908380830895EDDF803219F02E
:107FD00088E0F5DFFFCF84E1DECF1F93182FE3DFCA
:107FE0001150E9F7F2DF1F91089580E0E8DFEE27F6
:047FF000FF270994CA
:027FFE00040479
:00000001FF
